{
  "address": "0xA7e0051561D5b955F1014939FB54F71C7F4AEdF1",
  "abi": [
    {
      "inputs": [
        {
          "internalType": "address",
          "name": "owner_",
          "type": "address"
        },
        {
          "internalType": "address",
          "name": "defaultProvider_",
          "type": "address"
        },
        {
          "internalType": "string",
          "name": "baseURI_",
          "type": "string"
        },
        {
          "internalType": "string",
          "name": "contractURI_",
          "type": "string"
        },
        {
          "internalType": "string",
          "name": "name_",
          "type": "string"
        },
        {
          "internalType": "string",
          "name": "symbol_",
          "type": "string"
        }
      ],
      "stateMutability": "nonpayable",
      "type": "constructor"
    },
    {
      "inputs": [],
      "name": "AlreadyExistsError",
      "type": "error"
    },
    {
      "inputs": [],
      "name": "BookAlreadyOpened",
      "type": "error"
    },
    {
      "inputs": [],
      "name": "BookNotOpened",
      "type": "error"
    },
    {
      "inputs": [
        {
          "internalType": "uint64",
          "name": "maxCancelableUnit",
          "type": "uint64"
        }
      ],
      "name": "CancelFailed",
      "type": "error"
    },
    {
      "inputs": [],
      "name": "CurrencyNotSettled",
      "type": "error"
    },
    {
      "inputs": [
        {
          "internalType": "uint256",
          "name": "errorCode",
          "type": "uint256"
        }
      ],
      "name": "DirtyUint64Error",
      "type": "error"
    },
    {
      "inputs": [],
      "name": "ECDSAInvalidSignature",
      "type": "error"
    },
    {
      "inputs": [
        {
          "internalType": "uint256",
          "name": "length",
          "type": "uint256"
        }
      ],
      "name": "ECDSAInvalidSignatureLength",
      "type": "error"
    },
    {
      "inputs": [
        {
          "internalType": "bytes32",
          "name": "s",
          "type": "bytes32"
        }
      ],
      "name": "ECDSAInvalidSignatureS",
      "type": "error"
    },
    {
      "inputs": [],
      "name": "ERC20TransferFailed",
      "type": "error"
    },
    {
      "inputs": [
        {
          "internalType": "address",
          "name": "sender",
          "type": "address"
        },
        {
          "internalType": "uint256",
          "name": "tokenId",
          "type": "uint256"
        },
        {
          "internalType": "address",
          "name": "owner",
          "type": "address"
        }
      ],
      "name": "ERC721IncorrectOwner",
      "type": "error"
    },
    {
      "inputs": [
        {
          "internalType": "address",
          "name": "operator",
          "type": "address"
        },
        {
          "internalType": "uint256",
          "name": "tokenId",
          "type": "uint256"
        }
      ],
      "name": "ERC721InsufficientApproval",
      "type": "error"
    },
    {
      "inputs": [
        {
          "internalType": "address",
          "name": "approver",
          "type": "address"
        }
      ],
      "name": "ERC721InvalidApprover",
      "type": "error"
    },
    {
      "inputs": [
        {
          "internalType": "address",
          "name": "operator",
          "type": "address"
        }
      ],
      "name": "ERC721InvalidOperator",
      "type": "error"
    },
    {
      "inputs": [
        {
          "internalType": "address",
          "name": "owner",
          "type": "address"
        }
      ],
      "name": "ERC721InvalidOwner",
      "type": "error"
    },
    {
      "inputs": [
        {
          "internalType": "address",
          "name": "receiver",
          "type": "address"
        }
      ],
      "name": "ERC721InvalidReceiver",
      "type": "error"
    },
    {
      "inputs": [
        {
          "internalType": "address",
          "name": "sender",
          "type": "address"
        }
      ],
      "name": "ERC721InvalidSender",
      "type": "error"
    },
    {
      "inputs": [
        {
          "internalType": "uint256",
          "name": "tokenId",
          "type": "uint256"
        }
      ],
      "name": "ERC721NonexistentToken",
      "type": "error"
    },
    {
      "inputs": [],
      "name": "EmptyError",
      "type": "error"
    },
    {
      "inputs": [],
      "name": "FailedHookCall",
      "type": "error"
    },
    {
      "inputs": [
        {
          "internalType": "address",
          "name": "hooks",
          "type": "address"
        }
      ],
      "name": "HookAddressNotValid",
      "type": "error"
    },
    {
      "inputs": [],
      "name": "InvalidFeePolicy",
      "type": "error"
    },
    {
      "inputs": [],
      "name": "InvalidHookResponse",
      "type": "error"
    },
    {
      "inputs": [
        {
          "internalType": "address",
          "name": "provider",
          "type": "address"
        }
      ],
      "name": "InvalidProvider",
      "type": "error"
    },
    {
      "inputs": [],
      "name": "InvalidShortString",
      "type": "error"
    },
    {
      "inputs": [],
      "name": "InvalidSignature",
      "type": "error"
    },
    {
      "inputs": [],
      "name": "InvalidTick",
      "type": "error"
    },
    {
      "inputs": [],
      "name": "InvalidUnitSize",
      "type": "error"
    },
    {
      "inputs": [
        {
          "internalType": "address",
          "name": "locker",
          "type": "address"
        },
        {
          "internalType": "address",
          "name": "hook",
          "type": "address"
        }
      ],
      "name": "LockedBy",
      "type": "error"
    },
    {
      "inputs": [],
      "name": "NativeTransferFailed",
      "type": "error"
    },
    {
      "inputs": [
        {
          "internalType": "address",
          "name": "owner",
          "type": "address"
        }
      ],
      "name": "OwnableInvalidOwner",
      "type": "error"
    },
    {
      "inputs": [
        {
          "internalType": "address",
          "name": "account",
          "type": "address"
        }
      ],
      "name": "OwnableUnauthorizedAccount",
      "type": "error"
    },
    {
      "inputs": [
        {
          "internalType": "uint256",
          "name": "errorCode",
          "type": "uint256"
        }
      ],
      "name": "PackedUint256Error",
      "type": "error"
    },
    {
      "inputs": [],
      "name": "PermitExpired",
      "type": "error"
    },
    {
      "inputs": [],
      "name": "QueueReplaceFailed",
      "type": "error"
    },
    {
      "inputs": [
        {
          "internalType": "int256",
          "name": "value",
          "type": "int256"
        }
      ],
      "name": "SafeCastOverflowedIntToUint",
      "type": "error"
    },
    {
      "inputs": [
        {
          "internalType": "uint8",
          "name": "bits",
          "type": "uint8"
        },
        {
          "internalType": "uint256",
          "name": "value",
          "type": "uint256"
        }
      ],
      "name": "SafeCastOverflowedUintDowncast",
      "type": "error"
    },
    {
      "inputs": [
        {
          "internalType": "uint256",
          "name": "value",
          "type": "uint256"
        }
      ],
      "name": "SafeCastOverflowedUintToInt",
      "type": "error"
    },
    {
      "inputs": [
        {
          "internalType": "uint256",
          "name": "errorCode",
          "type": "uint256"
        }
      ],
      "name": "SegmentedSegmentTreeError",
      "type": "error"
    },
    {
      "inputs": [
        {
          "internalType": "string",
          "name": "str",
          "type": "string"
        }
      ],
      "name": "StringTooLong",
      "type": "error"
    },
    {
      "inputs": [],
      "name": "ZeroUnit",
      "type": "error"
    },
    {
      "anonymous": false,
      "inputs": [
        {
          "indexed": true,
          "internalType": "address",
          "name": "owner",
          "type": "address"
        },
        {
          "indexed": true,
          "internalType": "address",
          "name": "approved",
          "type": "address"
        },
        {
          "indexed": true,
          "internalType": "uint256",
          "name": "tokenId",
          "type": "uint256"
        }
      ],
      "name": "Approval",
      "type": "event"
    },
    {
      "anonymous": false,
      "inputs": [
        {
          "indexed": true,
          "internalType": "address",
          "name": "owner",
          "type": "address"
        },
        {
          "indexed": true,
          "internalType": "address",
          "name": "operator",
          "type": "address"
        },
        {
          "indexed": false,
          "internalType": "bool",
          "name": "approved",
          "type": "bool"
        }
      ],
      "name": "ApprovalForAll",
      "type": "event"
    },
    {
      "anonymous": false,
      "inputs": [
        {
          "indexed": true,
          "internalType": "OrderId",
          "name": "orderId",
          "type": "uint256"
        },
        {
          "indexed": false,
          "internalType": "uint64",
          "name": "unit",
          "type": "uint64"
        }
      ],
      "name": "Cancel",
      "type": "event"
    },
    {
      "anonymous": false,
      "inputs": [
        {
          "indexed": true,
          "internalType": "OrderId",
          "name": "orderId",
          "type": "uint256"
        },
        {
          "indexed": false,
          "internalType": "uint64",
          "name": "unit",
          "type": "uint64"
        }
      ],
      "name": "Claim",
      "type": "event"
    },
    {
      "anonymous": false,
      "inputs": [
        {
          "indexed": true,
          "internalType": "address",
          "name": "provider",
          "type": "address"
        },
        {
          "indexed": true,
          "internalType": "address",
          "name": "recipient",
          "type": "address"
        },
        {
          "indexed": true,
          "internalType": "Currency",
          "name": "currency",
          "type": "address"
        },
        {
          "indexed": false,
          "internalType": "uint256",
          "name": "amount",
          "type": "uint256"
        }
      ],
      "name": "Collect",
      "type": "event"
    },
    {
      "anonymous": false,
      "inputs": [
        {
          "indexed": true,
          "internalType": "address",
          "name": "provider",
          "type": "address"
        }
      ],
      "name": "Delist",
      "type": "event"
    },
    {
      "anonymous": false,
      "inputs": [],
      "name": "EIP712DomainChanged",
      "type": "event"
    },
    {
      "anonymous": false,
      "inputs": [
        {
          "indexed": true,
          "internalType": "BookId",
          "name": "bookId",
          "type": "uint192"
        },
        {
          "indexed": true,
          "internalType": "address",
          "name": "user",
          "type": "address"
        },
        {
          "indexed": false,
          "internalType": "Tick",
          "name": "tick",
          "type": "int24"
        },
        {
          "indexed": false,
          "internalType": "uint256",
          "name": "orderIndex",
          "type": "uint256"
        },
        {
          "indexed": false,
          "internalType": "uint64",
          "name": "unit",
          "type": "uint64"
        },
        {
          "indexed": false,
          "internalType": "address",
          "name": "provider",
          "type": "address"
        }
      ],
      "name": "Make",
      "type": "event"
    },
    {
      "anonymous": false,
      "inputs": [
        {
          "indexed": true,
          "internalType": "BookId",
          "name": "id",
          "type": "uint192"
        },
        {
          "indexed": true,
          "internalType": "Currency",
          "name": "base",
          "type": "address"
        },
        {
          "indexed": true,
          "internalType": "Currency",
          "name": "quote",
          "type": "address"
        },
        {
          "indexed": false,
          "internalType": "uint64",
          "name": "unitSize",
          "type": "uint64"
        },
        {
          "indexed": false,
          "internalType": "FeePolicy",
          "name": "makerPolicy",
          "type": "uint24"
        },
        {
          "indexed": false,
          "internalType": "FeePolicy",
          "name": "takerPolicy",
          "type": "uint24"
        },
        {
          "indexed": false,
          "internalType": "contract IHooks",
          "name": "hooks",
          "type": "address"
        }
      ],
      "name": "Open",
      "type": "event"
    },
    {
      "anonymous": false,
      "inputs": [
        {
          "indexed": true,
          "internalType": "address",
          "name": "previousOwner",
          "type": "address"
        },
        {
          "indexed": true,
          "internalType": "address",
          "name": "newOwner",
          "type": "address"
        }
      ],
      "name": "OwnershipTransferStarted",
      "type": "event"
    },
    {
      "anonymous": false,
      "inputs": [
        {
          "indexed": true,
          "internalType": "address",
          "name": "previousOwner",
          "type": "address"
        },
        {
          "indexed": true,
          "internalType": "address",
          "name": "newOwner",
          "type": "address"
        }
      ],
      "name": "OwnershipTransferred",
      "type": "event"
    },
    {
      "anonymous": false,
      "inputs": [
        {
          "indexed": true,
          "internalType": "address",
          "name": "newDefaultProvider",
          "type": "address"
        }
      ],
      "name": "SetDefaultProvider",
      "type": "event"
    },
    {
      "anonymous": false,
      "inputs": [
        {
          "indexed": true,
          "internalType": "BookId",
          "name": "bookId",
          "type": "uint192"
        },
        {
          "indexed": true,
          "internalType": "address",
          "name": "user",
          "type": "address"
        },
        {
          "indexed": false,
          "internalType": "Tick",
          "name": "tick",
          "type": "int24"
        },
        {
          "indexed": false,
          "internalType": "uint64",
          "name": "unit",
          "type": "uint64"
        }
      ],
      "name": "Take",
      "type": "event"
    },
    {
      "anonymous": false,
      "inputs": [
        {
          "indexed": true,
          "internalType": "address",
          "name": "from",
          "type": "address"
        },
        {
          "indexed": true,
          "internalType": "address",
          "name": "to",
          "type": "address"
        },
        {
          "indexed": true,
          "internalType": "uint256",
          "name": "tokenId",
          "type": "uint256"
        }
      ],
      "name": "Transfer",
      "type": "event"
    },
    {
      "anonymous": false,
      "inputs": [
        {
          "indexed": true,
          "internalType": "address",
          "name": "provider",
          "type": "address"
        }
      ],
      "name": "Whitelist",
      "type": "event"
    },
    {
      "inputs": [],
      "name": "DOMAIN_SEPARATOR",
      "outputs": [
        {
          "internalType": "bytes32",
          "name": "",
          "type": "bytes32"
        }
      ],
      "stateMutability": "view",
      "type": "function"
    },
    {
      "inputs": [],
      "name": "PERMIT_TYPEHASH",
      "outputs": [
        {
          "internalType": "bytes32",
          "name": "",
          "type": "bytes32"
        }
      ],
      "stateMutability": "view",
      "type": "function"
    },
    {
      "inputs": [],
      "name": "acceptOwnership",
      "outputs": [],
      "stateMutability": "nonpayable",
      "type": "function"
    },
    {
      "inputs": [
        {
          "internalType": "address",
          "name": "to",
          "type": "address"
        },
        {
          "internalType": "uint256",
          "name": "tokenId",
          "type": "uint256"
        }
      ],
      "name": "approve",
      "outputs": [],
      "stateMutability": "nonpayable",
      "type": "function"
    },
    {
      "inputs": [
        {
          "internalType": "address",
          "name": "owner",
          "type": "address"
        }
      ],
      "name": "balanceOf",
      "outputs": [
        {
          "internalType": "uint256",
          "name": "",
          "type": "uint256"
        }
      ],
      "stateMutability": "view",
      "type": "function"
    },
    {
      "inputs": [],
      "name": "baseURI",
      "outputs": [
        {
          "internalType": "string",
          "name": "",
          "type": "string"
        }
      ],
      "stateMutability": "view",
      "type": "function"
    },
    {
      "inputs": [
        {
          "components": [
            {
              "internalType": "OrderId",
              "name": "id",
              "type": "uint256"
            },
            {
              "internalType": "uint64",
              "name": "toUnit",
              "type": "uint64"
            }
          ],
          "internalType": "struct IBookManager.CancelParams",
          "name": "params",
          "type": "tuple"
        },
        {
          "internalType": "bytes",
          "name": "hookData",
          "type": "bytes"
        }
      ],
      "name": "cancel",
      "outputs": [
        {
          "internalType": "uint256",
          "name": "canceledAmount",
          "type": "uint256"
        }
      ],
      "stateMutability": "nonpayable",
      "type": "function"
    },
    {
      "inputs": [
        {
          "internalType": "address",
          "name": "owner",
          "type": "address"
        },
        {
          "internalType": "address",
          "name": "spender",
          "type": "address"
        },
        {
          "internalType": "uint256",
          "name": "tokenId",
          "type": "uint256"
        }
      ],
      "name": "checkAuthorized",
      "outputs": [],
      "stateMutability": "view",
      "type": "function"
    },
    {
      "inputs": [
        {
          "internalType": "OrderId",
          "name": "id",
          "type": "uint256"
        },
        {
          "internalType": "bytes",
          "name": "hookData",
          "type": "bytes"
        }
      ],
      "name": "claim",
      "outputs": [
        {
          "internalType": "uint256",
          "name": "claimedAmount",
          "type": "uint256"
        }
      ],
      "stateMutability": "nonpayable",
      "type": "function"
    },
    {
      "inputs": [
        {
          "internalType": "address",
          "name": "recipient",
          "type": "address"
        },
        {
          "internalType": "Currency",
          "name": "currency",
          "type": "address"
        }
      ],
      "name": "collect",
      "outputs": [
        {
          "internalType": "uint256",
          "name": "amount",
          "type": "uint256"
        }
      ],
      "stateMutability": "nonpayable",
      "type": "function"
    },
    {
      "inputs": [],
      "name": "contractURI",
      "outputs": [
        {
          "internalType": "string",
          "name": "",
          "type": "string"
        }
      ],
      "stateMutability": "view",
      "type": "function"
    },
    {
      "inputs": [],
      "name": "defaultProvider",
      "outputs": [
        {
          "internalType": "address",
          "name": "",
          "type": "address"
        }
      ],
      "stateMutability": "view",
      "type": "function"
    },
    {
      "inputs": [
        {
          "internalType": "address",
          "name": "provider",
          "type": "address"
        }
      ],
      "name": "delist",
      "outputs": [],
      "stateMutability": "nonpayable",
      "type": "function"
    },
    {
      "inputs": [],
      "name": "eip712Domain",
      "outputs": [
        {
          "internalType": "bytes1",
          "name": "fields",
          "type": "bytes1"
        },
        {
          "internalType": "string",
          "name": "name",
          "type": "string"
        },
        {
          "internalType": "string",
          "name": "version",
          "type": "string"
        },
        {
          "internalType": "uint256",
          "name": "chainId",
          "type": "uint256"
        },
        {
          "internalType": "address",
          "name": "verifyingContract",
          "type": "address"
        },
        {
          "internalType": "bytes32",
          "name": "salt",
          "type": "bytes32"
        },
        {
          "internalType": "uint256[]",
          "name": "extensions",
          "type": "uint256[]"
        }
      ],
      "stateMutability": "view",
      "type": "function"
    },
    {
      "inputs": [
        {
          "components": [
            {
              "internalType": "Currency",
              "name": "base",
              "type": "address"
            },
            {
              "internalType": "uint64",
              "name": "unitSize",
              "type": "uint64"
            },
            {
              "internalType": "Currency",
              "name": "quote",
              "type": "address"
            },
            {
              "internalType": "FeePolicy",
              "name": "makerPolicy",
              "type": "uint24"
            },
            {
              "internalType": "contract IHooks",
              "name": "hooks",
              "type": "address"
            },
            {
              "internalType": "FeePolicy",
              "name": "takerPolicy",
              "type": "uint24"
            }
          ],
          "internalType": "struct IBookManager.BookKey",
          "name": "key",
          "type": "tuple"
        }
      ],
      "name": "encodeBookKey",
      "outputs": [
        {
          "internalType": "BookId",
          "name": "",
          "type": "uint192"
        }
      ],
      "stateMutability": "pure",
      "type": "function"
    },
    {
      "inputs": [
        {
          "internalType": "uint256",
          "name": "tokenId",
          "type": "uint256"
        }
      ],
      "name": "getApproved",
      "outputs": [
        {
          "internalType": "address",
          "name": "",
          "type": "address"
        }
      ],
      "stateMutability": "view",
      "type": "function"
    },
    {
      "inputs": [
        {
          "internalType": "BookId",
          "name": "id",
          "type": "uint192"
        }
      ],
      "name": "getBookKey",
      "outputs": [
        {
          "components": [
            {
              "internalType": "Currency",
              "name": "base",
              "type": "address"
            },
            {
              "internalType": "uint64",
              "name": "unitSize",
              "type": "uint64"
            },
            {
              "internalType": "Currency",
              "name": "quote",
              "type": "address"
            },
            {
              "internalType": "FeePolicy",
              "name": "makerPolicy",
              "type": "uint24"
            },
            {
              "internalType": "contract IHooks",
              "name": "hooks",
              "type": "address"
            },
            {
              "internalType": "FeePolicy",
              "name": "takerPolicy",
              "type": "uint24"
            }
          ],
          "internalType": "struct IBookManager.BookKey",
          "name": "",
          "type": "tuple"
        }
      ],
      "stateMutability": "view",
      "type": "function"
    },
    {
      "inputs": [
        {
          "internalType": "address",
          "name": "locker",
          "type": "address"
        },
        {
          "internalType": "Currency",
          "name": "currency",
          "type": "address"
        }
      ],
      "name": "getCurrencyDelta",
      "outputs": [
        {
          "internalType": "int256",
          "name": "",
          "type": "int256"
        }
      ],
      "stateMutability": "view",
      "type": "function"
    },
    {
      "inputs": [
        {
          "internalType": "BookId",
          "name": "id",
          "type": "uint192"
        },
        {
          "internalType": "Tick",
          "name": "tick",
          "type": "int24"
        }
      ],
      "name": "getDepth",
      "outputs": [
        {
          "internalType": "uint64",
          "name": "",
          "type": "uint64"
        }
      ],
      "stateMutability": "view",
      "type": "function"
    },
    {
      "inputs": [
        {
          "internalType": "BookId",
          "name": "id",
          "type": "uint192"
        }
      ],
      "name": "getHighest",
      "outputs": [
        {
          "internalType": "Tick",
          "name": "",
          "type": "int24"
        }
      ],
      "stateMutability": "view",
      "type": "function"
    },
    {
      "inputs": [
        {
          "internalType": "uint256",
          "name": "i",
          "type": "uint256"
        }
      ],
      "name": "getLock",
      "outputs": [
        {
          "internalType": "address",
          "name": "",
          "type": "address"
        },
        {
          "internalType": "address",
          "name": "",
          "type": "address"
        }
      ],
      "stateMutability": "view",
      "type": "function"
    },
    {
      "inputs": [],
      "name": "getLockData",
      "outputs": [
        {
          "internalType": "uint128",
          "name": "",
          "type": "uint128"
        },
        {
          "internalType": "uint128",
          "name": "",
          "type": "uint128"
        }
      ],
      "stateMutability": "view",
      "type": "function"
    },
    {
      "inputs": [
        {
          "internalType": "OrderId",
          "name": "id",
          "type": "uint256"
        }
      ],
      "name": "getOrder",
      "outputs": [
        {
          "components": [
            {
              "internalType": "address",
              "name": "provider",
              "type": "address"
            },
            {
              "internalType": "uint64",
              "name": "open",
              "type": "uint64"
            },
            {
              "internalType": "uint64",
              "name": "claimable",
              "type": "uint64"
            }
          ],
          "internalType": "struct IBookManager.OrderInfo",
          "name": "",
          "type": "tuple"
        }
      ],
      "stateMutability": "view",
      "type": "function"
    },
    {
      "inputs": [
        {
          "internalType": "address",
          "name": "owner",
          "type": "address"
        },
        {
          "internalType": "address",
          "name": "operator",
          "type": "address"
        }
      ],
      "name": "isApprovedForAll",
      "outputs": [
        {
          "internalType": "bool",
          "name": "",
          "type": "bool"
        }
      ],
      "stateMutability": "view",
      "type": "function"
    },
    {
      "inputs": [
        {
          "internalType": "BookId",
          "name": "id",
          "type": "uint192"
        }
      ],
      "name": "isEmpty",
      "outputs": [
        {
          "internalType": "bool",
          "name": "",
          "type": "bool"
        }
      ],
      "stateMutability": "view",
      "type": "function"
    },
    {
      "inputs": [
        {
          "internalType": "BookId",
          "name": "id",
          "type": "uint192"
        }
      ],
      "name": "isOpened",
      "outputs": [
        {
          "internalType": "bool",
          "name": "",
          "type": "bool"
        }
      ],
      "stateMutability": "view",
      "type": "function"
    },
    {
      "inputs": [
        {
          "internalType": "address",
          "name": "provider",
          "type": "address"
        }
      ],
      "name": "isWhitelisted",
      "outputs": [
        {
          "internalType": "bool",
          "name": "",
          "type": "bool"
        }
      ],
      "stateMutability": "view",
      "type": "function"
    },
    {
      "inputs": [
        {
          "internalType": "bytes32",
          "name": "slot",
          "type": "bytes32"
        }
      ],
      "name": "load",
      "outputs": [
        {
          "internalType": "bytes32",
          "name": "value",
          "type": "bytes32"
        }
      ],
      "stateMutability": "view",
      "type": "function"
    },
    {
      "inputs": [
        {
          "internalType": "bytes32",
          "name": "startSlot",
          "type": "bytes32"
        },
        {
          "internalType": "uint256",
          "name": "nSlot",
          "type": "uint256"
        }
      ],
      "name": "load",
      "outputs": [
        {
          "internalType": "bytes",
          "name": "value",
          "type": "bytes"
        }
      ],
      "stateMutability": "view",
      "type": "function"
    },
    {
      "inputs": [
        {
          "internalType": "address",
          "name": "locker",
          "type": "address"
        },
        {
          "internalType": "bytes",
          "name": "data",
          "type": "bytes"
        }
      ],
      "name": "lock",
      "outputs": [
        {
          "internalType": "bytes",
          "name": "result",
          "type": "bytes"
        }
      ],
      "stateMutability": "nonpayable",
      "type": "function"
    },
    {
      "inputs": [
        {
          "components": [
            {
              "components": [
                {
                  "internalType": "Currency",
                  "name": "base",
                  "type": "address"
                },
                {
                  "internalType": "uint64",
                  "name": "unitSize",
                  "type": "uint64"
                },
                {
                  "internalType": "Currency",
                  "name": "quote",
                  "type": "address"
                },
                {
                  "internalType": "FeePolicy",
                  "name": "makerPolicy",
                  "type": "uint24"
                },
                {
                  "internalType": "contract IHooks",
                  "name": "hooks",
                  "type": "address"
                },
                {
                  "internalType": "FeePolicy",
                  "name": "takerPolicy",
                  "type": "uint24"
                }
              ],
              "internalType": "struct IBookManager.BookKey",
              "name": "key",
              "type": "tuple"
            },
            {
              "internalType": "Tick",
              "name": "tick",
              "type": "int24"
            },
            {
              "internalType": "uint64",
              "name": "unit",
              "type": "uint64"
            },
            {
              "internalType": "address",
              "name": "provider",
              "type": "address"
            }
          ],
          "internalType": "struct IBookManager.MakeParams",
          "name": "params",
          "type": "tuple"
        },
        {
          "internalType": "bytes",
          "name": "hookData",
          "type": "bytes"
        }
      ],
      "name": "make",
      "outputs": [
        {
          "internalType": "OrderId",
          "name": "id",
          "type": "uint256"
        },
        {
          "internalType": "uint256",
          "name": "quoteAmount",
          "type": "uint256"
        }
      ],
      "stateMutability": "nonpayable",
      "type": "function"
    },
    {
      "inputs": [
        {
          "internalType": "BookId",
          "name": "id",
          "type": "uint192"
        },
        {
          "internalType": "Tick",
          "name": "tick",
          "type": "int24"
        }
      ],
      "name": "maxLessThan",
      "outputs": [
        {
          "internalType": "Tick",
          "name": "",
          "type": "int24"
        }
      ],
      "stateMutability": "view",
      "type": "function"
    },
    {
      "inputs": [],
      "name": "name",
      "outputs": [
        {
          "internalType": "string",
          "name": "",
          "type": "string"
        }
      ],
      "stateMutability": "view",
      "type": "function"
    },
    {
      "inputs": [
        {
          "internalType": "uint256",
          "name": "id",
          "type": "uint256"
        }
      ],
      "name": "nonces",
      "outputs": [
        {
          "internalType": "uint256",
          "name": "",
          "type": "uint256"
        }
      ],
      "stateMutability": "view",
      "type": "function"
    },
    {
      "inputs": [
        {
          "components": [
            {
              "internalType": "Currency",
              "name": "base",
              "type": "address"
            },
            {
              "internalType": "uint64",
              "name": "unitSize",
              "type": "uint64"
            },
            {
              "internalType": "Currency",
              "name": "quote",
              "type": "address"
            },
            {
              "internalType": "FeePolicy",
              "name": "makerPolicy",
              "type": "uint24"
            },
            {
              "internalType": "contract IHooks",
              "name": "hooks",
              "type": "address"
            },
            {
              "internalType": "FeePolicy",
              "name": "takerPolicy",
              "type": "uint24"
            }
          ],
          "internalType": "struct IBookManager.BookKey",
          "name": "key",
          "type": "tuple"
        },
        {
          "internalType": "bytes",
          "name": "hookData",
          "type": "bytes"
        }
      ],
      "name": "open",
      "outputs": [],
      "stateMutability": "nonpayable",
      "type": "function"
    },
    {
      "inputs": [],
      "name": "owner",
      "outputs": [
        {
          "internalType": "address",
          "name": "",
          "type": "address"
        }
      ],
      "stateMutability": "view",
      "type": "function"
    },
    {
      "inputs": [
        {
          "internalType": "uint256",
          "name": "tokenId",
          "type": "uint256"
        }
      ],
      "name": "ownerOf",
      "outputs": [
        {
          "internalType": "address",
          "name": "",
          "type": "address"
        }
      ],
      "stateMutability": "view",
      "type": "function"
    },
    {
      "inputs": [],
      "name": "pendingOwner",
      "outputs": [
        {
          "internalType": "address",
          "name": "",
          "type": "address"
        }
      ],
      "stateMutability": "view",
      "type": "function"
    },
    {
      "inputs": [
        {
          "internalType": "address",
          "name": "spender",
          "type": "address"
        },
        {
          "internalType": "uint256",
          "name": "tokenId",
          "type": "uint256"
        },
        {
          "internalType": "uint256",
          "name": "deadline",
          "type": "uint256"
        },
        {
          "internalType": "uint8",
          "name": "v",
          "type": "uint8"
        },
        {
          "internalType": "bytes32",
          "name": "r",
          "type": "bytes32"
        },
        {
          "internalType": "bytes32",
          "name": "s",
          "type": "bytes32"
        }
      ],
      "name": "permit",
      "outputs": [],
      "stateMutability": "nonpayable",
      "type": "function"
    },
    {
      "inputs": [],
      "name": "renounceOwnership",
      "outputs": [],
      "stateMutability": "nonpayable",
      "type": "function"
    },
    {
      "inputs": [
        {
          "internalType": "Currency",
          "name": "currency",
          "type": "address"
        }
      ],
      "name": "reservesOf",
      "outputs": [
        {
          "internalType": "uint256",
          "name": "",
          "type": "uint256"
        }
      ],
      "stateMutability": "view",
      "type": "function"
    },
    {
      "inputs": [
        {
          "internalType": "address",
          "name": "from",
          "type": "address"
        },
        {
          "internalType": "address",
          "name": "to",
          "type": "address"
        },
        {
          "internalType": "uint256",
          "name": "tokenId",
          "type": "uint256"
        }
      ],
      "name": "safeTransferFrom",
      "outputs": [],
      "stateMutability": "nonpayable",
      "type": "function"
    },
    {
      "inputs": [
        {
          "internalType": "address",
          "name": "from",
          "type": "address"
        },
        {
          "internalType": "address",
          "name": "to",
          "type": "address"
        },
        {
          "internalType": "uint256",
          "name": "tokenId",
          "type": "uint256"
        },
        {
          "internalType": "bytes",
          "name": "data",
          "type": "bytes"
        }
      ],
      "name": "safeTransferFrom",
      "outputs": [],
      "stateMutability": "nonpayable",
      "type": "function"
    },
    {
      "inputs": [
        {
          "internalType": "address",
          "name": "operator",
          "type": "address"
        },
        {
          "internalType": "bool",
          "name": "approved",
          "type": "bool"
        }
      ],
      "name": "setApprovalForAll",
      "outputs": [],
      "stateMutability": "nonpayable",
      "type": "function"
    },
    {
      "inputs": [
        {
          "internalType": "address",
          "name": "newDefaultProvider",
          "type": "address"
        }
      ],
      "name": "setDefaultProvider",
      "outputs": [],
      "stateMutability": "nonpayable",
      "type": "function"
    },
    {
      "inputs": [
        {
          "internalType": "Currency",
          "name": "currency",
          "type": "address"
        }
      ],
      "name": "settle",
      "outputs": [
        {
          "internalType": "uint256",
          "name": "paid",
          "type": "uint256"
        }
      ],
      "stateMutability": "payable",
      "type": "function"
    },
    {
      "inputs": [
        {
          "internalType": "bytes4",
          "name": "interfaceId",
          "type": "bytes4"
        }
      ],
      "name": "supportsInterface",
      "outputs": [
        {
          "internalType": "bool",
          "name": "",
          "type": "bool"
        }
      ],
      "stateMutability": "view",
      "type": "function"
    },
    {
      "inputs": [],
      "name": "symbol",
      "outputs": [
        {
          "internalType": "string",
          "name": "",
          "type": "string"
        }
      ],
      "stateMutability": "view",
      "type": "function"
    },
    {
      "inputs": [
        {
          "components": [
            {
              "components": [
                {
                  "internalType": "Currency",
                  "name": "base",
                  "type": "address"
                },
                {
                  "internalType": "uint64",
                  "name": "unitSize",
                  "type": "uint64"
                },
                {
                  "internalType": "Currency",
                  "name": "quote",
                  "type": "address"
                },
                {
                  "internalType": "FeePolicy",
                  "name": "makerPolicy",
                  "type": "uint24"
                },
                {
                  "internalType": "contract IHooks",
                  "name": "hooks",
                  "type": "address"
                },
                {
                  "internalType": "FeePolicy",
                  "name": "takerPolicy",
                  "type": "uint24"
                }
              ],
              "internalType": "struct IBookManager.BookKey",
              "name": "key",
              "type": "tuple"
            },
            {
              "internalType": "Tick",
              "name": "tick",
              "type": "int24"
            },
            {
              "internalType": "uint64",
              "name": "maxUnit",
              "type": "uint64"
            }
          ],
          "internalType": "struct IBookManager.TakeParams",
          "name": "params",
          "type": "tuple"
        },
        {
          "internalType": "bytes",
          "name": "hookData",
          "type": "bytes"
        }
      ],
      "name": "take",
      "outputs": [
        {
          "internalType": "uint256",
          "name": "quoteAmount",
          "type": "uint256"
        },
        {
          "internalType": "uint256",
          "name": "baseAmount",
          "type": "uint256"
        }
      ],
      "stateMutability": "nonpayable",
      "type": "function"
    },
    {
      "inputs": [
        {
          "internalType": "address",
          "name": "provider",
          "type": "address"
        },
        {
          "internalType": "Currency",
          "name": "currency",
          "type": "address"
        }
      ],
      "name": "tokenOwed",
      "outputs": [
        {
          "internalType": "uint256",
          "name": "amount",
          "type": "uint256"
        }
      ],
      "stateMutability": "view",
      "type": "function"
    },
    {
      "inputs": [
        {
          "internalType": "uint256",
          "name": "tokenId",
          "type": "uint256"
        }
      ],
      "name": "tokenURI",
      "outputs": [
        {
          "internalType": "string",
          "name": "",
          "type": "string"
        }
      ],
      "stateMutability": "view",
      "type": "function"
    },
    {
      "inputs": [
        {
          "internalType": "address",
          "name": "from",
          "type": "address"
        },
        {
          "internalType": "address",
          "name": "to",
          "type": "address"
        },
        {
          "internalType": "uint256",
          "name": "tokenId",
          "type": "uint256"
        }
      ],
      "name": "transferFrom",
      "outputs": [],
      "stateMutability": "nonpayable",
      "type": "function"
    },
    {
      "inputs": [
        {
          "internalType": "address",
          "name": "newOwner",
          "type": "address"
        }
      ],
      "name": "transferOwnership",
      "outputs": [],
      "stateMutability": "nonpayable",
      "type": "function"
    },
    {
      "inputs": [
        {
          "internalType": "address",
          "name": "provider",
          "type": "address"
        }
      ],
      "name": "whitelist",
      "outputs": [],
      "stateMutability": "nonpayable",
      "type": "function"
    },
    {
      "inputs": [
        {
          "internalType": "Currency",
          "name": "currency",
          "type": "address"
        },
        {
          "internalType": "address",
          "name": "to",
          "type": "address"
        },
        {
          "internalType": "uint256",
          "name": "amount",
          "type": "uint256"
        }
      ],
      "name": "withdraw",
      "outputs": [],
      "stateMutability": "nonpayable",
      "type": "function"
    },
    {
      "stateMutability": "payable",
      "type": "receive"
    }
  ],
  "transactionHash": "0x00c1725bb98294485b77449d7288f7cc99b534960c2e38eef118b7669e7a3864",
  "args": [
    "0x5F79EE8f8fA862E98201120d83c4eC39D9468D49",
    "0x5F79EE8f8fA862E98201120d83c4eC39D9468D49",
    "baseURI",
    "contractURI",
    "Clober Orderbook Maker Order",
    "CLOB-ORDER"
  ],
  "numDeployments": 1,
  "solcInputHash": "70f6db036da4d3450c83220bf22f7ac0",
  "bytecode": "0x61016060405234801562000011575f80fd5b5060405162007140380380620071408339810160408190526200003491620003b1565b6040805180820190915260018152601960f91b60208201528290829082818a82855f62000062838262000511565b50600162000071828262000511565b5050506001600160a01b038116620000a357604051631e4fbdf760e01b81525f60048201526024015b60405180910390fd5b620000ae816200019d565b50620000bc826007620001bb565b61012052620000cd816008620001bb565b61014052815160208084019190912060e052815190820120610100524660a0526200015a60e05161010051604080517f8b73c3c69bb8fe3d512ecc4cf759cc79239f7b179b0ffacaa9a75d522b39400f60208201529081019290925260608201524660808201523060a08201525f9060c00160405160208183030381529060405280519060200120905090565b60805250503060c05250620001739150869050620001f3565b600a62000181858262000511565b50600b62000190848262000511565b5050505050505062000635565b600680546001600160a01b0319169055620001b8816200023c565b50565b5f602083511015620001da57620001d2836200028d565b9050620001ed565b81620001e7848262000511565b5060ff90505b92915050565b600c80546001600160a01b0319166001600160a01b0383169081179091556040517fef673bbfc2ac7e4d4b810bffda0b15a1f2b48c2aa4d178d3fca87d0d1f337062905f90a250565b600580546001600160a01b038381166001600160a01b0319831681179093556040519116919082907f8be0079c531659141344cd1fd0a4f28419497f9722a3daafe3b4186f6b6457e0905f90a35050565b5f80829050601f81511115620002ba578260405163305a27a960e01b81526004016200009a9190620005dd565b8051620002c78262000611565b179392505050565b80516001600160a01b0381168114620002e6575f80fd5b919050565b634e487b7160e01b5f52604160045260245ffd5b5f5b838110156200031b57818101518382015260200162000301565b50505f910152565b5f82601f83011262000333575f80fd5b81516001600160401b0380821115620003505762000350620002eb565b604051601f8301601f19908116603f011681019082821181831017156200037b576200037b620002eb565b8160405283815286602085880101111562000394575f80fd5b620003a7846020830160208901620002ff565b9695505050505050565b5f805f805f8060c08789031215620003c7575f80fd5b620003d287620002cf565b9550620003e260208801620002cf565b60408801519095506001600160401b0380821115620003ff575f80fd5b6200040d8a838b0162000323565b9550606089015191508082111562000423575f80fd5b620004318a838b0162000323565b9450608089015191508082111562000447575f80fd5b620004558a838b0162000323565b935060a08901519150808211156200046b575f80fd5b506200047a89828a0162000323565b9150509295509295509295565b600181811c908216806200049c57607f821691505b602082108103620004bb57634e487b7160e01b5f52602260045260245ffd5b50919050565b601f8211156200050c57805f5260205f20601f840160051c81016020851015620004e85750805b601f840160051c820191505b8181101562000509575f8155600101620004f4565b50505b505050565b81516001600160401b038111156200052d576200052d620002eb565b62000545816200053e845462000487565b84620004c1565b602080601f8311600181146200057b575f8415620005635750858301515b5f19600386901b1c1916600185901b178555620005d5565b5f85815260208120601f198616915b82811015620005ab578886015182559484019460019091019084016200058a565b5085821015620005c957878501515f19600388901b60f8161c191681555b505060018460011b0185555b505050505050565b602081525f8251806020840152620005fd816040850160208701620002ff565b601f01601f19169190910160400192915050565b80516020808301519190811015620004bb575f1960209190910360031b1b16919050565b60805160a05160c05160e051610100516101205161014051616ab9620006875f395f61389f01525f61387201525f61324d01525f61322501525f61318001525f6131aa01525f6131d40152616ab95ff3fe608060405260043610610353575f3560e01c80637ac2ff7b116101bd578063cdc92f2d116100f2578063e8a3d48511610092578063f2fde38b1161006d578063f2fde38b14610bcd578063f86a11b314610bec578063fcc8fc9b14610c0b578063fefc7c5114610c2a575f80fd5b8063e8a3d48514610b54578063e985e9c514610b68578063f035079914610baf575f80fd5b8063d83747e8116100cd578063d83747e814610ada578063d9caed1214610af9578063de4478ec14610b18578063e30c397814610b37575f80fd5b8063cdc92f2d146109d6578063d09ef241146109f5578063d68f4dd114610a50575f80fd5b80639b22917d1161015d578063a179dadc11610138578063a179dadc14610947578063a22cb46514610979578063b88d4fde14610998578063c87b56dd146109b7575f80fd5b80639b22917d1461082d5780639ca1799814610909578063a12ef25e14610928575f80fd5b806393c85a211161019857806393c85a21146107b057806395d89b41146107db5780639611cf6c146107ef5780639b19251a1461080e575f80fd5b80637ac2ff7b1461074d57806384b0196e1461076c5780638da5cb5b14610793575f80fd5b80633af32abf116102935780636352211e116102335780636c0360eb1161020e5780636c0360eb146106f257806370a0823114610706578063715018a61461072557806379ba509714610739575f80fd5b80636352211e146106a15780636a256b29146106c05780636b2cc75c146106d3575f80fd5b806341a8bb881161026e57806341a8bb88146105f857806342842e0e1461062f5780634c02bf0b1461064e57806355af6a3214610682575f80fd5b80633af32abf146105755780633b9500b0146105a35780633e547b06146105c2575f80fd5b80631dbef488116102fe5780632f584a6d116102d95780632f584a6d146104f057806330adf81f1461050f5780633644e5151461054257806338926b6d14610556575f80fd5b80631dbef488146104665780631ff63f931461049a57806323b872dd146104d1575f80fd5b8063095ea7b31161032e578063095ea7b3146103ea578063141a468c1461040b57806314d6a9eb14610447575f80fd5b806301ffc9a71461035e57806306fdde0314610392578063081812fc146103b3575f80fd5b3661035a57005b5f80fd5b348015610369575f80fd5b5061037d61037836600461590d565b610c49565b60405190151581526020015b60405180910390f35b34801561039d575f80fd5b506103a6610c8c565b6040516103899190615975565b3480156103be575f80fd5b506103d26103cd366004615987565b610d1b565b6040516001600160a01b039091168152602001610389565b3480156103f5575f80fd5b506104096104043660046159b2565b610d42565b005b348015610416575f80fd5b50610439610425366004615987565b5f9081526009602052604090205460a01c90565b604051908152602001610389565b348015610452575f80fd5b50610439610461366004615a20565b610d51565b348015610471575f80fd5b50610485610480366004615a75565b610f09565b60408051928352602083019190915201610389565b3480156104a5575f80fd5b506104b96104b4366004615ac3565b611262565b6040516001600160c01b039091168152602001610389565b3480156104dc575f80fd5b506104096104eb366004615add565b611275565b3480156104fb575f80fd5b5061040961050a366004615add565b611317565b34801561051a575f80fd5b506104397f49ecf333e5b8c95c40fdafc95c1ad136e8914a8fb55e9dc8bb01eaa83a2df9ad81565b34801561054d575f80fd5b50610439611327565b348015610561575f80fd5b50610439610570366004615b1b565b611335565b348015610580575f80fd5b5061037d61058f366004615b49565b600f6020525f908152604090205460ff1681565b3480156105ae575f80fd5b506104856105bd366004615b64565b611653565b3480156105cd575f80fd5b506104396105dc366004615b87565b601060209081525f928352604080842090915290825290205481565b348015610603575f80fd5b50610617610612366004615be5565b611892565b6040516001600160401b039091168152602001610389565b34801561063a575f80fd5b50610409610649366004615add565b6118ba565b348015610659575f80fd5b506106626118d4565b604080516001600160801b03938416815292909116602083015201610389565b34801561068d575f80fd5b5061037d61069c366004615c16565b6118f9565b3480156106ac575f80fd5b506103d26106bb366004615987565b611928565b6104396106ce366004615b49565b611932565b3480156106de575f80fd5b506104096106ed366004615b49565b611998565b3480156106fd575f80fd5b506103a66119e8565b348015610711575f80fd5b50610439610720366004615b49565b611a74565b348015610730575f80fd5b50610409611ad2565b348015610744575f80fd5b50610409611ae5565b348015610758575f80fd5b50610409610767366004615c2f565b611b29565b348015610777575f80fd5b50610780611d8a565b6040516103899796959493929190615c8c565b34801561079e575f80fd5b506005546001600160a01b03166103d2565b3480156107bb575f80fd5b506104396107ca366004615b49565b600d6020525f908152604090205481565b3480156107e6575f80fd5b506103a6611de8565b3480156107fa575f80fd5b50610439610809366004615b87565b611df7565b348015610819575f80fd5b50610409610828366004615b49565b611e0b565b348015610838575f80fd5b506108fc610847366004615c16565b6040805160c0810182525f80825260208201819052918101829052606081018290526080810182905260a0810191909152506001600160c01b03165f908152600e6020908152604091829020825160c08101845281546001600160a01b0380821683526001600160401b03600160a01b92839004169483019490945260018301548085169583019590955262ffffff94819004851660608301526002909201549283166080820152910490911660a082015290565b6040516103899190615d3f565b348015610914575f80fd5b506103a6610923366004615da5565b611e5e565b348015610933575f80fd5b50610439610942366004615b87565b611fe4565b348015610952575f80fd5b50610966610961366004615be5565b61209b565b60405160029190910b8152602001610389565b348015610984575f80fd5b50610409610993366004615ddc565b6120bc565b3480156109a3575f80fd5b506104096109b2366004615e76565b6120c7565b3480156109c2575f80fd5b506103a66109d1366004615987565b6120de565b3480156109e1575f80fd5b506109666109f0366004615c16565b612142565b348015610a00575f80fd5b50610a14610a0f366004615987565b612162565b6040805182516001600160a01b031681526020808401516001600160401b03908116918301919091529282015190921690820152606001610389565b348015610a5b575f80fd5b50610aba610a6a366004615987565b6002027f722b431450ce53c44434ec138439e45a0639fe031b803ee019b776fae5cfa2b18101547f722b431450ce53c44434ec138439e45a0639fe031b803ee019b776fae5cfa2b2909101549091565b604080516001600160a01b03938416815292909116602083015201610389565b348015610ae5575f80fd5b50600c546103d2906001600160a01b031681565b348015610b04575f80fd5b50610409610b13366004615add565b6121ff565b348015610b23575f80fd5b50610409610b32366004615b49565b612265565b348015610b42575f80fd5b506006546001600160a01b03166103d2565b348015610b5f575f80fd5b506103a6612276565b348015610b73575f80fd5b5061037d610b82366004615b87565b6001600160a01b039182165f90815260046020908152604080832093909416825291909152205460ff1690565b348015610bba575f80fd5b50610439610bc9366004615987565b5490565b348015610bd8575f80fd5b50610409610be7366004615b49565b612283565b348015610bf7575f80fd5b506103a6610c06366004615f1d565b6122f4565b348015610c16575f80fd5b5061037d610c25366004615c16565b61236f565b348015610c35575f80fd5b50610409610c44366004615f3d565b61238f565b5f6001600160e01b031982167f6831a4fd000000000000000000000000000000000000000000000000000000001480610c865750610c8682612686565b92915050565b60605f8054610c9a90615f73565b80601f0160208091040260200160405190810160405280929190818152602001828054610cc690615f73565b8015610d115780601f10610ce857610100808354040283529160200191610d11565b820191905f5260205f20905b815481529060010190602001808311610cf457829003601f168201915b5050505050905090565b5f610d2582612720565b505f828152600360205260409020546001600160a01b0316610c86565b610d4d828233612758565b5050565b5f610d5b33612765565b610d7c610d7485355f9081526009602052604090205490565b3386356127fc565b8335604090811c5f908152600e602090815290829020825160c08101845281546001600160a01b0380821683526001600160401b03600160a01b92839004169483019490945260018301548085169583019590955262ffffff9481900485166060830152600283015493841660808301819052930490931660a08401529190610e0790878787612879565b5f80610e268835610e1e60408b0160208c01615fb9565b8691906128f9565b9150915082602001516001600160401b0316826001600160401b0316029450610e58836060015162ffffff1660171c90565b15610e7c5760608301515f90610e759062ffffff16876001612a88565b9590950194505b806001600160401b03165f03610e9657610e968835612b08565b610ea4836040015186612b40565b6040516001600160401b03831681528835907f0c6ba7ef5064094c17cce013aa4c617a23e2582f867774d07a5931de43b85d729060200160405180910390a26080830151610efe906001600160a01b031689848a8a612bec565b505050509392505050565b5f80610f1433612765565b5f610f2761012087016101008801615b49565b6001600160a01b031614158015610f6c5750600f5f610f4e61012088016101008901615b49565b6001600160a01b0316815260208101919091526040015f205460ff16155b15610fc657610f8361012086016101008701615b49565b6040517f962715990000000000000000000000000000000000000000000000000000000081526001600160a01b0390911660048201526024015b60405180910390fd5b610fe1610fd960e0870160c08801615fd4565b60020b612c75565b5f610ff9610ff4368890038801886160a9565b612cd1565b6001600160c01b0381165f908152600e6020526040902090915061101c81612d03565b61105161102e368990038901896160c3565b878761104060a08c0160808d01615b49565b6001600160a01b0316929190612d4b565b5f61109161106560e08a0160c08b01615fd4565b6110766101008b0160e08c01615fb9565b6110886101208c016101008d01615b49565b85929190612d89565b90506110c3836110a760e08b0160c08c01615fd4565b60409190911b60289190911b67ffffff00000000001601820190565b94505f6110d660408a0160208b01615fb9565b6001600160401b03166110f06101008b0160e08c01615fb9565b6001600160401b031602945084905061111d61111260808b0160608c01616144565b62ffffff1660171c90565b1561114857611143855f61113760808d0160608e01616144565b62ffffff169190612a88565b019350835b61116961115b60608b0160408c01615b49565b61116483616173565b612b40565b6111733387612fbb565b336001600160c01b0385167f251db4df45fa692f68b4e3f072919384c5b71995c71bf22888385168930fd22a6111af60e08d0160c08e01615fd4565b858d60e00160208101906111c39190615fb9565b8e6101000160208101906111d79190615b49565b6040805160029590950b855264ffffffffff9390931660208501526001600160401b0391909116838301526001600160a01b03166060830152519081900360800190a361125661122c368b90038b018b6160c3565b878a8a8d5f0160800160208101906112449190615b49565b6001600160a01b031693929190613035565b50505050935093915050565b5f610c86610ff4368490038401846160a9565b6001600160a01b03821661129e57604051633250574960e11b81525f6004820152602401610fbd565b5f6112aa838333613075565b9050836001600160a01b0316816001600160a01b031614611311576040517f64283d7b0000000000000000000000000000000000000000000000000000000081526001600160a01b0380861660048301526024820184905282166044820152606401610fbd565b50505050565b6113228383836127fc565b505050565b5f611330613174565b905090565b5f61133f33612765565b5f848152600960205260409020546113589033866127fc565b604084811c5f908152600e602090815290829020825160c08101845281546001600160a01b0380821683526001600160401b03600160a01b92839004169483019490945260018301548085169583019590955262ffffff9481900485166060830152600283015493841660808301819052930490931660a0840152602887901c9287926113e79084898961329d565b5f6113f38386866132da565b60208301519091505f9081906001600160401b0380851691160261141c600289900b828461333f565b606086015160a0870151919a509061143962ffffff821660171c90565b156114565761144f62ffffff8216846001612a88565b945061146a565b61146762ffffff82168c6001612a88565b93505b6114798262ffffff1660171c90565b156114a05761148f62ffffff8316846001612a88565b61149990866161a9565b94506114ec565b5f6114b162ffffff84168d83612a88565b90506114bd81866161a9565b94505f81136114de576114cf81616173565b6114d9908d6161d0565b6114e8565b6114e8818d6161e3565b9b50505b505f91506114fd9050868989613369565b80519091506001600160a01b03811661151e5750600c546001600160a01b03165b5f84131561156f5761152f846133bc565b6001600160a01b038083165f9081526010602090815260408083208b820151909416835292905290812080549091906115699084906161d0565b90915550505b5f8313156115be57611580836133bc565b6001600160a01b038083165f9081526010602090815260408083208b51909416835292905290812080549091906115b89084906161d0565b90915550505b81602001516001600160401b03165f036115db576115db8d612b08565b85516115ea906111648c6133fe565b6040516001600160401b03861681528d907ffc7df80a30ee916cc040221cf6fcfb3c6dc994b3fa4c4ab23e8a0f134de5c0c09060200160405180910390a26080860151611643906001600160a01b03168e878f8f61345c565b5050505050505050509392505050565b5f8061165e33612765565b611671610fd960e0870160c08801615fd4565b5f611684610ff4368890038801886160a9565b6001600160c01b0381165f908152600e602052604090209091506116a781612d03565b6116dc6116b9368990038901896161f6565b87876116cb60a08c0160808d01615b49565b6001600160a01b031692919061349b565b5f6117096116f060e08a0160c08b01615fd4565b6117016101008b0160e08c01615fb9565b8491906134d9565b905061171b6040890160208a01615fb9565b6001600160401b03828116911602945061174b85600161174160e08c0160c08d01615fd4565b60020b919061333f565b9350845f611758866133fe565b905061176d61111260c08c0160a08d01616144565b1561179b57611787875f61113760c08e0160a08f01616144565b6117919083616263565b91508196506117c0565b6117b0865f61113760c08e0160a08f01616144565b6117ba90826161a9565b90508095505b6117d96117d360608c0160408d01615b49565b83612b40565b6117e961115b60208c018c615b49565b336001600160c01b0386167fc4c20b9c4a5ada3b01b7a391a08dd81a1be01dd8ef63170dd9da44ecee3db11b61182560e08e0160c08f01615fd4565b6040805160029290920b82526001600160401b03881660208301520160405180910390a361188561185b368c90038c018c6161f6565b848b8b8e5f0160800160208101906118739190615b49565b6001600160a01b03169392919061352f565b5050505050935093915050565b6001600160c01b0382165f908152600e602052604081206118b3908361356f565b9392505050565b61132283838360405180602001604052805f8152506120c7565b5f806118f15f805160206169648339815191525490608082901c90565b915091509091565b6001600160c01b0381165f908152600e6020526040812054600160a01b90046001600160401b03161515610c86565b5f610c8682612720565b5f61193c33612765565b6001600160a01b0382165f818152600d60205260409020549061195e906135a4565b6001600160a01b0384165f908152600d602052604090208190556119839082906161e3565b915061199283611164846133fe565b50919050565b6119a061363e565b6001600160a01b0381165f818152600f6020526040808220805460ff19169055517f88f58aa68e1f754fecfec41a6758d18d4a53fa15d4e206fd54bbdfe7a9e98da79190a250565b600a80546119f590615f73565b80601f0160208091040260200160405190810160405280929190818152602001828054611a2190615f73565b8015611a6c5780601f10611a4357610100808354040283529160200191611a6c565b820191905f5260205f20905b815481529060010190602001808311611a4f57829003601f168201915b505050505081565b5f6001600160a01b038216611ab7576040517f89c62b640000000000000000000000000000000000000000000000000000000081525f6004820152602401610fbd565b506001600160a01b03165f9081526002602052604090205490565b611ada61363e565b611ae35f61366b565b565b60065433906001600160a01b03168114611b1d5760405163118cdaa760e01b81526001600160a01b0382166004820152602401610fbd565b611b268161366b565b50565b83421115611b63576040517f1a15a3cc00000000000000000000000000000000000000000000000000000000815260040160405180910390fd5b5f611be07f49ecf333e5b8c95c40fdafc95c1ad136e8914a8fb55e9dc8bb01eaa83a2df9ad8888611b9381613684565b6040805160208101959095526001600160a01b03909316928401929092526060830152608082015260a0810187905260c001604051602081830303815290604052805190602001206136bd565b90505f611bec87611928565b9050806001600160a01b0316886001600160a01b031603611c2057604051638baa579f60e01b815260040160405180910390fd5b6001600160a01b0381163b15611d3657604080516020810186905280820185905260f887901b7fff000000000000000000000000000000000000000000000000000000000000001660608201528151604181830301815260618201928390527f1626ba7e000000000000000000000000000000000000000000000000000000009092526001600160a01b03831691631626ba7e91611cc2918691606501616282565b602060405180830381865afa158015611cdd573d5f803e3d5ffd5b505050506040513d601f19601f82011682018060405250810190611d01919061629a565b6001600160e01b031916631626ba7e60e01b14611d3157604051638baa579f60e01b815260040160405180910390fd5b611d73565b806001600160a01b0316611d4c83878787613704565b6001600160a01b031614611d7357604051638baa579f60e01b815260040160405180910390fd5b611d808888836001613730565b5050505050505050565b5f6060805f805f6060611d9b61386b565b611da3613898565b604080515f808252602082019092527f0f000000000000000000000000000000000000000000000000000000000000009b939a50919850469750309650945092509050565b606060018054610c9a90615f73565b5f6118b383836014525f526028600c205490565b611e1361363e565b6001600160a01b0381165f818152600f6020526040808220805460ff19166001179055517feb73900b98b6a3e2b8b01708fe544760cf570d21e7fbe5225f24e48b5b2b432e9190a250565b5f8051602061696483398151915280546001600160801b0381166002027f722b431450ce53c44434ec138439e45a0639fe031b803ee019b776fae5cfa2b18101869055337f722b431450ce53c44434ec138439e45a0639fe031b803ee019b776fae5cfa2b290910155600101905560606040517f15c7afb40000000000000000000000000000000000000000000000000000000081526001600160a01b038516906315c7afb490611f17903390879087906004016162dd565b5f604051808303815f875af1158015611f32573d5f803e3d5ffd5b505050506040513d5f823e601f3d908101601f19168201604052611f5991908101906162ff565b9050611f636138c5565b5f80611f805f805160206169648339815191525490608082901c90565b91509150816001600160801b03165f148015611fa457506001600160801b03811615155b15611fdb576040517f5212cba100000000000000000000000000000000000000000000000000000000815260040160405180910390fd5b50509392505050565b335f9081526010602090815260408083206001600160a01b03851684528252808320805490849055600d90925282208054919283926120249084906161e3565b9091555061203e90506001600160a01b0383168483613954565b816001600160a01b0316836001600160a01b0316336001600160a01b03167f1c4f94f28cc9152354d4b98b8614b28c6c828a98d88228fa9577c7b9475e120c8460405161208d91815260200190565b60405180910390a492915050565b6001600160c01b0382165f908152600e602052604081206118b39083613a31565b610d4d338383613a3f565b6120d2848484611275565b61131184848484613af6565b60606120e982612720565b505f6120f3613c15565b90505f8151116121115760405180602001604052805f8152506118b3565b8061211b84613c24565b60405160200161212c929190616367565b6040516020818303038152906040529392505050565b6001600160c01b0381165f908152600e60205260408120610c8690613cc0565b604080516060810182525f808252602080830182905282840182905284841c808352600e909152928120919291602885901c918591906121a3828585613369565b90505f6121b1838686613ccd565b90506040518060600160405280835f01516001600160a01b03168152602001828460200151036001600160401b03168152602001826001600160401b03168152509650505050505050919050565b61220833612765565b8015611322576122248361221b836133fe565b61116490616173565b6001600160a01b0383165f908152600d60205260408120805483929061224b9084906161e3565b9091555061132290506001600160a01b0384168383613954565b61226d61363e565b611b2681613d98565b600b80546119f590615f73565b61228b61363e565b600680546001600160a01b0383166001600160a01b031990911681179091556122bc6005546001600160a01b031690565b6001600160a01b03167f38d16b8cac22d99fc7c124b9cd0de2d3fa1faef420bfe791d8c362d765e2270060405160405180910390a350565b6060612301826020616395565b6001600160401b0381111561231857612318615e0c565b6040519080825280601f01601f191660200182016040528015612342576020820181803683370190505b5090505f5b82811015612368578084015460206001830102830152600181019050612347565b5092915050565b6001600160c01b0381165f908152600e60205260408120610c8690613de1565b61239833612765565b6123a86040840160208501615fb9565b6001600160401b03165f036123e9576040517faf6c36ab00000000000000000000000000000000000000000000000000000000815260040160405180910390fd5b5f6123fa6080850160608601616144565b90505f61240d60c0860160a08701616144565b905061241d8262ffffff16613dee565b801561243257506124328162ffffff16613dee565b61244f57604051637a34030f60e01b815260040160405180910390fd5b5f620f423f19627fffff848116908416010160020b121561248357604051637a34030f60e01b815260040160405180910390fd5b5f627fffff83166207a11f190160020b12806124ac57505f627fffff82166207a11f190160020b125b156124f1576124c08162ffffff1660171c90565b15156124d18362ffffff1660171c90565b1515146124f157604051637a34030f60e01b815260040160405180910390fd5b5f61250260a0870160808801615b49565b9050612516816001600160a01b0316613e1e565b612557576040517fe65af6a00000000000000000000000000000000000000000000000000000000081526001600160a01b0382166004820152602401610fbd565b61257b612569368890038801886160a9565b6001600160a01b038316908787613e55565b5f61258e610ff4368990038901896160a9565b6001600160c01b0381165f908152600e602052604090209091506125b29088613e93565b6125c26060880160408901615b49565b6001600160a01b03166125d86020890189615b49565b6001600160a01b03166001600160c01b0383167f803427d75ce3214f82dc7aa4910635170a6655e2c1663dc03429dd04100cba5a61261c60408c0160208d01615fb9565b604080516001600160401b03909216825262ffffff808b1660208401528916908201526001600160a01b038716606082015260800160405180910390a461267d61266b368990038901896160a9565b6001600160a01b038416908888613ee8565b50505050505050565b5f6001600160e01b031982167f80ac58cd0000000000000000000000000000000000000000000000000000000014806126e857506001600160e01b031982167f5b5e139f00000000000000000000000000000000000000000000000000000000145b80610c8657507f01ffc9a7000000000000000000000000000000000000000000000000000000006001600160e01b0319831614610c86565b5f818152600960205260408120546001600160a01b038116610c8657604051637e27328960e01b815260048101849052602401610fbd565b6113228383836001613730565b5f61276e613f26565b90505f612779613f86565b9050816001600160a01b0316836001600160a01b03160361279957505050565b806001600160a01b0316836001600160a01b0316036127b757505050565b6040517f74d863650000000000000000000000000000000000000000000000000000000081526001600160a01b03808416600483015282166024820152604401610fbd565b612807838383613fce565b611322576001600160a01b03831661283557604051637e27328960e01b815260048101829052602401610fbd565b6040517f177e802f0000000000000000000000000000000000000000000000000000000081526001600160a01b038316600482015260248101829052604401610fbd565b7302000000000000000000000000000000000000008416156113115761131163295b52c560e01b338585856040516024016128b794939291906163d2565b60408051601f198184030181529190526020810180516001600160e01b03166001600160e01b0319909316929092179091526001600160a01b0386169061404e565b602882901c600281900b5f90815260038501602052604081206004810180549293849390928792909185919064ffffffffff851690811061293c5761293c616401565b5f918252602082200154600160a01b90046001600160401b031691506129638a8686613ccd565b905061296f8189616415565b9550856001600160401b0316826001600160401b031610156129ca576040517fc332559a0000000000000000000000000000000000000000000000000000000081526001600160401b03828403166004820152602401610fbd565b600285900b5f90815260038b01602052604090208683039750612a1690617fff86169089906129f990836140ab565b600289900b5f90815260038f016020526040902092919003614108565b5085836004018564ffffffffff1681548110612a3457612a34616401565b905f5260205f20015f0160146101000a8154816001600160401b0302191690836001600160401b03160217905550612a6c8a8661356f565b6001600160401b03165f036118855761188560048b0186614344565b5f6207a11f19627fffff851601600281900b82128281612aaa57825f03612aac565b825b62ffffff1690505f612ae5612ac18389616395565b620f424088612ad7578581830615151691040190565b808206151586151691040190565b905082612afa57612af581616173565b612afc565b805b98975050505050505050565b5f612b145f835f613075565b90506001600160a01b038116610d4d57604051637e27328960e01b815260048101839052602401610fbd565b805f03612b4b575050565b5f612b54613f26565b60148490525f8181526028600c208054850190819055919250819003612baf57612baa7001000000000000000000000000000000005f8051602061696483398151915254035f8051602061696483398151915255565b611311565b828103611311576113117001000000000000000000000000000000005f8051602061696483398151915254015f8051602061696483398151915255565b730100000000000000000000000000000000000000851615612c6e57612c6e635125ce9c60e01b3386868686604051602401612c2c959493929190616435565b60408051601f198184030181529190526020810180516001600160e01b03166001600160e01b0319909316929092179091526001600160a01b0387169061404e565b5050505050565b6207ffff600282900b1380612c9a5750612c916207ffff61647e565b60020b8160020b125b15611b26576040517fce8ef7fc00000000000000000000000000000000000000000000000000000000815260040160405180910390fd5b5f8082604051602001612ce49190615d3f565b60408051601f1981840301815291905280516020909101209392505050565b8054600160a01b90046001600160401b0316611b26576040517f1e3636e600000000000000000000000000000000000000000000000000000000815260040160405180910390fd5b73200000000000000000000000000000000000000084161561131157611311633fda46bb60e01b338585856040516024016128b79493929190616537565b5f826001600160401b03165f03612dcc576040517ff21c16aa00000000000000000000000000000000000000000000000000000000815260040160405180910390fd5b62800000841901600881901c61ffff165f908152600487016020526040902054600160ff9092169190911b90811614612e0c57612e0c6004860185614441565b600284900b5f90815260038601602052604090206004810154612e2e90614561565b915061800064ffffffffff831610612f3b575f618000830390505f826004018264ffffffffff1681548110612e6557612e65616401565b5f91825260209091200154600160a01b90046001600160401b031690508015612ee3575f612e94898985613ccd565b9050816001600160401b0316816001600160401b031614612ee1576040517ff2f9ac9900000000000000000000000000000000000000000000000000000000815260040160405180910390fd5b505b505f9050612ef582617fff85166140ab565b90506001600160401b03811615612f3957623fffff600287901c165f908152600588016020526040902080546001600160401b03831660c060068a901b161b900390555b505b612f4a81617fff841686614108565b50604080518082019091526001600160a01b0393841681526001600160401b039485166020808301918252600490930180546001810182555f91825293902091519190920180549251909516600160a01b026001600160e01b03199092169316929092179190911790915592915050565b6001600160a01b038216612fe457604051633250574960e11b81525f6004820152602401610fbd565b5f612ff083835f613075565b90506001600160a01b03811615611322576040517f73c6ac6e0000000000000000000000000000000000000000000000000000000081525f6004820152602401610fbd565b731000000000000000000000000000000000000000851615612c6e57612c6e63eba8155960e01b3386868686604051602401612c2c959493929190616568565b5f828152600960205260408120546001600160a01b0383161561309d5761309d8184866127fc565b6001600160a01b038116156130d7576130b85f855f80613730565b6001600160a01b0381165f90815260026020526040902080545f190190555b6001600160a01b03851615613105576001600160a01b0385165f908152600260205260409020805460010190555b5f84815260096020526040902080546001600160a01b0319166001600160a01b03871617905583856001600160a01b0316826001600160a01b03167fddf252ad1be2c89b69c2b068fc378daa952ba7f163c4a11628f55a4df523b3ef60405160405180910390a4949350505050565b5f306001600160a01b037f0000000000000000000000000000000000000000000000000000000000000000161480156131cc57507f000000000000000000000000000000000000000000000000000000000000000046145b156131f657507f000000000000000000000000000000000000000000000000000000000000000090565b611330604080517f8b73c3c69bb8fe3d512ecc4cf759cc79239f7b179b0ffacaa9a75d522b39400f60208201527f0000000000000000000000000000000000000000000000000000000000000000918101919091527f000000000000000000000000000000000000000000000000000000000000000060608201524660808201523060a08201525f9060c00160405160208183030381529060405280519060200120905090565b72800000000000000000000000000000000000008416156113115761131163827e0eb260e01b338585856040516024016128b794939291906165a0565b5f806132e78585856145ab565b90506132f4858585613ccd565b81546001600160401b03600160a01b8083048216849003909116027fffffffff0000000000000000ffffffffffffffffffffffffffffffffffffffff90911617909155949350505050565b5f613361606084901b6133548660020b6145ec565b8082061515851691040190565b949350505050565b604080518082019091525f80825260208201526133878484846145ab565b6040805180820190915290546001600160a01b0381168252600160a01b90046001600160401b03166020820152949350505050565b5f808212156133fa576040517fa8ce443200000000000000000000000000000000000000000000000000000000815260048101839052602401610fbd565b5090565b5f7f7fffffffffffffffffffffffffffffffffffffffffffffffffffffffffffffff8211156133fa576040517f24775e0600000000000000000000000000000000000000000000000000000000815260048101839052602401610fbd565b7240000000000000000000000000000000000000851615612c6e57612c6e6348042cf460e01b3386868686604051602401612c2c9594939291906165c8565b7308000000000000000000000000000000000000008416156113115761131163fab3c75660e01b338585856040516024016128b79493929190616684565b5f806134e5858561356f565b9050826001600160401b0316816001600160401b0316111561350957829150613519565b9050806135196004860185614344565b6135276005860185846148b4565b509392505050565b730400000000000000000000000000000000000000851615612c6e57612c6e639eb477b260e01b3386868686604051602401612c2c9594939291906166b5565b5f61357d6005840183614927565b600283900b5f908152600385016020526040902061359a90614962565b6118b391906166f6565b5f6001600160a01b0382166135ba575047919050565b6040517f70a082310000000000000000000000000000000000000000000000000000000081523060048201526001600160a01b038316906370a0823190602401602060405180830381865afa158015613615573d5f803e3d5ffd5b505050506040513d601f19601f82011682018060405250810190610c869190616716565b919050565b6005546001600160a01b03163314611ae35760405163118cdaa760e01b8152336004820152602401610fbd565b600680546001600160a01b0319169055611b26816149a1565b5f8181526009602052604090205460a081901c906136a681600160a01b6161d0565b5f9384526009602052604090932092909255919050565b5f610c866136c9613174565b836040517f19010000000000000000000000000000000000000000000000000000000000008152600281019290925260228201526042902090565b5f805f80613714888888886149f2565b9250925092506137248282614aba565b50909695505050505050565b808061374457506001600160a01b03821615155b1561383c575f61375384612720565b90506001600160a01b0383161580159061377f5750826001600160a01b0316816001600160a01b031614155b80156137b057506001600160a01b038082165f9081526004602090815260408083209387168352929052205460ff16155b156137f2576040517fa9fbf51f0000000000000000000000000000000000000000000000000000000081526001600160a01b0384166004820152602401610fbd565b811561383a5783856001600160a01b0316826001600160a01b03167f8c5be1e5ebec7d5bd14f71427d1e84f3dd0314c0f7b2291e5b200ac8c7c3b92560405160405180910390a45b505b50505f90815260036020526040902080546001600160a01b0319166001600160a01b0392909216919091179055565b60606113307f00000000000000000000000000000000000000000000000000000000000000006007614bbd565b60606113307f00000000000000000000000000000000000000000000000000000000000000006008614bbd565b5f80516020616964833981519152546001600160801b038116806138f05763f1c77ed05f526004601cfd5b5f60025f19928301027f722b431450ce53c44434ec138439e45a0639fe031b803ee019b776fae5cfa2b181018290557f722b431450ce53c44434ec138439e45a0639fe031b803ee019b776fae5cfa2b20155015f8051602061696483398151915255565b5f6001600160a01b0384166139a4575f805f8085875af1905080612baa576040517ff4b3b1bc00000000000000000000000000000000000000000000000000000000815260040160405180910390fd5b6040517fa9059cbb0000000000000000000000000000000000000000000000000000000081526001600160a01b038416600482015282602482015260205f6044835f895af13d15601f3d1160015f511416171691505080611311576040517ff27f64e400000000000000000000000000000000000000000000000000000000815260040160405180910390fd5b5f6118b36004840183614c66565b6001600160a01b038216613a8a576040517f5b08ba180000000000000000000000000000000000000000000000000000000081526001600160a01b0383166004820152602401610fbd565b6001600160a01b038381165f81815260046020908152604080832094871680845294825291829020805460ff191686151590811790915591519182527f17307eab39ab6107e8899845ad3d59bd9653f200f220920489ca2b5937696c31910160405180910390a3505050565b6001600160a01b0383163b1561131157604051630a85bd0160e11b81526001600160a01b0384169063150b7a0290613b3890339088908790879060040161672d565b6020604051808303815f875af1925050508015613b72575060408051601f3d908101601f19168201909252613b6f9181019061629a565b60015b613bd9573d808015613b9f576040519150601f19603f3d011682016040523d82523d5f602084013e613ba4565b606091505b5080515f03613bd157604051633250574960e11b81526001600160a01b0385166004820152602401610fbd565b805181602001fd5b6001600160e01b03198116630a85bd0160e11b14612c6e57604051633250574960e11b81526001600160a01b0385166004820152602401610fbd565b6060600a8054610c9a90615f73565b60605f613c3083614d8f565b60010190505f816001600160401b03811115613c4e57613c4e615e0c565b6040519080825280601f01601f191660200182016040528015613c78576020820181803683370190505b5090508181016020015b5f19017f3031323334353637383961626364656600000000000000000000000000000000600a86061a8153600a8504945084613c8257509392505050565b5f610c8682600401614e70565b5f80613cda858585613369565b602090810151600286900b5f90815260038801909252604090912060048101549192509064ffffffffff8516618000011015613d18575090506118b3565b5f613d266005880187614927565b90505f613d3a838764ffffffffff16614f56565b9050816001600160401b03168482036001600160401b031610613d63575f9450505050506118b3565b816001600160401b0316816001600160401b031611613d8857839450505050506118b3565b83810382039450505050506118b3565b600c80546001600160a01b0319166001600160a01b0383169081179091556040517fef673bbfc2ac7e4d4b810bffda0b15a1f2b48c2aa4d178d3fca87d0d1f337062905f90a250565b5f610c8682600401614fa9565b5f6207a11f19627fffff8316016207a120600282900b1380613e1657506207a11f198160020b125b159392505050565b5f6001600160a01b0382161580610c8657505072400000000000000000000000000000000000006001600160a01b03909116101590565b73800000000000000000000000000000000000000084161561131157611311635df4d91860e01b338585856040516024016128b7949392919061675e565b8154600160a01b90046001600160401b031615613edc576040517fc15ba32200000000000000000000000000000000000000000000000000000000815260040160405180910390fd5b808261131182826167e6565b734000000000000000000000000000000000000000841615611311576113116371ded94360e01b338585856040516024016128b7949392919061675e565b5f80613f3d5f805160206169648339815191525490565b6001600160801b031690505f8111613f55575f613f80565b60025f198201027f722b431450ce53c44434ec138439e45a0639fe031b803ee019b776fae5cfa2b101545b91505090565b5f611330613f9f5f805160206169648339815191525490565b6001600160801b03167ffcac7593714b88fec0c578a53e9f3f6e4b47eb26c9dcaa7eff23a3ac156be422015490565b5f6001600160a01b038316158015906133615750826001600160a01b0316846001600160a01b0316148061402657506001600160a01b038085165f9081526004602090815260408083209387168352929052205460ff165b806133615750505f908152600360205260409020546001600160a01b03908116911614919050565b5f8061405a8484614fee565b91509150816001600160e01b031916816001600160e01b03191614611311576040517f1e048e1d00000000000000000000000000000000000000000000000000000000815260040160405180910390fd5b5f61800082106140d05760405163163da48960e01b81525f6004820152602401610fbd565b6118b36140f76003848116908690600287901c5f908152910160205260409020549061509c565b6001600160401b0316801515900390565b5f618000831061412d5760405163163da48960e01b81525f6004820152602401610fbd565b5f614137846150ca565b90505f81600160040360ff168151811061415357614153616401565b6020908102919091018101518082015181515f90815260038a019093526040909220549092506141869160061b1c6140f7565b9250836001600160401b0316836001600160401b03161061425a578383035f5b6004811015614253575f8482815181106141c2576141c2616401565b602002602001015190505f895f0183600481106141e1576141e1616401565b83515f90815291016020908152604090912054908301519091506142249061421c8661420d858461509c565b6001600160401b031690615170565b8391906151bb565b8a846004811061423657614236616401565b93515f9081529301602052604090922091909155506001016141a6565b5050611fdb565b8284036001600160401b038181031661427288614962565b6001600160401b0316111561429d5760405163163da48960e01b815260016004820152602401610fbd565b5f5b6004811015610efe575f8482815181106142bb576142bb616401565b602002602001015190505f895f0183600481106142da576142da616401565b83515f90815291016020908152604090912054908301519091506143159061421c86614306858461509c565b6001600160401b031690615201565b8a846004811061432757614327616401565b93515f90815293016020526040909220919091555060010161429f565b62800000811901600881901c61ffff165f8181526020859052604090208054600160ff90941693841b8019821690925591929181810361443957600884901c195f8181526020889052604090208054600160ff88161b80198216909255909350808403611d805781196001901b93508319885f7f7710c0702d438d37259561c892984b894ff622adfa3d98b5dfe5a9763f94b9545f1c60016143e691906161d0565b81526020019081526020015f205416885f7f7710c0702d438d37259561c892984b894ff622adfa3d98b5dfe5a9763f94b9545f1c600161442691906161d0565b815260208101919091526040015f205550505b505050505050565b62800000811901600881901c61ffff165f81815260208590526040902054909160ff16906001821b90818116156144a4576040517feb73dbfd00000000000000000000000000000000000000000000000000000000815260040160405180910390fd5b5f848152602087905260408120828417905581900361443957600884901c195f8181526020889052604081208054600160ff89161b81811790925590945090819003611d805781196001901b885f7f7710c0702d438d37259561c892984b894ff622adfa3d98b5dfe5a9763f94b9545f1c600161452191906161d0565b81526020019081526020015f205417885f7f7710c0702d438d37259561c892984b894ff622adfa3d98b5dfe5a9763f94b9545f1c600161442691906161d0565b5f64ffffffffff8211156133fa576040517f6dfcc6500000000000000000000000000000000000000000000000000000000081526028600482015260248101839052604401610fbd565b600282900b5f9081526003840160205260408120600401805464ffffffffff84169081106145db576145db616401565b905f5260205f200190509392505050565b5f6145f682612c75565b815f600282900b81136146095781614612565b6146128261647e565b62ffffff8116915060011615614636576bfff97272373d413259a469909250614647565b6c0100000000000000000000000092505b60028116156146665760606bfff2e50f5f656932ef12357c8402901c92505b60048116156146855760606bffe5caca7e10e4e61c3624ea8402901c92505b60088116156146a45760606bffcb9843d60f6159c9db58838402901c92505b60108116156146c35760606bff973b41fa98c081472e68968402901c92505b60208116156146e25760606bff2ea16466c96a3843ec78b38402901c92505b60408116156147015760606bfe5dee046a99a2a811c461f18402901c92505b60808116156147205760606bfcbe86c7900a88aedcffc83b8402901c92505b6101008116156147405760606bf987a7253ac413176f2b074c8402901c92505b6102008116156147605760606bf3392b0822b70005940c7a398402901c92505b6104008116156147805760606be7159475a2c29b7443b29c7f8402901c92505b6108008116156147a05760606bd097f3bdfd2022b8845ad8f78402901c92505b6110008116156147c05760606ba9f746462d870fdf8a65dc1f8402901c92505b6120008116156147e05760606b70d869a156d2a1b890bb3df68402901c92505b6140008116156148005760606b31be135f97d08fd9812315058402901c92505b6180008116156148205760606b09aa508b5b7a84e1c677de548402901c92505b620100008116156148405760606a5d6af8dedb81196699c3298402901c92505b6202000081161561485f576060692216e584f5fa1ea926048402901c92505b6204000081161561487c57606067048a170391f7dc428402901c92505b5f8260020b13156148ad576148aa837801000000000000000000000000000000000000000000000000616915565b92505b5050919050565b623fffff600283901c165f818152602085905260409020546003841690614907826148e98660c060068a901b1685901c614306565b6001600160401b0390811660069290921b91821b911b831683030190565b62ffffff9093165f90815260209690965250506040909320929092555050565b623fffff600282901c165f8181526020849052604081205490919060038416906149599060c0600687901b161c6140f7565b95945050505050565b60015f9081526020829052604081205461497e90826004615246565b5f80805260208490526040812054614997916004615246565b610c869190616415565b600580546001600160a01b038381166001600160a01b0319831681179093556040519116919082907f8be0079c531659141344cd1fd0a4f28419497f9722a3daafe3b4186f6b6457e0905f90a35050565b5f80807f7fffffffffffffffffffffffffffffff5d576e7357a4501ddfe92f46681b20a0841115614a2b57505f91506003905082614ab0565b604080515f808252602082018084528a905260ff891692820192909252606081018790526080810186905260019060a0016020604051602081039080840390855afa158015614a7c573d5f803e3d5ffd5b5050604051601f1901519150506001600160a01b038116614aa757505f925060019150829050614ab0565b92505f91508190505b9450945094915050565b5f826003811115614acd57614acd616934565b03614ad6575050565b6001826003811115614aea57614aea616934565b03614b21576040517ff645eedf00000000000000000000000000000000000000000000000000000000815260040160405180910390fd5b6002826003811115614b3557614b35616934565b03614b6f576040517ffce698f700000000000000000000000000000000000000000000000000000000815260048101829052602401610fbd565b6003826003811115614b8357614b83616934565b03610d4d576040517fd78bce0c00000000000000000000000000000000000000000000000000000000815260048101829052602401610fbd565b606060ff8314614bd757614bd083615285565b9050610c86565b818054614be390615f73565b80601f0160208091040260200160405190810160405280929190818152602001828054614c0f90615f73565b8015614c5a5780601f10614c3157610100808354040283529160200191614c5a565b820191905f5260205f20905b815481529060010190602001808311614c3d57829003601f168201915b50505050509050610c86565b62800000811901600881901c61ffff165f81815260208590526040812054909260ff1690600119821b16808403614d6857600883901c80195f9081526020889052604081205460011960ff87161b1690819003614d3e575f8881614ceb7f7710c0702d438d37259561c892984b894ff622adfa3d98b5dfe5a9763f94b95460016161d0565b81526020019081526020015f205483600119901b169050805f03614d1b57627fffff199650505050505050610c86565b614d24816152c2565b60ff1680195f90815260208b905260409020549093509150505b614d47816152c2565b60ff16600883901b179450875f8681526020019081526020015f2054925050505b614d71816152c2565b60ff169150627fffff19600884901b831701195b9695505050505050565b5f807a184f03e93ff9f4daa797ed6e38ed64bf6a1f0100000000000000008310614dd7577a184f03e93ff9f4daa797ed6e38ed64bf6a1f010000000000000000830492506040015b6d04ee2d6d415b85acef81000000008310614e03576d04ee2d6d415b85acef8100000000830492506020015b662386f26fc100008310614e2157662386f26fc10000830492506010015b6305f5e1008310614e39576305f5e100830492506008015b6127108310614e4d57612710830492506004015b60648310614e5f576064830492506002015b600a8310610c865760010192915050565b5f614e7a82614fa9565b15614eb1576040517f4f3d7def00000000000000000000000000000000000000000000000000000000815260040160405180910390fd5b5f614ef58382614ee27f7710c0702d438d37259561c892984b894ff622adfa3d98b5dfe5a9763f94b95460016161d0565b81526020019081526020015f20546152c2565b60ff1690505f614f15845f841981526020019081526020015f20546152c2565b60ff16600883901b1790505f614f3a855f8481526020019081526020015f20546152c2565b60ff169050627fffff19600883901b8217011995945050505050565b60048201545f90617fff908116908290614f718560016161d0565b169050808210614f9e57614f86858284615338565b614f8f86614962565b614f9991906166f6565b614959565b614959858383615338565b5f8181614fd77f7710c0702d438d37259561c892984b894ff622adfa3d98b5dfe5a9763f94b95460016161d0565b81526020019081526020015f20545f149050919050565b5f805f614ffa856157cd565b9050602084015192505f80866001600160a01b03168660405161501d9190616948565b5f604051808303815f865af19150503d805f8114615056576040519150601f19603f3d011682016040523d82523d5f602084013e61505b565b606091505b50915091508161506e5761506e81615835565b80806020019051810190615082919061629a565b935082156150925761509261586f565b5050509250929050565b5f60038211156150c25760405163b8710e2160e01b815260036004820152602401610fbd565b5060061b1c90565b60408051600480825260a082019092526060915f9190816020015b604080518082019091525f80825260208201528152602001906001900390816150e5579050509050600e5f5b60048110156151675760405180604001604052808387901c815260200160036002850388901c1681525083828151811061514d5761514d616401565b602090810291909101015260031990910190600101615111565b50909392505050565b8115909101908082036001600160401b03808216908416108061519a57506001600160401b038116155b15610c8657604051633e6c0de960e11b815260016004820152602401610fbd565b5f60038311156151e15760405163b8710e2160e01b815260036004820152602401610fbd565b506001600160401b0390811660069290921b91821b911b82169091030190565b5f8183158401019250816001600160401b0316836001600160401b0316101561523f57604051633e6c0de960e11b81525f6004820152602401610fbd565b5090919050565b600682901b9290921c915f825b8281101561527a57604085901c946001600160401b03168015019190910190600101615253565b509190039003919050565b60605f615291836158b8565b6040805160208082528183019092529192505f91906020820181803683375050509182525060208101929092525090565b5f8082116152ce575f80fd5b5f7e818283848586878898a8b8c8d8e8f929395969799a9b9d9e9faaeb6bedeeff600184190184160260f81c905060405180610120016040528061010081526020016169846101009139818151811061532957615329616401565b016020015160f81c9392505050565b5f81830361534757505f6118b3565b8183106153695760405163163da48960e01b81525f6004820152602401610fbd565b61800082111561538e5760405163163da48960e01b81525f6004820152602401610fbd565b5f615398846150ca565b90505f6153a4846150ca565b90505f80808060035b5f8782815181106153c0576153c0616401565b602002602001015190505f8783815181106153dd576153dd616401565b60200260200101519050816020015185019450806020015184019350815f0151815f015103615446576154328d846004811061541b5761541b616401565b84515f908152910160205260409020548686615246565b6001600160401b03168701965050506157be565b8151815160049190031015615525576154828d846004811061546a5761546a616401565b84515f90815291016020526040902054866004615246565b6001600160401b031696909601956154bc8d84600481106154a5576154a5616401565b83515f908152910160205260408120549086615246565b82516001600160401b039190911697909701966001015b815181101561551d576155078e85600481106154f1576154f1616401565b5f84815291016020526040812054906004615246565b6001600160401b031697909701966001016154d3565b5050506157be565b81516003165f036155715761555c8d846004811061554557615545616401565b84515f908152910160205260408120549087615246565b6001600160401b0316860195505f945061566c565b81516003166001036155d0576155ad8d846004811061559257615592616401565b84515f19015f90815291016020526040812054906004615246565b6001600160401b0316959095019461555c8d846004811061554557615545616401565b8151600316600203615645576155f18d846004811061546a5761546a616401565b6001600160401b0316969096019561562f8d846004811061561457615614616401565b84516001015f90815291016020526040812054906004615246565b6001600160401b0316870196506001945061566c565b61565a8d846004811061546a5761546a616401565b6001600160401b031687019650600194505b80516003165f036156a15761568c8d84600481106154a5576154a5616401565b6001600160401b0316870196505f93506157b4565b8051600316600103615700576156dd8d84600481106156c2576156c2616401565b83515f19015f90815291016020526040812054906004615246565b6001600160401b0316969096019561568c8d84600481106154a5576154a5616401565b805160031660020361578d576157398d846004811061572157615721616401565b83515f90815291016020526040902054856004615246565b6001600160401b031695909501946157778d846004811061575c5761575c616401565b83516001015f90815291016020526040812054906004615246565b6001600160401b031686019550600193506157b4565b6157a28d846004811061572157615721616401565b6001600160401b031686019550600193505b50505f19016153ad565b50505090039695505050505050565b5f806157d7613f86565b6001600160a01b031603613639575f6157fb5f805160206169648339815191525490565b6001600160801b0316905082817ffcac7593714b88fec0c578a53e9f3f6e4b47eb26c9dcaa7eff23a3ac156be42201556001915050919050565b80515f03613bd1576040517f36bc48c500000000000000000000000000000000000000000000000000000000815260040160405180910390fd5b5f6158855f805160206169648339815191525490565b6001600160801b031690505f817ffcac7593714b88fec0c578a53e9f3f6e4b47eb26c9dcaa7eff23a3ac156be422015550565b5f60ff8216601f811115610c86576040517fb3512b0c00000000000000000000000000000000000000000000000000000000815260040160405180910390fd5b6001600160e01b031981168114611b26575f80fd5b5f6020828403121561591d575f80fd5b81356118b3816158f8565b5f5b8381101561594257818101518382015260200161592a565b50505f910152565b5f8151808452615961816020860160208601615928565b601f01601f19169290920160200192915050565b602081525f6118b3602083018461594a565b5f60208284031215615997575f80fd5b5035919050565b6001600160a01b0381168114611b26575f80fd5b5f80604083850312156159c3575f80fd5b82356159ce8161599e565b946020939093013593505050565b5f8083601f8401126159ec575f80fd5b5081356001600160401b03811115615a02575f80fd5b602083019150836020828501011115615a19575f80fd5b9250929050565b5f805f8385036060811215615a33575f80fd5b6040811215615a40575f80fd5b5083925060408401356001600160401b03811115615a5c575f80fd5b615a68868287016159dc565b9497909650939450505050565b5f805f838503610140811215615a89575f80fd5b61012080821215615a98575f80fd5b85945084013590506001600160401b03811115615a5c575f80fd5b5f60c08284031215611992575f80fd5b5f60c08284031215615ad3575f80fd5b6118b38383615ab3565b5f805f60608486031215615aef575f80fd5b8335615afa8161599e565b92506020840135615b0a8161599e565b929592945050506040919091013590565b5f805f60408486031215615b2d575f80fd5b8335925060208401356001600160401b03811115615a5c575f80fd5b5f60208284031215615b59575f80fd5b81356118b38161599e565b5f805f838503610120811215615b78575f80fd5b61010080821215615a98575f80fd5b5f8060408385031215615b98575f80fd5b8235615ba38161599e565b91506020830135615bb38161599e565b809150509250929050565b80356001600160c01b0381168114613639575f80fd5b8035600281900b8114613639575f80fd5b5f8060408385031215615bf6575f80fd5b615bff83615bbe565b9150615c0d60208401615bd4565b90509250929050565b5f60208284031215615c26575f80fd5b6118b382615bbe565b5f805f805f8060c08789031215615c44575f80fd5b8635615c4f8161599e565b95506020870135945060408701359350606087013560ff81168114615c72575f80fd5b9598949750929560808101359460a0909101359350915050565b7fff00000000000000000000000000000000000000000000000000000000000000881681525f602060e06020840152615cc860e084018a61594a565b8381036040850152615cda818a61594a565b606085018990526001600160a01b038816608086015260a0850187905284810360c0860152855180825260208088019350909101905f5b81811015615d2d57835183529284019291840191600101615d11565b50909c9b505050505050505050505050565b60c08101610c8682846001600160a01b038082511683526001600160401b036020830151166020840152806040830151166040840152606082015162ffffff80821660608601528260808501511660808601528060a08501511660a08601525050505050565b5f805f60408486031215615db7575f80fd5b8335615dc28161599e565b925060208401356001600160401b03811115615a5c575f80fd5b5f8060408385031215615ded575f80fd5b8235615df88161599e565b915060208301358015158114615bb3575f80fd5b634e487b7160e01b5f52604160045260245ffd5b604051601f8201601f191681016001600160401b0381118282101715615e4857615e48615e0c565b604052919050565b5f6001600160401b03821115615e6857615e68615e0c565b50601f01601f191660200190565b5f805f8060808587031215615e89575f80fd5b8435615e948161599e565b93506020850135615ea48161599e565b92506040850135915060608501356001600160401b03811115615ec5575f80fd5b8501601f81018713615ed5575f80fd5b8035615ee8615ee382615e50565b615e20565b818152886020838501011115615efc575f80fd5b816020840160208301375f6020838301015280935050505092959194509250565b5f8060408385031215615f2e575f80fd5b50508035926020909101359150565b5f805f60e08486031215615f4f575f80fd5b615f598585615ab3565b925060c08401356001600160401b03811115615a5c575f80fd5b600181811c90821680615f8757607f821691505b60208210810361199257634e487b7160e01b5f52602260045260245ffd5b6001600160401b0381168114611b26575f80fd5b5f60208284031215615fc9575f80fd5b81356118b381615fa5565b5f60208284031215615fe4575f80fd5b6118b382615bd4565b62ffffff81168114611b26575f80fd5b5f60c0828403121561600d575f80fd5b60405160c081018181106001600160401b038211171561602f5761602f615e0c565b60405290508082356160408161599e565b8152602083013561605081615fa5565b602082015260408301356160638161599e565b6040820152606083013561607681615fed565b606082015260808301356160898161599e565b608082015260a083013561609c81615fed565b60a0919091015292915050565b5f60c082840312156160b9575f80fd5b6118b38383615ffd565b5f61012082840312156160d4575f80fd5b604051608081018181106001600160401b03821117156160f6576160f6615e0c565b6040526161038484615ffd565b815261611160c08401615bd4565b602082015260e083013561612481615fa5565b60408201526101008301356161388161599e565b60608201529392505050565b5f60208284031215616154575f80fd5b81356118b381615fed565b634e487b7160e01b5f52601160045260245ffd5b5f7f800000000000000000000000000000000000000000000000000000000000000082036161a3576161a361615f565b505f0390565b8082018281125f8312801582168215821617156161c8576161c861615f565b505092915050565b80820180821115610c8657610c8661615f565b81810381811115610c8657610c8661615f565b5f6101008284031215616207575f80fd5b604051606081018181106001600160401b038211171561622957616229615e0c565b6040526162368484615ffd565b815261624460c08401615bd4565b602082015260e083013561625781615fa5565b60408201529392505050565b8181035f8312801583831316838312821617156123685761236861615f565b828152604060208201525f613361604083018461594a565b5f602082840312156162aa575f80fd5b81516118b3816158f8565b81835281816020850137505f828201602090810191909152601f909101601f19169091010190565b6001600160a01b0384168152604060208201525f6149596040830184866162b5565b5f6020828403121561630f575f80fd5b81516001600160401b03811115616324575f80fd5b8201601f81018413616334575f80fd5b8051616342615ee382615e50565b818152856020838501011115616356575f80fd5b614959826020830160208601615928565b5f8351616378818460208801615928565b83519083019061638c818360208801615928565b01949350505050565b8082028115828204841417610c8657610c8661615f565b8035825260208101356163be81615fa5565b6001600160401b0381166020840152505050565b6001600160a01b03851681526163eb60208201856163ac565b608060608201525f614d856080830184866162b5565b634e487b7160e01b5f52603260045260245ffd5b6001600160401b038181168382160190808211156123685761236861615f565b6001600160a01b038616815261644e60208201866163ac565b6001600160401b038416606082015260a060808201525f61647360a0830184866162b5565b979650505050505050565b5f8160020b627fffff1981036164965761649661615f565b5f0392915050565b6165018282516001600160a01b038082511683526001600160401b036020830151166020840152806040830151166040840152606082015162ffffff80821660608601528260808501511660808601528060a08501511660a08601525050505050565b602081015160020b60c083015260408101516001600160401b031660e0830152606001516001600160a01b031661010090910152565b5f6101606001600160a01b0387168352616554602084018761649e565b8061014084015261647381840185876162b5565b5f6101806001600160a01b0388168352616585602084018861649e565b8561014084015280610160840152612afc81840185876162b5565b6001600160a01b0385168152836020820152606060408201525f614d856060830184866162b5565b6001600160a01b03861681528460208201526001600160401b0384166040820152608060608201525f6164736080830184866162b5565b6166628282516001600160a01b038082511683526001600160401b036020830151166020840152806040830151166040840152606082015162ffffff80821660608601528260808501511660808601528060a08501511660a08601525050505050565b602081015160020b60c0830152604001516001600160401b031660e090910152565b5f6101406001600160a01b03871683526166a160208401876165ff565b8061012084015261647381840185876162b5565b5f6101606001600160a01b03881683526166d260208401886165ff565b6001600160401b03861661012084015280610140840152612afc81840185876162b5565b6001600160401b038281168282160390808211156123685761236861615f565b5f60208284031215616726575f80fd5b5051919050565b5f6001600160a01b03808716835280861660208401525083604083015260806060830152614d85608083018461594a565b5f6101006001600160a01b03871683526167d360208401876001600160a01b038082511683526001600160401b036020830151166020840152806040830151166040840152606082015162ffffff80821660608601528260808501511660808601528060a08501511660a08601525050505050565b8060e084015261647381840185876162b5565b81356167f18161599e565b81546001600160a01b0319166001600160a01b03821617825550602082013561681981615fa5565b81547fffffffff0000000000000000ffffffffffffffffffffffffffffffffffffffff1660a09190911b7bffffffffffffffff0000000000000000000000000000000000000000161781556001810160408301356168768161599e565b81546001600160a01b0319166001600160a01b03821617825550606083013561689e81615fed565b815462ffffff60a01b191660a082901b62ffffff60a01b1617825550506002810160808301356168cd8161599e565b81546001600160a01b0319166001600160a01b0382161782555060a08301356168f581615fed565b815462ffffff60a01b191660a082901b62ffffff60a01b16178255611311565b5f8261692f57634e487b7160e01b5f52601260045260245ffd5b500490565b634e487b7160e01b5f52602160045260245ffd5b5f8251616959818460208701615928565b919091019291505056fe760a9a962ae3d184e99c0483cf5684fb3170f47116ca4f445c50209da4f4f9070001020903110a19042112290b311a3905412245134d2a550c5d32651b6d3a7506264262237d468514804e8d2b95569d0d495ea533a966b11c886eb93bc176c9071727374353637324837e9b47af86c7155181ad4fd18ed32c9096db57d59ee30e2e4a6a5f92a6be3498aae067ddb2eb1d5989b56fd7baf33ca0c2ee77e5caf7ff0810182028303840444c545c646c7425617c847f8c949c48a4a8b087b8c0c816365272829aaec650acd0d28fdad4e22d6991bd97dfdcea58b4d6f29fede4f6fe0f1f2f3f4b5b6b607b8b93a3a7b7bf357199c5abcfd9e168bcdee9b3f1ecf5fd1e3e5a7a8aa2b670c4ced8bbe8f0f4fc3d79a1c3cde7effb78cce6facbf9f8a2646970667358221220cc43c3cd54b29a7c7d228e5225339ccc2736213c927b9b09c9fda2b4f5b372b664736f6c63430008180033",
  "devdoc": {
    "errors": {
      "ECDSAInvalidSignature()": [
        {
          "details": "The signature derives the `address(0)`."
        }
      ],
      "ECDSAInvalidSignatureLength(uint256)": [
        {
          "details": "The signature has an invalid length."
        }
      ],
      "ECDSAInvalidSignatureS(bytes32)": [
        {
          "details": "The signature has an S value that is in the upper half order."
        }
      ],
      "ERC721IncorrectOwner(address,uint256,address)": [
        {
          "details": "Indicates an error related to the ownership over a particular token. Used in transfers.",
          "params": {
            "owner": "Address of the current owner of a token.",
            "sender": "Address whose tokens are being transferred.",
            "tokenId": "Identifier number of a token."
          }
        }
      ],
      "ERC721InsufficientApproval(address,uint256)": [
        {
          "details": "Indicates a failure with the `operator`s approval. Used in transfers.",
          "params": {
            "operator": "Address that may be allowed to operate on tokens without being their owner.",
            "tokenId": "Identifier number of a token."
          }
        }
      ],
      "ERC721InvalidApprover(address)": [
        {
          "details": "Indicates a failure with the `approver` of a token to be approved. Used in approvals.",
          "params": {
            "approver": "Address initiating an approval operation."
          }
        }
      ],
      "ERC721InvalidOperator(address)": [
        {
          "details": "Indicates a failure with the `operator` to be approved. Used in approvals.",
          "params": {
            "operator": "Address that may be allowed to operate on tokens without being their owner."
          }
        }
      ],
      "ERC721InvalidOwner(address)": [
        {
          "details": "Indicates that an address can't be an owner. For example, `address(0)` is a forbidden owner in ERC-20. Used in balance queries.",
          "params": {
            "owner": "Address of the current owner of a token."
          }
        }
      ],
      "ERC721InvalidReceiver(address)": [
        {
          "details": "Indicates a failure with the token `receiver`. Used in transfers.",
          "params": {
            "receiver": "Address to which tokens are being transferred."
          }
        }
      ],
      "ERC721InvalidSender(address)": [
        {
          "details": "Indicates a failure with the token `sender`. Used in transfers.",
          "params": {
            "sender": "Address whose tokens are being transferred."
          }
        }
      ],
      "ERC721NonexistentToken(uint256)": [
        {
          "details": "Indicates a `tokenId` whose `owner` is the zero address.",
          "params": {
            "tokenId": "Identifier number of a token."
          }
        }
      ],
      "HookAddressNotValid(address)": [
        {
          "params": {
            "hooks": "The address of the hooks contract"
          }
        }
      ],
      "OwnableInvalidOwner(address)": [
        {
          "details": "The owner is not a valid owner account. (eg. `address(0)`)"
        }
      ],
      "OwnableUnauthorizedAccount(address)": [
        {
          "details": "The caller account is not authorized to perform an operation."
        }
      ],
      "SafeCastOverflowedIntToUint(int256)": [
        {
          "details": "An int value doesn't fit in an uint of `bits` size."
        }
      ],
      "SafeCastOverflowedUintDowncast(uint8,uint256)": [
        {
          "details": "Value doesn't fit in an uint of `bits` size."
        }
      ],
      "SafeCastOverflowedUintToInt(uint256)": [
        {
          "details": "An uint value doesn't fit in an int of `bits` size."
        }
      ]
    },
    "events": {
      "Approval(address,address,uint256)": {
        "details": "Emitted when `owner` enables `approved` to manage the `tokenId` token."
      },
      "ApprovalForAll(address,address,bool)": {
        "details": "Emitted when `owner` enables or disables (`approved`) `operator` to manage all of its assets."
      },
      "Cancel(uint256,uint64)": {
        "params": {
          "orderId": "The order id",
          "unit": "The canceled unit"
        }
      },
      "Claim(uint256,uint64)": {
        "params": {
          "orderId": "The order id",
          "unit": "The claimed unit"
        }
      },
      "Collect(address,address,address,uint256)": {
        "params": {
          "amount": "The collected amount",
          "currency": "The currency",
          "provider": "The provider address",
          "recipient": "The recipient address"
        }
      },
      "Delist(address)": {
        "params": {
          "provider": "The provider address"
        }
      },
      "EIP712DomainChanged()": {
        "details": "MAY be emitted to signal that the domain could have changed."
      },
      "Make(uint192,address,int24,uint256,uint64,address)": {
        "params": {
          "bookId": "The book id",
          "orderIndex": "The order index",
          "provider": "The provider address",
          "tick": "The order tick",
          "unit": "The order unit",
          "user": "The user address"
        }
      },
      "Open(uint192,address,address,uint64,uint24,uint24,address)": {
        "params": {
          "base": "The base currency",
          "hooks": "The hooks contract",
          "id": "The book id",
          "makerPolicy": "The maker fee policy",
          "quote": "The quote currency",
          "takerPolicy": "The taker fee policy",
          "unitSize": "The unit size of the book"
        }
      },
      "SetDefaultProvider(address)": {
        "params": {
          "newDefaultProvider": "The new default provider address"
        }
      },
      "Take(uint192,address,int24,uint64)": {
        "params": {
          "bookId": "The book id",
          "tick": "The order tick",
          "unit": "The order unit",
          "user": "The user address"
        }
      },
      "Transfer(address,address,uint256)": {
        "details": "Emitted when `tokenId` token is transferred from `from` to `to`."
      },
      "Whitelist(address)": {
        "params": {
          "provider": "The provider address"
        }
      }
    },
    "kind": "dev",
    "methods": {
      "acceptOwnership()": {
        "details": "The new owner accepts the ownership transfer."
      },
      "approve(address,uint256)": {
        "details": "See {IERC721-approve}."
      },
      "balanceOf(address)": {
        "details": "See {IERC721-balanceOf}."
      },
      "cancel((uint256,uint64),bytes)": {
        "params": {
          "hookData": "The hook data",
          "params": "The order parameters"
        },
        "returns": {
          "canceledAmount": "The amount of quote currency canceled"
        }
      },
      "checkAuthorized(address,address,uint256)": {
        "params": {
          "owner": "The address of the token owner",
          "spender": "The address of the spender",
          "tokenId": "The token ID"
        }
      },
      "claim(uint256,bytes)": {
        "params": {
          "hookData": "The hook data",
          "id": "The order ID"
        },
        "returns": {
          "claimedAmount": "The amount claimed"
        }
      },
      "collect(address,address)": {
        "params": {
          "currency": "The currency",
          "recipient": "The recipient address"
        },
        "returns": {
          "amount": "The collected amount"
        }
      },
      "delist(address)": {
        "params": {
          "provider": "The provider address"
        }
      },
      "eip712Domain()": {
        "details": "See {IERC-5267}."
      },
      "encodeBookKey((address,uint64,address,uint24,address,uint24))": {
        "params": {
          "key": "The BookKey to encode"
        },
        "returns": {
          "_0": "The encoded BookId"
        }
      },
      "getApproved(uint256)": {
        "details": "See {IERC721-getApproved}."
      },
      "getBookKey(uint192)": {
        "params": {
          "id": "The book ID"
        },
        "returns": {
          "_0": "The book key"
        }
      },
      "getCurrencyDelta(address,address)": {
        "params": {
          "currency": "The currency in question",
          "locker": "The address of the locker"
        },
        "returns": {
          "_0": "The net change in currency balance"
        }
      },
      "getDepth(uint192,int24)": {
        "params": {
          "id": "The book ID",
          "tick": "The tick"
        },
        "returns": {
          "_0": "The depth of the tick"
        }
      },
      "getHighest(uint192)": {
        "params": {
          "id": "The book ID"
        },
        "returns": {
          "_0": "The highest tick"
        }
      },
      "getLock(uint256)": {
        "params": {
          "i": "The index of the lock"
        },
        "returns": {
          "_0": "The locker's address",
          "_1": "The caller's address"
        }
      },
      "getLockData()": {
        "returns": {
          "_0": "The lock data including necessary numeric values"
        }
      },
      "getOrder(uint256)": {
        "params": {
          "id": "The order ID"
        },
        "returns": {
          "_0": "Order information including provider, open status, and claimable unit"
        }
      },
      "isApprovedForAll(address,address)": {
        "details": "See {IERC721-isApprovedForAll}."
      },
      "isEmpty(uint192)": {
        "params": {
          "id": "The book ID"
        },
        "returns": {
          "_0": "True if the book is empty, false otherwise"
        }
      },
      "isOpened(uint192)": {
        "params": {
          "id": "The book ID"
        },
        "returns": {
          "_0": "True if the book is opened, false otherwise"
        }
      },
      "load(bytes32)": {
        "params": {
          "slot": "The storage slot"
        },
        "returns": {
          "value": "The value in the slot"
        }
      },
      "load(bytes32,uint256)": {
        "params": {
          "nSlot": "The number of slots to load",
          "startSlot": "The starting slot"
        },
        "returns": {
          "value": "The sequence of values"
        }
      },
      "lock(address,bytes)": {
        "params": {
          "data": "The lock data",
          "locker": "The locker address"
        },
        "returns": {
          "result": "The lock return data"
        }
      },
      "make(((address,uint64,address,uint24,address,uint24),int24,uint64,address),bytes)": {
        "params": {
          "hookData": "The hook data",
          "params": "The order parameters"
        },
        "returns": {
          "id": "The order id. Returns 0 if the order is not settled",
          "quoteAmount": "The amount of quote currency to be paid"
        }
      },
      "maxLessThan(uint192,int24)": {
        "details": "Returns `Tick.wrap(type(int24).min)` if the specified tick is the lowest",
        "params": {
          "id": "The book ID",
          "tick": "The specified tick"
        },
        "returns": {
          "_0": "The next lower tick"
        }
      },
      "name()": {
        "details": "See {IERC721Metadata-name}."
      },
      "open((address,uint64,address,uint24,address,uint24),bytes)": {
        "params": {
          "hookData": "The hook data",
          "key": "The book key"
        }
      },
      "owner()": {
        "details": "Returns the address of the current owner."
      },
      "ownerOf(uint256)": {
        "details": "See {IERC721-ownerOf}."
      },
      "pendingOwner()": {
        "details": "Returns the address of the pending owner."
      },
      "permit(address,uint256,uint256,uint8,bytes32,bytes32)": {
        "params": {
          "deadline": "The deadline for the signature",
          "r": "The r value of the signature",
          "s": "The s value of the signature",
          "spender": "The address to approve",
          "tokenId": "The tokenId to approve",
          "v": "The recovery id of the signature"
        }
      },
      "renounceOwnership()": {
        "details": "Leaves the contract without owner. It will not be possible to call `onlyOwner` functions. Can only be called by the current owner. NOTE: Renouncing ownership will leave the contract without an owner, thereby disabling any functionality that is only available to the owner."
      },
      "safeTransferFrom(address,address,uint256)": {
        "details": "See {IERC721-safeTransferFrom}."
      },
      "safeTransferFrom(address,address,uint256,bytes)": {
        "details": "See {IERC721-safeTransferFrom}."
      },
      "setApprovalForAll(address,bool)": {
        "details": "See {IERC721-setApprovalForAll}."
      },
      "setDefaultProvider(address)": {
        "params": {
          "newDefaultProvider": "The new default provider address"
        }
      },
      "settle(address)": {
        "params": {
          "currency": "The currency"
        },
        "returns": {
          "paid": "The settled amount"
        }
      },
      "symbol()": {
        "details": "See {IERC721Metadata-symbol}."
      },
      "take(((address,uint64,address,uint24,address,uint24),int24,uint64),bytes)": {
        "params": {
          "hookData": "The hook data",
          "params": "The order parameters"
        },
        "returns": {
          "baseAmount": "The amount of base currency to be paid",
          "quoteAmount": "The amount of quote currency to be received"
        }
      },
      "tokenURI(uint256)": {
        "details": "See {IERC721Metadata-tokenURI}."
      },
      "transferFrom(address,address,uint256)": {
        "details": "See {IERC721-transferFrom}."
      },
      "transferOwnership(address)": {
        "details": "Starts the ownership transfer of the contract to a new account. Replaces the pending transfer if there is one. Can only be called by the current owner."
      },
      "whitelist(address)": {
        "params": {
          "provider": "The provider address"
        }
      },
      "withdraw(address,address,uint256)": {
        "params": {
          "amount": "The amount",
          "currency": "The currency",
          "to": "The recipient address"
        }
      }
    },
    "stateVariables": {
      "baseURI": {
        "return": "The base URI",
        "returns": {
          "_0": "The base URI"
        }
      },
      "contractURI": {
        "return": "The contract URI",
        "returns": {
          "_0": "The contract URI"
        }
      },
      "defaultProvider": {
        "return": "The default provider",
        "returns": {
          "_0": "The default provider"
        }
      },
      "isWhitelisted": {
        "params": {
          "provider": "The address of the provider"
        },
        "return": "True if the provider is whitelisted, false otherwise",
        "returns": {
          "_0": "True if the provider is whitelisted, false otherwise"
        }
      },
      "reservesOf": {
        "params": {
          "currency": "The currency in question"
        },
        "return": "The total reserves amount",
        "returns": {
          "_0": "The total reserves amount"
        }
      },
      "tokenOwed": {
        "params": {
          "currency": "The currency in question",
          "provider": "The provider's address"
        },
        "return": "amount The owed amount",
        "returns": {
          "amount": "The owed amount"
        }
      }
    },
    "version": 1
  },
  "userdoc": {
    "errors": {
      "ERC20TransferFailed()": [
        {
          "notice": "Thrown when an ERC20 transfer fails"
        }
      ],
      "FailedHookCall()": [
        {
          "notice": "thrown when a hook call fails"
        }
      ],
      "HookAddressNotValid(address)": [
        {
          "notice": "Thrown if the address will not lead to the specified hook calls being called"
        }
      ],
      "InvalidHookResponse()": [
        {
          "notice": "Hook did not return its selector"
        }
      ],
      "NativeTransferFailed()": [
        {
          "notice": "Thrown when a native transfer fails"
        }
      ]
    },
    "events": {
      "Cancel(uint256,uint64)": {
        "notice": "Event emitted when an order is canceled"
      },
      "Claim(uint256,uint64)": {
        "notice": "Event emitted when an order is claimed"
      },
      "Collect(address,address,address,uint256)": {
        "notice": "Event emitted when a provider collects fees"
      },
      "Delist(address)": {
        "notice": "Event emitted when a provider is delisted"
      },
      "Make(uint192,address,int24,uint256,uint64,address)": {
        "notice": "Event emitted when a new order is made"
      },
      "Open(uint192,address,address,uint64,uint24,uint24,address)": {
        "notice": "Event emitted when a new book is opened"
      },
      "SetDefaultProvider(address)": {
        "notice": "Event emitted when new default provider is set"
      },
      "Take(uint192,address,int24,uint64)": {
        "notice": "Event emitted when an order is taken"
      },
      "Whitelist(address)": {
        "notice": "Event emitted when a provider is whitelisted"
      }
    },
    "kind": "user",
    "methods": {
      "DOMAIN_SEPARATOR()": {
        "notice": "The EIP-712 domain separator for this contract"
      },
      "PERMIT_TYPEHASH()": {
        "notice": "The EIP-712 typehash for the permit struct used by the contract"
      },
      "baseURI()": {
        "notice": "Returns the base URI"
      },
      "cancel((uint256,uint64),bytes)": {
        "notice": "Cancel a limit order"
      },
      "checkAuthorized(address,address,uint256)": {
        "notice": "Verifies if an owner has authorized a spender for a token"
      },
      "claim(uint256,bytes)": {
        "notice": "Claims an order"
      },
      "collect(address,address)": {
        "notice": "Collects fees from a provider"
      },
      "contractURI()": {
        "notice": "Returns the contract URI"
      },
      "defaultProvider()": {
        "notice": "Returns the default provider"
      },
      "delist(address)": {
        "notice": "Delists a provider"
      },
      "encodeBookKey((address,uint64,address,uint24,address,uint24))": {
        "notice": "Encodes a BookKey into a BookId"
      },
      "getBookKey(uint192)": {
        "notice": "Retrieves the book key for a given book ID"
      },
      "getCurrencyDelta(address,address)": {
        "notice": "Calculates the currency balance changes for a given locker"
      },
      "getDepth(uint192,int24)": {
        "notice": "Returns the depth of a given book ID and tick"
      },
      "getHighest(uint192)": {
        "notice": "Retrieves the highest tick for a given book ID"
      },
      "getLock(uint256)": {
        "notice": "Retrieves the locker and caller addresses for a given lock"
      },
      "getLockData()": {
        "notice": "Provides the lock data"
      },
      "getOrder(uint256)": {
        "notice": "Provides information about an order"
      },
      "isEmpty(uint192)": {
        "notice": "Checks if a book is empty"
      },
      "isOpened(uint192)": {
        "notice": "Checks if a book is opened"
      },
      "isWhitelisted(address)": {
        "notice": "Checks if a provider is whitelisted"
      },
      "load(bytes32)": {
        "notice": "Loads a value from a specific storage slot"
      },
      "load(bytes32,uint256)": {
        "notice": "Loads a sequence of values starting from a specific slot"
      },
      "lock(address,bytes)": {
        "notice": "Locks a book manager function"
      },
      "make(((address,uint64,address,uint24,address,uint24),int24,uint64,address),bytes)": {
        "notice": "Make a limit order"
      },
      "maxLessThan(uint192,int24)": {
        "notice": "Finds the maximum tick less than a specified tick in a book"
      },
      "open((address,uint64,address,uint24,address,uint24),bytes)": {
        "notice": "Opens a new book"
      },
      "permit(address,uint256,uint256,uint8,bytes32,bytes32)": {
        "notice": "Approve the spender to transfer the given tokenId"
      },
      "reservesOf(address)": {
        "notice": "Returns the total reserves of a given currency"
      },
      "setDefaultProvider(address)": {
        "notice": "Sets the default provider"
      },
      "settle(address)": {
        "notice": "Settles a currency"
      },
      "take(((address,uint64,address,uint24,address,uint24),int24,uint64),bytes)": {
        "notice": "Take a limit order at specific tick"
      },
      "tokenOwed(address,address)": {
        "notice": "Calculates the amount owed to a provider in a given currency"
      },
      "whitelist(address)": {
        "notice": "Whitelists a provider"
      },
      "withdraw(address,address,uint256)": {
        "notice": "Withdraws a currency"
      }
    },
    "version": 1
  },
  "storageLayout": {
    "storage": [
      {
        "astId": 10043,
        "contract": "src/BookManager.sol:BookManager",
        "label": "_name",
        "offset": 0,
        "slot": "0",
        "type": "t_string_storage"
      },
      {
        "astId": 10045,
        "contract": "src/BookManager.sol:BookManager",
        "label": "_symbol",
        "offset": 0,
        "slot": "1",
        "type": "t_string_storage"
      },
      {
        "astId": 10049,
        "contract": "src/BookManager.sol:BookManager",
        "label": "_balances",
        "offset": 0,
        "slot": "2",
        "type": "t_mapping(t_address,t_uint256)"
      },
      {
        "astId": 10053,
        "contract": "src/BookManager.sol:BookManager",
        "label": "_tokenApprovals",
        "offset": 0,
        "slot": "3",
        "type": "t_mapping(t_uint256,t_address)"
      },
      {
        "astId": 10059,
        "contract": "src/BookManager.sol:BookManager",
        "label": "_operatorApprovals",
        "offset": 0,
        "slot": "4",
        "type": "t_mapping(t_address,t_mapping(t_address,t_bool))"
      },
      {
        "astId": 8,
        "contract": "src/BookManager.sol:BookManager",
        "label": "_owner",
        "offset": 0,
        "slot": "5",
        "type": "t_address"
      },
      {
        "astId": 156,
        "contract": "src/BookManager.sol:BookManager",
        "label": "_pendingOwner",
        "offset": 0,
        "slot": "6",
        "type": "t_address"
      },
      {
        "astId": 2707,
        "contract": "src/BookManager.sol:BookManager",
        "label": "_nameFallback",
        "offset": 0,
        "slot": "7",
        "type": "t_string_storage"
      },
      {
        "astId": 2709,
        "contract": "src/BookManager.sol:BookManager",
        "label": "_versionFallback",
        "offset": 0,
        "slot": "8",
        "type": "t_string_storage"
      },
      {
        "astId": 11053,
        "contract": "src/BookManager.sol:BookManager",
        "label": "_nonceAndOwner",
        "offset": 0,
        "slot": "9",
        "type": "t_mapping(t_uint256,t_uint256)"
      },
      {
        "astId": 6511,
        "contract": "src/BookManager.sol:BookManager",
        "label": "baseURI",
        "offset": 0,
        "slot": "10",
        "type": "t_string_storage"
      },
      {
        "astId": 6514,
        "contract": "src/BookManager.sol:BookManager",
        "label": "contractURI",
        "offset": 0,
        "slot": "11",
        "type": "t_string_storage"
      },
      {
        "astId": 6517,
        "contract": "src/BookManager.sol:BookManager",
        "label": "defaultProvider",
        "offset": 0,
        "slot": "12",
        "type": "t_address"
      },
      {
        "astId": 6523,
        "contract": "src/BookManager.sol:BookManager",
        "label": "reservesOf",
        "offset": 0,
        "slot": "13",
        "type": "t_mapping(t_userDefinedValueType(Currency)9632,t_uint256)"
      },
      {
        "astId": 6529,
        "contract": "src/BookManager.sol:BookManager",
        "label": "_books",
        "offset": 0,
        "slot": "14",
        "type": "t_mapping(t_userDefinedValueType(BookId)9605,t_struct(State)8941_storage)"
      },
      {
        "astId": 6534,
        "contract": "src/BookManager.sol:BookManager",
        "label": "isWhitelisted",
        "offset": 0,
        "slot": "15",
        "type": "t_mapping(t_address,t_bool)"
      },
      {
        "astId": 6542,
        "contract": "src/BookManager.sol:BookManager",
        "label": "tokenOwed",
        "offset": 0,
        "slot": "16",
        "type": "t_mapping(t_address,t_mapping(t_userDefinedValueType(Currency)9632,t_uint256))"
      }
    ],
    "types": {
      "t_address": {
        "encoding": "inplace",
        "label": "address",
        "numberOfBytes": "20"
      },
      "t_array(t_mapping(t_uint256,t_uint256))4_storage": {
        "base": "t_mapping(t_uint256,t_uint256)",
        "encoding": "inplace",
        "label": "mapping(uint256 => uint256)[4]",
        "numberOfBytes": "128"
      },
      "t_array(t_struct(Order)8915_storage)dyn_storage": {
        "base": "t_struct(Order)8915_storage",
        "encoding": "dynamic_array",
        "label": "struct Book.Order[]",
        "numberOfBytes": "32"
      },
      "t_bool": {
        "encoding": "inplace",
        "label": "bool",
        "numberOfBytes": "1"
      },
      "t_contract(IHooks)8828": {
        "encoding": "inplace",
        "label": "contract IHooks",
        "numberOfBytes": "20"
      },
      "t_mapping(t_address,t_bool)": {
        "encoding": "mapping",
        "key": "t_address",
        "label": "mapping(address => bool)",
        "numberOfBytes": "32",
        "value": "t_bool"
      },
      "t_mapping(t_address,t_mapping(t_address,t_bool))": {
        "encoding": "mapping",
        "key": "t_address",
        "label": "mapping(address => mapping(address => bool))",
        "numberOfBytes": "32",
        "value": "t_mapping(t_address,t_bool)"
      },
      "t_mapping(t_address,t_mapping(t_userDefinedValueType(Currency)9632,t_uint256))": {
        "encoding": "mapping",
        "key": "t_address",
        "label": "mapping(address => mapping(Currency => uint256))",
        "numberOfBytes": "32",
        "value": "t_mapping(t_userDefinedValueType(Currency)9632,t_uint256)"
      },
      "t_mapping(t_address,t_uint256)": {
        "encoding": "mapping",
        "key": "t_address",
        "label": "mapping(address => uint256)",
        "numberOfBytes": "32",
        "value": "t_uint256"
      },
      "t_mapping(t_uint24,t_uint256)": {
        "encoding": "mapping",
        "key": "t_uint24",
        "label": "mapping(uint24 => uint256)",
        "numberOfBytes": "32",
        "value": "t_uint256"
      },
      "t_mapping(t_uint256,t_address)": {
        "encoding": "mapping",
        "key": "t_uint256",
        "label": "mapping(uint256 => address)",
        "numberOfBytes": "32",
        "value": "t_address"
      },
      "t_mapping(t_uint256,t_uint256)": {
        "encoding": "mapping",
        "key": "t_uint256",
        "label": "mapping(uint256 => uint256)",
        "numberOfBytes": "32",
        "value": "t_uint256"
      },
      "t_mapping(t_userDefinedValueType(BookId)9605,t_struct(State)8941_storage)": {
        "encoding": "mapping",
        "key": "t_userDefinedValueType(BookId)9605",
        "label": "mapping(BookId => struct Book.State)",
        "numberOfBytes": "32",
        "value": "t_struct(State)8941_storage"
      },
      "t_mapping(t_userDefinedValueType(Currency)9632,t_uint256)": {
        "encoding": "mapping",
        "key": "t_userDefinedValueType(Currency)9632",
        "label": "mapping(Currency => uint256)",
        "numberOfBytes": "32",
        "value": "t_uint256"
      },
      "t_mapping(t_userDefinedValueType(Tick)14611,t_struct(Queue)8923_storage)": {
        "encoding": "mapping",
        "key": "t_userDefinedValueType(Tick)14611",
        "label": "mapping(Tick => struct Book.Queue)",
        "numberOfBytes": "32",
        "value": "t_struct(Queue)8923_storage"
      },
      "t_string_storage": {
        "encoding": "bytes",
        "label": "string",
        "numberOfBytes": "32"
      },
      "t_struct(BookKey)8292_storage": {
        "encoding": "inplace",
        "label": "struct IBookManager.BookKey",
        "members": [
          {
            "astId": 8277,
            "contract": "src/BookManager.sol:BookManager",
            "label": "base",
            "offset": 0,
            "slot": "0",
            "type": "t_userDefinedValueType(Currency)9632"
          },
          {
            "astId": 8279,
            "contract": "src/BookManager.sol:BookManager",
            "label": "unitSize",
            "offset": 20,
            "slot": "0",
            "type": "t_uint64"
          },
          {
            "astId": 8282,
            "contract": "src/BookManager.sol:BookManager",
            "label": "quote",
            "offset": 0,
            "slot": "1",
            "type": "t_userDefinedValueType(Currency)9632"
          },
          {
            "astId": 8285,
            "contract": "src/BookManager.sol:BookManager",
            "label": "makerPolicy",
            "offset": 20,
            "slot": "1",
            "type": "t_userDefinedValueType(FeePolicy)11305"
          },
          {
            "astId": 8288,
            "contract": "src/BookManager.sol:BookManager",
            "label": "hooks",
            "offset": 0,
            "slot": "2",
            "type": "t_contract(IHooks)8828"
          },
          {
            "astId": 8291,
            "contract": "src/BookManager.sol:BookManager",
            "label": "takerPolicy",
            "offset": 20,
            "slot": "2",
            "type": "t_userDefinedValueType(FeePolicy)11305"
          }
        ],
        "numberOfBytes": "96"
      },
      "t_struct(Core)13726_storage": {
        "encoding": "inplace",
        "label": "struct SegmentedSegmentTree.Core",
        "members": [
          {
            "astId": 13725,
            "contract": "src/BookManager.sol:BookManager",
            "label": "layers",
            "offset": 0,
            "slot": "0",
            "type": "t_array(t_mapping(t_uint256,t_uint256))4_storage"
          }
        ],
        "numberOfBytes": "128"
      },
      "t_struct(Order)8915_storage": {
        "encoding": "inplace",
        "label": "struct Book.Order",
        "members": [
          {
            "astId": 8912,
            "contract": "src/BookManager.sol:BookManager",
            "label": "provider",
            "offset": 0,
            "slot": "0",
            "type": "t_address"
          },
          {
            "astId": 8914,
            "contract": "src/BookManager.sol:BookManager",
            "label": "pending",
            "offset": 20,
            "slot": "0",
            "type": "t_uint64"
          }
        ],
        "numberOfBytes": "32"
      },
      "t_struct(Queue)8923_storage": {
        "encoding": "inplace",
        "label": "struct Book.Queue",
        "members": [
          {
            "astId": 8918,
            "contract": "src/BookManager.sol:BookManager",
            "label": "tree",
            "offset": 0,
            "slot": "0",
            "type": "t_struct(Core)13726_storage"
          },
          {
            "astId": 8922,
            "contract": "src/BookManager.sol:BookManager",
            "label": "orders",
            "offset": 0,
            "slot": "4",
            "type": "t_array(t_struct(Order)8915_storage)dyn_storage"
          }
        ],
        "numberOfBytes": "160"
      },
      "t_struct(State)8941_storage": {
        "encoding": "inplace",
        "label": "struct Book.State",
        "members": [
          {
            "astId": 8926,
            "contract": "src/BookManager.sol:BookManager",
            "label": "key",
            "offset": 0,
            "slot": "0",
            "type": "t_struct(BookKey)8292_storage"
          },
          {
            "astId": 8932,
            "contract": "src/BookManager.sol:BookManager",
            "label": "queues",
            "offset": 0,
            "slot": "3",
            "type": "t_mapping(t_userDefinedValueType(Tick)14611,t_struct(Queue)8923_storage)"
          },
          {
            "astId": 8936,
            "contract": "src/BookManager.sol:BookManager",
            "label": "tickBitmap",
            "offset": 0,
            "slot": "4",
            "type": "t_mapping(t_uint256,t_uint256)"
          },
          {
            "astId": 8940,
            "contract": "src/BookManager.sol:BookManager",
            "label": "totalClaimableOf",
            "offset": 0,
            "slot": "5",
            "type": "t_mapping(t_uint24,t_uint256)"
          }
        ],
        "numberOfBytes": "192"
      },
      "t_uint24": {
        "encoding": "inplace",
        "label": "uint24",
        "numberOfBytes": "3"
      },
      "t_uint256": {
        "encoding": "inplace",
        "label": "uint256",
        "numberOfBytes": "32"
      },
      "t_uint64": {
        "encoding": "inplace",
        "label": "uint64",
        "numberOfBytes": "8"
      },
      "t_userDefinedValueType(BookId)9605": {
        "encoding": "inplace",
        "label": "BookId",
        "numberOfBytes": "24"
      },
      "t_userDefinedValueType(Currency)9632": {
        "encoding": "inplace",
        "label": "Currency",
        "numberOfBytes": "20"
      },
      "t_userDefinedValueType(FeePolicy)11305": {
        "encoding": "inplace",
        "label": "FeePolicy",
        "numberOfBytes": "3"
      },
      "t_userDefinedValueType(Tick)14611": {
        "encoding": "inplace",
        "label": "Tick",
        "numberOfBytes": "3"
      }
    }
  }
}