{
  "address": "0xDb470b5f2191B67E997138423331D6C3eB985Bb9",
  "abi": [
    {
      "inputs": [
        {
          "internalType": "contract IBookManager",
          "name": "bookManager_",
          "type": "address"
        }
      ],
      "stateMutability": "nonpayable",
      "type": "constructor"
    },
    {
      "inputs": [],
      "name": "InvalidTick",
      "type": "error"
    },
    {
      "inputs": [
        {
          "internalType": "uint256",
          "name": "value",
          "type": "uint256"
        }
      ],
      "name": "SafeCastOverflowedUintToInt",
      "type": "error"
    },
    {
      "inputs": [],
      "name": "bookManager",
      "outputs": [
        {
          "internalType": "contract IBookManager",
          "name": "",
          "type": "address"
        }
      ],
      "stateMutability": "view",
      "type": "function"
    },
    {
      "inputs": [
        {
          "components": [
            {
              "internalType": "BookId",
              "name": "id",
              "type": "uint192"
            },
            {
              "internalType": "uint256",
              "name": "limitPrice",
              "type": "uint256"
            },
            {
              "internalType": "uint256",
              "name": "quoteAmount",
              "type": "uint256"
            },
            {
              "internalType": "bytes",
              "name": "hookData",
              "type": "bytes"
            }
          ],
          "internalType": "struct IController.TakeOrderParams",
          "name": "params",
          "type": "tuple"
        }
      ],
      "name": "getExpectedInput",
      "outputs": [
        {
          "internalType": "uint256",
          "name": "takenQuoteAmount",
          "type": "uint256"
        },
        {
          "internalType": "uint256",
          "name": "spendBaseAmount",
          "type": "uint256"
        }
      ],
      "stateMutability": "view",
      "type": "function"
    },
    {
      "inputs": [
        {
          "components": [
            {
              "internalType": "BookId",
              "name": "id",
              "type": "uint192"
            },
            {
              "internalType": "uint256",
              "name": "limitPrice",
              "type": "uint256"
            },
            {
              "internalType": "uint256",
              "name": "baseAmount",
              "type": "uint256"
            },
            {
              "internalType": "bytes",
              "name": "hookData",
              "type": "bytes"
            }
          ],
          "internalType": "struct IController.SpendOrderParams",
          "name": "params",
          "type": "tuple"
        }
      ],
      "name": "getExpectedOutput",
      "outputs": [
        {
          "internalType": "uint256",
          "name": "takenQuoteAmount",
          "type": "uint256"
        },
        {
          "internalType": "uint256",
          "name": "spendBaseAmount",
          "type": "uint256"
        }
      ],
      "stateMutability": "view",
      "type": "function"
    },
    {
      "inputs": [
        {
          "internalType": "BookId",
          "name": "id",
          "type": "uint192"
        },
        {
          "internalType": "Tick",
          "name": "tick",
          "type": "int24"
        },
        {
          "internalType": "uint256",
          "name": "n",
          "type": "uint256"
        }
      ],
      "name": "getLiquidity",
      "outputs": [
        {
          "components": [
            {
              "internalType": "Tick",
              "name": "tick",
              "type": "int24"
            },
            {
              "internalType": "uint64",
              "name": "depth",
              "type": "uint64"
            }
          ],
          "internalType": "struct IBookViewer.Liquidity[]",
          "name": "liquidity",
          "type": "tuple[]"
        }
      ],
      "stateMutability": "view",
      "type": "function"
    }
  ],
  "transactionHash": "0x0f9b663d75b903c994ddb462886d7decf4877f9b9c5c6a60f1bea4b2c71d58d7",
  "args": [
    "0x6563188ADfBa863B42B50d010ed0fCD09fBDcD59"
  ],
  "numDeployments": 1,
  "solcInputHash": "1899820ed803b64636b3a251ead847ba",
  "bytecode": "0x60a060405234801561001057600080fd5b5060405161180338038061180383398101604081905261002f91610040565b6001600160a01b0316608052610070565b60006020828403121561005257600080fd5b81516001600160a01b038116811461006957600080fd5b9392505050565b6080516117176100ec6000396000818160560152818161017c01528181610228015281816102fc015281816103b901528181610466015281816104fd015281816105a5015281816106ea01528181610852015281816108ff0152818161099601528181610a3e01528181610ba50152610cf901526117176000f3fe608060405234801561001057600080fd5b506004361061004c5760003560e01c80633f322bc914610051578063694d8a291461009557806378509631146100b5578063b2912644146100dd575b600080fd5b6100787f000000000000000000000000000000000000000000000000000000000000000081565b6040516001600160a01b0390911681526020015b60405180910390f35b6100a86100a33660046112bc565b6100f0565b60405161008c91906112fb565b6100c86100c336600461148b565b61043e565b6040805192835260208301919091520161008c565b6100c86100eb36600461148b565b6108d7565b60608167ffffffffffffffff81111561010b5761010b611357565b60405190808252806020026020018201604052801561015057816020015b60408051808201909152600080825260208201528152602001906001900390816101295790505b50604051630835177160e31b81526001600160c01b0386166004820152600285900b60248201529091507f00000000000000000000000000000000000000000000000000000000000000006001600160a01b0316906341a8bb8890604401602060405180830381865afa1580156101cb573d6000803e3d6000fd5b505050506040513d601f19601f820116820180604052508101906101ef91906114d8565b67ffffffffffffffff1660000361029e576040516349b1e5c560e11b81526001600160c01b0385166004820152600284900b60248201527f00000000000000000000000000000000000000000000000000000000000000006001600160a01b031690639363cb8a90604401602060405180830381865afa158015610277573d6000803e3d6000fd5b505050506040513d601f19601f8201168201806040525081019061029b91906114fa565b92505b60005b828110156104365762800000600285900b011561043657604080518082018252600286900b8082529151630835177160e31b81526001600160c01b038816600482015260248101929092529060208201906001600160a01b037f000000000000000000000000000000000000000000000000000000000000000016906341a8bb8890604401602060405180830381865afa158015610343573d6000803e3d6000fd5b505050506040513d601f19601f8201168201806040525081019061036791906114d8565b67ffffffffffffffff1681525082828151811061038657610386611517565b60209081029190910101526040516349b1e5c560e11b81526001600160c01b0386166004820152600285900b60248201527f00000000000000000000000000000000000000000000000000000000000000006001600160a01b031690639363cb8a90604401602060405180830381865afa158015610408573d6000803e3d6000fd5b505050506040513d601f19601f8201168201806040525081019061042c91906114fa565b93506001016102a1565b509392505050565b8051604051639b22917d60e01b81526001600160c01b039091166004820152600090819081907f00000000000000000000000000000000000000000000000000000000000000006001600160a01b031690639b22917d9060240160c060405180830381865afa1580156104b5573d6000803e3d6000fd5b505050506040513d601f19601f820116820180604052508101906104d99190611555565b845160405163fcc8fc9b60e01b81526001600160c01b0390911660048201529091507f00000000000000000000000000000000000000000000000000000000000000006001600160a01b03169063fcc8fc9b90602401602060405180830381865afa15801561054c573d6000803e3d6000fd5b505050506040513d601f19601f8201168201806040525081019061057091906115fa565b156105815750600093849350915050565b8351604051633d982e2160e11b81526001600160c01b0390911660048201526000907f00000000000000000000000000000000000000000000000000000000000000006001600160a01b031690637b305c4290602401602060405180830381865afa1580156105f4573d6000803e3d6000fd5b505050506040513d601f19601f8201168201806040525081019061061891906114fa565b90505b627fffff19600282900b13156108d0576106378160020b610d77565b8560200151106108d05760006106568360a0015162ffffff1660171c90565b15610687576106808587604001510360018560a0015162ffffff1661107b9092919063ffffffff16565b9050610691565b8486604001510390505b602083015167ffffffffffffffff168082049082061515600116019050806000036106bc57506108d0565b8551604051630835177160e31b81526001600160c01b039091166004820152600283900b60248201526000907f00000000000000000000000000000000000000000000000000000000000000006001600160a01b0316906341a8bb8890604401602060405180830381865afa158015610739573d6000803e3d6000fd5b505050506040513d601f19601f8201168201806040525081019061075d91906114d8565b67ffffffffffffffff1690506000846020015167ffffffffffffffff168383116107875782610789565b835b029050600061079e600286900b8360016110d2565b90506107b38660a0015162ffffff1660171c90565b156107d75760a08601516107ce9062ffffff168360006110fd565b820391506107fa565b60a08601516107ed9062ffffff168260006110fd565b6107f682611180565b0190505b8160000361080b57505050506108d0565b60408901519782019796810196881061082757505050506108d0565b88516040516349b1e5c560e11b81526001600160c01b039091166004820152600286900b60248201527f00000000000000000000000000000000000000000000000000000000000000006001600160a01b031690639363cb8a90604401602060405180830381865afa1580156108a1573d6000803e3d6000fd5b505050506040513d601f19601f820116820180604052508101906108c591906114fa565b94505050505061061b565b5050915091565b8051604051639b22917d60e01b81526001600160c01b039091166004820152600090819081907f00000000000000000000000000000000000000000000000000000000000000006001600160a01b031690639b22917d9060240160c060405180830381865afa15801561094e573d6000803e3d6000fd5b505050506040513d601f19601f820116820180604052508101906109729190611555565b845160405163fcc8fc9b60e01b81526001600160c01b0390911660048201529091507f00000000000000000000000000000000000000000000000000000000000000006001600160a01b03169063fcc8fc9b90602401602060405180830381865afa1580156109e5573d6000803e3d6000fd5b505050506040513d601f19601f82011682018060405250810190610a0991906115fa565b15610a1a5750600093849350915050565b8351604051633d982e2160e11b81526001600160c01b0390911660048201526000907f00000000000000000000000000000000000000000000000000000000000000006001600160a01b031690637b305c4290602401602060405180830381865afa158015610a8d573d6000803e3d6000fd5b505050506040513d601f19601f82011682018060405250810190610ab191906114fa565b90505b84604001518311158015610acf5750627fffff19600282900b135b156108d057610ae08160020b610d77565b8560200151106108d0576000610aff8360a0015162ffffff1660171c90565b15610b1257838660400151039050610b3a565b610b378487604001510360008560a0015162ffffff1661107b9092919063ffffffff16565b90505b602083015167ffffffffffffffff16610b59600284900b8360006111e7565b81610b6657610b6661161c565b04905080600003610b7757506108d0565b8551604051630835177160e31b81526001600160c01b039091166004820152600283900b60248201526000907f00000000000000000000000000000000000000000000000000000000000000006001600160a01b0316906341a8bb8890604401602060405180830381865afa158015610bf4573d6000803e3d6000fd5b505050506040513d601f19601f82011682018060405250810190610c1891906114d8565b67ffffffffffffffff1690506000846020015167ffffffffffffffff16838311610c425782610c44565b835b0290506000610c59600286900b8360016110d2565b9050610c6e8660a0015162ffffff1660171c90565b15610c925760a0860151610c899062ffffff168360006110fd565b82039150610cb5565b60a0860151610ca89062ffffff168260006110fd565b610cb182611180565b0190505b80600003610cc657505050506108d0565b88516040516349b1e5c560e11b81526001600160c01b039091166004820152600286900b602482015297820197968101967f00000000000000000000000000000000000000000000000000000000000000006001600160a01b031690639363cb8a90604401602060405180830381865afa158015610d48573d6000803e3d6000fd5b505050506040513d601f19601f82011682018060405250810190610d6c91906114fa565b945050505050610ab4565b6000610d8282611232565b816000600282900b8113610d965781610d9f565b610d9f82611648565b62ffffff8116915060011615610dc7576ffff97272373d413259a46990580e21399250610ddc565b70010000000000000000000000000000000092505b6002811615610dff5760806ffff2e50f5f656932ef12357cf3c7fdcb8402901c92505b6004811615610e225760806fffe5caca7e10e4e61c3624eaa0941ccf8402901c92505b6008811615610e455760806fffcb9843d60f6159c9db58835c9266438402901c92505b6010811615610e685760806fff973b41fa98c081472e6896dfb254bf8402901c92505b6020811615610e8b5760806fff2ea16466c96a3843ec78b326b528608402901c92505b6040811615610eae5760806ffe5dee046a99a2a811c461f1969c30528402901c92505b6080811615610ed15760806ffcbe86c7900a88aedcffc83b479aa3a38402901c92505b610100811615610ef55760806ff987a7253ac413176f2b074cf7815e538402901c92505b610200811615610f195760806ff3392b0822b70005940c7a398e4b70f28402901c92505b610400811615610f3d5760806fe7159475a2c29b7443b29c7fa6e889d88402901c92505b610800811615610f615760806fd097f3bdfd2022b8845ad8f792aa58258402901c92505b611000811615610f855760806fa9f746462d870fdf8a65dc1f90e061e48402901c92505b612000811615610fa95760806f70d869a156d2a1b890bb3df62baf32f68402901c92505b614000811615610fcd5760806f31be135f97d08fd981231505542fcfa58402901c92505b618000811615610ff15760806f09aa508b5b7a84e1c677de54f3e99bc88402901c92505b620100008116156110155760806e5d6af8dedb81196699c329225ee6048402901c92505b620200008116156110385760806d2216e584f5fa1ea926041bedfe978402901c92505b620400008116156110595760806b048a170391f7dc42444e8fa28402901c92505b60008260020b1315611074576110718360001961166a565b92505b5050919050565b60006207a11f19627fffff851601600281900b821282841561109e578260000392505b82620f42400190506110c7620f4240876110b8919061168c565b82810615158416908390040190565b979650505050505050565b60006110f5608084901b6110e88660020b610d77565b8082061515851691040190565b949350505050565b60006207a11f19627fffff851601600281900b821282816111215782600003611123565b825b62ffffff169050600061115d611139838961168c565b620f42408861114f578581830615151691040190565b808206151586151691040190565b9050826111725761116d816116a9565b611174565b805b98975050505050505050565b60007f7fffffffffffffffffffffffffffffffffffffffffffffffffffffffffffffff8211156111e3576040517f24775e060000000000000000000000000000000000000000000000000000000081526004810183905260240160405180910390fd5b5090565b60006110f56111f88560020b610d77565b611202908561168c565b6fffffffffffffffffffffffffffffffff8116151584167001000000000000000000000000000000009091040190565b6207ffff600282900b1380611257575061124e6207ffff611648565b60020b8160020b125b1561128e576040517fce8ef7fc00000000000000000000000000000000000000000000000000000000815260040160405180910390fd5b50565b80356001600160c01b03811681146112a857600080fd5b919050565b8060020b811461128e57600080fd5b6000806000606084860312156112d157600080fd5b6112da84611291565b925060208401356112ea816112ad565b929592945050506040919091013590565b602080825282518282018190526000919060409081850190868401855b8281101561134a578151805160020b855286015167ffffffffffffffff16868501529284019290850190600101611318565b5091979650505050505050565b634e487b7160e01b600052604160045260246000fd5b6040516080810167ffffffffffffffff8111828210171561139057611390611357565b60405290565b604051601f8201601f1916810167ffffffffffffffff811182821017156113bf576113bf611357565b604052919050565b6000608082840312156113d957600080fd5b6113e161136d565b90506113ec82611291565b81526020808301358183015260408301356040830152606083013567ffffffffffffffff8082111561141d57600080fd5b818501915085601f83011261143157600080fd5b81358181111561144357611443611357565b611455601f8201601f19168501611396565b9150808252868482850101111561146b57600080fd5b808484018584013760008482840101525080606085015250505092915050565b60006020828403121561149d57600080fd5b813567ffffffffffffffff8111156114b457600080fd5b6110f5848285016113c7565b805167ffffffffffffffff811681146112a857600080fd5b6000602082840312156114ea57600080fd5b6114f3826114c0565b9392505050565b60006020828403121561150c57600080fd5b81516114f3816112ad565b634e487b7160e01b600052603260045260246000fd5b6001600160a01b038116811461128e57600080fd5b805162ffffff811681146112a857600080fd5b600060c0828403121561156757600080fd5b60405160c0810181811067ffffffffffffffff8211171561158a5761158a611357565b60405282516115988161152d565b81526115a6602084016114c0565b602082015260408301516115b98161152d565b60408201526115ca60608401611542565b606082015260808301516115dd8161152d565b60808201526115ee60a08401611542565b60a08201529392505050565b60006020828403121561160c57600080fd5b815180151581146114f357600080fd5b634e487b7160e01b600052601260045260246000fd5b634e487b7160e01b600052601160045260246000fd5b60008160020b627fffff19810361166157611661611632565b60000392915050565b60008261168757634e487b7160e01b600052601260045260246000fd5b500490565b80820281158282048414176116a3576116a3611632565b92915050565b60007f800000000000000000000000000000000000000000000000000000000000000082036116da576116da611632565b506000039056fea26469706673582212207583d4b545d4a889573b38a888a6eb67fc96603e448ed2ba46eb45b4fb1ac01264736f6c63430008180033",
  "devdoc": {
    "errors": {
      "SafeCastOverflowedUintToInt(uint256)": [
        {
          "details": "An uint value doesn't fit in an int of `bits` size."
        }
      ]
    },
    "kind": "dev",
    "methods": {
      "getExpectedInput((uint192,uint256,uint256,bytes))": {
        "params": {
          "params": "The parameters of the take order"
        },
        "returns": {
          "spendBaseAmount": "The expected spend base amount",
          "takenQuoteAmount": "The expected taken quote amount"
        }
      },
      "getExpectedOutput((uint192,uint256,uint256,bytes))": {
        "params": {
          "params": "The parameters of the spend order"
        },
        "returns": {
          "spendBaseAmount": "The expected spend base amount",
          "takenQuoteAmount": "The expected taken quote amount"
        }
      }
    },
    "stateVariables": {
      "bookManager": {
        "return": "The instance of the book manager",
        "returns": {
          "_0": "The instance of the book manager"
        }
      }
    },
    "version": 1
  },
  "userdoc": {
    "kind": "user",
    "methods": {
      "bookManager()": {
        "notice": "Returns the book manager"
      },
      "getExpectedInput((uint192,uint256,uint256,bytes))": {
        "notice": "Returns the expected input for a take order"
      },
      "getExpectedOutput((uint192,uint256,uint256,bytes))": {
        "notice": "Returns the expected output for a spend order"
      }
    },
    "version": 1
  },
  "storageLayout": {
    "storage": [],
    "types": null
  }
}