{
  "address": "0xBe84BD49aAf710Cc11FA9675c79D107af8552f17",
  "abi": [
    {
      "inputs": [
        {
          "internalType": "address",
          "name": "owner_",
          "type": "address"
        },
        {
          "internalType": "address",
          "name": "defaultProvider_",
          "type": "address"
        },
        {
          "internalType": "string",
          "name": "baseURI_",
          "type": "string"
        },
        {
          "internalType": "string",
          "name": "contractURI_",
          "type": "string"
        },
        {
          "internalType": "string",
          "name": "name_",
          "type": "string"
        },
        {
          "internalType": "string",
          "name": "symbol_",
          "type": "string"
        }
      ],
      "stateMutability": "nonpayable",
      "type": "constructor"
    },
    {
      "inputs": [],
      "name": "BookNotOpened",
      "type": "error"
    },
    {
      "inputs": [],
      "name": "CurrencyNotSettled",
      "type": "error"
    },
    {
      "inputs": [],
      "name": "ECDSAInvalidSignature",
      "type": "error"
    },
    {
      "inputs": [
        {
          "internalType": "uint256",
          "name": "length",
          "type": "uint256"
        }
      ],
      "name": "ECDSAInvalidSignatureLength",
      "type": "error"
    },
    {
      "inputs": [
        {
          "internalType": "bytes32",
          "name": "s",
          "type": "bytes32"
        }
      ],
      "name": "ECDSAInvalidSignatureS",
      "type": "error"
    },
    {
      "inputs": [],
      "name": "ERC20TransferFailed",
      "type": "error"
    },
    {
      "inputs": [
        {
          "internalType": "address",
          "name": "sender",
          "type": "address"
        },
        {
          "internalType": "uint256",
          "name": "tokenId",
          "type": "uint256"
        },
        {
          "internalType": "address",
          "name": "owner",
          "type": "address"
        }
      ],
      "name": "ERC721IncorrectOwner",
      "type": "error"
    },
    {
      "inputs": [
        {
          "internalType": "address",
          "name": "operator",
          "type": "address"
        },
        {
          "internalType": "uint256",
          "name": "tokenId",
          "type": "uint256"
        }
      ],
      "name": "ERC721InsufficientApproval",
      "type": "error"
    },
    {
      "inputs": [
        {
          "internalType": "address",
          "name": "approver",
          "type": "address"
        }
      ],
      "name": "ERC721InvalidApprover",
      "type": "error"
    },
    {
      "inputs": [
        {
          "internalType": "address",
          "name": "operator",
          "type": "address"
        }
      ],
      "name": "ERC721InvalidOperator",
      "type": "error"
    },
    {
      "inputs": [
        {
          "internalType": "address",
          "name": "owner",
          "type": "address"
        }
      ],
      "name": "ERC721InvalidOwner",
      "type": "error"
    },
    {
      "inputs": [
        {
          "internalType": "address",
          "name": "receiver",
          "type": "address"
        }
      ],
      "name": "ERC721InvalidReceiver",
      "type": "error"
    },
    {
      "inputs": [
        {
          "internalType": "address",
          "name": "sender",
          "type": "address"
        }
      ],
      "name": "ERC721InvalidSender",
      "type": "error"
    },
    {
      "inputs": [
        {
          "internalType": "uint256",
          "name": "tokenId",
          "type": "uint256"
        }
      ],
      "name": "ERC721NonexistentToken",
      "type": "error"
    },
    {
      "inputs": [],
      "name": "EmptyError",
      "type": "error"
    },
    {
      "inputs": [],
      "name": "FailedHookCall",
      "type": "error"
    },
    {
      "inputs": [
        {
          "internalType": "address",
          "name": "hooks",
          "type": "address"
        }
      ],
      "name": "HookAddressNotValid",
      "type": "error"
    },
    {
      "inputs": [],
      "name": "InvalidFeePolicy",
      "type": "error"
    },
    {
      "inputs": [],
      "name": "InvalidHookResponse",
      "type": "error"
    },
    {
      "inputs": [
        {
          "internalType": "address",
          "name": "provider",
          "type": "address"
        }
      ],
      "name": "InvalidProvider",
      "type": "error"
    },
    {
      "inputs": [],
      "name": "InvalidShortString",
      "type": "error"
    },
    {
      "inputs": [],
      "name": "InvalidSignature",
      "type": "error"
    },
    {
      "inputs": [],
      "name": "InvalidTick",
      "type": "error"
    },
    {
      "inputs": [],
      "name": "InvalidUnit",
      "type": "error"
    },
    {
      "inputs": [
        {
          "internalType": "address",
          "name": "locker",
          "type": "address"
        },
        {
          "internalType": "address",
          "name": "hook",
          "type": "address"
        }
      ],
      "name": "LockedBy",
      "type": "error"
    },
    {
      "inputs": [],
      "name": "NativeTransferFailed",
      "type": "error"
    },
    {
      "inputs": [
        {
          "internalType": "address",
          "name": "owner",
          "type": "address"
        }
      ],
      "name": "OwnableInvalidOwner",
      "type": "error"
    },
    {
      "inputs": [
        {
          "internalType": "address",
          "name": "account",
          "type": "address"
        }
      ],
      "name": "OwnableUnauthorizedAccount",
      "type": "error"
    },
    {
      "inputs": [],
      "name": "PermitExpired",
      "type": "error"
    },
    {
      "inputs": [
        {
          "internalType": "int256",
          "name": "value",
          "type": "int256"
        }
      ],
      "name": "SafeCastOverflowedIntToUint",
      "type": "error"
    },
    {
      "inputs": [
        {
          "internalType": "uint256",
          "name": "value",
          "type": "uint256"
        }
      ],
      "name": "SafeCastOverflowedUintToInt",
      "type": "error"
    },
    {
      "inputs": [
        {
          "internalType": "string",
          "name": "str",
          "type": "string"
        }
      ],
      "name": "StringTooLong",
      "type": "error"
    },
    {
      "anonymous": false,
      "inputs": [
        {
          "indexed": true,
          "internalType": "address",
          "name": "owner",
          "type": "address"
        },
        {
          "indexed": true,
          "internalType": "address",
          "name": "approved",
          "type": "address"
        },
        {
          "indexed": true,
          "internalType": "uint256",
          "name": "tokenId",
          "type": "uint256"
        }
      ],
      "name": "Approval",
      "type": "event"
    },
    {
      "anonymous": false,
      "inputs": [
        {
          "indexed": true,
          "internalType": "address",
          "name": "owner",
          "type": "address"
        },
        {
          "indexed": true,
          "internalType": "address",
          "name": "operator",
          "type": "address"
        },
        {
          "indexed": false,
          "internalType": "bool",
          "name": "approved",
          "type": "bool"
        }
      ],
      "name": "ApprovalForAll",
      "type": "event"
    },
    {
      "anonymous": false,
      "inputs": [
        {
          "indexed": true,
          "internalType": "OrderId",
          "name": "orderId",
          "type": "uint256"
        },
        {
          "indexed": false,
          "internalType": "uint64",
          "name": "canceledAmount",
          "type": "uint64"
        }
      ],
      "name": "Cancel",
      "type": "event"
    },
    {
      "anonymous": false,
      "inputs": [
        {
          "indexed": true,
          "internalType": "OrderId",
          "name": "orderId",
          "type": "uint256"
        },
        {
          "indexed": false,
          "internalType": "uint64",
          "name": "rawAmount",
          "type": "uint64"
        }
      ],
      "name": "Claim",
      "type": "event"
    },
    {
      "anonymous": false,
      "inputs": [
        {
          "indexed": true,
          "internalType": "address",
          "name": "provider",
          "type": "address"
        },
        {
          "indexed": true,
          "internalType": "Currency",
          "name": "currency",
          "type": "address"
        },
        {
          "indexed": false,
          "internalType": "uint256",
          "name": "amount",
          "type": "uint256"
        }
      ],
      "name": "Collect",
      "type": "event"
    },
    {
      "anonymous": false,
      "inputs": [
        {
          "indexed": true,
          "internalType": "address",
          "name": "provider",
          "type": "address"
        }
      ],
      "name": "Delist",
      "type": "event"
    },
    {
      "anonymous": false,
      "inputs": [],
      "name": "EIP712DomainChanged",
      "type": "event"
    },
    {
      "anonymous": false,
      "inputs": [
        {
          "indexed": true,
          "internalType": "BookId",
          "name": "bookId",
          "type": "uint192"
        },
        {
          "indexed": true,
          "internalType": "address",
          "name": "user",
          "type": "address"
        },
        {
          "indexed": false,
          "internalType": "Tick",
          "name": "tick",
          "type": "int24"
        },
        {
          "indexed": false,
          "internalType": "uint256",
          "name": "orderIndex",
          "type": "uint256"
        },
        {
          "indexed": false,
          "internalType": "uint64",
          "name": "amount",
          "type": "uint64"
        }
      ],
      "name": "Make",
      "type": "event"
    },
    {
      "anonymous": false,
      "inputs": [
        {
          "indexed": true,
          "internalType": "BookId",
          "name": "id",
          "type": "uint192"
        },
        {
          "indexed": true,
          "internalType": "Currency",
          "name": "base",
          "type": "address"
        },
        {
          "indexed": true,
          "internalType": "Currency",
          "name": "quote",
          "type": "address"
        },
        {
          "indexed": false,
          "internalType": "uint64",
          "name": "unit",
          "type": "uint64"
        },
        {
          "indexed": false,
          "internalType": "FeePolicy",
          "name": "makerPolicy",
          "type": "uint24"
        },
        {
          "indexed": false,
          "internalType": "FeePolicy",
          "name": "takerPolicy",
          "type": "uint24"
        },
        {
          "indexed": false,
          "internalType": "contract IHooks",
          "name": "hooks",
          "type": "address"
        }
      ],
      "name": "Open",
      "type": "event"
    },
    {
      "anonymous": false,
      "inputs": [
        {
          "indexed": true,
          "internalType": "address",
          "name": "previousOwner",
          "type": "address"
        },
        {
          "indexed": true,
          "internalType": "address",
          "name": "newOwner",
          "type": "address"
        }
      ],
      "name": "OwnershipTransferStarted",
      "type": "event"
    },
    {
      "anonymous": false,
      "inputs": [
        {
          "indexed": true,
          "internalType": "address",
          "name": "previousOwner",
          "type": "address"
        },
        {
          "indexed": true,
          "internalType": "address",
          "name": "newOwner",
          "type": "address"
        }
      ],
      "name": "OwnershipTransferred",
      "type": "event"
    },
    {
      "anonymous": false,
      "inputs": [
        {
          "indexed": true,
          "internalType": "address",
          "name": "oldDefaultProvider",
          "type": "address"
        },
        {
          "indexed": true,
          "internalType": "address",
          "name": "newDefaultProvider",
          "type": "address"
        }
      ],
      "name": "SetDefaultProvider",
      "type": "event"
    },
    {
      "anonymous": false,
      "inputs": [
        {
          "indexed": true,
          "internalType": "BookId",
          "name": "bookId",
          "type": "uint192"
        },
        {
          "indexed": true,
          "internalType": "address",
          "name": "user",
          "type": "address"
        },
        {
          "indexed": false,
          "internalType": "Tick",
          "name": "tick",
          "type": "int24"
        },
        {
          "indexed": false,
          "internalType": "uint64",
          "name": "amount",
          "type": "uint64"
        }
      ],
      "name": "Take",
      "type": "event"
    },
    {
      "anonymous": false,
      "inputs": [
        {
          "indexed": true,
          "internalType": "address",
          "name": "from",
          "type": "address"
        },
        {
          "indexed": true,
          "internalType": "address",
          "name": "to",
          "type": "address"
        },
        {
          "indexed": true,
          "internalType": "uint256",
          "name": "tokenId",
          "type": "uint256"
        }
      ],
      "name": "Transfer",
      "type": "event"
    },
    {
      "anonymous": false,
      "inputs": [
        {
          "indexed": true,
          "internalType": "address",
          "name": "provider",
          "type": "address"
        }
      ],
      "name": "Whitelist",
      "type": "event"
    },
    {
      "inputs": [],
      "name": "DOMAIN_SEPARATOR",
      "outputs": [
        {
          "internalType": "bytes32",
          "name": "",
          "type": "bytes32"
        }
      ],
      "stateMutability": "view",
      "type": "function"
    },
    {
      "inputs": [],
      "name": "PERMIT_TYPEHASH",
      "outputs": [
        {
          "internalType": "bytes32",
          "name": "",
          "type": "bytes32"
        }
      ],
      "stateMutability": "view",
      "type": "function"
    },
    {
      "inputs": [],
      "name": "acceptOwnership",
      "outputs": [],
      "stateMutability": "nonpayable",
      "type": "function"
    },
    {
      "inputs": [
        {
          "internalType": "address",
          "name": "to",
          "type": "address"
        },
        {
          "internalType": "uint256",
          "name": "tokenId",
          "type": "uint256"
        }
      ],
      "name": "approve",
      "outputs": [],
      "stateMutability": "nonpayable",
      "type": "function"
    },
    {
      "inputs": [
        {
          "internalType": "address",
          "name": "owner",
          "type": "address"
        }
      ],
      "name": "balanceOf",
      "outputs": [
        {
          "internalType": "uint256",
          "name": "",
          "type": "uint256"
        }
      ],
      "stateMutability": "view",
      "type": "function"
    },
    {
      "inputs": [],
      "name": "baseURI",
      "outputs": [
        {
          "internalType": "string",
          "name": "",
          "type": "string"
        }
      ],
      "stateMutability": "view",
      "type": "function"
    },
    {
      "inputs": [
        {
          "components": [
            {
              "internalType": "OrderId",
              "name": "id",
              "type": "uint256"
            },
            {
              "internalType": "uint64",
              "name": "to",
              "type": "uint64"
            }
          ],
          "internalType": "struct IBookManager.CancelParams",
          "name": "params",
          "type": "tuple"
        },
        {
          "internalType": "bytes",
          "name": "hookData",
          "type": "bytes"
        }
      ],
      "name": "cancel",
      "outputs": [
        {
          "internalType": "uint256",
          "name": "canceledAmount",
          "type": "uint256"
        }
      ],
      "stateMutability": "nonpayable",
      "type": "function"
    },
    {
      "inputs": [
        {
          "internalType": "address",
          "name": "owner",
          "type": "address"
        },
        {
          "internalType": "address",
          "name": "spender",
          "type": "address"
        },
        {
          "internalType": "uint256",
          "name": "tokenId",
          "type": "uint256"
        }
      ],
      "name": "checkAuthorized",
      "outputs": [],
      "stateMutability": "view",
      "type": "function"
    },
    {
      "inputs": [
        {
          "internalType": "OrderId",
          "name": "id",
          "type": "uint256"
        },
        {
          "internalType": "bytes",
          "name": "hookData",
          "type": "bytes"
        }
      ],
      "name": "claim",
      "outputs": [
        {
          "internalType": "uint256",
          "name": "claimedAmount",
          "type": "uint256"
        }
      ],
      "stateMutability": "nonpayable",
      "type": "function"
    },
    {
      "inputs": [
        {
          "internalType": "address",
          "name": "provider",
          "type": "address"
        },
        {
          "internalType": "Currency",
          "name": "currency",
          "type": "address"
        }
      ],
      "name": "collect",
      "outputs": [],
      "stateMutability": "nonpayable",
      "type": "function"
    },
    {
      "inputs": [],
      "name": "contractURI",
      "outputs": [
        {
          "internalType": "string",
          "name": "",
          "type": "string"
        }
      ],
      "stateMutability": "view",
      "type": "function"
    },
    {
      "inputs": [
        {
          "internalType": "address",
          "name": "locker",
          "type": "address"
        },
        {
          "internalType": "Currency",
          "name": "currency",
          "type": "address"
        }
      ],
      "name": "currencyDelta",
      "outputs": [
        {
          "internalType": "int256",
          "name": "currencyDelta",
          "type": "int256"
        }
      ],
      "stateMutability": "view",
      "type": "function"
    },
    {
      "inputs": [],
      "name": "defaultProvider",
      "outputs": [
        {
          "internalType": "address",
          "name": "",
          "type": "address"
        }
      ],
      "stateMutability": "view",
      "type": "function"
    },
    {
      "inputs": [
        {
          "internalType": "address",
          "name": "provider",
          "type": "address"
        }
      ],
      "name": "delist",
      "outputs": [],
      "stateMutability": "nonpayable",
      "type": "function"
    },
    {
      "inputs": [],
      "name": "eip712Domain",
      "outputs": [
        {
          "internalType": "bytes1",
          "name": "fields",
          "type": "bytes1"
        },
        {
          "internalType": "string",
          "name": "name",
          "type": "string"
        },
        {
          "internalType": "string",
          "name": "version",
          "type": "string"
        },
        {
          "internalType": "uint256",
          "name": "chainId",
          "type": "uint256"
        },
        {
          "internalType": "address",
          "name": "verifyingContract",
          "type": "address"
        },
        {
          "internalType": "bytes32",
          "name": "salt",
          "type": "bytes32"
        },
        {
          "internalType": "uint256[]",
          "name": "extensions",
          "type": "uint256[]"
        }
      ],
      "stateMutability": "view",
      "type": "function"
    },
    {
      "inputs": [
        {
          "internalType": "uint256",
          "name": "tokenId",
          "type": "uint256"
        }
      ],
      "name": "getApproved",
      "outputs": [
        {
          "internalType": "address",
          "name": "",
          "type": "address"
        }
      ],
      "stateMutability": "view",
      "type": "function"
    },
    {
      "inputs": [
        {
          "internalType": "BookId",
          "name": "id",
          "type": "uint192"
        }
      ],
      "name": "getBookKey",
      "outputs": [
        {
          "components": [
            {
              "internalType": "Currency",
              "name": "base",
              "type": "address"
            },
            {
              "internalType": "uint64",
              "name": "unit",
              "type": "uint64"
            },
            {
              "internalType": "Currency",
              "name": "quote",
              "type": "address"
            },
            {
              "internalType": "FeePolicy",
              "name": "makerPolicy",
              "type": "uint24"
            },
            {
              "internalType": "contract IHooks",
              "name": "hooks",
              "type": "address"
            },
            {
              "internalType": "FeePolicy",
              "name": "takerPolicy",
              "type": "uint24"
            }
          ],
          "internalType": "struct IBookManager.BookKey",
          "name": "",
          "type": "tuple"
        }
      ],
      "stateMutability": "view",
      "type": "function"
    },
    {
      "inputs": [
        {
          "internalType": "BookId",
          "name": "id",
          "type": "uint192"
        },
        {
          "internalType": "Tick",
          "name": "tick",
          "type": "int24"
        }
      ],
      "name": "getDepth",
      "outputs": [
        {
          "internalType": "uint64",
          "name": "",
          "type": "uint64"
        }
      ],
      "stateMutability": "view",
      "type": "function"
    },
    {
      "inputs": [
        {
          "internalType": "uint256",
          "name": "i",
          "type": "uint256"
        }
      ],
      "name": "getLock",
      "outputs": [
        {
          "internalType": "address",
          "name": "",
          "type": "address"
        },
        {
          "internalType": "address",
          "name": "",
          "type": "address"
        }
      ],
      "stateMutability": "view",
      "type": "function"
    },
    {
      "inputs": [],
      "name": "getLockData",
      "outputs": [
        {
          "internalType": "uint128",
          "name": "",
          "type": "uint128"
        },
        {
          "internalType": "uint128",
          "name": "",
          "type": "uint128"
        }
      ],
      "stateMutability": "view",
      "type": "function"
    },
    {
      "inputs": [
        {
          "internalType": "BookId",
          "name": "id",
          "type": "uint192"
        }
      ],
      "name": "getLowest",
      "outputs": [
        {
          "internalType": "Tick",
          "name": "",
          "type": "int24"
        }
      ],
      "stateMutability": "view",
      "type": "function"
    },
    {
      "inputs": [
        {
          "internalType": "OrderId",
          "name": "id",
          "type": "uint256"
        }
      ],
      "name": "getOrder",
      "outputs": [
        {
          "components": [
            {
              "internalType": "address",
              "name": "provider",
              "type": "address"
            },
            {
              "internalType": "uint64",
              "name": "open",
              "type": "uint64"
            },
            {
              "internalType": "uint64",
              "name": "claimable",
              "type": "uint64"
            }
          ],
          "internalType": "struct IBookManager.OrderInfo",
          "name": "",
          "type": "tuple"
        }
      ],
      "stateMutability": "view",
      "type": "function"
    },
    {
      "inputs": [
        {
          "internalType": "address",
          "name": "owner",
          "type": "address"
        },
        {
          "internalType": "address",
          "name": "operator",
          "type": "address"
        }
      ],
      "name": "isApprovedForAll",
      "outputs": [
        {
          "internalType": "bool",
          "name": "",
          "type": "bool"
        }
      ],
      "stateMutability": "view",
      "type": "function"
    },
    {
      "inputs": [
        {
          "internalType": "BookId",
          "name": "id",
          "type": "uint192"
        }
      ],
      "name": "isEmpty",
      "outputs": [
        {
          "internalType": "bool",
          "name": "",
          "type": "bool"
        }
      ],
      "stateMutability": "view",
      "type": "function"
    },
    {
      "inputs": [
        {
          "internalType": "address",
          "name": "provider",
          "type": "address"
        }
      ],
      "name": "isWhitelisted",
      "outputs": [
        {
          "internalType": "bool",
          "name": "",
          "type": "bool"
        }
      ],
      "stateMutability": "view",
      "type": "function"
    },
    {
      "inputs": [
        {
          "internalType": "bytes32",
          "name": "slot",
          "type": "bytes32"
        }
      ],
      "name": "load",
      "outputs": [
        {
          "internalType": "bytes32",
          "name": "value",
          "type": "bytes32"
        }
      ],
      "stateMutability": "view",
      "type": "function"
    },
    {
      "inputs": [
        {
          "internalType": "bytes32",
          "name": "startSlot",
          "type": "bytes32"
        },
        {
          "internalType": "uint256",
          "name": "nSlot",
          "type": "uint256"
        }
      ],
      "name": "load",
      "outputs": [
        {
          "internalType": "bytes",
          "name": "value",
          "type": "bytes"
        }
      ],
      "stateMutability": "view",
      "type": "function"
    },
    {
      "inputs": [
        {
          "internalType": "address",
          "name": "locker",
          "type": "address"
        },
        {
          "internalType": "bytes",
          "name": "data",
          "type": "bytes"
        }
      ],
      "name": "lock",
      "outputs": [
        {
          "internalType": "bytes",
          "name": "result",
          "type": "bytes"
        }
      ],
      "stateMutability": "nonpayable",
      "type": "function"
    },
    {
      "inputs": [
        {
          "components": [
            {
              "components": [
                {
                  "internalType": "Currency",
                  "name": "base",
                  "type": "address"
                },
                {
                  "internalType": "uint64",
                  "name": "unit",
                  "type": "uint64"
                },
                {
                  "internalType": "Currency",
                  "name": "quote",
                  "type": "address"
                },
                {
                  "internalType": "FeePolicy",
                  "name": "makerPolicy",
                  "type": "uint24"
                },
                {
                  "internalType": "contract IHooks",
                  "name": "hooks",
                  "type": "address"
                },
                {
                  "internalType": "FeePolicy",
                  "name": "takerPolicy",
                  "type": "uint24"
                }
              ],
              "internalType": "struct IBookManager.BookKey",
              "name": "key",
              "type": "tuple"
            },
            {
              "internalType": "Tick",
              "name": "tick",
              "type": "int24"
            },
            {
              "internalType": "uint64",
              "name": "amount",
              "type": "uint64"
            },
            {
              "internalType": "address",
              "name": "provider",
              "type": "address"
            }
          ],
          "internalType": "struct IBookManager.MakeParams",
          "name": "params",
          "type": "tuple"
        },
        {
          "internalType": "bytes",
          "name": "hookData",
          "type": "bytes"
        }
      ],
      "name": "make",
      "outputs": [
        {
          "internalType": "OrderId",
          "name": "id",
          "type": "uint256"
        },
        {
          "internalType": "uint256",
          "name": "quoteAmount",
          "type": "uint256"
        }
      ],
      "stateMutability": "nonpayable",
      "type": "function"
    },
    {
      "inputs": [
        {
          "internalType": "BookId",
          "name": "id",
          "type": "uint192"
        },
        {
          "internalType": "Tick",
          "name": "tick",
          "type": "int24"
        }
      ],
      "name": "minGreaterThan",
      "outputs": [
        {
          "internalType": "Tick",
          "name": "",
          "type": "int24"
        }
      ],
      "stateMutability": "view",
      "type": "function"
    },
    {
      "inputs": [],
      "name": "name",
      "outputs": [
        {
          "internalType": "string",
          "name": "",
          "type": "string"
        }
      ],
      "stateMutability": "view",
      "type": "function"
    },
    {
      "inputs": [
        {
          "internalType": "uint256",
          "name": "id",
          "type": "uint256"
        }
      ],
      "name": "nonces",
      "outputs": [
        {
          "internalType": "uint256",
          "name": "",
          "type": "uint256"
        }
      ],
      "stateMutability": "view",
      "type": "function"
    },
    {
      "inputs": [
        {
          "components": [
            {
              "internalType": "Currency",
              "name": "base",
              "type": "address"
            },
            {
              "internalType": "uint64",
              "name": "unit",
              "type": "uint64"
            },
            {
              "internalType": "Currency",
              "name": "quote",
              "type": "address"
            },
            {
              "internalType": "FeePolicy",
              "name": "makerPolicy",
              "type": "uint24"
            },
            {
              "internalType": "contract IHooks",
              "name": "hooks",
              "type": "address"
            },
            {
              "internalType": "FeePolicy",
              "name": "takerPolicy",
              "type": "uint24"
            }
          ],
          "internalType": "struct IBookManager.BookKey",
          "name": "key",
          "type": "tuple"
        },
        {
          "internalType": "bytes",
          "name": "hookData",
          "type": "bytes"
        }
      ],
      "name": "open",
      "outputs": [],
      "stateMutability": "nonpayable",
      "type": "function"
    },
    {
      "inputs": [],
      "name": "owner",
      "outputs": [
        {
          "internalType": "address",
          "name": "",
          "type": "address"
        }
      ],
      "stateMutability": "view",
      "type": "function"
    },
    {
      "inputs": [
        {
          "internalType": "uint256",
          "name": "tokenId",
          "type": "uint256"
        }
      ],
      "name": "ownerOf",
      "outputs": [
        {
          "internalType": "address",
          "name": "",
          "type": "address"
        }
      ],
      "stateMutability": "view",
      "type": "function"
    },
    {
      "inputs": [],
      "name": "pendingOwner",
      "outputs": [
        {
          "internalType": "address",
          "name": "",
          "type": "address"
        }
      ],
      "stateMutability": "view",
      "type": "function"
    },
    {
      "inputs": [
        {
          "internalType": "address",
          "name": "spender",
          "type": "address"
        },
        {
          "internalType": "uint256",
          "name": "tokenId",
          "type": "uint256"
        },
        {
          "internalType": "uint256",
          "name": "deadline",
          "type": "uint256"
        },
        {
          "internalType": "uint8",
          "name": "v",
          "type": "uint8"
        },
        {
          "internalType": "bytes32",
          "name": "r",
          "type": "bytes32"
        },
        {
          "internalType": "bytes32",
          "name": "s",
          "type": "bytes32"
        }
      ],
      "name": "permit",
      "outputs": [],
      "stateMutability": "nonpayable",
      "type": "function"
    },
    {
      "inputs": [],
      "name": "renounceOwnership",
      "outputs": [],
      "stateMutability": "nonpayable",
      "type": "function"
    },
    {
      "inputs": [
        {
          "internalType": "Currency",
          "name": "currency",
          "type": "address"
        }
      ],
      "name": "reservesOf",
      "outputs": [
        {
          "internalType": "uint256",
          "name": "",
          "type": "uint256"
        }
      ],
      "stateMutability": "view",
      "type": "function"
    },
    {
      "inputs": [
        {
          "internalType": "address",
          "name": "from",
          "type": "address"
        },
        {
          "internalType": "address",
          "name": "to",
          "type": "address"
        },
        {
          "internalType": "uint256",
          "name": "tokenId",
          "type": "uint256"
        }
      ],
      "name": "safeTransferFrom",
      "outputs": [],
      "stateMutability": "nonpayable",
      "type": "function"
    },
    {
      "inputs": [
        {
          "internalType": "address",
          "name": "from",
          "type": "address"
        },
        {
          "internalType": "address",
          "name": "to",
          "type": "address"
        },
        {
          "internalType": "uint256",
          "name": "tokenId",
          "type": "uint256"
        },
        {
          "internalType": "bytes",
          "name": "data",
          "type": "bytes"
        }
      ],
      "name": "safeTransferFrom",
      "outputs": [],
      "stateMutability": "nonpayable",
      "type": "function"
    },
    {
      "inputs": [
        {
          "internalType": "address",
          "name": "operator",
          "type": "address"
        },
        {
          "internalType": "bool",
          "name": "approved",
          "type": "bool"
        }
      ],
      "name": "setApprovalForAll",
      "outputs": [],
      "stateMutability": "nonpayable",
      "type": "function"
    },
    {
      "inputs": [
        {
          "internalType": "address",
          "name": "newDefaultProvider",
          "type": "address"
        }
      ],
      "name": "setDefaultProvider",
      "outputs": [],
      "stateMutability": "nonpayable",
      "type": "function"
    },
    {
      "inputs": [
        {
          "internalType": "Currency",
          "name": "currency",
          "type": "address"
        }
      ],
      "name": "settle",
      "outputs": [
        {
          "internalType": "uint256",
          "name": "paid",
          "type": "uint256"
        }
      ],
      "stateMutability": "payable",
      "type": "function"
    },
    {
      "inputs": [
        {
          "internalType": "bytes4",
          "name": "interfaceId",
          "type": "bytes4"
        }
      ],
      "name": "supportsInterface",
      "outputs": [
        {
          "internalType": "bool",
          "name": "",
          "type": "bool"
        }
      ],
      "stateMutability": "view",
      "type": "function"
    },
    {
      "inputs": [],
      "name": "symbol",
      "outputs": [
        {
          "internalType": "string",
          "name": "",
          "type": "string"
        }
      ],
      "stateMutability": "view",
      "type": "function"
    },
    {
      "inputs": [
        {
          "components": [
            {
              "components": [
                {
                  "internalType": "Currency",
                  "name": "base",
                  "type": "address"
                },
                {
                  "internalType": "uint64",
                  "name": "unit",
                  "type": "uint64"
                },
                {
                  "internalType": "Currency",
                  "name": "quote",
                  "type": "address"
                },
                {
                  "internalType": "FeePolicy",
                  "name": "makerPolicy",
                  "type": "uint24"
                },
                {
                  "internalType": "contract IHooks",
                  "name": "hooks",
                  "type": "address"
                },
                {
                  "internalType": "FeePolicy",
                  "name": "takerPolicy",
                  "type": "uint24"
                }
              ],
              "internalType": "struct IBookManager.BookKey",
              "name": "key",
              "type": "tuple"
            },
            {
              "internalType": "Tick",
              "name": "tick",
              "type": "int24"
            },
            {
              "internalType": "uint64",
              "name": "maxAmount",
              "type": "uint64"
            }
          ],
          "internalType": "struct IBookManager.TakeParams",
          "name": "params",
          "type": "tuple"
        },
        {
          "internalType": "bytes",
          "name": "hookData",
          "type": "bytes"
        }
      ],
      "name": "take",
      "outputs": [
        {
          "internalType": "uint256",
          "name": "quoteAmount",
          "type": "uint256"
        },
        {
          "internalType": "uint256",
          "name": "baseAmount",
          "type": "uint256"
        }
      ],
      "stateMutability": "nonpayable",
      "type": "function"
    },
    {
      "inputs": [
        {
          "internalType": "address",
          "name": "provider",
          "type": "address"
        },
        {
          "internalType": "Currency",
          "name": "currency",
          "type": "address"
        }
      ],
      "name": "tokenOwed",
      "outputs": [
        {
          "internalType": "uint256",
          "name": "amount",
          "type": "uint256"
        }
      ],
      "stateMutability": "view",
      "type": "function"
    },
    {
      "inputs": [
        {
          "internalType": "uint256",
          "name": "tokenId",
          "type": "uint256"
        }
      ],
      "name": "tokenURI",
      "outputs": [
        {
          "internalType": "string",
          "name": "",
          "type": "string"
        }
      ],
      "stateMutability": "view",
      "type": "function"
    },
    {
      "inputs": [
        {
          "internalType": "address",
          "name": "from",
          "type": "address"
        },
        {
          "internalType": "address",
          "name": "to",
          "type": "address"
        },
        {
          "internalType": "uint256",
          "name": "tokenId",
          "type": "uint256"
        }
      ],
      "name": "transferFrom",
      "outputs": [],
      "stateMutability": "nonpayable",
      "type": "function"
    },
    {
      "inputs": [
        {
          "internalType": "address",
          "name": "newOwner",
          "type": "address"
        }
      ],
      "name": "transferOwnership",
      "outputs": [],
      "stateMutability": "nonpayable",
      "type": "function"
    },
    {
      "inputs": [
        {
          "internalType": "address",
          "name": "provider",
          "type": "address"
        }
      ],
      "name": "whitelist",
      "outputs": [],
      "stateMutability": "nonpayable",
      "type": "function"
    },
    {
      "inputs": [
        {
          "internalType": "Currency",
          "name": "currency",
          "type": "address"
        },
        {
          "internalType": "address",
          "name": "to",
          "type": "address"
        },
        {
          "internalType": "uint256",
          "name": "amount",
          "type": "uint256"
        }
      ],
      "name": "withdraw",
      "outputs": [],
      "stateMutability": "nonpayable",
      "type": "function"
    },
    {
      "stateMutability": "payable",
      "type": "receive"
    }
  ],
  "transactionHash": "0x2f04c236fd8254fcd5b2809212e65066b8ff79f9f35753dc97f1e2440d3745fa",
  "args": [
    "0x5F79EE8f8fA862E98201120d83c4eC39D9468D49",
    "0x5F79EE8f8fA862E98201120d83c4eC39D9468D49",
    "baseURI",
    "contractURI",
    "Clober Orderbook Maker Order",
    "CLOB-ORDER"
  ],
  "numDeployments": 1,
  "solcInputHash": "6d67cda5872fd76f8ff4e0dcae9b6502",
  "bytecode": "0x6101606040523480156200001257600080fd5b506040516200675f3803806200675f83398101604081905262000035916200048d565b6040805180820190915260018152601960f91b60208201528290829082818a82856000620000648382620005fc565b506001620000738282620005fc565b5050506001600160a01b038116620000a657604051631e4fbdf760e01b8152600060048201526024015b60405180910390fd5b620000b181620001ab565b50620000bf826007620001c9565b61012052620000d0816008620001c9565b61014052815160208084019190912060e052815190820120610100524660a0526200015e60e05161010051604080517f8b73c3c69bb8fe3d512ecc4cf759cc79239f7b179b0ffacaa9a75d522b39400f60208201529081019290925260608201524660808201523060a082015260009060c00160405160208183030381529060405280519060200120905090565b60805250503060c0525062000177915086905062000202565b600a620001858582620005fc565b50600b620001948482620005fc565b506200019f6200025e565b50505050505062000722565b600680546001600160a01b0319169055620001c681620002dd565b50565b6000602083511015620001e957620001e1836200032f565b9050620001fc565b81620001f68482620005fc565b5060ff90505b92915050565b6200020c62000372565b600c80546001600160a01b038381166001600160a01b0319831681179093556040519116919082907f32faddbcf33c8560cff79ba1ddc6b995adbeefe08acc9d6c3cc64fe0c2158eef90600090a35050565b6200028860017f760a9a962ae3d184e99c0483cf5684fb3170f47116ca4f445c50209da4f4f90655565b7f722b431450ce53c44434ec138439e45a0639fe031b803ee019b776fae5cfa2b060005b6005811015620002d957600160ff1b8255600160ff1b6001830155600282019150600181019050620002ac565b5050565b600580546001600160a01b038381166001600160a01b0319831681179093556040519116919082907f8be0079c531659141344cd1fd0a4f28419497f9722a3daafe3b4186f6b6457e090600090a35050565b600080829050601f815111156200035d578260405163305a27a960e01b81526004016200009d9190620006c8565b80516200036a82620006fd565b179392505050565b6005546001600160a01b03163314620003a15760405163118cdaa760e01b81523360048201526024016200009d565b565b80516001600160a01b0381168114620003bb57600080fd5b919050565b634e487b7160e01b600052604160045260246000fd5b60005b83811015620003f3578181015183820152602001620003d9565b50506000910152565b600082601f8301126200040e57600080fd5b81516001600160401b03808211156200042b576200042b620003c0565b604051601f8301601f19908116603f01168101908282118183101715620004565762000456620003c0565b816040528381528660208588010111156200047057600080fd5b62000483846020830160208901620003d6565b9695505050505050565b60008060008060008060c08789031215620004a757600080fd5b620004b287620003a3565b9550620004c260208801620003a3565b60408801519095506001600160401b0380821115620004e057600080fd5b620004ee8a838b01620003fc565b955060608901519150808211156200050557600080fd5b620005138a838b01620003fc565b945060808901519150808211156200052a57600080fd5b620005388a838b01620003fc565b935060a08901519150808211156200054f57600080fd5b506200055e89828a01620003fc565b9150509295509295509295565b600181811c908216806200058057607f821691505b602082108103620005a157634e487b7160e01b600052602260045260246000fd5b50919050565b601f821115620005f7576000816000526020600020601f850160051c81016020861015620005d25750805b601f850160051c820191505b81811015620005f357828155600101620005de565b5050505b505050565b81516001600160401b03811115620006185762000618620003c0565b62000630816200062984546200056b565b84620005a7565b602080601f8311600181146200066857600084156200064f5750858301515b600019600386901b1c1916600185901b178555620005f3565b600085815260208120601f198616915b82811015620006995788860151825594840194600190910190840162000678565b5085821015620006b85787850151600019600388901b60f8161c191681555b5050505050600190811b01905550565b6020815260008251806020840152620006e9816040850160208701620003d6565b601f01601f19169190910160400192915050565b80516020808301519190811015620005a15760001960209190910360031b1b16919050565b60805160a05160c05160e051610100516101205161014051615fe26200077d60003960006138da015260006138ad01526000613325015260006132fd0152600061325801526000613282015260006132ac0152615fe26000f3fe60806040526004361061034e5760003560e01c80637b305c42116101bb578063c87b56dd116100f7578063e8a3d48511610095578063f2fde38b1161006f578063f2fde38b14610bd2578063f86a11b314610bf2578063fcc8fc9b14610c12578063fefc7c5114610c3257600080fd5b8063e8a3d48514610b55578063e985e9c514610b6a578063f035079914610bb357600080fd5b8063d83747e8116100d1578063d83747e814610ad7578063d9caed1214610af7578063de4478ec14610b17578063e30c397814610b3757600080fd5b8063c87b56dd146109cf578063d09ef241146109ef578063d68f4dd114610a4c57600080fd5b80639b19251a11610164578063a12ef25e1161013e578063a12ef25e14610937578063a22cb46514610957578063a54b283114610977578063b88d4fde146109af57600080fd5b80639b19251a146108175780639b22917d146108375780639ca179981461091757600080fd5b80639363cb8a116101955780639363cb8a146107b557806393c85a21146107d557806395d89b411461080257600080fd5b80637b305c421461073c57806384b0196e1461076f5780638da5cb5b1461079757600080fd5b80633b9500b01161028a5780636a256b291161023357806370a082311161020d57806370a08231146106d2578063715018a6146106f257806379ba5097146107075780637ac2ff7b1461071c57600080fd5b80636a256b291461068a5780636b2cc75c1461069d5780636c0360eb146106bd57600080fd5b806342842e0e1161026457806342842e0e146106085780634c02bf0b146106285780636352211e1461066a57600080fd5b80633b9500b0146105775780633e547b061461059757806341a8bb88146105cf57600080fd5b80631dbef488116102f757806330adf81f116102d157806330adf81f146104de5780633644e5151461051257806338926b6d146105275780633af32abf1461054757600080fd5b80631dbef4881461046957806323b872dd1461049e5780632f584a6d146104be57600080fd5b8063095ea7b311610328578063095ea7b3146103e9578063141a468c1461040b57806314d6a9eb1461044957600080fd5b806301ffc9a71461035a57806306fdde031461038f578063081812fc146103b157600080fd5b3661035557005b600080fd5b34801561036657600080fd5b5061037a610375366004614dec565b610c52565b60405190151581526020015b60405180910390f35b34801561039b57600080fd5b506103a4610c96565b6040516103869190614e59565b3480156103bd57600080fd5b506103d16103cc366004614e6c565b610d28565b6040516001600160a01b039091168152602001610386565b3480156103f557600080fd5b50610409610404366004614e9a565b610d51565b005b34801561041757600080fd5b5061043b610426366004614e6c565b60009081526009602052604090205460a01c90565b604051908152602001610386565b34801561045557600080fd5b5061043b610464366004614f0f565b610d60565b34801561047557600080fd5b50610489610484366004614f6a565b610fc2565b60408051928352602083019190915201610386565b3480156104aa57600080fd5b506104096104b9366004614fae565b6113a5565b3480156104ca57600080fd5b506104096104d9366004614fae565b611449565b3480156104ea57600080fd5b5061043b7f49ecf333e5b8c95c40fdafc95c1ad136e8914a8fb55e9dc8bb01eaa83a2df9ad81565b34801561051e57600080fd5b5061043b611459565b34801561053357600080fd5b5061043b610542366004614fef565b611468565b34801561055357600080fd5b5061037a610562366004615022565b60106020526000908152604090205460ff1681565b34801561058357600080fd5b5061048961059236600461503f565b61184b565b3480156105a357600080fd5b5061043b6105b2366004615066565b601160209081526000928352604080842090915290825290205481565b3480156105db57600080fd5b506105ef6105ea3660046150c8565b611b33565b60405167ffffffffffffffff9091168152602001610386565b34801561061457600080fd5b50610409610623366004614fae565b611b55565b34801561063457600080fd5b50600080516020615e8d83398151915254604080516001600160801b03600019840116815260809290921c602083015201610386565b34801561067657600080fd5b506103d1610685366004614e6c565b611b70565b61043b610698366004615022565b611b7b565b3480156106a957600080fd5b506104096106b8366004615022565b611be4565b3480156106c957600080fd5b506103a4611c35565b3480156106de57600080fd5b5061043b6106ed366004615022565b611cc3565b3480156106fe57600080fd5b50610409611d24565b34801561071357600080fd5b50610409611d38565b34801561072857600080fd5b506104096107373660046150fb565b611d7c565b34801561074857600080fd5b5061075c61075736600461515d565b611fe1565b60405160029190910b8152602001610386565b34801561077b57600080fd5b50610784612002565b6040516103869796959493929190615178565b3480156107a357600080fd5b506005546001600160a01b03166103d1565b3480156107c157600080fd5b5061075c6107d03660046150c8565b612064565b3480156107e157600080fd5b5061043b6107f0366004615022565b600e6020526000908152604090205481565b34801561080e57600080fd5b506103a4612086565b34801561082357600080fd5b50610409610832366004615022565b612095565b34801561084357600080fd5b5061090a61085236600461515d565b6040805160c081018252600080825260208201819052918101829052606081018290526080810182905260a0810191909152506001600160c01b03166000908152600f6020908152604091829020825160c08101845281546001600160a01b03808216835267ffffffffffffffff600160a01b92839004169483019490945260018301548085169583019590955262ffffff94819004851660608301526002909201549283166080820152910490911660a082015290565b604051610386919061522d565b34801561092357600080fd5b506103a4610932366004615294565b6120e9565b34801561094357600080fd5b50610409610952366004615066565b612234565b34801561096357600080fd5b506104096109723660046152d0565b61230d565b34801561098357600080fd5b5061043b610992366004615066565b600d60209081526000928352604080842090915290825290205481565b3480156109bb57600080fd5b506104096109ca366004615372565b612318565b3480156109db57600080fd5b506103a46109ea366004614e6c565b61232f565b3480156109fb57600080fd5b50610a0f610a0a366004614e6c565b612396565b6040805182516001600160a01b0316815260208084015167ffffffffffffffff908116918301919091529282015190921690820152606001610386565b348015610a5857600080fd5b50610ab7610a67366004614e6c565b6002027f722b431450ce53c44434ec138439e45a0639fe031b803ee019b776fae5cfa2b08101547f722b431450ce53c44434ec138439e45a0639fe031b803ee019b776fae5cfa2b1909101549091565b604080516001600160a01b03938416815292909116602083015201610386565b348015610ae357600080fd5b50600c546103d1906001600160a01b031681565b348015610b0357600080fd5b50610409610b12366004614fae565b6124d3565b348015610b2357600080fd5b50610409610b32366004615022565b612531565b348015610b4357600080fd5b506006546001600160a01b03166103d1565b348015610b6157600080fd5b506103a461258b565b348015610b7657600080fd5b5061037a610b85366004615066565b6001600160a01b03918216600090815260046020908152604080832093909416825291909152205460ff1690565b348015610bbf57600080fd5b5061043b610bce366004614e6c565b5490565b348015610bde57600080fd5b50610409610bed366004615022565b612598565b348015610bfe57600080fd5b506103a4610c0d366004615421565b612609565b348015610c1e57600080fd5b5061037a610c2d36600461515d565b612686565b348015610c3e57600080fd5b50610409610c4d366004615443565b6126a7565b60006001600160e01b031982167f6831a4fd000000000000000000000000000000000000000000000000000000001480610c905750610c9082612aa5565b92915050565b606060008054610ca590615485565b80601f0160208091040260200160405190810160405280929190818152602001828054610cd190615485565b8015610d1e5780601f10610cf357610100808354040283529160200191610d1e565b820191906000526020600020905b815481529060010190602001808311610d0157829003601f168201915b5050505050905090565b6000610d3382612b40565b506000828152600360205260409020546001600160a01b0316610c90565b610d5c828233612b79565b5050565b6000610d6b33612b86565b610d8d610d85853560009081526009602052604090205490565b338635612c40565b8335604090811c6000908152600f602090815290829020825160c08101845281546001600160a01b03808216835267ffffffffffffffff600160a01b92839004169483019490945260018301548085169583019590955262ffffff9481900485166060830152600283015493841660808301819052930490931660a08401529190610e1a90878787612cbd565b610e2957600092505050610fbb565b6000807318C2B4C4669277565b977F174796699656dE4175633ac502c1858a35610e5960408d0160208e016154cf565b6040516001600160e01b031960e086901b1681526004810193909352602483019190915267ffffffffffffffff1660448201526064016040805180830381865af4158015610eab573d6000803e3d6000fd5b505050506040513d601f19601f82011682018060405250810190610ecf91906154ec565b91509150826020015167ffffffffffffffff168267ffffffffffffffff16029450610f03836060015162ffffff1660171c90565b15610f28576060830151600090610f219062ffffff16876001612d42565b9590950194505b8067ffffffffffffffff16600003610f4457610f448835612dc5565b610f5b836040015186610f5690615531565b612e00565b6080830151610f76906001600160a01b031689848a8a612ef6565b60405167ffffffffffffffff831681528835907f0c6ba7ef5064094c17cce013aa4c617a23e2582f867774d07a5931de43b85d729060200160405180910390a2505050505b9392505050565b600080610fce33612b86565b6000610fe261012087016101008801615022565b6001600160a01b03161415801561102957506010600061100a61012088016101008901615022565b6001600160a01b0316815260208101919091526040016000205460ff16155b156110835761104061012086016101008701615022565b6040517f962715990000000000000000000000000000000000000000000000000000000081526001600160a01b0390911660048201526024015b60405180910390fd5b61109e61109660e0870160c0880161554d565b60020b612f7f565b60006110b76110b236889003880188615625565b612fdb565b6001600160c01b0381166000908152600f602052604090209091506110db8161300e565b6111106110ed36899003890189615641565b87876110ff60a08c0160808d01615022565b6001600160a01b0316929190613057565b6111225760008093509350505061139d565b60007318C2B4C4669277565b977F174796699656dE417563ffa0afb58361114f60e08c0160c08d0161554d565b6111606101008d0160e08e016154cf565b6111726101208e016101008f01615022565b6040516001600160e01b031960e087901b168152600481019490945260029290920b602484015267ffffffffffffffff1660448301526001600160a01b03166064820152608401602060405180830381865af41580156111d6573d6000803e3d6000fd5b505050506040513d601f19601f820116820180604052508101906111fa91906156c5565b905061122c8361121060e08b0160c08c0161554d565b60409190911b60289190911b67ffffff00000000001601820190565b9450600061124060408a0160208b016154cf565b67ffffffffffffffff1661125b6101008b0160e08c016154cf565b67ffffffffffffffff1602945084905061128961127e60808b0160608c016156ec565b62ffffff1660171c90565b156112b5576112b08560006112a460808d0160608e016156ec565b62ffffff169190612d42565b019350835b6112ce6112c860608b0160408c01615022565b82612e00565b6112d83387613087565b6113156112ea368b90038b018b615641565b878a8a8d60000160800160208101906113039190615022565b6001600160a01b031693929190613105565b336001600160c01b0385167f4b4e05fe5b3ea8a827cc25af0e5e91296810dcdd8a15094f6c1cd92290e5262261135160e08d0160c08e0161554d565b858d60e001602081019061136591906154cf565b6040805160029490940b845264ffffffffff909216602084015267ffffffffffffffff169082015260600160405180910390a3505050505b935093915050565b6001600160a01b0382166113cf57604051633250574960e11b81526000600482015260240161107a565b60006113dc838333613145565b9050836001600160a01b0316816001600160a01b031614611443576040517f64283d7b0000000000000000000000000000000000000000000000000000000081526001600160a01b038086166004830152602482018490528216604482015260640161107a565b50505050565b611454838383612c40565b505050565b600061146361324b565b905090565b600061147333612b86565b60008481526009602052604090205461148d903386612c40565b604084811c6000908152600f602090815290829020825160c08101845281546001600160a01b03808216835267ffffffffffffffff600160a01b92839004169483019490945260018301548085169583019590955262ffffff9481900485166060830152600283015493841660808301819052930490931660a0840152602887901c92879261151e90848989613376565b61152f576000945050505050610fbb565b6040517fc49d262100000000000000000000000000000000000000000000000000000000815260048101839052600285900b602482015264ffffffffff841660448201526000907318C2B4C4669277565b977F174796699656dE41759063c49d262190606401602060405180830381865af41580156115b2573d6000803e3d6000fd5b505050506040513d601f19601f820116820180604052508101906115d69190615707565b6020830151909150600090819067ffffffffffffffff808516911602611601600289900b82846133b5565b606086015160a0870151919a509061161e62ffffff821660171c90565b1561163b5761163462ffffff8216846001612d42565b945061164f565b61164c62ffffff82168c6001612d42565b93505b61165e8262ffffff1660171c90565b156116855761167462ffffff8316846001612d42565b61167e9086615724565b94506116d3565b600061169762ffffff84168d83612d42565b90506116a38186615724565b9450600081136116c5576116b681615531565b6116c0908d615744565b6116cf565b6116cf818d615757565b9b50505b50600091506116e590508689896133d8565b80519091506001600160a01b0381166117065750600c546001600160a01b03165b6000841315611759576117188461342d565b6001600160a01b0380831660009081526011602090815260408083208b82015190941683529290529081208054909190611753908490615744565b90915550505b60008313156117aa5761176b8361342d565b6001600160a01b0380831660009081526011602090815260408083208b51909416835292905290812080549091906117a4908490615744565b90915550505b816020015167ffffffffffffffff166000036117c9576117c98d612dc5565b85516117e1906117d88c613470565b610f5690615531565b60808601516117fc906001600160a01b03168e878f8f6134cf565b60405167ffffffffffffffff861681528d907ffc7df80a30ee916cc040221cf6fcfb3c6dc994b3fa4c4ab23e8a0f134de5c0c09060200160405180910390a25050505050505050509392505050565b60008061185733612b86565b61186a61109660e0870160c0880161554d565b600061187e6110b236889003880188615625565b6001600160c01b0381166000908152600f602052604090209091506118a28161300e565b6118d76118b43689900389018961576a565b87876118c660a08c0160808d01615022565b6001600160a01b031692919061350e565b6118e95760008093509350505061139d565b60007318C2B4C4669277565b977F174796699656dE417563a151a7e18361191660e08c0160c08d0161554d565b6119276101008d0160e08e016154cf565b6040516001600160e01b031960e086901b168152600481019390935260029190910b602483015267ffffffffffffffff166044820152606401602060405180830381865af415801561197d573d6000803e3d6000fd5b505050506040513d601f19601f820116820180604052508101906119a19190615707565b90506119b36040890160208a016154cf565b67ffffffffffffffff82811691160294506119e48560016119da60e08c0160c08d0161554d565b60020b91906133b5565b93508460006119f286613470565b9050611a0761127e60c08c0160a08d016156ec565b15611a3657611a228760006112a460c08e0160a08f016156ec565b611a2c90836157da565b9150819650611a5c565b611a4c8660006112a460c08e0160a08f016156ec565b611a569082615724565b90508095505b611a78611a6f60608c0160408d01615022565b610f5684615531565b611a886112c860208c018c615022565b611ac5611a9a368c90038c018c61576a565b848b8b8e6000016080016020810190611ab39190615022565b6001600160a01b03169392919061353e565b336001600160c01b0386167fc4c20b9c4a5ada3b01b7a391a08dd81a1be01dd8ef63170dd9da44ecee3db11b611b0160e08e0160c08f0161554d565b6040805160029290920b825267ffffffffffffffff881660208301520160405180910390a35050505050935093915050565b6001600160c01b0382166000908152600f60205260408120610fbb908361357e565b61145483838360405180602001604052806000815250612318565b6000610c9082612b40565b6000611b8633612b86565b6001600160a01b0382166000818152600e602052604090205490611ba9906135b5565b6001600160a01b0384166000908152600e60205260409020819055611bcf908290615757565b9150611bde836117d884613470565b50919050565b611bec613652565b6001600160a01b038116600081815260106020526040808220805460ff19169055517f88f58aa68e1f754fecfec41a6758d18d4a53fa15d4e206fd54bbdfe7a9e98da79190a250565b600a8054611c4290615485565b80601f0160208091040260200160405190810160405280929190818152602001828054611c6e90615485565b8015611cbb5780601f10611c9057610100808354040283529160200191611cbb565b820191906000526020600020905b815481529060010190602001808311611c9e57829003601f168201915b505050505081565b60006001600160a01b038216611d08576040517f89c62b640000000000000000000000000000000000000000000000000000000081526000600482015260240161107a565b506001600160a01b031660009081526002602052604090205490565b611d2c613652565b611d36600061367f565b565b60065433906001600160a01b03168114611d705760405163118cdaa760e01b81526001600160a01b038216600482015260240161107a565b611d798161367f565b50565b83421115611db6576040517f1a15a3cc00000000000000000000000000000000000000000000000000000000815260040160405180910390fd5b6000611e347f49ecf333e5b8c95c40fdafc95c1ad136e8914a8fb55e9dc8bb01eaa83a2df9ad8888611de781613698565b6040805160208101959095526001600160a01b03909316928401929092526060830152608082015260a0810187905260c001604051602081830303815290604052805190602001206136d3565b90506000611e4187611b70565b9050806001600160a01b0316886001600160a01b031603611e7557604051638baa579f60e01b815260040160405180910390fd5b6001600160a01b0381163b15611f8d57604080516020810186905280820185905260f887901b7fff000000000000000000000000000000000000000000000000000000000000001660608201528151604181830301815260618201928390527f1626ba7e000000000000000000000000000000000000000000000000000000009092526001600160a01b03831691631626ba7e91611f179186916065016157fa565b602060405180830381865afa158015611f34573d6000803e3d6000fd5b505050506040513d601f19601f82011682018060405250810190611f589190615813565b6001600160e01b031916631626ba7e60e01b14611f8857604051638baa579f60e01b815260040160405180910390fd5b611fca565b806001600160a01b0316611fa38387878761371b565b6001600160a01b031614611fca57604051638baa579f60e01b815260040160405180910390fd5b611fd78888836001613749565b5050505050505050565b6001600160c01b0381166000908152600f60205260408120610c9090613887565b6000606080600080600060606120166138a6565b61201e6138d3565b604080516000808252602082019092527f0f000000000000000000000000000000000000000000000000000000000000009b939a50919850469750309650945092509050565b6001600160c01b0382166000908152600f60205260408120610fbb9083613900565b606060018054610ca590615485565b61209d613652565b6001600160a01b038116600081815260106020526040808220805460ff19166001179055517feb73900b98b6a3e2b8b01708fe544760cf570d21e7fbe5225f24e48b5b2b432e9190a250565b60606120f58433613921565b6040517f15c7afb40000000000000000000000000000000000000000000000000000000081526001600160a01b038516906315c7afb49061213e90339087908790600401615859565b6000604051808303816000875af115801561215d573d6000803e3d6000fd5b505050506040513d6000823e601f3d908101601f19168201604052612185919081019061587c565b600080516020615e8d8339815191525490915060001981019060801c6001600160801b03821660010361220f576001600160801b038116156121f3576040517f5212cba100000000000000000000000000000000000000000000000000000000815260040160405180910390fd5b61220a6001600080516020615e8d83398151915255565b61222b565b61222b600080516020615e8d8339815191528054600019019055565b50509392505050565b6001600160a01b038083166000908152601160209081526040808320938516835292905220548015611454576001600160a01b0380841660009081526011602090815260408083209386168352928152828220829055600e905290812080548392906122a1908490615757565b909155506122bb90506001600160a01b03831684836139b1565b816001600160a01b0316836001600160a01b03167f1314fd112a381beea61539dbd21ec04afcff2662ac7d1b83273aade1f53d1b978360405161230091815260200190565b60405180910390a3505050565b610d5c338383613a99565b6123238484846113a5565b61144384848484613b49565b606061233a82612b40565b506000612345613c6b565b905060008151116123655760405180602001604052806000815250610fbb565b8061236f84613c7a565b6040516020016123809291906158ea565b6040516020818303038152906040529392505050565b604080516060810182526000808252602080830182905282840182905284841c808352600f909152928120919291602885901c918591906123d88285856133d8565b6040517f59d84f5b00000000000000000000000000000000000000000000000000000000815260048101849052600286900b602482015264ffffffffff851660448201529091506000907318C2B4C4669277565b977F174796699656dE4175906359d84f5b90606401602060405180830381865af415801561245e573d6000803e3d6000fd5b505050506040513d601f19601f820116820180604052508101906124829190615707565b9050604051806060016040528083600001516001600160a01b031681526020018284602001510367ffffffffffffffff1681526020018267ffffffffffffffff168152509650505050505050919050565b6124dc33612b86565b8015611454576124ef83610f5683613470565b6001600160a01b0383166000908152600e602052604081208054839290612517908490615757565b9091555061145490506001600160a01b03841683836139b1565b612539613652565b600c80546001600160a01b038381166001600160a01b0319831681179093556040519116919082907f32faddbcf33c8560cff79ba1ddc6b995adbeefe08acc9d6c3cc64fe0c2158eef90600090a35050565b600b8054611c4290615485565b6125a0613652565b600680546001600160a01b0383166001600160a01b031990911681179091556125d16005546001600160a01b031690565b6001600160a01b03167f38d16b8cac22d99fc7c124b9cd0de2d3fa1faef420bfe791d8c362d765e2270060405160405180910390a350565b6060612616826020615919565b67ffffffffffffffff81111561262e5761262e615303565b6040519080825280601f01601f191660200182016040528015612658576020820181803683370190505b50905060005b8281101561267f57808401546020600183010283015260018101905061265e565b5092915050565b6001600160c01b0381166000908152600f60205260408120610c9090613d1a565b6126b033612b86565b6126c060408401602085016154cf565b67ffffffffffffffff16600003612703576040517f997c4ef400000000000000000000000000000000000000000000000000000000815260040160405180910390fd5b61272061271660808501606086016156ec565b62ffffff16613d52565b801561273a575061273a61271660c0850160a086016156ec565b61275757604051637a34030f60e01b815260040160405180910390fd5b600061277a61276c60c0860160a087016156ec565b627fffff166207a11f190190565b61278d61276c60808701606088016156ec565b0160020b12156127b057604051637a34030f60e01b815260040160405180910390fd5b60006127c561276c60808601606087016156ec565b60020b12806127e9575060006127e461276c60c0860160a087016156ec565b60020b125b156128365761280161127e60c0850160a086016156ec565b151561281661127e60808601606087016156ec565b15151461283657604051637a34030f60e01b815260040160405180910390fd5b61285761284960a0850160808601615022565b6001600160a01b0316613d83565b6128a95761286b60a0840160808501615022565b6040517fe65af6a00000000000000000000000000000000000000000000000000000000081526001600160a01b03909116600482015260240161107a565b6128de6128bb36859003850185615625565b83836128cd60a0880160808901615022565b6001600160a01b0316929190613e2f565b60006128f26110b236869003860186615625565b6001600160c01b0381166000908152600f60205260409081902090517fab8a7e3f0000000000000000000000000000000000000000000000000000000081529192507318C2B4C4669277565b977F174796699656dE41759163ab8a7e3f9161295e918890600401615930565b60006040518083038186803b15801561297657600080fd5b505af415801561298a573d6000803e3d6000fd5b505050506129c5848036038101906129a29190615625565b84846129b460a0890160808a01615022565b6001600160a01b0316929190613eaf565b6129d56060850160408601615022565b6001600160a01b03166129eb6020860186615022565b6001600160a01b03166001600160c01b0383167f803427d75ce3214f82dc7aa4910635170a6655e2c1663dc03429dd04100cba5a612a2f6040890160208a016154cf565b612a3f60808a0160608b016156ec565b612a4f60c08b0160a08c016156ec565b612a5f60a08c0160808d01615022565b6040805167ffffffffffffffff95909516855262ffffff938416602086015291909216908301526001600160a01b0316606082015260800160405180910390a450505050565b60006001600160e01b031982167f80ac58cd000000000000000000000000000000000000000000000000000000001480612b0857506001600160e01b031982167f5b5e139f00000000000000000000000000000000000000000000000000000000145b80610c9057507f01ffc9a7000000000000000000000000000000000000000000000000000000006001600160e01b0319831614610c90565b6000818152600960205260408120546001600160a01b038116610c9057604051637e27328960e01b81526004810184905260240161107a565b6114548383836001613749565b6000612b90613eed565b90506000612b9c613f5f565b9050816001600160a01b0316836001600160a01b031603612bbc57505050565b806001600160a01b0316836001600160a01b0316148015612bf157507210000000000000000000000000000000000000811615155b15612bfb57505050565b6040517f74d863650000000000000000000000000000000000000000000000000000000081526001600160a01b0380841660048301528216602482015260440161107a565b612c4b838383613fad565b611454576001600160a01b038316612c7957604051637e27328960e01b81526004810182905260240161107a565b6040517f177e802f0000000000000000000000000000000000000000000000000000000081526001600160a01b03831660048201526024810182905260440161107a565b6000600160991b851615612d3657612d2f63295b52c560e01b33868686604051602401612ced9493929190615a00565b60408051601f198184030181529190526020810180516001600160e01b03166001600160e01b0319909316929092179091526001600160a01b03871690614030565b9050612d3a565b5060015b949350505050565b60006207a11f19627fffff851601600281900b82128281612d665782600003612d68565b825b62ffffff1690506000612da2612d7e8389615919565b620f424088612d94578581830615151691040190565b808206151586151691040190565b905082612db757612db281615531565b612db9565b805b98975050505050505050565b6000612dd46000836000613145565b90506001600160a01b038116610d5c57604051637e27328960e01b81526004810183905260240161107a565b80600003612e0c575050565b6000612e16613eed565b6001600160a01b038082166000908152600d60209081526040808320938816835292905290812054919250612e4b8483615724565b905080600003612e9457612e8f600080516020615e8d83398151915280547fffffffffffffffffffffffffffffffff00000000000000000000000000000000019055565b612ec7565b81600003612ec757612ec7600080516020615e8d8339815191528054700100000000000000000000000000000000019055565b6001600160a01b039283166000908152600d602090815260408083209790951682529590955291909320555050565b730100000000000000000000000000000000000000851615612f7857612f78635125ce9c60e01b3386868686604051602401612f36959493929190615a3a565b60408051601f198184030181529190526020810180516001600160e01b03166001600160e01b0319909316929092179091526001600160a01b0387169061410e565b5050505050565b6207ffff600282900b1380612fa45750612f9b6207ffff615a85565b60020b8160020b125b15611d79576040517fce8ef7fc00000000000000000000000000000000000000000000000000000000815260040160405180910390fd5b60008082604051602001612fef919061522d565b60408051601f1981840301815291905280516020909101209392505050565b8054600160a01b900467ffffffffffffffff16611d79576040517f1e3636e600000000000000000000000000000000000000000000000000000000815260040160405180910390fd5b60006001609d1b851615612d3657612d2f633fda46bb60e01b33868686604051602401612ced9493929190615b42565b6001600160a01b0382166130b157604051633250574960e11b81526000600482015260240161107a565b60006130bf83836000613145565b90506001600160a01b03811615611454576040517f73c6ac6e0000000000000000000000000000000000000000000000000000000081526000600482015260240161107a565b731000000000000000000000000000000000000000851615612f7857612f7863eba8155960e01b3386868686604051602401612f36959493929190615b74565b6000828152600960205260408120546001600160a01b0383161561316e5761316e818486612c40565b6001600160a01b038116156131ac5761318b600085600080613749565b6001600160a01b038116600090815260026020526040902080546000190190555b6001600160a01b038516156131db576001600160a01b0385166000908152600260205260409020805460010190555b600084815260096020526040902080546001600160a01b0319166001600160a01b03871617905583856001600160a01b0316826001600160a01b03167fddf252ad1be2c89b69c2b068fc378daa952ba7f163c4a11628f55a4df523b3ef60405160405180910390a4949350505050565b6000306001600160a01b037f0000000000000000000000000000000000000000000000000000000000000000161480156132a457507f000000000000000000000000000000000000000000000000000000000000000046145b156132ce57507f000000000000000000000000000000000000000000000000000000000000000090565b611463604080517f8b73c3c69bb8fe3d512ecc4cf759cc79239f7b179b0ffacaa9a75d522b39400f60208201527f0000000000000000000000000000000000000000000000000000000000000000918101919091527f000000000000000000000000000000000000000000000000000000000000000060608201524660808201523060a082015260009060c00160405160208183030381529060405280519060200120905090565b60007280000000000000000000000000000000000000851615612d3657612d2f63827e0eb260e01b33868686604051602401612ced9493929190615bad565b6000612d3a608084901b6133cb8660020b614153565b8082061515851691040190565b60408051808201909152600080825260208201526133f7848484614457565b6040805180820190915290546001600160a01b0381168252600160a01b900467ffffffffffffffff166020820152949350505050565b60008082121561346c576040517fa8ce44320000000000000000000000000000000000000000000000000000000081526004810183905260240161107a565b5090565b60007f7fffffffffffffffffffffffffffffffffffffffffffffffffffffffffffffff82111561346c576040517f24775e060000000000000000000000000000000000000000000000000000000081526004810183905260240161107a565b7240000000000000000000000000000000000000851615612f7857612f786348042cf460e01b3386868686604051602401612f36959493929190615bd6565b60006001609b1b851615612d3657612d2f63fab3c75660e01b33868686604051602401612ced9493929190615c96565b730400000000000000000000000000000000000000851615612f7857612f78639eb477b260e01b3386868686604051602401612f36959493929190615cc8565b600061358d600584018361449b565b600283900b600090815260038501602052604090206135ab906144e4565b610fbb9190615d0b565b60006001600160a01b0382166135cc575047919050565b6040517f70a082310000000000000000000000000000000000000000000000000000000081523060048201526001600160a01b038316906370a0823190602401602060405180830381865afa158015613629573d6000803e3d6000fd5b505050506040513d601f19601f82011682018060405250810190610c909190615d2c565b919050565b6005546001600160a01b03163314611d365760405163118cdaa760e01b815233600482015260240161107a565b600680546001600160a01b0319169055611d7981614525565b60008181526009602052604090205460a081901c906136bb81600160a01b615744565b60009384526009602052604090932092909255919050565b6000610c906136e061324b565b836040517f19010000000000000000000000000000000000000000000000000000000000008152600281019290925260228201526042902090565b60008060008061372d88888888614577565b92509250925061373d8282614646565b50909695505050505050565b808061375d57506001600160a01b03821615155b1561385757600061376d84612b40565b90506001600160a01b038316158015906137995750826001600160a01b0316816001600160a01b031614155b80156137cb57506001600160a01b0380821660009081526004602090815260408083209387168352929052205460ff16155b1561380d576040517fa9fbf51f0000000000000000000000000000000000000000000000000000000081526001600160a01b038416600482015260240161107a565b81156138555783856001600160a01b0316826001600160a01b03167f8c5be1e5ebec7d5bd14f71427d1e84f3dd0314c0f7b2291e5b200ac8c7c3b92560405160405180910390a45b505b5050600090815260036020526040902080546001600160a01b0319166001600160a01b0392909216919091179055565b6000610c906138988360040161474a565b62ffffff16627fffff190190565b60606114637f0000000000000000000000000000000000000000000000000000000000000000600761484a565b60606114637f0000000000000000000000000000000000000000000000000000000000000000600861484a565b6000610fbb6138986139178460020b628000000190565b60048601906148f5565b600061393d600080516020615e8d833981519152546000190190565b7f722b431450ce53c44434ec138439e45a0639fe031b803ee019b776fae5cfa2b06001600160801b0390911660020290810193909355507f722b431450ce53c44434ec138439e45a0639fe031b803ee019b776fae5cfa2b190910155600080516020615e8d83398151915280546001019055565b60006001600160a01b038416613a095760008060008085875af1905080613a04576040517ff4b3b1bc00000000000000000000000000000000000000000000000000000000815260040160405180910390fd5b611443565b6040517fa9059cbb0000000000000000000000000000000000000000000000000000000081526001600160a01b0384166004820152826024820152602060006044836000895af13d15601f3d1160016000511416171691505080611443576040517ff27f64e400000000000000000000000000000000000000000000000000000000815260040160405180910390fd5b6001600160a01b038216613ae4576040517f5b08ba180000000000000000000000000000000000000000000000000000000081526001600160a01b038316600482015260240161107a565b6001600160a01b03838116600081815260046020908152604080832094871680845294825291829020805460ff191686151590811790915591519182527f17307eab39ab6107e8899845ad3d59bd9653f200f220920489ca2b5937696c319101612300565b6001600160a01b0383163b1561144357604051630a85bd0160e11b81526001600160a01b0384169063150b7a0290613b8b903390889087908790600401615d45565b6020604051808303816000875af1925050508015613bc6575060408051601f3d908101601f19168201909252613bc391810190615813565b60015b613c2f573d808015613bf4576040519150601f19603f3d011682016040523d82523d6000602084013e613bf9565b606091505b508051600003613c2757604051633250574960e11b81526001600160a01b038516600482015260240161107a565b805181602001fd5b6001600160e01b03198116630a85bd0160e11b14612f7857604051633250574960e11b81526001600160a01b038516600482015260240161107a565b6060600a8054610ca590615485565b60606000613c8783614a02565b600101905060008167ffffffffffffffff811115613ca757613ca7615303565b6040519080825280601f01601f191660200182016040528015613cd1576020820181803683370190505b5090508181016020015b600019017f3031323334353637383961626364656600000000000000000000000000000000600a86061a8153600a8504945084613cdb57509392505050565b7f7710c0702d438d37259561c892984b894ff622adfa3d98b5dfe5a9763f94b954600090815260048201602052604081205415610c90565b60006207a11f19627fffff8316016207a120600282900b1380613d7b57506207a11f198160020b125b159392505050565b60007220000000000000000000000000000000000000821615158015613dad57506001609d1b8216155b8015613dbd57506001609b1b8216155b8015613dcd5750600160991b8216155b8015613dec575072800000000000000000000000000000000000008216155b15613df957506000919050565b6001600160a01b0382161580610c9057505072100000000000000000000000000000000000006001600160a01b03909116101590565b73800000000000000000000000000000000000000084161561144357611443635df4d91860e01b33858585604051602401613e6d9493929190615d77565b60408051601f198184030181529190526020810180516001600160e01b03166001600160e01b0319909316929092179091526001600160a01b0386169061410e565b734000000000000000000000000000000000000000841615611443576114436371ded94360e01b33858585604051602401613e6d9493929190615d77565b600080613f0a600080516020615e8d833981519152546000190190565b90506000816001600160801b031611613f24576000613f59565b60026001600160801b03600019830116027f722b431450ce53c44434ec138439e45a0639fe031b803ee019b776fae5cfa2b001545b91505090565b6000611463613f7e600080516020615e8d833981519152546000190190565b6001600160801b03167ffcac7593714b88fec0c578a53e9f3f6e4b47eb26c9dcaa7eff23a3ac156be421015490565b60006001600160a01b03831615801590612d3a5750826001600160a01b0316846001600160a01b0316148061400757506001600160a01b0380851660009081526004602090815260408083209387168352929052205460ff165b80612d3a5750506000908152600360205260409020546001600160a01b03908116911614919050565b600080600061403f8585614ae4565b91509150816001600160e01b031916816001600160e01b031916036140675760019250614106565b6040517f4e6f4f70000000000000000000000000000000000000000000000000000000006020820152602401604051602081830303815290604052805190602001206001600160e01b031916816001600160e01b0319161480156140df57507220000000000000000000000000000000000000851615155b156140ed5760009250614106565b604051631e048e1d60e01b815260040160405180910390fd5b505092915050565b60008061411b8484614ae4565b91509150816001600160e01b031916816001600160e01b0319161461144357604051631e048e1d60e01b815260040160405180910390fd5b600061415e82612f7f565b816000600282900b8113614172578161417b565b61417b82615a85565b62ffffff81169150600116156141a3576ffff97272373d413259a46990580e213992506141b8565b70010000000000000000000000000000000092505b60028116156141db5760806ffff2e50f5f656932ef12357cf3c7fdcb8402901c92505b60048116156141fe5760806fffe5caca7e10e4e61c3624eaa0941ccf8402901c92505b60088116156142215760806fffcb9843d60f6159c9db58835c9266438402901c92505b60108116156142445760806fff973b41fa98c081472e6896dfb254bf8402901c92505b60208116156142675760806fff2ea16466c96a3843ec78b326b528608402901c92505b604081161561428a5760806ffe5dee046a99a2a811c461f1969c30528402901c92505b60808116156142ad5760806ffcbe86c7900a88aedcffc83b479aa3a38402901c92505b6101008116156142d15760806ff987a7253ac413176f2b074cf7815e538402901c92505b6102008116156142f55760806ff3392b0822b70005940c7a398e4b70f28402901c92505b6104008116156143195760806fe7159475a2c29b7443b29c7fa6e889d88402901c92505b61080081161561433d5760806fd097f3bdfd2022b8845ad8f792aa58258402901c92505b6110008116156143615760806fa9f746462d870fdf8a65dc1f90e061e48402901c92505b6120008116156143855760806f70d869a156d2a1b890bb3df62baf32f68402901c92505b6140008116156143a95760806f31be135f97d08fd981231505542fcfa58402901c92505b6180008116156143cd5760806f09aa508b5b7a84e1c677de54f3e99bc88402901c92505b620100008116156143f15760806e5d6af8dedb81196699c329225ee6048402901c92505b620200008116156144145760806d2216e584f5fa1ea926041bedfe978402901c92505b620400008116156144355760806b048a170391f7dc42444e8fa28402901c92505b60008260020b13156144505761444d83600019615e01565b92505b5050919050565b600282900b60009081526003840160205260408120600401805464ffffffffff841690811061448857614488615e23565b9060005260206000200190509392505050565b623fffff600282901c1660008181526020849052604081205490919060038416906144db9060c0600687901b161c67ffffffffffffffff16801515900390565b95945050505050565b600160009081526020829052604081205461450190826004614b99565b60008080526020849052604081205461451b916004614b99565b610c909190615e39565b600580546001600160a01b038381166001600160a01b0319831681179093556040519116919082907f8be0079c531659141344cd1fd0a4f28419497f9722a3daafe3b4186f6b6457e090600090a35050565b600080807f7fffffffffffffffffffffffffffffff5d576e7357a4501ddfe92f46681b20a08411156145b2575060009150600390508261463c565b604080516000808252602082018084528a905260ff891692820192909252606081018790526080810186905260019060a0016020604051602081039080840390855afa158015614606573d6000803e3d6000fd5b5050604051601f1901519150506001600160a01b0381166146325750600092506001915082905061463c565b9250600091508190505b9450945094915050565b600082600381111561465a5761465a615e5a565b03614663575050565b600182600381111561467757614677615e5a565b036146ae576040517ff645eedf00000000000000000000000000000000000000000000000000000000815260040160405180910390fd5b60028260038111156146c2576146c2615e5a565b036146fc576040517ffce698f70000000000000000000000000000000000000000000000000000000081526004810182905260240161107a565b600382600381111561471057614710615e5a565b03610d5c576040517fd78bce0c0000000000000000000000000000000000000000000000000000000081526004810182905260240161107a565b7f7710c0702d438d37259561c892984b894ff622adfa3d98b5dfe5a9763f94b9546000908152602082905260408120546147b0576040517f4f3d7def00000000000000000000000000000000000000000000000000000000815260040160405180910390fd5b7f7710c0702d438d37259561c892984b894ff622adfa3d98b5dfe5a9763f94b9546000908152602083905260408120546147e990614bda565b60ff169050600061480c8460008419815260200190815260200160002054614bda565b60ff16600883901b179050600061483485600084815260200190815260200160002054614bda565b60ff16905080600883901b179350505050919050565b606060ff83146148645761485d83614c53565b9050610c90565b81805461487090615485565b80601f016020809104026020016040519081016040528092919081815260200182805461489c90615485565b80156148e95780601f106148be576101008083540402835291602001916148e9565b820191906000526020600020905b8154815290600101906020018083116148cc57829003601f168201915b50505050509050610c90565b600881901c60008181526020849052604081205490919060ff841690600119821b168084036149e257600883901c801960009081526020889052604081205460011960ff87161b16908190036149b6577f7710c0702d438d37259561c892984b894ff622adfa3d98b5dfe5a9763f94b954600090815260208990526040812054600119841b16908190036149925760009650505050505050610c90565b61499b81614bda565b60ff168019600090815260208b905260409020549093509150505b6149bf81614bda565b60ff16600883901b17945087600086815260200190815260200160002054925050505b6149eb81614bda565b60ff16915081600884901b17935050505092915050565b6000807a184f03e93ff9f4daa797ed6e38ed64bf6a1f0100000000000000008310614a4b577a184f03e93ff9f4daa797ed6e38ed64bf6a1f010000000000000000830492506040015b6d04ee2d6d415b85acef81000000008310614a77576d04ee2d6d415b85acef8100000000830492506020015b662386f26fc100008310614a9557662386f26fc10000830492506010015b6305f5e1008310614aad576305f5e100830492506008015b6127108310614ac157612710830492506004015b60648310614ad3576064830492506002015b600a8310610c905760010192915050565b6000806000614af285614c92565b905060208401519250600080866001600160a01b031686604051614b169190615e70565b6000604051808303816000865af19150503d8060008114614b53576040519150601f19603f3d011682016040523d82523d6000602084013e614b58565b606091505b509150915081614b6b57614b6b81614cfe565b80806020019051810190614b7f9190615813565b93508215614b8f57614b8f614d3f565b5050509250929050565b600682901b9290921c916000825b82811015614bcf57604085901c9467ffffffffffffffff168015019190910190600101614ba7565b509190039003919050565b6000808211614be857600080fd5b60007e818283848586878898a8b8c8d8e8f929395969799a9b9d9e9faaeb6bedeeff600184190184160260f81c90506040518061012001604052806101008152602001615ead61010091398181518110614c4457614c44615e23565b016020015160f81c9392505050565b60606000614c6083614d95565b604080516020808252818301909252919250600091906020820181803683375050509182525060208101929092525090565b600080614c9d613f5f565b6001600160a01b03160361364d576000614cc7600080516020615e8d833981519152546000190190565b6001600160801b03167ffcac7593714b88fec0c578a53e9f3f6e4b47eb26c9dcaa7eff23a3ac156be4210192909255506001919050565b805115614d0d57805181602001fd5b6040517f36bc48c500000000000000000000000000000000000000000000000000000000815260040160405180910390fd5b6000614d5b600080516020615e8d833981519152546000190190565b6001600160801b03167ffcac7593714b88fec0c578a53e9f3f6e4b47eb26c9dcaa7eff23a3ac156be42160001c019050600160ff1b815550565b600060ff8216601f811115610c90576040517fb3512b0c00000000000000000000000000000000000000000000000000000000815260040160405180910390fd5b6001600160e01b031981168114611d7957600080fd5b600060208284031215614dfe57600080fd5b8135610fbb81614dd6565b60005b83811015614e24578181015183820152602001614e0c565b50506000910152565b60008151808452614e45816020860160208601614e09565b601f01601f19169290920160200192915050565b602081526000610fbb6020830184614e2d565b600060208284031215614e7e57600080fd5b5035919050565b6001600160a01b0381168114611d7957600080fd5b60008060408385031215614ead57600080fd5b8235614eb881614e85565b946020939093013593505050565b60008083601f840112614ed857600080fd5b50813567ffffffffffffffff811115614ef057600080fd5b602083019150836020828501011115614f0857600080fd5b9250929050565b60008060008385036060811215614f2557600080fd5b6040811215614f3357600080fd5b50839250604084013567ffffffffffffffff811115614f5157600080fd5b614f5d86828701614ec6565b9497909650939450505050565b6000806000838503610140811215614f8157600080fd5b61012080821215614f9157600080fd5b859450840135905067ffffffffffffffff811115614f5157600080fd5b600080600060608486031215614fc357600080fd5b8335614fce81614e85565b92506020840135614fde81614e85565b929592945050506040919091013590565b60008060006040848603121561500457600080fd5b83359250602084013567ffffffffffffffff811115614f5157600080fd5b60006020828403121561503457600080fd5b8135610fbb81614e85565b600080600083850361012081121561505657600080fd5b61010080821215614f9157600080fd5b6000806040838503121561507957600080fd5b823561508481614e85565b9150602083013561509481614e85565b809150509250929050565b80356001600160c01b038116811461364d57600080fd5b8035600281900b811461364d57600080fd5b600080604083850312156150db57600080fd5b6150e48361509f565b91506150f2602084016150b6565b90509250929050565b60008060008060008060c0878903121561511457600080fd5b863561511f81614e85565b95506020870135945060408701359350606087013560ff8116811461514357600080fd5b9598949750929560808101359460a0909101359350915050565b60006020828403121561516f57600080fd5b610fbb8261509f565b7fff00000000000000000000000000000000000000000000000000000000000000881681526000602060e060208401526151b560e084018a614e2d565b83810360408501526151c7818a614e2d565b606085018990526001600160a01b038816608086015260a0850187905284810360c08601528551808252602080880193509091019060005b8181101561521b578351835292840192918401916001016151ff565b50909c9b505050505050505050505050565b60c08101610c9082846001600160a01b0380825116835267ffffffffffffffff6020830151166020840152806040830151166040840152606082015162ffffff80821660608601528260808501511660808601528060a08501511660a08601525050505050565b6000806000604084860312156152a957600080fd5b83356152b481614e85565b9250602084013567ffffffffffffffff811115614f5157600080fd5b600080604083850312156152e357600080fd5b82356152ee81614e85565b91506020830135801515811461509457600080fd5b634e487b7160e01b600052604160045260246000fd5b604051601f8201601f1916810167ffffffffffffffff8111828210171561534257615342615303565b604052919050565b600067ffffffffffffffff82111561536457615364615303565b50601f01601f191660200190565b6000806000806080858703121561538857600080fd5b843561539381614e85565b935060208501356153a381614e85565b925060408501359150606085013567ffffffffffffffff8111156153c657600080fd5b8501601f810187136153d757600080fd5b80356153ea6153e58261534a565b615319565b8181528860208385010111156153ff57600080fd5b8160208401602083013760006020838301015280935050505092959194509250565b6000806040838503121561543457600080fd5b50508035926020909101359150565b600080600083850360e081121561545957600080fd5b60c081121561546757600080fd5b5083925060c084013567ffffffffffffffff811115614f5157600080fd5b600181811c9082168061549957607f821691505b602082108103611bde57634e487b7160e01b600052602260045260246000fd5b67ffffffffffffffff81168114611d7957600080fd5b6000602082840312156154e157600080fd5b8135610fbb816154b9565b600080604083850312156154ff57600080fd5b825161550a816154b9565b6020840151909250615094816154b9565b634e487b7160e01b600052601160045260246000fd5b6000600160ff1b82036155465761554661551b565b5060000390565b60006020828403121561555f57600080fd5b610fbb826150b6565b803562ffffff8116811461364d57600080fd5b600060c0828403121561558d57600080fd5b60405160c0810181811067ffffffffffffffff821117156155b0576155b0615303565b60405290508082356155c181614e85565b815260208301356155d1816154b9565b602082015260408301356155e481614e85565b60408201526155f560608401615568565b6060820152608083013561560881614e85565b608082015261561960a08401615568565b60a08201525092915050565b600060c0828403121561563757600080fd5b610fbb838361557b565b6000610120828403121561565457600080fd5b6040516080810181811067ffffffffffffffff8211171561567757615677615303565b604052615684848461557b565b815261569260c084016150b6565b602082015260e08301356156a5816154b9565b60408201526101008301356156b981614e85565b60608201529392505050565b6000602082840312156156d757600080fd5b815164ffffffffff81168114610fbb57600080fd5b6000602082840312156156fe57600080fd5b610fbb82615568565b60006020828403121561571957600080fd5b8151610fbb816154b9565b80820182811260008312801582168215821617156141065761410661551b565b80820180821115610c9057610c9061551b565b81810381811115610c9057610c9061551b565b6000610100828403121561577d57600080fd5b6040516060810181811067ffffffffffffffff821117156157a0576157a0615303565b6040526157ad848461557b565b81526157bb60c084016150b6565b602082015260e08301356157ce816154b9565b60408201529392505050565b818103600083128015838313168383128216171561267f5761267f61551b565b828152604060208201526000612d3a6040830184614e2d565b60006020828403121561582557600080fd5b8151610fbb81614dd6565b81835281816020850137506000828201602090810191909152601f909101601f19169091010190565b6001600160a01b03841681526040602082015260006144db604083018486615830565b60006020828403121561588e57600080fd5b815167ffffffffffffffff8111156158a557600080fd5b8201601f810184136158b657600080fd5b80516158c46153e58261534a565b8181528560208385010111156158d957600080fd5b6144db826020830160208601614e09565b600083516158fc818460208801614e09565b835190830190615910818360208801614e09565b01949350505050565b8082028115828204841417610c9057610c9061551b565b82815260e08101823561594281614e85565b6001600160a01b03808216602085015260208501359150615962826154b9565b67ffffffffffffffff821660408501526040850135915061598282614e85565b808216606085015261599660608601615568565b915062ffffff8083166080860152608086013592506159b483614e85565b81831660a0860152806159c960a08801615568565b1660c08601525050509392505050565b8035825260208101356159eb816154b9565b67ffffffffffffffff81166020840152505050565b6001600160a01b0385168152615a1960208201856159d9565b608060608201526000615a30608083018486615830565b9695505050505050565b6001600160a01b0386168152615a5360208201866159d9565b67ffffffffffffffff8416606082015260a060808201526000615a7a60a083018486615830565b979650505050505050565b60008160020b627fffff198103615a9e57615a9e61551b565b60000392915050565b615b0b8282516001600160a01b0380825116835267ffffffffffffffff6020830151166020840152806040830151166040840152606082015162ffffff80821660608601528260808501511660808601528060a08501511660a08601525050505050565b602081015160020b60c0830152604081015167ffffffffffffffff1660e0830152606001516001600160a01b031661010090910152565b60006101606001600160a01b0387168352615b606020840187615aa7565b80610140840152615a7a8184018587615830565b60006101806001600160a01b0388168352615b926020840188615aa7565b8561014084015280610160840152612db98184018587615830565b6001600160a01b0385168152836020820152606060408201526000615a30606083018486615830565b6001600160a01b038616815284602082015267ffffffffffffffff84166040820152608060608201526000615a7a608083018486615830565b615c738282516001600160a01b0380825116835267ffffffffffffffff6020830151166020840152806040830151166040840152606082015162ffffff80821660608601528260808501511660808601528060a08501511660a08601525050505050565b602081015160020b60c08301526040015167ffffffffffffffff1660e090910152565b60006101406001600160a01b0387168352615cb46020840187615c0f565b80610120840152615a7a8184018587615830565b60006101606001600160a01b0388168352615ce66020840188615c0f565b67ffffffffffffffff861661012084015280610140840152612db98184018587615830565b67ffffffffffffffff82811682821603908082111561267f5761267f61551b565b600060208284031215615d3e57600080fd5b5051919050565b60006001600160a01b03808716835280861660208401525083604083015260806060830152615a306080830184614e2d565b60006101006001600160a01b0387168352615dee60208401876001600160a01b0380825116835267ffffffffffffffff6020830151166020840152806040830151166040840152606082015162ffffff80821660608601528260808501511660808601528060a08501511660a08601525050505050565b8060e0840152615a7a8184018587615830565b600082615e1e57634e487b7160e01b600052601260045260246000fd5b500490565b634e487b7160e01b600052603260045260246000fd5b67ffffffffffffffff81811683821601908082111561267f5761267f61551b565b634e487b7160e01b600052602160045260246000fd5b60008251615e82818460208701614e09565b919091019291505056fe760a9a962ae3d184e99c0483cf5684fb3170f47116ca4f445c50209da4f4f9060001020903110a19042112290b311a3905412245134d2a550c5d32651b6d3a7506264262237d468514804e8d2b95569d0d495ea533a966b11c886eb93bc176c9071727374353637324837e9b47af86c7155181ad4fd18ed32c9096db57d59ee30e2e4a6a5f92a6be3498aae067ddb2eb1d5989b56fd7baf33ca0c2ee77e5caf7ff0810182028303840444c545c646c7425617c847f8c949c48a4a8b087b8c0c816365272829aaec650acd0d28fdad4e22d6991bd97dfdcea58b4d6f29fede4f6fe0f1f2f3f4b5b6b607b8b93a3a7b7bf357199c5abcfd9e168bcdee9b3f1ecf5fd1e3e5a7a8aa2b670c4ced8bbe8f0f4fc3d79a1c3cde7effb78cce6facbf9f8a264697066735822122085344426bf63b21259000ef94f749d9392578f84d8499f03b0f4f21c9130dd4764736f6c63430008180033",
  "deployedBytecode": "0x60806040526004361061034e5760003560e01c80637b305c42116101bb578063c87b56dd116100f7578063e8a3d48511610095578063f2fde38b1161006f578063f2fde38b14610bd2578063f86a11b314610bf2578063fcc8fc9b14610c12578063fefc7c5114610c3257600080fd5b8063e8a3d48514610b55578063e985e9c514610b6a578063f035079914610bb357600080fd5b8063d83747e8116100d1578063d83747e814610ad7578063d9caed1214610af7578063de4478ec14610b17578063e30c397814610b3757600080fd5b8063c87b56dd146109cf578063d09ef241146109ef578063d68f4dd114610a4c57600080fd5b80639b19251a11610164578063a12ef25e1161013e578063a12ef25e14610937578063a22cb46514610957578063a54b283114610977578063b88d4fde146109af57600080fd5b80639b19251a146108175780639b22917d146108375780639ca179981461091757600080fd5b80639363cb8a116101955780639363cb8a146107b557806393c85a21146107d557806395d89b411461080257600080fd5b80637b305c421461073c57806384b0196e1461076f5780638da5cb5b1461079757600080fd5b80633b9500b01161028a5780636a256b291161023357806370a082311161020d57806370a08231146106d2578063715018a6146106f257806379ba5097146107075780637ac2ff7b1461071c57600080fd5b80636a256b291461068a5780636b2cc75c1461069d5780636c0360eb146106bd57600080fd5b806342842e0e1161026457806342842e0e146106085780634c02bf0b146106285780636352211e1461066a57600080fd5b80633b9500b0146105775780633e547b061461059757806341a8bb88146105cf57600080fd5b80631dbef488116102f757806330adf81f116102d157806330adf81f146104de5780633644e5151461051257806338926b6d146105275780633af32abf1461054757600080fd5b80631dbef4881461046957806323b872dd1461049e5780632f584a6d146104be57600080fd5b8063095ea7b311610328578063095ea7b3146103e9578063141a468c1461040b57806314d6a9eb1461044957600080fd5b806301ffc9a71461035a57806306fdde031461038f578063081812fc146103b157600080fd5b3661035557005b600080fd5b34801561036657600080fd5b5061037a610375366004614dec565b610c52565b60405190151581526020015b60405180910390f35b34801561039b57600080fd5b506103a4610c96565b6040516103869190614e59565b3480156103bd57600080fd5b506103d16103cc366004614e6c565b610d28565b6040516001600160a01b039091168152602001610386565b3480156103f557600080fd5b50610409610404366004614e9a565b610d51565b005b34801561041757600080fd5b5061043b610426366004614e6c565b60009081526009602052604090205460a01c90565b604051908152602001610386565b34801561045557600080fd5b5061043b610464366004614f0f565b610d60565b34801561047557600080fd5b50610489610484366004614f6a565b610fc2565b60408051928352602083019190915201610386565b3480156104aa57600080fd5b506104096104b9366004614fae565b6113a5565b3480156104ca57600080fd5b506104096104d9366004614fae565b611449565b3480156104ea57600080fd5b5061043b7f49ecf333e5b8c95c40fdafc95c1ad136e8914a8fb55e9dc8bb01eaa83a2df9ad81565b34801561051e57600080fd5b5061043b611459565b34801561053357600080fd5b5061043b610542366004614fef565b611468565b34801561055357600080fd5b5061037a610562366004615022565b60106020526000908152604090205460ff1681565b34801561058357600080fd5b5061048961059236600461503f565b61184b565b3480156105a357600080fd5b5061043b6105b2366004615066565b601160209081526000928352604080842090915290825290205481565b3480156105db57600080fd5b506105ef6105ea3660046150c8565b611b33565b60405167ffffffffffffffff9091168152602001610386565b34801561061457600080fd5b50610409610623366004614fae565b611b55565b34801561063457600080fd5b50600080516020615e8d83398151915254604080516001600160801b03600019840116815260809290921c602083015201610386565b34801561067657600080fd5b506103d1610685366004614e6c565b611b70565b61043b610698366004615022565b611b7b565b3480156106a957600080fd5b506104096106b8366004615022565b611be4565b3480156106c957600080fd5b506103a4611c35565b3480156106de57600080fd5b5061043b6106ed366004615022565b611cc3565b3480156106fe57600080fd5b50610409611d24565b34801561071357600080fd5b50610409611d38565b34801561072857600080fd5b506104096107373660046150fb565b611d7c565b34801561074857600080fd5b5061075c61075736600461515d565b611fe1565b60405160029190910b8152602001610386565b34801561077b57600080fd5b50610784612002565b6040516103869796959493929190615178565b3480156107a357600080fd5b506005546001600160a01b03166103d1565b3480156107c157600080fd5b5061075c6107d03660046150c8565b612064565b3480156107e157600080fd5b5061043b6107f0366004615022565b600e6020526000908152604090205481565b34801561080e57600080fd5b506103a4612086565b34801561082357600080fd5b50610409610832366004615022565b612095565b34801561084357600080fd5b5061090a61085236600461515d565b6040805160c081018252600080825260208201819052918101829052606081018290526080810182905260a0810191909152506001600160c01b03166000908152600f6020908152604091829020825160c08101845281546001600160a01b03808216835267ffffffffffffffff600160a01b92839004169483019490945260018301548085169583019590955262ffffff94819004851660608301526002909201549283166080820152910490911660a082015290565b604051610386919061522d565b34801561092357600080fd5b506103a4610932366004615294565b6120e9565b34801561094357600080fd5b50610409610952366004615066565b612234565b34801561096357600080fd5b506104096109723660046152d0565b61230d565b34801561098357600080fd5b5061043b610992366004615066565b600d60209081526000928352604080842090915290825290205481565b3480156109bb57600080fd5b506104096109ca366004615372565b612318565b3480156109db57600080fd5b506103a46109ea366004614e6c565b61232f565b3480156109fb57600080fd5b50610a0f610a0a366004614e6c565b612396565b6040805182516001600160a01b0316815260208084015167ffffffffffffffff908116918301919091529282015190921690820152606001610386565b348015610a5857600080fd5b50610ab7610a67366004614e6c565b6002027f722b431450ce53c44434ec138439e45a0639fe031b803ee019b776fae5cfa2b08101547f722b431450ce53c44434ec138439e45a0639fe031b803ee019b776fae5cfa2b1909101549091565b604080516001600160a01b03938416815292909116602083015201610386565b348015610ae357600080fd5b50600c546103d1906001600160a01b031681565b348015610b0357600080fd5b50610409610b12366004614fae565b6124d3565b348015610b2357600080fd5b50610409610b32366004615022565b612531565b348015610b4357600080fd5b506006546001600160a01b03166103d1565b348015610b6157600080fd5b506103a461258b565b348015610b7657600080fd5b5061037a610b85366004615066565b6001600160a01b03918216600090815260046020908152604080832093909416825291909152205460ff1690565b348015610bbf57600080fd5b5061043b610bce366004614e6c565b5490565b348015610bde57600080fd5b50610409610bed366004615022565b612598565b348015610bfe57600080fd5b506103a4610c0d366004615421565b612609565b348015610c1e57600080fd5b5061037a610c2d36600461515d565b612686565b348015610c3e57600080fd5b50610409610c4d366004615443565b6126a7565b60006001600160e01b031982167f6831a4fd000000000000000000000000000000000000000000000000000000001480610c905750610c9082612aa5565b92915050565b606060008054610ca590615485565b80601f0160208091040260200160405190810160405280929190818152602001828054610cd190615485565b8015610d1e5780601f10610cf357610100808354040283529160200191610d1e565b820191906000526020600020905b815481529060010190602001808311610d0157829003601f168201915b5050505050905090565b6000610d3382612b40565b506000828152600360205260409020546001600160a01b0316610c90565b610d5c828233612b79565b5050565b6000610d6b33612b86565b610d8d610d85853560009081526009602052604090205490565b338635612c40565b8335604090811c6000908152600f602090815290829020825160c08101845281546001600160a01b03808216835267ffffffffffffffff600160a01b92839004169483019490945260018301548085169583019590955262ffffff9481900485166060830152600283015493841660808301819052930490931660a08401529190610e1a90878787612cbd565b610e2957600092505050610fbb565b60008073__$5a2ea6afd4f7634e810a44a1cab25e81c7$__633ac502c1858a35610e5960408d0160208e016154cf565b6040516001600160e01b031960e086901b1681526004810193909352602483019190915267ffffffffffffffff1660448201526064016040805180830381865af4158015610eab573d6000803e3d6000fd5b505050506040513d601f19601f82011682018060405250810190610ecf91906154ec565b91509150826020015167ffffffffffffffff168267ffffffffffffffff16029450610f03836060015162ffffff1660171c90565b15610f28576060830151600090610f219062ffffff16876001612d42565b9590950194505b8067ffffffffffffffff16600003610f4457610f448835612dc5565b610f5b836040015186610f5690615531565b612e00565b6080830151610f76906001600160a01b031689848a8a612ef6565b60405167ffffffffffffffff831681528835907f0c6ba7ef5064094c17cce013aa4c617a23e2582f867774d07a5931de43b85d729060200160405180910390a2505050505b9392505050565b600080610fce33612b86565b6000610fe261012087016101008801615022565b6001600160a01b03161415801561102957506010600061100a61012088016101008901615022565b6001600160a01b0316815260208101919091526040016000205460ff16155b156110835761104061012086016101008701615022565b6040517f962715990000000000000000000000000000000000000000000000000000000081526001600160a01b0390911660048201526024015b60405180910390fd5b61109e61109660e0870160c0880161554d565b60020b612f7f565b60006110b76110b236889003880188615625565b612fdb565b6001600160c01b0381166000908152600f602052604090209091506110db8161300e565b6111106110ed36899003890189615641565b87876110ff60a08c0160808d01615022565b6001600160a01b0316929190613057565b6111225760008093509350505061139d565b600073__$5a2ea6afd4f7634e810a44a1cab25e81c7$__63ffa0afb58361114f60e08c0160c08d0161554d565b6111606101008d0160e08e016154cf565b6111726101208e016101008f01615022565b6040516001600160e01b031960e087901b168152600481019490945260029290920b602484015267ffffffffffffffff1660448301526001600160a01b03166064820152608401602060405180830381865af41580156111d6573d6000803e3d6000fd5b505050506040513d601f19601f820116820180604052508101906111fa91906156c5565b905061122c8361121060e08b0160c08c0161554d565b60409190911b60289190911b67ffffff00000000001601820190565b9450600061124060408a0160208b016154cf565b67ffffffffffffffff1661125b6101008b0160e08c016154cf565b67ffffffffffffffff1602945084905061128961127e60808b0160608c016156ec565b62ffffff1660171c90565b156112b5576112b08560006112a460808d0160608e016156ec565b62ffffff169190612d42565b019350835b6112ce6112c860608b0160408c01615022565b82612e00565b6112d83387613087565b6113156112ea368b90038b018b615641565b878a8a8d60000160800160208101906113039190615022565b6001600160a01b031693929190613105565b336001600160c01b0385167f4b4e05fe5b3ea8a827cc25af0e5e91296810dcdd8a15094f6c1cd92290e5262261135160e08d0160c08e0161554d565b858d60e001602081019061136591906154cf565b6040805160029490940b845264ffffffffff909216602084015267ffffffffffffffff169082015260600160405180910390a3505050505b935093915050565b6001600160a01b0382166113cf57604051633250574960e11b81526000600482015260240161107a565b60006113dc838333613145565b9050836001600160a01b0316816001600160a01b031614611443576040517f64283d7b0000000000000000000000000000000000000000000000000000000081526001600160a01b038086166004830152602482018490528216604482015260640161107a565b50505050565b611454838383612c40565b505050565b600061146361324b565b905090565b600061147333612b86565b60008481526009602052604090205461148d903386612c40565b604084811c6000908152600f602090815290829020825160c08101845281546001600160a01b03808216835267ffffffffffffffff600160a01b92839004169483019490945260018301548085169583019590955262ffffff9481900485166060830152600283015493841660808301819052930490931660a0840152602887901c92879261151e90848989613376565b61152f576000945050505050610fbb565b6040517fc49d262100000000000000000000000000000000000000000000000000000000815260048101839052600285900b602482015264ffffffffff8416604482015260009073__$5a2ea6afd4f7634e810a44a1cab25e81c7$__9063c49d262190606401602060405180830381865af41580156115b2573d6000803e3d6000fd5b505050506040513d601f19601f820116820180604052508101906115d69190615707565b6020830151909150600090819067ffffffffffffffff808516911602611601600289900b82846133b5565b606086015160a0870151919a509061161e62ffffff821660171c90565b1561163b5761163462ffffff8216846001612d42565b945061164f565b61164c62ffffff82168c6001612d42565b93505b61165e8262ffffff1660171c90565b156116855761167462ffffff8316846001612d42565b61167e9086615724565b94506116d3565b600061169762ffffff84168d83612d42565b90506116a38186615724565b9450600081136116c5576116b681615531565b6116c0908d615744565b6116cf565b6116cf818d615757565b9b50505b50600091506116e590508689896133d8565b80519091506001600160a01b0381166117065750600c546001600160a01b03165b6000841315611759576117188461342d565b6001600160a01b0380831660009081526011602090815260408083208b82015190941683529290529081208054909190611753908490615744565b90915550505b60008313156117aa5761176b8361342d565b6001600160a01b0380831660009081526011602090815260408083208b51909416835292905290812080549091906117a4908490615744565b90915550505b816020015167ffffffffffffffff166000036117c9576117c98d612dc5565b85516117e1906117d88c613470565b610f5690615531565b60808601516117fc906001600160a01b03168e878f8f6134cf565b60405167ffffffffffffffff861681528d907ffc7df80a30ee916cc040221cf6fcfb3c6dc994b3fa4c4ab23e8a0f134de5c0c09060200160405180910390a25050505050505050509392505050565b60008061185733612b86565b61186a61109660e0870160c0880161554d565b600061187e6110b236889003880188615625565b6001600160c01b0381166000908152600f602052604090209091506118a28161300e565b6118d76118b43689900389018961576a565b87876118c660a08c0160808d01615022565b6001600160a01b031692919061350e565b6118e95760008093509350505061139d565b600073__$5a2ea6afd4f7634e810a44a1cab25e81c7$__63a151a7e18361191660e08c0160c08d0161554d565b6119276101008d0160e08e016154cf565b6040516001600160e01b031960e086901b168152600481019390935260029190910b602483015267ffffffffffffffff166044820152606401602060405180830381865af415801561197d573d6000803e3d6000fd5b505050506040513d601f19601f820116820180604052508101906119a19190615707565b90506119b36040890160208a016154cf565b67ffffffffffffffff82811691160294506119e48560016119da60e08c0160c08d0161554d565b60020b91906133b5565b93508460006119f286613470565b9050611a0761127e60c08c0160a08d016156ec565b15611a3657611a228760006112a460c08e0160a08f016156ec565b611a2c90836157da565b9150819650611a5c565b611a4c8660006112a460c08e0160a08f016156ec565b611a569082615724565b90508095505b611a78611a6f60608c0160408d01615022565b610f5684615531565b611a886112c860208c018c615022565b611ac5611a9a368c90038c018c61576a565b848b8b8e6000016080016020810190611ab39190615022565b6001600160a01b03169392919061353e565b336001600160c01b0386167fc4c20b9c4a5ada3b01b7a391a08dd81a1be01dd8ef63170dd9da44ecee3db11b611b0160e08e0160c08f0161554d565b6040805160029290920b825267ffffffffffffffff881660208301520160405180910390a35050505050935093915050565b6001600160c01b0382166000908152600f60205260408120610fbb908361357e565b61145483838360405180602001604052806000815250612318565b6000610c9082612b40565b6000611b8633612b86565b6001600160a01b0382166000818152600e602052604090205490611ba9906135b5565b6001600160a01b0384166000908152600e60205260409020819055611bcf908290615757565b9150611bde836117d884613470565b50919050565b611bec613652565b6001600160a01b038116600081815260106020526040808220805460ff19169055517f88f58aa68e1f754fecfec41a6758d18d4a53fa15d4e206fd54bbdfe7a9e98da79190a250565b600a8054611c4290615485565b80601f0160208091040260200160405190810160405280929190818152602001828054611c6e90615485565b8015611cbb5780601f10611c9057610100808354040283529160200191611cbb565b820191906000526020600020905b815481529060010190602001808311611c9e57829003601f168201915b505050505081565b60006001600160a01b038216611d08576040517f89c62b640000000000000000000000000000000000000000000000000000000081526000600482015260240161107a565b506001600160a01b031660009081526002602052604090205490565b611d2c613652565b611d36600061367f565b565b60065433906001600160a01b03168114611d705760405163118cdaa760e01b81526001600160a01b038216600482015260240161107a565b611d798161367f565b50565b83421115611db6576040517f1a15a3cc00000000000000000000000000000000000000000000000000000000815260040160405180910390fd5b6000611e347f49ecf333e5b8c95c40fdafc95c1ad136e8914a8fb55e9dc8bb01eaa83a2df9ad8888611de781613698565b6040805160208101959095526001600160a01b03909316928401929092526060830152608082015260a0810187905260c001604051602081830303815290604052805190602001206136d3565b90506000611e4187611b70565b9050806001600160a01b0316886001600160a01b031603611e7557604051638baa579f60e01b815260040160405180910390fd5b6001600160a01b0381163b15611f8d57604080516020810186905280820185905260f887901b7fff000000000000000000000000000000000000000000000000000000000000001660608201528151604181830301815260618201928390527f1626ba7e000000000000000000000000000000000000000000000000000000009092526001600160a01b03831691631626ba7e91611f179186916065016157fa565b602060405180830381865afa158015611f34573d6000803e3d6000fd5b505050506040513d601f19601f82011682018060405250810190611f589190615813565b6001600160e01b031916631626ba7e60e01b14611f8857604051638baa579f60e01b815260040160405180910390fd5b611fca565b806001600160a01b0316611fa38387878761371b565b6001600160a01b031614611fca57604051638baa579f60e01b815260040160405180910390fd5b611fd78888836001613749565b5050505050505050565b6001600160c01b0381166000908152600f60205260408120610c9090613887565b6000606080600080600060606120166138a6565b61201e6138d3565b604080516000808252602082019092527f0f000000000000000000000000000000000000000000000000000000000000009b939a50919850469750309650945092509050565b6001600160c01b0382166000908152600f60205260408120610fbb9083613900565b606060018054610ca590615485565b61209d613652565b6001600160a01b038116600081815260106020526040808220805460ff19166001179055517feb73900b98b6a3e2b8b01708fe544760cf570d21e7fbe5225f24e48b5b2b432e9190a250565b60606120f58433613921565b6040517f15c7afb40000000000000000000000000000000000000000000000000000000081526001600160a01b038516906315c7afb49061213e90339087908790600401615859565b6000604051808303816000875af115801561215d573d6000803e3d6000fd5b505050506040513d6000823e601f3d908101601f19168201604052612185919081019061587c565b600080516020615e8d8339815191525490915060001981019060801c6001600160801b03821660010361220f576001600160801b038116156121f3576040517f5212cba100000000000000000000000000000000000000000000000000000000815260040160405180910390fd5b61220a6001600080516020615e8d83398151915255565b61222b565b61222b600080516020615e8d8339815191528054600019019055565b50509392505050565b6001600160a01b038083166000908152601160209081526040808320938516835292905220548015611454576001600160a01b0380841660009081526011602090815260408083209386168352928152828220829055600e905290812080548392906122a1908490615757565b909155506122bb90506001600160a01b03831684836139b1565b816001600160a01b0316836001600160a01b03167f1314fd112a381beea61539dbd21ec04afcff2662ac7d1b83273aade1f53d1b978360405161230091815260200190565b60405180910390a3505050565b610d5c338383613a99565b6123238484846113a5565b61144384848484613b49565b606061233a82612b40565b506000612345613c6b565b905060008151116123655760405180602001604052806000815250610fbb565b8061236f84613c7a565b6040516020016123809291906158ea565b6040516020818303038152906040529392505050565b604080516060810182526000808252602080830182905282840182905284841c808352600f909152928120919291602885901c918591906123d88285856133d8565b6040517f59d84f5b00000000000000000000000000000000000000000000000000000000815260048101849052600286900b602482015264ffffffffff8516604482015290915060009073__$5a2ea6afd4f7634e810a44a1cab25e81c7$__906359d84f5b90606401602060405180830381865af415801561245e573d6000803e3d6000fd5b505050506040513d601f19601f820116820180604052508101906124829190615707565b9050604051806060016040528083600001516001600160a01b031681526020018284602001510367ffffffffffffffff1681526020018267ffffffffffffffff168152509650505050505050919050565b6124dc33612b86565b8015611454576124ef83610f5683613470565b6001600160a01b0383166000908152600e602052604081208054839290612517908490615757565b9091555061145490506001600160a01b03841683836139b1565b612539613652565b600c80546001600160a01b038381166001600160a01b0319831681179093556040519116919082907f32faddbcf33c8560cff79ba1ddc6b995adbeefe08acc9d6c3cc64fe0c2158eef90600090a35050565b600b8054611c4290615485565b6125a0613652565b600680546001600160a01b0383166001600160a01b031990911681179091556125d16005546001600160a01b031690565b6001600160a01b03167f38d16b8cac22d99fc7c124b9cd0de2d3fa1faef420bfe791d8c362d765e2270060405160405180910390a350565b6060612616826020615919565b67ffffffffffffffff81111561262e5761262e615303565b6040519080825280601f01601f191660200182016040528015612658576020820181803683370190505b50905060005b8281101561267f57808401546020600183010283015260018101905061265e565b5092915050565b6001600160c01b0381166000908152600f60205260408120610c9090613d1a565b6126b033612b86565b6126c060408401602085016154cf565b67ffffffffffffffff16600003612703576040517f997c4ef400000000000000000000000000000000000000000000000000000000815260040160405180910390fd5b61272061271660808501606086016156ec565b62ffffff16613d52565b801561273a575061273a61271660c0850160a086016156ec565b61275757604051637a34030f60e01b815260040160405180910390fd5b600061277a61276c60c0860160a087016156ec565b627fffff166207a11f190190565b61278d61276c60808701606088016156ec565b0160020b12156127b057604051637a34030f60e01b815260040160405180910390fd5b60006127c561276c60808601606087016156ec565b60020b12806127e9575060006127e461276c60c0860160a087016156ec565b60020b125b156128365761280161127e60c0850160a086016156ec565b151561281661127e60808601606087016156ec565b15151461283657604051637a34030f60e01b815260040160405180910390fd5b61285761284960a0850160808601615022565b6001600160a01b0316613d83565b6128a95761286b60a0840160808501615022565b6040517fe65af6a00000000000000000000000000000000000000000000000000000000081526001600160a01b03909116600482015260240161107a565b6128de6128bb36859003850185615625565b83836128cd60a0880160808901615022565b6001600160a01b0316929190613e2f565b60006128f26110b236869003860186615625565b6001600160c01b0381166000908152600f60205260409081902090517fab8a7e3f00000000000000000000000000000000000000000000000000000000815291925073__$5a2ea6afd4f7634e810a44a1cab25e81c7$__9163ab8a7e3f9161295e918890600401615930565b60006040518083038186803b15801561297657600080fd5b505af415801561298a573d6000803e3d6000fd5b505050506129c5848036038101906129a29190615625565b84846129b460a0890160808a01615022565b6001600160a01b0316929190613eaf565b6129d56060850160408601615022565b6001600160a01b03166129eb6020860186615022565b6001600160a01b03166001600160c01b0383167f803427d75ce3214f82dc7aa4910635170a6655e2c1663dc03429dd04100cba5a612a2f6040890160208a016154cf565b612a3f60808a0160608b016156ec565b612a4f60c08b0160a08c016156ec565b612a5f60a08c0160808d01615022565b6040805167ffffffffffffffff95909516855262ffffff938416602086015291909216908301526001600160a01b0316606082015260800160405180910390a450505050565b60006001600160e01b031982167f80ac58cd000000000000000000000000000000000000000000000000000000001480612b0857506001600160e01b031982167f5b5e139f00000000000000000000000000000000000000000000000000000000145b80610c9057507f01ffc9a7000000000000000000000000000000000000000000000000000000006001600160e01b0319831614610c90565b6000818152600960205260408120546001600160a01b038116610c9057604051637e27328960e01b81526004810184905260240161107a565b6114548383836001613749565b6000612b90613eed565b90506000612b9c613f5f565b9050816001600160a01b0316836001600160a01b031603612bbc57505050565b806001600160a01b0316836001600160a01b0316148015612bf157507210000000000000000000000000000000000000811615155b15612bfb57505050565b6040517f74d863650000000000000000000000000000000000000000000000000000000081526001600160a01b0380841660048301528216602482015260440161107a565b612c4b838383613fad565b611454576001600160a01b038316612c7957604051637e27328960e01b81526004810182905260240161107a565b6040517f177e802f0000000000000000000000000000000000000000000000000000000081526001600160a01b03831660048201526024810182905260440161107a565b6000600160991b851615612d3657612d2f63295b52c560e01b33868686604051602401612ced9493929190615a00565b60408051601f198184030181529190526020810180516001600160e01b03166001600160e01b0319909316929092179091526001600160a01b03871690614030565b9050612d3a565b5060015b949350505050565b60006207a11f19627fffff851601600281900b82128281612d665782600003612d68565b825b62ffffff1690506000612da2612d7e8389615919565b620f424088612d94578581830615151691040190565b808206151586151691040190565b905082612db757612db281615531565b612db9565b805b98975050505050505050565b6000612dd46000836000613145565b90506001600160a01b038116610d5c57604051637e27328960e01b81526004810183905260240161107a565b80600003612e0c575050565b6000612e16613eed565b6001600160a01b038082166000908152600d60209081526040808320938816835292905290812054919250612e4b8483615724565b905080600003612e9457612e8f600080516020615e8d83398151915280547fffffffffffffffffffffffffffffffff00000000000000000000000000000000019055565b612ec7565b81600003612ec757612ec7600080516020615e8d8339815191528054700100000000000000000000000000000000019055565b6001600160a01b039283166000908152600d602090815260408083209790951682529590955291909320555050565b730100000000000000000000000000000000000000851615612f7857612f78635125ce9c60e01b3386868686604051602401612f36959493929190615a3a565b60408051601f198184030181529190526020810180516001600160e01b03166001600160e01b0319909316929092179091526001600160a01b0387169061410e565b5050505050565b6207ffff600282900b1380612fa45750612f9b6207ffff615a85565b60020b8160020b125b15611d79576040517fce8ef7fc00000000000000000000000000000000000000000000000000000000815260040160405180910390fd5b60008082604051602001612fef919061522d565b60408051601f1981840301815291905280516020909101209392505050565b8054600160a01b900467ffffffffffffffff16611d79576040517f1e3636e600000000000000000000000000000000000000000000000000000000815260040160405180910390fd5b60006001609d1b851615612d3657612d2f633fda46bb60e01b33868686604051602401612ced9493929190615b42565b6001600160a01b0382166130b157604051633250574960e11b81526000600482015260240161107a565b60006130bf83836000613145565b90506001600160a01b03811615611454576040517f73c6ac6e0000000000000000000000000000000000000000000000000000000081526000600482015260240161107a565b731000000000000000000000000000000000000000851615612f7857612f7863eba8155960e01b3386868686604051602401612f36959493929190615b74565b6000828152600960205260408120546001600160a01b0383161561316e5761316e818486612c40565b6001600160a01b038116156131ac5761318b600085600080613749565b6001600160a01b038116600090815260026020526040902080546000190190555b6001600160a01b038516156131db576001600160a01b0385166000908152600260205260409020805460010190555b600084815260096020526040902080546001600160a01b0319166001600160a01b03871617905583856001600160a01b0316826001600160a01b03167fddf252ad1be2c89b69c2b068fc378daa952ba7f163c4a11628f55a4df523b3ef60405160405180910390a4949350505050565b6000306001600160a01b037f0000000000000000000000000000000000000000000000000000000000000000161480156132a457507f000000000000000000000000000000000000000000000000000000000000000046145b156132ce57507f000000000000000000000000000000000000000000000000000000000000000090565b611463604080517f8b73c3c69bb8fe3d512ecc4cf759cc79239f7b179b0ffacaa9a75d522b39400f60208201527f0000000000000000000000000000000000000000000000000000000000000000918101919091527f000000000000000000000000000000000000000000000000000000000000000060608201524660808201523060a082015260009060c00160405160208183030381529060405280519060200120905090565b60007280000000000000000000000000000000000000851615612d3657612d2f63827e0eb260e01b33868686604051602401612ced9493929190615bad565b6000612d3a608084901b6133cb8660020b614153565b8082061515851691040190565b60408051808201909152600080825260208201526133f7848484614457565b6040805180820190915290546001600160a01b0381168252600160a01b900467ffffffffffffffff166020820152949350505050565b60008082121561346c576040517fa8ce44320000000000000000000000000000000000000000000000000000000081526004810183905260240161107a565b5090565b60007f7fffffffffffffffffffffffffffffffffffffffffffffffffffffffffffffff82111561346c576040517f24775e060000000000000000000000000000000000000000000000000000000081526004810183905260240161107a565b7240000000000000000000000000000000000000851615612f7857612f786348042cf460e01b3386868686604051602401612f36959493929190615bd6565b60006001609b1b851615612d3657612d2f63fab3c75660e01b33868686604051602401612ced9493929190615c96565b730400000000000000000000000000000000000000851615612f7857612f78639eb477b260e01b3386868686604051602401612f36959493929190615cc8565b600061358d600584018361449b565b600283900b600090815260038501602052604090206135ab906144e4565b610fbb9190615d0b565b60006001600160a01b0382166135cc575047919050565b6040517f70a082310000000000000000000000000000000000000000000000000000000081523060048201526001600160a01b038316906370a0823190602401602060405180830381865afa158015613629573d6000803e3d6000fd5b505050506040513d601f19601f82011682018060405250810190610c909190615d2c565b919050565b6005546001600160a01b03163314611d365760405163118cdaa760e01b815233600482015260240161107a565b600680546001600160a01b0319169055611d7981614525565b60008181526009602052604090205460a081901c906136bb81600160a01b615744565b60009384526009602052604090932092909255919050565b6000610c906136e061324b565b836040517f19010000000000000000000000000000000000000000000000000000000000008152600281019290925260228201526042902090565b60008060008061372d88888888614577565b92509250925061373d8282614646565b50909695505050505050565b808061375d57506001600160a01b03821615155b1561385757600061376d84612b40565b90506001600160a01b038316158015906137995750826001600160a01b0316816001600160a01b031614155b80156137cb57506001600160a01b0380821660009081526004602090815260408083209387168352929052205460ff16155b1561380d576040517fa9fbf51f0000000000000000000000000000000000000000000000000000000081526001600160a01b038416600482015260240161107a565b81156138555783856001600160a01b0316826001600160a01b03167f8c5be1e5ebec7d5bd14f71427d1e84f3dd0314c0f7b2291e5b200ac8c7c3b92560405160405180910390a45b505b5050600090815260036020526040902080546001600160a01b0319166001600160a01b0392909216919091179055565b6000610c906138988360040161474a565b62ffffff16627fffff190190565b60606114637f0000000000000000000000000000000000000000000000000000000000000000600761484a565b60606114637f0000000000000000000000000000000000000000000000000000000000000000600861484a565b6000610fbb6138986139178460020b628000000190565b60048601906148f5565b600061393d600080516020615e8d833981519152546000190190565b7f722b431450ce53c44434ec138439e45a0639fe031b803ee019b776fae5cfa2b06001600160801b0390911660020290810193909355507f722b431450ce53c44434ec138439e45a0639fe031b803ee019b776fae5cfa2b190910155600080516020615e8d83398151915280546001019055565b60006001600160a01b038416613a095760008060008085875af1905080613a04576040517ff4b3b1bc00000000000000000000000000000000000000000000000000000000815260040160405180910390fd5b611443565b6040517fa9059cbb0000000000000000000000000000000000000000000000000000000081526001600160a01b0384166004820152826024820152602060006044836000895af13d15601f3d1160016000511416171691505080611443576040517ff27f64e400000000000000000000000000000000000000000000000000000000815260040160405180910390fd5b6001600160a01b038216613ae4576040517f5b08ba180000000000000000000000000000000000000000000000000000000081526001600160a01b038316600482015260240161107a565b6001600160a01b03838116600081815260046020908152604080832094871680845294825291829020805460ff191686151590811790915591519182527f17307eab39ab6107e8899845ad3d59bd9653f200f220920489ca2b5937696c319101612300565b6001600160a01b0383163b1561144357604051630a85bd0160e11b81526001600160a01b0384169063150b7a0290613b8b903390889087908790600401615d45565b6020604051808303816000875af1925050508015613bc6575060408051601f3d908101601f19168201909252613bc391810190615813565b60015b613c2f573d808015613bf4576040519150601f19603f3d011682016040523d82523d6000602084013e613bf9565b606091505b508051600003613c2757604051633250574960e11b81526001600160a01b038516600482015260240161107a565b805181602001fd5b6001600160e01b03198116630a85bd0160e11b14612f7857604051633250574960e11b81526001600160a01b038516600482015260240161107a565b6060600a8054610ca590615485565b60606000613c8783614a02565b600101905060008167ffffffffffffffff811115613ca757613ca7615303565b6040519080825280601f01601f191660200182016040528015613cd1576020820181803683370190505b5090508181016020015b600019017f3031323334353637383961626364656600000000000000000000000000000000600a86061a8153600a8504945084613cdb57509392505050565b7f7710c0702d438d37259561c892984b894ff622adfa3d98b5dfe5a9763f94b954600090815260048201602052604081205415610c90565b60006207a11f19627fffff8316016207a120600282900b1380613d7b57506207a11f198160020b125b159392505050565b60007220000000000000000000000000000000000000821615158015613dad57506001609d1b8216155b8015613dbd57506001609b1b8216155b8015613dcd5750600160991b8216155b8015613dec575072800000000000000000000000000000000000008216155b15613df957506000919050565b6001600160a01b0382161580610c9057505072100000000000000000000000000000000000006001600160a01b03909116101590565b73800000000000000000000000000000000000000084161561144357611443635df4d91860e01b33858585604051602401613e6d9493929190615d77565b60408051601f198184030181529190526020810180516001600160e01b03166001600160e01b0319909316929092179091526001600160a01b0386169061410e565b734000000000000000000000000000000000000000841615611443576114436371ded94360e01b33858585604051602401613e6d9493929190615d77565b600080613f0a600080516020615e8d833981519152546000190190565b90506000816001600160801b031611613f24576000613f59565b60026001600160801b03600019830116027f722b431450ce53c44434ec138439e45a0639fe031b803ee019b776fae5cfa2b001545b91505090565b6000611463613f7e600080516020615e8d833981519152546000190190565b6001600160801b03167ffcac7593714b88fec0c578a53e9f3f6e4b47eb26c9dcaa7eff23a3ac156be421015490565b60006001600160a01b03831615801590612d3a5750826001600160a01b0316846001600160a01b0316148061400757506001600160a01b0380851660009081526004602090815260408083209387168352929052205460ff165b80612d3a5750506000908152600360205260409020546001600160a01b03908116911614919050565b600080600061403f8585614ae4565b91509150816001600160e01b031916816001600160e01b031916036140675760019250614106565b6040517f4e6f4f70000000000000000000000000000000000000000000000000000000006020820152602401604051602081830303815290604052805190602001206001600160e01b031916816001600160e01b0319161480156140df57507220000000000000000000000000000000000000851615155b156140ed5760009250614106565b604051631e048e1d60e01b815260040160405180910390fd5b505092915050565b60008061411b8484614ae4565b91509150816001600160e01b031916816001600160e01b0319161461144357604051631e048e1d60e01b815260040160405180910390fd5b600061415e82612f7f565b816000600282900b8113614172578161417b565b61417b82615a85565b62ffffff81169150600116156141a3576ffff97272373d413259a46990580e213992506141b8565b70010000000000000000000000000000000092505b60028116156141db5760806ffff2e50f5f656932ef12357cf3c7fdcb8402901c92505b60048116156141fe5760806fffe5caca7e10e4e61c3624eaa0941ccf8402901c92505b60088116156142215760806fffcb9843d60f6159c9db58835c9266438402901c92505b60108116156142445760806fff973b41fa98c081472e6896dfb254bf8402901c92505b60208116156142675760806fff2ea16466c96a3843ec78b326b528608402901c92505b604081161561428a5760806ffe5dee046a99a2a811c461f1969c30528402901c92505b60808116156142ad5760806ffcbe86c7900a88aedcffc83b479aa3a38402901c92505b6101008116156142d15760806ff987a7253ac413176f2b074cf7815e538402901c92505b6102008116156142f55760806ff3392b0822b70005940c7a398e4b70f28402901c92505b6104008116156143195760806fe7159475a2c29b7443b29c7fa6e889d88402901c92505b61080081161561433d5760806fd097f3bdfd2022b8845ad8f792aa58258402901c92505b6110008116156143615760806fa9f746462d870fdf8a65dc1f90e061e48402901c92505b6120008116156143855760806f70d869a156d2a1b890bb3df62baf32f68402901c92505b6140008116156143a95760806f31be135f97d08fd981231505542fcfa58402901c92505b6180008116156143cd5760806f09aa508b5b7a84e1c677de54f3e99bc88402901c92505b620100008116156143f15760806e5d6af8dedb81196699c329225ee6048402901c92505b620200008116156144145760806d2216e584f5fa1ea926041bedfe978402901c92505b620400008116156144355760806b048a170391f7dc42444e8fa28402901c92505b60008260020b13156144505761444d83600019615e01565b92505b5050919050565b600282900b60009081526003840160205260408120600401805464ffffffffff841690811061448857614488615e23565b9060005260206000200190509392505050565b623fffff600282901c1660008181526020849052604081205490919060038416906144db9060c0600687901b161c67ffffffffffffffff16801515900390565b95945050505050565b600160009081526020829052604081205461450190826004614b99565b60008080526020849052604081205461451b916004614b99565b610c909190615e39565b600580546001600160a01b038381166001600160a01b0319831681179093556040519116919082907f8be0079c531659141344cd1fd0a4f28419497f9722a3daafe3b4186f6b6457e090600090a35050565b600080807f7fffffffffffffffffffffffffffffff5d576e7357a4501ddfe92f46681b20a08411156145b2575060009150600390508261463c565b604080516000808252602082018084528a905260ff891692820192909252606081018790526080810186905260019060a0016020604051602081039080840390855afa158015614606573d6000803e3d6000fd5b5050604051601f1901519150506001600160a01b0381166146325750600092506001915082905061463c565b9250600091508190505b9450945094915050565b600082600381111561465a5761465a615e5a565b03614663575050565b600182600381111561467757614677615e5a565b036146ae576040517ff645eedf00000000000000000000000000000000000000000000000000000000815260040160405180910390fd5b60028260038111156146c2576146c2615e5a565b036146fc576040517ffce698f70000000000000000000000000000000000000000000000000000000081526004810182905260240161107a565b600382600381111561471057614710615e5a565b03610d5c576040517fd78bce0c0000000000000000000000000000000000000000000000000000000081526004810182905260240161107a565b7f7710c0702d438d37259561c892984b894ff622adfa3d98b5dfe5a9763f94b9546000908152602082905260408120546147b0576040517f4f3d7def00000000000000000000000000000000000000000000000000000000815260040160405180910390fd5b7f7710c0702d438d37259561c892984b894ff622adfa3d98b5dfe5a9763f94b9546000908152602083905260408120546147e990614bda565b60ff169050600061480c8460008419815260200190815260200160002054614bda565b60ff16600883901b179050600061483485600084815260200190815260200160002054614bda565b60ff16905080600883901b179350505050919050565b606060ff83146148645761485d83614c53565b9050610c90565b81805461487090615485565b80601f016020809104026020016040519081016040528092919081815260200182805461489c90615485565b80156148e95780601f106148be576101008083540402835291602001916148e9565b820191906000526020600020905b8154815290600101906020018083116148cc57829003601f168201915b50505050509050610c90565b600881901c60008181526020849052604081205490919060ff841690600119821b168084036149e257600883901c801960009081526020889052604081205460011960ff87161b16908190036149b6577f7710c0702d438d37259561c892984b894ff622adfa3d98b5dfe5a9763f94b954600090815260208990526040812054600119841b16908190036149925760009650505050505050610c90565b61499b81614bda565b60ff168019600090815260208b905260409020549093509150505b6149bf81614bda565b60ff16600883901b17945087600086815260200190815260200160002054925050505b6149eb81614bda565b60ff16915081600884901b17935050505092915050565b6000807a184f03e93ff9f4daa797ed6e38ed64bf6a1f0100000000000000008310614a4b577a184f03e93ff9f4daa797ed6e38ed64bf6a1f010000000000000000830492506040015b6d04ee2d6d415b85acef81000000008310614a77576d04ee2d6d415b85acef8100000000830492506020015b662386f26fc100008310614a9557662386f26fc10000830492506010015b6305f5e1008310614aad576305f5e100830492506008015b6127108310614ac157612710830492506004015b60648310614ad3576064830492506002015b600a8310610c905760010192915050565b6000806000614af285614c92565b905060208401519250600080866001600160a01b031686604051614b169190615e70565b6000604051808303816000865af19150503d8060008114614b53576040519150601f19603f3d011682016040523d82523d6000602084013e614b58565b606091505b509150915081614b6b57614b6b81614cfe565b80806020019051810190614b7f9190615813565b93508215614b8f57614b8f614d3f565b5050509250929050565b600682901b9290921c916000825b82811015614bcf57604085901c9467ffffffffffffffff168015019190910190600101614ba7565b509190039003919050565b6000808211614be857600080fd5b60007e818283848586878898a8b8c8d8e8f929395969799a9b9d9e9faaeb6bedeeff600184190184160260f81c90506040518061012001604052806101008152602001615ead61010091398181518110614c4457614c44615e23565b016020015160f81c9392505050565b60606000614c6083614d95565b604080516020808252818301909252919250600091906020820181803683375050509182525060208101929092525090565b600080614c9d613f5f565b6001600160a01b03160361364d576000614cc7600080516020615e8d833981519152546000190190565b6001600160801b03167ffcac7593714b88fec0c578a53e9f3f6e4b47eb26c9dcaa7eff23a3ac156be4210192909255506001919050565b805115614d0d57805181602001fd5b6040517f36bc48c500000000000000000000000000000000000000000000000000000000815260040160405180910390fd5b6000614d5b600080516020615e8d833981519152546000190190565b6001600160801b03167ffcac7593714b88fec0c578a53e9f3f6e4b47eb26c9dcaa7eff23a3ac156be42160001c019050600160ff1b815550565b600060ff8216601f811115610c90576040517fb3512b0c00000000000000000000000000000000000000000000000000000000815260040160405180910390fd5b6001600160e01b031981168114611d7957600080fd5b600060208284031215614dfe57600080fd5b8135610fbb81614dd6565b60005b83811015614e24578181015183820152602001614e0c565b50506000910152565b60008151808452614e45816020860160208601614e09565b601f01601f19169290920160200192915050565b602081526000610fbb6020830184614e2d565b600060208284031215614e7e57600080fd5b5035919050565b6001600160a01b0381168114611d7957600080fd5b60008060408385031215614ead57600080fd5b8235614eb881614e85565b946020939093013593505050565b60008083601f840112614ed857600080fd5b50813567ffffffffffffffff811115614ef057600080fd5b602083019150836020828501011115614f0857600080fd5b9250929050565b60008060008385036060811215614f2557600080fd5b6040811215614f3357600080fd5b50839250604084013567ffffffffffffffff811115614f5157600080fd5b614f5d86828701614ec6565b9497909650939450505050565b6000806000838503610140811215614f8157600080fd5b61012080821215614f9157600080fd5b859450840135905067ffffffffffffffff811115614f5157600080fd5b600080600060608486031215614fc357600080fd5b8335614fce81614e85565b92506020840135614fde81614e85565b929592945050506040919091013590565b60008060006040848603121561500457600080fd5b83359250602084013567ffffffffffffffff811115614f5157600080fd5b60006020828403121561503457600080fd5b8135610fbb81614e85565b600080600083850361012081121561505657600080fd5b61010080821215614f9157600080fd5b6000806040838503121561507957600080fd5b823561508481614e85565b9150602083013561509481614e85565b809150509250929050565b80356001600160c01b038116811461364d57600080fd5b8035600281900b811461364d57600080fd5b600080604083850312156150db57600080fd5b6150e48361509f565b91506150f2602084016150b6565b90509250929050565b60008060008060008060c0878903121561511457600080fd5b863561511f81614e85565b95506020870135945060408701359350606087013560ff8116811461514357600080fd5b9598949750929560808101359460a0909101359350915050565b60006020828403121561516f57600080fd5b610fbb8261509f565b7fff00000000000000000000000000000000000000000000000000000000000000881681526000602060e060208401526151b560e084018a614e2d565b83810360408501526151c7818a614e2d565b606085018990526001600160a01b038816608086015260a0850187905284810360c08601528551808252602080880193509091019060005b8181101561521b578351835292840192918401916001016151ff565b50909c9b505050505050505050505050565b60c08101610c9082846001600160a01b0380825116835267ffffffffffffffff6020830151166020840152806040830151166040840152606082015162ffffff80821660608601528260808501511660808601528060a08501511660a08601525050505050565b6000806000604084860312156152a957600080fd5b83356152b481614e85565b9250602084013567ffffffffffffffff811115614f5157600080fd5b600080604083850312156152e357600080fd5b82356152ee81614e85565b91506020830135801515811461509457600080fd5b634e487b7160e01b600052604160045260246000fd5b604051601f8201601f1916810167ffffffffffffffff8111828210171561534257615342615303565b604052919050565b600067ffffffffffffffff82111561536457615364615303565b50601f01601f191660200190565b6000806000806080858703121561538857600080fd5b843561539381614e85565b935060208501356153a381614e85565b925060408501359150606085013567ffffffffffffffff8111156153c657600080fd5b8501601f810187136153d757600080fd5b80356153ea6153e58261534a565b615319565b8181528860208385010111156153ff57600080fd5b8160208401602083013760006020838301015280935050505092959194509250565b6000806040838503121561543457600080fd5b50508035926020909101359150565b600080600083850360e081121561545957600080fd5b60c081121561546757600080fd5b5083925060c084013567ffffffffffffffff811115614f5157600080fd5b600181811c9082168061549957607f821691505b602082108103611bde57634e487b7160e01b600052602260045260246000fd5b67ffffffffffffffff81168114611d7957600080fd5b6000602082840312156154e157600080fd5b8135610fbb816154b9565b600080604083850312156154ff57600080fd5b825161550a816154b9565b6020840151909250615094816154b9565b634e487b7160e01b600052601160045260246000fd5b6000600160ff1b82036155465761554661551b565b5060000390565b60006020828403121561555f57600080fd5b610fbb826150b6565b803562ffffff8116811461364d57600080fd5b600060c0828403121561558d57600080fd5b60405160c0810181811067ffffffffffffffff821117156155b0576155b0615303565b60405290508082356155c181614e85565b815260208301356155d1816154b9565b602082015260408301356155e481614e85565b60408201526155f560608401615568565b6060820152608083013561560881614e85565b608082015261561960a08401615568565b60a08201525092915050565b600060c0828403121561563757600080fd5b610fbb838361557b565b6000610120828403121561565457600080fd5b6040516080810181811067ffffffffffffffff8211171561567757615677615303565b604052615684848461557b565b815261569260c084016150b6565b602082015260e08301356156a5816154b9565b60408201526101008301356156b981614e85565b60608201529392505050565b6000602082840312156156d757600080fd5b815164ffffffffff81168114610fbb57600080fd5b6000602082840312156156fe57600080fd5b610fbb82615568565b60006020828403121561571957600080fd5b8151610fbb816154b9565b80820182811260008312801582168215821617156141065761410661551b565b80820180821115610c9057610c9061551b565b81810381811115610c9057610c9061551b565b6000610100828403121561577d57600080fd5b6040516060810181811067ffffffffffffffff821117156157a0576157a0615303565b6040526157ad848461557b565b81526157bb60c084016150b6565b602082015260e08301356157ce816154b9565b60408201529392505050565b818103600083128015838313168383128216171561267f5761267f61551b565b828152604060208201526000612d3a6040830184614e2d565b60006020828403121561582557600080fd5b8151610fbb81614dd6565b81835281816020850137506000828201602090810191909152601f909101601f19169091010190565b6001600160a01b03841681526040602082015260006144db604083018486615830565b60006020828403121561588e57600080fd5b815167ffffffffffffffff8111156158a557600080fd5b8201601f810184136158b657600080fd5b80516158c46153e58261534a565b8181528560208385010111156158d957600080fd5b6144db826020830160208601614e09565b600083516158fc818460208801614e09565b835190830190615910818360208801614e09565b01949350505050565b8082028115828204841417610c9057610c9061551b565b82815260e08101823561594281614e85565b6001600160a01b03808216602085015260208501359150615962826154b9565b67ffffffffffffffff821660408501526040850135915061598282614e85565b808216606085015261599660608601615568565b915062ffffff8083166080860152608086013592506159b483614e85565b81831660a0860152806159c960a08801615568565b1660c08601525050509392505050565b8035825260208101356159eb816154b9565b67ffffffffffffffff81166020840152505050565b6001600160a01b0385168152615a1960208201856159d9565b608060608201526000615a30608083018486615830565b9695505050505050565b6001600160a01b0386168152615a5360208201866159d9565b67ffffffffffffffff8416606082015260a060808201526000615a7a60a083018486615830565b979650505050505050565b60008160020b627fffff198103615a9e57615a9e61551b565b60000392915050565b615b0b8282516001600160a01b0380825116835267ffffffffffffffff6020830151166020840152806040830151166040840152606082015162ffffff80821660608601528260808501511660808601528060a08501511660a08601525050505050565b602081015160020b60c0830152604081015167ffffffffffffffff1660e0830152606001516001600160a01b031661010090910152565b60006101606001600160a01b0387168352615b606020840187615aa7565b80610140840152615a7a8184018587615830565b60006101806001600160a01b0388168352615b926020840188615aa7565b8561014084015280610160840152612db98184018587615830565b6001600160a01b0385168152836020820152606060408201526000615a30606083018486615830565b6001600160a01b038616815284602082015267ffffffffffffffff84166040820152608060608201526000615a7a608083018486615830565b615c738282516001600160a01b0380825116835267ffffffffffffffff6020830151166020840152806040830151166040840152606082015162ffffff80821660608601528260808501511660808601528060a08501511660a08601525050505050565b602081015160020b60c08301526040015167ffffffffffffffff1660e090910152565b60006101406001600160a01b0387168352615cb46020840187615c0f565b80610120840152615a7a8184018587615830565b60006101606001600160a01b0388168352615ce66020840188615c0f565b67ffffffffffffffff861661012084015280610140840152612db98184018587615830565b67ffffffffffffffff82811682821603908082111561267f5761267f61551b565b600060208284031215615d3e57600080fd5b5051919050565b60006001600160a01b03808716835280861660208401525083604083015260806060830152615a306080830184614e2d565b60006101006001600160a01b0387168352615dee60208401876001600160a01b0380825116835267ffffffffffffffff6020830151166020840152806040830151166040840152606082015162ffffff80821660608601528260808501511660808601528060a08501511660a08601525050505050565b8060e0840152615a7a8184018587615830565b600082615e1e57634e487b7160e01b600052601260045260246000fd5b500490565b634e487b7160e01b600052603260045260246000fd5b67ffffffffffffffff81811683821601908082111561267f5761267f61551b565b634e487b7160e01b600052602160045260246000fd5b60008251615e82818460208701614e09565b919091019291505056fe760a9a962ae3d184e99c0483cf5684fb3170f47116ca4f445c50209da4f4f9060001020903110a19042112290b311a3905412245134d2a550c5d32651b6d3a7506264262237d468514804e8d2b95569d0d495ea533a966b11c886eb93bc176c9071727374353637324837e9b47af86c7155181ad4fd18ed32c9096db57d59ee30e2e4a6a5f92a6be3498aae067ddb2eb1d5989b56fd7baf33ca0c2ee77e5caf7ff0810182028303840444c545c646c7425617c847f8c949c48a4a8b087b8c0c816365272829aaec650acd0d28fdad4e22d6991bd97dfdcea58b4d6f29fede4f6fe0f1f2f3f4b5b6b607b8b93a3a7b7bf357199c5abcfd9e168bcdee9b3f1ecf5fd1e3e5a7a8aa2b670c4ced8bbe8f0f4fc3d79a1c3cde7effb78cce6facbf9f8a264697066735822122085344426bf63b21259000ef94f749d9392578f84d8499f03b0f4f21c9130dd4764736f6c63430008180033",
  "libraries": {
    "Book": "0x18C2B4C4669277565b977F174796699656dE4175"
  },
  "devdoc": {
    "errors": {
      "ECDSAInvalidSignature()": [
        {
          "details": "The signature derives the `address(0)`."
        }
      ],
      "ECDSAInvalidSignatureLength(uint256)": [
        {
          "details": "The signature has an invalid length."
        }
      ],
      "ECDSAInvalidSignatureS(bytes32)": [
        {
          "details": "The signature has an S value that is in the upper half order."
        }
      ],
      "ERC721IncorrectOwner(address,uint256,address)": [
        {
          "details": "Indicates an error related to the ownership over a particular token. Used in transfers.",
          "params": {
            "owner": "Address of the current owner of a token.",
            "sender": "Address whose tokens are being transferred.",
            "tokenId": "Identifier number of a token."
          }
        }
      ],
      "ERC721InsufficientApproval(address,uint256)": [
        {
          "details": "Indicates a failure with the `operator`s approval. Used in transfers.",
          "params": {
            "operator": "Address that may be allowed to operate on tokens without being their owner.",
            "tokenId": "Identifier number of a token."
          }
        }
      ],
      "ERC721InvalidApprover(address)": [
        {
          "details": "Indicates a failure with the `approver` of a token to be approved. Used in approvals.",
          "params": {
            "approver": "Address initiating an approval operation."
          }
        }
      ],
      "ERC721InvalidOperator(address)": [
        {
          "details": "Indicates a failure with the `operator` to be approved. Used in approvals.",
          "params": {
            "operator": "Address that may be allowed to operate on tokens without being their owner."
          }
        }
      ],
      "ERC721InvalidOwner(address)": [
        {
          "details": "Indicates that an address can't be an owner. For example, `address(0)` is a forbidden owner in EIP-20. Used in balance queries.",
          "params": {
            "owner": "Address of the current owner of a token."
          }
        }
      ],
      "ERC721InvalidReceiver(address)": [
        {
          "details": "Indicates a failure with the token `receiver`. Used in transfers.",
          "params": {
            "receiver": "Address to which tokens are being transferred."
          }
        }
      ],
      "ERC721InvalidSender(address)": [
        {
          "details": "Indicates a failure with the token `sender`. Used in transfers.",
          "params": {
            "sender": "Address whose tokens are being transferred."
          }
        }
      ],
      "ERC721NonexistentToken(uint256)": [
        {
          "details": "Indicates a `tokenId` whose `owner` is the zero address.",
          "params": {
            "tokenId": "Identifier number of a token."
          }
        }
      ],
      "HookAddressNotValid(address)": [
        {
          "params": {
            "hooks": "The address of the hooks contract"
          }
        }
      ],
      "OwnableInvalidOwner(address)": [
        {
          "details": "The owner is not a valid owner account. (eg. `address(0)`)"
        }
      ],
      "OwnableUnauthorizedAccount(address)": [
        {
          "details": "The caller account is not authorized to perform an operation."
        }
      ],
      "SafeCastOverflowedIntToUint(int256)": [
        {
          "details": "An int value doesn't fit in an uint of `bits` size."
        }
      ],
      "SafeCastOverflowedUintToInt(uint256)": [
        {
          "details": "An uint value doesn't fit in an int of `bits` size."
        }
      ]
    },
    "events": {
      "Approval(address,address,uint256)": {
        "details": "Emitted when `owner` enables `approved` to manage the `tokenId` token."
      },
      "ApprovalForAll(address,address,bool)": {
        "details": "Emitted when `owner` enables or disables (`approved`) `operator` to manage all of its assets."
      },
      "Cancel(uint256,uint64)": {
        "params": {
          "canceledAmount": "The canceled amount",
          "orderId": "The order id"
        }
      },
      "Claim(uint256,uint64)": {
        "params": {
          "orderId": "The order id",
          "rawAmount": "The claimed amount"
        }
      },
      "Collect(address,address,uint256)": {
        "params": {
          "amount": "The collected amount",
          "currency": "The currency",
          "provider": "The provider address"
        }
      },
      "Delist(address)": {
        "params": {
          "provider": "The provider address"
        }
      },
      "EIP712DomainChanged()": {
        "details": "MAY be emitted to signal that the domain could have changed."
      },
      "Make(uint192,address,int24,uint256,uint64)": {
        "params": {
          "amount": "The order amount",
          "bookId": "The book id",
          "orderIndex": "The order index",
          "tick": "The order tick",
          "user": "The user address"
        }
      },
      "Open(uint192,address,address,uint64,uint24,uint24,address)": {
        "params": {
          "base": "The base currency",
          "hooks": "The hooks contract",
          "id": "The book id",
          "makerPolicy": "The maker fee policy",
          "quote": "The quote currency",
          "takerPolicy": "The taker fee policy",
          "unit": "The unit of the book"
        }
      },
      "SetDefaultProvider(address,address)": {
        "params": {
          "newDefaultProvider": "The new default provider address",
          "oldDefaultProvider": "The old default provider address"
        }
      },
      "Take(uint192,address,int24,uint64)": {
        "params": {
          "amount": "The order amount",
          "bookId": "The book id",
          "tick": "The order tick",
          "user": "The user address"
        }
      },
      "Transfer(address,address,uint256)": {
        "details": "Emitted when `tokenId` token is transferred from `from` to `to`."
      },
      "Whitelist(address)": {
        "params": {
          "provider": "The provider address"
        }
      }
    },
    "kind": "dev",
    "methods": {
      "acceptOwnership()": {
        "details": "The new owner accepts the ownership transfer."
      },
      "approve(address,uint256)": {
        "details": "See {IERC721-approve}."
      },
      "balanceOf(address)": {
        "details": "See {IERC721-balanceOf}."
      },
      "cancel((uint256,uint64),bytes)": {
        "params": {
          "hookData": "The hook data",
          "params": "The order parameters"
        },
        "returns": {
          "canceledAmount": "The amount of quote currency canceled"
        }
      },
      "checkAuthorized(address,address,uint256)": {
        "params": {
          "owner": "The address of the token owner",
          "spender": "The address of the spender",
          "tokenId": "The token ID"
        }
      },
      "claim(uint256,bytes)": {
        "params": {
          "hookData": "The hook data",
          "id": "The order ID"
        },
        "returns": {
          "claimedAmount": "The amount claimed"
        }
      },
      "collect(address,address)": {
        "params": {
          "currency": "The currency",
          "provider": "The provider address"
        }
      },
      "delist(address)": {
        "params": {
          "provider": "The provider address"
        }
      },
      "eip712Domain()": {
        "details": "See {IERC-5267}."
      },
      "getApproved(uint256)": {
        "details": "See {IERC721-getApproved}."
      },
      "getBookKey(uint192)": {
        "params": {
          "id": "The book ID"
        },
        "returns": {
          "_0": "The book key"
        }
      },
      "getDepth(uint192,int24)": {
        "params": {
          "id": "The book ID",
          "tick": "The tick"
        },
        "returns": {
          "_0": "The depth of the tick"
        }
      },
      "getLock(uint256)": {
        "params": {
          "i": "The index of the lock"
        },
        "returns": {
          "_0": "The locker's address",
          "_1": "The caller's address"
        }
      },
      "getLockData()": {
        "returns": {
          "_0": "The lock data including necessary numeric values"
        }
      },
      "getLowest(uint192)": {
        "params": {
          "id": "The book ID"
        },
        "returns": {
          "_0": "The lowest tick"
        }
      },
      "getOrder(uint256)": {
        "params": {
          "id": "The order ID"
        },
        "returns": {
          "_0": "Order information including provider, open status, and claimable amount"
        }
      },
      "isApprovedForAll(address,address)": {
        "details": "See {IERC721-isApprovedForAll}."
      },
      "isEmpty(uint192)": {
        "params": {
          "id": "The book ID"
        },
        "returns": {
          "_0": "True if the book is empty, false otherwise"
        }
      },
      "load(bytes32)": {
        "params": {
          "slot": "The storage slot"
        },
        "returns": {
          "value": "The value in the slot"
        }
      },
      "load(bytes32,uint256)": {
        "params": {
          "nSlot": "The number of slots to load",
          "startSlot": "The starting slot"
        },
        "returns": {
          "value": "The sequence of values"
        }
      },
      "lock(address,bytes)": {
        "params": {
          "data": "The lock data",
          "locker": "The locker address"
        },
        "returns": {
          "result": "The lock return data"
        }
      },
      "make(((address,uint64,address,uint24,address,uint24),int24,uint64,address),bytes)": {
        "params": {
          "hookData": "The hook data",
          "params": "The order parameters"
        },
        "returns": {
          "id": "The order id. Returns 0 if the order is not settled",
          "quoteAmount": "The amount of quote currency to be paid"
        }
      },
      "minGreaterThan(uint192,int24)": {
        "details": "Returns `Tick.wrap(type(int24).min)` if the specified tick is the highest",
        "params": {
          "id": "The book ID",
          "tick": "The specified tick"
        },
        "returns": {
          "_0": "The next higher tick"
        }
      },
      "name()": {
        "details": "See {IERC721Metadata-name}."
      },
      "open((address,uint64,address,uint24,address,uint24),bytes)": {
        "params": {
          "hookData": "The hook data",
          "key": "The book key"
        }
      },
      "owner()": {
        "details": "Returns the address of the current owner."
      },
      "ownerOf(uint256)": {
        "details": "See {IERC721-ownerOf}."
      },
      "pendingOwner()": {
        "details": "Returns the address of the pending owner."
      },
      "permit(address,uint256,uint256,uint8,bytes32,bytes32)": {
        "params": {
          "deadline": "The deadline for the signature",
          "r": "The r value of the signature",
          "s": "The s value of the signature",
          "spender": "The address to approve",
          "tokenId": "The tokenId to approve",
          "v": "The recovery id of the signature"
        }
      },
      "renounceOwnership()": {
        "details": "Leaves the contract without owner. It will not be possible to call `onlyOwner` functions. Can only be called by the current owner. NOTE: Renouncing ownership will leave the contract without an owner, thereby disabling any functionality that is only available to the owner."
      },
      "safeTransferFrom(address,address,uint256)": {
        "details": "See {IERC721-safeTransferFrom}."
      },
      "safeTransferFrom(address,address,uint256,bytes)": {
        "details": "See {IERC721-safeTransferFrom}."
      },
      "setApprovalForAll(address,bool)": {
        "details": "See {IERC721-setApprovalForAll}."
      },
      "setDefaultProvider(address)": {
        "params": {
          "newDefaultProvider": "The new default provider address"
        }
      },
      "settle(address)": {
        "params": {
          "currency": "The currency"
        },
        "returns": {
          "paid": "The settled amount"
        }
      },
      "symbol()": {
        "details": "See {IERC721Metadata-symbol}."
      },
      "take(((address,uint64,address,uint24,address,uint24),int24,uint64),bytes)": {
        "params": {
          "hookData": "The hook data",
          "params": "The order parameters"
        },
        "returns": {
          "baseAmount": "The amount of base currency to be paid",
          "quoteAmount": "The amount of quote currency to be received"
        }
      },
      "tokenURI(uint256)": {
        "details": "See {IERC721Metadata-tokenURI}."
      },
      "transferFrom(address,address,uint256)": {
        "details": "See {IERC721-transferFrom}."
      },
      "transferOwnership(address)": {
        "details": "Starts the ownership transfer of the contract to a new account. Replaces the pending transfer if there is one. Can only be called by the current owner."
      },
      "whitelist(address)": {
        "params": {
          "provider": "The provider address"
        }
      },
      "withdraw(address,address,uint256)": {
        "params": {
          "amount": "The amount",
          "currency": "The currency",
          "to": "The recipient address"
        }
      }
    },
    "stateVariables": {
      "baseURI": {
        "return": "The base URI",
        "returns": {
          "_0": "The base URI"
        }
      },
      "contractURI": {
        "return": "The contract URI",
        "returns": {
          "_0": "The contract URI"
        }
      },
      "currencyDelta": {
        "params": {
          "currency": "The currency in question",
          "locker": "The address of the locker"
        },
        "return": "currencyDelta The net change in currency balance",
        "returns": {
          "currencyDelta": "The net change in currency balance"
        }
      },
      "defaultProvider": {
        "return": "The default provider",
        "returns": {
          "_0": "The default provider"
        }
      },
      "isWhitelisted": {
        "params": {
          "provider": "The address of the provider"
        },
        "return": "True if the provider is whitelisted, false otherwise",
        "returns": {
          "_0": "True if the provider is whitelisted, false otherwise"
        }
      },
      "reservesOf": {
        "params": {
          "currency": "The currency in question"
        },
        "return": "The total reserves amount",
        "returns": {
          "_0": "The total reserves amount"
        }
      },
      "tokenOwed": {
        "params": {
          "currency": "The currency in question",
          "provider": "The provider's address"
        },
        "return": "amount The owed amount",
        "returns": {
          "amount": "The owed amount"
        }
      }
    },
    "version": 1
  },
  "userdoc": {
    "errors": {
      "ERC20TransferFailed()": [
        {
          "notice": "Thrown when an ERC20 transfer fails"
        }
      ],
      "FailedHookCall()": [
        {
          "notice": "thrown when a hook call fails"
        }
      ],
      "HookAddressNotValid(address)": [
        {
          "notice": "Thrown if the address will not lead to the specified hook calls being called"
        }
      ],
      "InvalidHookResponse()": [
        {
          "notice": "Hook did not return its selector"
        }
      ],
      "NativeTransferFailed()": [
        {
          "notice": "Thrown when a native transfer fails"
        }
      ]
    },
    "events": {
      "Cancel(uint256,uint64)": {
        "notice": "Event emitted when an order is canceled"
      },
      "Claim(uint256,uint64)": {
        "notice": "Event emitted when an order is claimed"
      },
      "Collect(address,address,uint256)": {
        "notice": "Event emitted when a provider collects fees"
      },
      "Delist(address)": {
        "notice": "Event emitted when a provider is delisted"
      },
      "Make(uint192,address,int24,uint256,uint64)": {
        "notice": "Event emitted when a new order is made"
      },
      "Open(uint192,address,address,uint64,uint24,uint24,address)": {
        "notice": "Event emitted when a new book is opened"
      },
      "SetDefaultProvider(address,address)": {
        "notice": "Event emitted when new default provider is set"
      },
      "Take(uint192,address,int24,uint64)": {
        "notice": "Event emitted when an order is taken"
      },
      "Whitelist(address)": {
        "notice": "Event emitted when a provider is whitelisted"
      }
    },
    "kind": "user",
    "methods": {
      "DOMAIN_SEPARATOR()": {
        "notice": "The EIP-712 domain separator for this contract"
      },
      "PERMIT_TYPEHASH()": {
        "notice": "The EIP-712 typehash for the permit struct used by the contract"
      },
      "baseURI()": {
        "notice": "Returns the base URI"
      },
      "cancel((uint256,uint64),bytes)": {
        "notice": "Cancel a limit order"
      },
      "checkAuthorized(address,address,uint256)": {
        "notice": "Verifies if an owner has authorized a spender for a token"
      },
      "claim(uint256,bytes)": {
        "notice": "Claims an order"
      },
      "collect(address,address)": {
        "notice": "Collects fees from a provider"
      },
      "contractURI()": {
        "notice": "Returns the contract URI"
      },
      "currencyDelta(address,address)": {
        "notice": "Calculates the currency balance changes for a given locker"
      },
      "defaultProvider()": {
        "notice": "Returns the default provider"
      },
      "delist(address)": {
        "notice": "Delists a provider"
      },
      "getBookKey(uint192)": {
        "notice": "Retrieves the book key for a given book ID"
      },
      "getDepth(uint192,int24)": {
        "notice": "Returns the depth of a given book ID and tick"
      },
      "getLock(uint256)": {
        "notice": "Retrieves the locker and caller addresses for a given lock"
      },
      "getLockData()": {
        "notice": "Provides the lock data"
      },
      "getLowest(uint192)": {
        "notice": "Retrieves the lowest tick for a given book ID"
      },
      "getOrder(uint256)": {
        "notice": "Provides information about an order"
      },
      "isEmpty(uint192)": {
        "notice": "Checks if a book is empty"
      },
      "isWhitelisted(address)": {
        "notice": "Checks if a provider is whitelisted"
      },
      "load(bytes32)": {
        "notice": "Loads a value from a specific storage slot"
      },
      "load(bytes32,uint256)": {
        "notice": "Loads a sequence of values starting from a specific slot"
      },
      "lock(address,bytes)": {
        "notice": "Locks a book manager function"
      },
      "make(((address,uint64,address,uint24,address,uint24),int24,uint64,address),bytes)": {
        "notice": "Make a limit order"
      },
      "minGreaterThan(uint192,int24)": {
        "notice": "Finds the minimum tick greater than a specified tick in a book"
      },
      "open((address,uint64,address,uint24,address,uint24),bytes)": {
        "notice": "Opens a new book"
      },
      "permit(address,uint256,uint256,uint8,bytes32,bytes32)": {
        "notice": "Approve the spender to transfer the given tokenId"
      },
      "reservesOf(address)": {
        "notice": "Returns the total reserves of a given currency"
      },
      "setDefaultProvider(address)": {
        "notice": "Sets the default provider"
      },
      "settle(address)": {
        "notice": "Settles a currency"
      },
      "take(((address,uint64,address,uint24,address,uint24),int24,uint64),bytes)": {
        "notice": "Take a limit order at specific tick"
      },
      "tokenOwed(address,address)": {
        "notice": "Calculates the amount owed to a provider in a given currency"
      },
      "whitelist(address)": {
        "notice": "Whitelists a provider"
      },
      "withdraw(address,address,uint256)": {
        "notice": "Withdraws a currency"
      }
    },
    "version": 1
  },
  "storageLayout": {
    "storage": [
      {
        "astId": 14959,
        "contract": "contracts/BookManager.sol:BookManager",
        "label": "_name",
        "offset": 0,
        "slot": "0",
        "type": "t_string_storage"
      },
      {
        "astId": 14961,
        "contract": "contracts/BookManager.sol:BookManager",
        "label": "_symbol",
        "offset": 0,
        "slot": "1",
        "type": "t_string_storage"
      },
      {
        "astId": 14965,
        "contract": "contracts/BookManager.sol:BookManager",
        "label": "_balances",
        "offset": 0,
        "slot": "2",
        "type": "t_mapping(t_address,t_uint256)"
      },
      {
        "astId": 14969,
        "contract": "contracts/BookManager.sol:BookManager",
        "label": "_tokenApprovals",
        "offset": 0,
        "slot": "3",
        "type": "t_mapping(t_uint256,t_address)"
      },
      {
        "astId": 14975,
        "contract": "contracts/BookManager.sol:BookManager",
        "label": "_operatorApprovals",
        "offset": 0,
        "slot": "4",
        "type": "t_mapping(t_address,t_mapping(t_address,t_bool))"
      },
      {
        "astId": 2194,
        "contract": "contracts/BookManager.sol:BookManager",
        "label": "_owner",
        "offset": 0,
        "slot": "5",
        "type": "t_address"
      },
      {
        "astId": 2342,
        "contract": "contracts/BookManager.sol:BookManager",
        "label": "_pendingOwner",
        "offset": 0,
        "slot": "6",
        "type": "t_address"
      },
      {
        "astId": 4481,
        "contract": "contracts/BookManager.sol:BookManager",
        "label": "_nameFallback",
        "offset": 0,
        "slot": "7",
        "type": "t_string_storage"
      },
      {
        "astId": 4483,
        "contract": "contracts/BookManager.sol:BookManager",
        "label": "_versionFallback",
        "offset": 0,
        "slot": "8",
        "type": "t_string_storage"
      },
      {
        "astId": 15969,
        "contract": "contracts/BookManager.sol:BookManager",
        "label": "_nonceAndOwner",
        "offset": 0,
        "slot": "9",
        "type": "t_mapping(t_uint256,t_uint256)"
      },
      {
        "astId": 7745,
        "contract": "contracts/BookManager.sol:BookManager",
        "label": "baseURI",
        "offset": 0,
        "slot": "10",
        "type": "t_string_storage"
      },
      {
        "astId": 7748,
        "contract": "contracts/BookManager.sol:BookManager",
        "label": "contractURI",
        "offset": 0,
        "slot": "11",
        "type": "t_string_storage"
      },
      {
        "astId": 7751,
        "contract": "contracts/BookManager.sol:BookManager",
        "label": "defaultProvider",
        "offset": 0,
        "slot": "12",
        "type": "t_address"
      },
      {
        "astId": 7759,
        "contract": "contracts/BookManager.sol:BookManager",
        "label": "currencyDelta",
        "offset": 0,
        "slot": "13",
        "type": "t_mapping(t_address,t_mapping(t_userDefinedValueType(Currency)14760,t_int256))"
      },
      {
        "astId": 7765,
        "contract": "contracts/BookManager.sol:BookManager",
        "label": "reservesOf",
        "offset": 0,
        "slot": "14",
        "type": "t_mapping(t_userDefinedValueType(Currency)14760,t_uint256)"
      },
      {
        "astId": 7771,
        "contract": "contracts/BookManager.sol:BookManager",
        "label": "_books",
        "offset": 0,
        "slot": "15",
        "type": "t_mapping(t_userDefinedValueType(BookId)14733,t_struct(State)14054_storage)"
      },
      {
        "astId": 7776,
        "contract": "contracts/BookManager.sol:BookManager",
        "label": "isWhitelisted",
        "offset": 0,
        "slot": "16",
        "type": "t_mapping(t_address,t_bool)"
      },
      {
        "astId": 7784,
        "contract": "contracts/BookManager.sol:BookManager",
        "label": "tokenOwed",
        "offset": 0,
        "slot": "17",
        "type": "t_mapping(t_address,t_mapping(t_userDefinedValueType(Currency)14760,t_uint256))"
      }
    ],
    "types": {
      "t_address": {
        "encoding": "inplace",
        "label": "address",
        "numberOfBytes": "20"
      },
      "t_array(t_mapping(t_uint256,t_uint256))4_storage": {
        "base": "t_mapping(t_uint256,t_uint256)",
        "encoding": "inplace",
        "label": "mapping(uint256 => uint256)[4]",
        "numberOfBytes": "128"
      },
      "t_array(t_struct(Order)14028_storage)dyn_storage": {
        "base": "t_struct(Order)14028_storage",
        "encoding": "dynamic_array",
        "label": "struct Book.Order[]",
        "numberOfBytes": "32"
      },
      "t_bool": {
        "encoding": "inplace",
        "label": "bool",
        "numberOfBytes": "1"
      },
      "t_contract(IHooks)13948": {
        "encoding": "inplace",
        "label": "contract IHooks",
        "numberOfBytes": "20"
      },
      "t_int256": {
        "encoding": "inplace",
        "label": "int256",
        "numberOfBytes": "32"
      },
      "t_mapping(t_address,t_bool)": {
        "encoding": "mapping",
        "key": "t_address",
        "label": "mapping(address => bool)",
        "numberOfBytes": "32",
        "value": "t_bool"
      },
      "t_mapping(t_address,t_mapping(t_address,t_bool))": {
        "encoding": "mapping",
        "key": "t_address",
        "label": "mapping(address => mapping(address => bool))",
        "numberOfBytes": "32",
        "value": "t_mapping(t_address,t_bool)"
      },
      "t_mapping(t_address,t_mapping(t_userDefinedValueType(Currency)14760,t_int256))": {
        "encoding": "mapping",
        "key": "t_address",
        "label": "mapping(address => mapping(Currency => int256))",
        "numberOfBytes": "32",
        "value": "t_mapping(t_userDefinedValueType(Currency)14760,t_int256)"
      },
      "t_mapping(t_address,t_mapping(t_userDefinedValueType(Currency)14760,t_uint256))": {
        "encoding": "mapping",
        "key": "t_address",
        "label": "mapping(address => mapping(Currency => uint256))",
        "numberOfBytes": "32",
        "value": "t_mapping(t_userDefinedValueType(Currency)14760,t_uint256)"
      },
      "t_mapping(t_address,t_uint256)": {
        "encoding": "mapping",
        "key": "t_address",
        "label": "mapping(address => uint256)",
        "numberOfBytes": "32",
        "value": "t_uint256"
      },
      "t_mapping(t_uint24,t_uint256)": {
        "encoding": "mapping",
        "key": "t_uint24",
        "label": "mapping(uint24 => uint256)",
        "numberOfBytes": "32",
        "value": "t_uint256"
      },
      "t_mapping(t_uint256,t_address)": {
        "encoding": "mapping",
        "key": "t_uint256",
        "label": "mapping(uint256 => address)",
        "numberOfBytes": "32",
        "value": "t_address"
      },
      "t_mapping(t_uint256,t_uint256)": {
        "encoding": "mapping",
        "key": "t_uint256",
        "label": "mapping(uint256 => uint256)",
        "numberOfBytes": "32",
        "value": "t_uint256"
      },
      "t_mapping(t_userDefinedValueType(BookId)14733,t_struct(State)14054_storage)": {
        "encoding": "mapping",
        "key": "t_userDefinedValueType(BookId)14733",
        "label": "mapping(BookId => struct Book.State)",
        "numberOfBytes": "32",
        "value": "t_struct(State)14054_storage"
      },
      "t_mapping(t_userDefinedValueType(Currency)14760,t_int256)": {
        "encoding": "mapping",
        "key": "t_userDefinedValueType(Currency)14760",
        "label": "mapping(Currency => int256)",
        "numberOfBytes": "32",
        "value": "t_int256"
      },
      "t_mapping(t_userDefinedValueType(Currency)14760,t_uint256)": {
        "encoding": "mapping",
        "key": "t_userDefinedValueType(Currency)14760",
        "label": "mapping(Currency => uint256)",
        "numberOfBytes": "32",
        "value": "t_uint256"
      },
      "t_mapping(t_userDefinedValueType(Tick)17880,t_struct(Queue)14036_storage)": {
        "encoding": "mapping",
        "key": "t_userDefinedValueType(Tick)17880",
        "label": "mapping(Tick => struct Book.Queue)",
        "numberOfBytes": "32",
        "value": "t_struct(Queue)14036_storage"
      },
      "t_string_storage": {
        "encoding": "bytes",
        "label": "string",
        "numberOfBytes": "32"
      },
      "t_struct(BookKey)13009_storage": {
        "encoding": "inplace",
        "label": "struct IBookManager.BookKey",
        "members": [
          {
            "astId": 12994,
            "contract": "contracts/BookManager.sol:BookManager",
            "label": "base",
            "offset": 0,
            "slot": "0",
            "type": "t_userDefinedValueType(Currency)14760"
          },
          {
            "astId": 12996,
            "contract": "contracts/BookManager.sol:BookManager",
            "label": "unit",
            "offset": 20,
            "slot": "0",
            "type": "t_uint64"
          },
          {
            "astId": 12999,
            "contract": "contracts/BookManager.sol:BookManager",
            "label": "quote",
            "offset": 0,
            "slot": "1",
            "type": "t_userDefinedValueType(Currency)14760"
          },
          {
            "astId": 13002,
            "contract": "contracts/BookManager.sol:BookManager",
            "label": "makerPolicy",
            "offset": 20,
            "slot": "1",
            "type": "t_userDefinedValueType(FeePolicy)16220"
          },
          {
            "astId": 13005,
            "contract": "contracts/BookManager.sol:BookManager",
            "label": "hooks",
            "offset": 0,
            "slot": "2",
            "type": "t_contract(IHooks)13948"
          },
          {
            "astId": 13008,
            "contract": "contracts/BookManager.sol:BookManager",
            "label": "takerPolicy",
            "offset": 20,
            "slot": "2",
            "type": "t_userDefinedValueType(FeePolicy)16220"
          }
        ],
        "numberOfBytes": "96"
      },
      "t_struct(Core)1364_storage": {
        "encoding": "inplace",
        "label": "struct SegmentedSegmentTree.Core",
        "members": [
          {
            "astId": 1363,
            "contract": "contracts/BookManager.sol:BookManager",
            "label": "layers",
            "offset": 0,
            "slot": "0",
            "type": "t_array(t_mapping(t_uint256,t_uint256))4_storage"
          }
        ],
        "numberOfBytes": "128"
      },
      "t_struct(Order)14028_storage": {
        "encoding": "inplace",
        "label": "struct Book.Order",
        "members": [
          {
            "astId": 14025,
            "contract": "contracts/BookManager.sol:BookManager",
            "label": "provider",
            "offset": 0,
            "slot": "0",
            "type": "t_address"
          },
          {
            "astId": 14027,
            "contract": "contracts/BookManager.sol:BookManager",
            "label": "pending",
            "offset": 20,
            "slot": "0",
            "type": "t_uint64"
          }
        ],
        "numberOfBytes": "32"
      },
      "t_struct(Queue)14036_storage": {
        "encoding": "inplace",
        "label": "struct Book.Queue",
        "members": [
          {
            "astId": 14031,
            "contract": "contracts/BookManager.sol:BookManager",
            "label": "tree",
            "offset": 0,
            "slot": "0",
            "type": "t_struct(Core)1364_storage"
          },
          {
            "astId": 14035,
            "contract": "contracts/BookManager.sol:BookManager",
            "label": "orders",
            "offset": 0,
            "slot": "4",
            "type": "t_array(t_struct(Order)14028_storage)dyn_storage"
          }
        ],
        "numberOfBytes": "160"
      },
      "t_struct(State)14054_storage": {
        "encoding": "inplace",
        "label": "struct Book.State",
        "members": [
          {
            "astId": 14039,
            "contract": "contracts/BookManager.sol:BookManager",
            "label": "key",
            "offset": 0,
            "slot": "0",
            "type": "t_struct(BookKey)13009_storage"
          },
          {
            "astId": 14045,
            "contract": "contracts/BookManager.sol:BookManager",
            "label": "queues",
            "offset": 0,
            "slot": "3",
            "type": "t_mapping(t_userDefinedValueType(Tick)17880,t_struct(Queue)14036_storage)"
          },
          {
            "astId": 14049,
            "contract": "contracts/BookManager.sol:BookManager",
            "label": "tickBitmap",
            "offset": 0,
            "slot": "4",
            "type": "t_mapping(t_uint256,t_uint256)"
          },
          {
            "astId": 14053,
            "contract": "contracts/BookManager.sol:BookManager",
            "label": "totalClaimableOf",
            "offset": 0,
            "slot": "5",
            "type": "t_mapping(t_uint24,t_uint256)"
          }
        ],
        "numberOfBytes": "192"
      },
      "t_uint24": {
        "encoding": "inplace",
        "label": "uint24",
        "numberOfBytes": "3"
      },
      "t_uint256": {
        "encoding": "inplace",
        "label": "uint256",
        "numberOfBytes": "32"
      },
      "t_uint64": {
        "encoding": "inplace",
        "label": "uint64",
        "numberOfBytes": "8"
      },
      "t_userDefinedValueType(BookId)14733": {
        "encoding": "inplace",
        "label": "BookId",
        "numberOfBytes": "24"
      },
      "t_userDefinedValueType(Currency)14760": {
        "encoding": "inplace",
        "label": "Currency",
        "numberOfBytes": "20"
      },
      "t_userDefinedValueType(FeePolicy)16220": {
        "encoding": "inplace",
        "label": "FeePolicy",
        "numberOfBytes": "3"
      },
      "t_userDefinedValueType(Tick)17880": {
        "encoding": "inplace",
        "label": "Tick",
        "numberOfBytes": "3"
      }
    }
  }
}