{
  "address": "0x474fb05A287f4BF3aE6A728FEC5E70967B3A04dC",
  "abi": [
    {
      "inputs": [
        {
          "internalType": "address",
          "name": "bookManager",
          "type": "address"
        }
      ],
      "stateMutability": "nonpayable",
      "type": "constructor"
    },
    {
      "inputs": [
        {
          "internalType": "address",
          "name": "target",
          "type": "address"
        }
      ],
      "name": "AddressEmptyCode",
      "type": "error"
    },
    {
      "inputs": [
        {
          "internalType": "address",
          "name": "account",
          "type": "address"
        }
      ],
      "name": "AddressInsufficientBalance",
      "type": "error"
    },
    {
      "inputs": [],
      "name": "ControllerSlippage",
      "type": "error"
    },
    {
      "inputs": [],
      "name": "Deadline",
      "type": "error"
    },
    {
      "inputs": [],
      "name": "ERC20TransferFailed",
      "type": "error"
    },
    {
      "inputs": [],
      "name": "FailedInnerCall",
      "type": "error"
    },
    {
      "inputs": [],
      "name": "InvalidAccess",
      "type": "error"
    },
    {
      "inputs": [],
      "name": "InvalidAction",
      "type": "error"
    },
    {
      "inputs": [],
      "name": "InvalidLength",
      "type": "error"
    },
    {
      "inputs": [],
      "name": "InvalidMarket",
      "type": "error"
    },
    {
      "inputs": [],
      "name": "InvalidPrice",
      "type": "error"
    },
    {
      "inputs": [],
      "name": "InvalidTick",
      "type": "error"
    },
    {
      "inputs": [],
      "name": "NativeTransferFailed",
      "type": "error"
    },
    {
      "inputs": [],
      "name": "ReentrancyGuardReentrantCall",
      "type": "error"
    },
    {
      "inputs": [
        {
          "internalType": "uint8",
          "name": "bits",
          "type": "uint8"
        },
        {
          "internalType": "uint256",
          "name": "value",
          "type": "uint256"
        }
      ],
      "name": "SafeCastOverflowedUintDowncast",
      "type": "error"
    },
    {
      "inputs": [
        {
          "internalType": "address",
          "name": "token",
          "type": "address"
        }
      ],
      "name": "SafeERC20FailedOperation",
      "type": "error"
    },
    {
      "inputs": [],
      "name": "ValueTransferFailed",
      "type": "error"
    },
    {
      "inputs": [
        {
          "components": [
            {
              "internalType": "OrderId",
              "name": "id",
              "type": "uint256"
            },
            {
              "internalType": "uint256",
              "name": "leftQuoteAmount",
              "type": "uint256"
            },
            {
              "internalType": "bytes",
              "name": "hookData",
              "type": "bytes"
            }
          ],
          "internalType": "struct IController.CancelOrderParams[]",
          "name": "orderParamsList",
          "type": "tuple[]"
        },
        {
          "internalType": "address[]",
          "name": "tokensToSettle",
          "type": "address[]"
        },
        {
          "components": [
            {
              "internalType": "uint256",
              "name": "tokenId",
              "type": "uint256"
            },
            {
              "components": [
                {
                  "internalType": "uint256",
                  "name": "deadline",
                  "type": "uint256"
                },
                {
                  "internalType": "uint8",
                  "name": "v",
                  "type": "uint8"
                },
                {
                  "internalType": "bytes32",
                  "name": "r",
                  "type": "bytes32"
                },
                {
                  "internalType": "bytes32",
                  "name": "s",
                  "type": "bytes32"
                }
              ],
              "internalType": "struct IController.PermitSignature",
              "name": "signature",
              "type": "tuple"
            }
          ],
          "internalType": "struct IController.ERC721PermitParams[]",
          "name": "permitParamsList",
          "type": "tuple[]"
        },
        {
          "internalType": "uint64",
          "name": "deadline",
          "type": "uint64"
        }
      ],
      "name": "cancel",
      "outputs": [],
      "stateMutability": "nonpayable",
      "type": "function"
    },
    {
      "inputs": [
        {
          "components": [
            {
              "internalType": "OrderId",
              "name": "id",
              "type": "uint256"
            },
            {
              "internalType": "bytes",
              "name": "hookData",
              "type": "bytes"
            }
          ],
          "internalType": "struct IController.ClaimOrderParams[]",
          "name": "orderParamsList",
          "type": "tuple[]"
        },
        {
          "internalType": "address[]",
          "name": "tokensToSettle",
          "type": "address[]"
        },
        {
          "components": [
            {
              "internalType": "uint256",
              "name": "tokenId",
              "type": "uint256"
            },
            {
              "components": [
                {
                  "internalType": "uint256",
                  "name": "deadline",
                  "type": "uint256"
                },
                {
                  "internalType": "uint8",
                  "name": "v",
                  "type": "uint8"
                },
                {
                  "internalType": "bytes32",
                  "name": "r",
                  "type": "bytes32"
                },
                {
                  "internalType": "bytes32",
                  "name": "s",
                  "type": "bytes32"
                }
              ],
              "internalType": "struct IController.PermitSignature",
              "name": "signature",
              "type": "tuple"
            }
          ],
          "internalType": "struct IController.ERC721PermitParams[]",
          "name": "permitParamsList",
          "type": "tuple[]"
        },
        {
          "internalType": "uint64",
          "name": "deadline",
          "type": "uint64"
        }
      ],
      "name": "claim",
      "outputs": [],
      "stateMutability": "nonpayable",
      "type": "function"
    },
    {
      "inputs": [
        {
          "internalType": "enum IController.Action[]",
          "name": "actionList",
          "type": "uint8[]"
        },
        {
          "internalType": "bytes[]",
          "name": "paramsDataList",
          "type": "bytes[]"
        },
        {
          "internalType": "address[]",
          "name": "tokensToSettle",
          "type": "address[]"
        },
        {
          "components": [
            {
              "internalType": "address",
              "name": "token",
              "type": "address"
            },
            {
              "internalType": "uint256",
              "name": "permitAmount",
              "type": "uint256"
            },
            {
              "components": [
                {
                  "internalType": "uint256",
                  "name": "deadline",
                  "type": "uint256"
                },
                {
                  "internalType": "uint8",
                  "name": "v",
                  "type": "uint8"
                },
                {
                  "internalType": "bytes32",
                  "name": "r",
                  "type": "bytes32"
                },
                {
                  "internalType": "bytes32",
                  "name": "s",
                  "type": "bytes32"
                }
              ],
              "internalType": "struct IController.PermitSignature",
              "name": "signature",
              "type": "tuple"
            }
          ],
          "internalType": "struct IController.ERC20PermitParams[]",
          "name": "erc20PermitParamsList",
          "type": "tuple[]"
        },
        {
          "components": [
            {
              "internalType": "uint256",
              "name": "tokenId",
              "type": "uint256"
            },
            {
              "components": [
                {
                  "internalType": "uint256",
                  "name": "deadline",
                  "type": "uint256"
                },
                {
                  "internalType": "uint8",
                  "name": "v",
                  "type": "uint8"
                },
                {
                  "internalType": "bytes32",
                  "name": "r",
                  "type": "bytes32"
                },
                {
                  "internalType": "bytes32",
                  "name": "s",
                  "type": "bytes32"
                }
              ],
              "internalType": "struct IController.PermitSignature",
              "name": "signature",
              "type": "tuple"
            }
          ],
          "internalType": "struct IController.ERC721PermitParams[]",
          "name": "erc721PermitParamsList",
          "type": "tuple[]"
        },
        {
          "internalType": "uint64",
          "name": "deadline",
          "type": "uint64"
        }
      ],
      "name": "execute",
      "outputs": [
        {
          "internalType": "OrderId[]",
          "name": "ids",
          "type": "uint256[]"
        }
      ],
      "stateMutability": "payable",
      "type": "function"
    },
    {
      "inputs": [
        {
          "internalType": "uint256",
          "name": "price",
          "type": "uint256"
        }
      ],
      "name": "fromPrice",
      "outputs": [
        {
          "internalType": "Tick",
          "name": "",
          "type": "int24"
        }
      ],
      "stateMutability": "pure",
      "type": "function"
    },
    {
      "inputs": [
        {
          "internalType": "BookId",
          "name": "id",
          "type": "uint192"
        },
        {
          "internalType": "Tick",
          "name": "tick",
          "type": "int24"
        }
      ],
      "name": "getDepth",
      "outputs": [
        {
          "internalType": "uint256",
          "name": "",
          "type": "uint256"
        }
      ],
      "stateMutability": "view",
      "type": "function"
    },
    {
      "inputs": [
        {
          "internalType": "BookId",
          "name": "id",
          "type": "uint192"
        }
      ],
      "name": "getLowestPrice",
      "outputs": [
        {
          "internalType": "uint256",
          "name": "",
          "type": "uint256"
        }
      ],
      "stateMutability": "view",
      "type": "function"
    },
    {
      "inputs": [
        {
          "internalType": "OrderId",
          "name": "orderId",
          "type": "uint256"
        }
      ],
      "name": "getOrder",
      "outputs": [
        {
          "internalType": "address",
          "name": "provider",
          "type": "address"
        },
        {
          "internalType": "uint256",
          "name": "price",
          "type": "uint256"
        },
        {
          "internalType": "uint256",
          "name": "openAmount",
          "type": "uint256"
        },
        {
          "internalType": "uint256",
          "name": "claimableAmount",
          "type": "uint256"
        }
      ],
      "stateMutability": "view",
      "type": "function"
    },
    {
      "inputs": [
        {
          "components": [
            {
              "internalType": "BookId",
              "name": "takeBookId",
              "type": "uint192"
            },
            {
              "internalType": "BookId",
              "name": "makeBookId",
              "type": "uint192"
            },
            {
              "internalType": "uint256",
              "name": "limitPrice",
              "type": "uint256"
            },
            {
              "internalType": "Tick",
              "name": "tick",
              "type": "int24"
            },
            {
              "internalType": "uint256",
              "name": "quoteAmount",
              "type": "uint256"
            },
            {
              "internalType": "bytes",
              "name": "takeHookData",
              "type": "bytes"
            },
            {
              "internalType": "bytes",
              "name": "makeHookData",
              "type": "bytes"
            }
          ],
          "internalType": "struct IController.LimitOrderParams[]",
          "name": "orderParamsList",
          "type": "tuple[]"
        },
        {
          "internalType": "address[]",
          "name": "tokensToSettle",
          "type": "address[]"
        },
        {
          "components": [
            {
              "internalType": "address",
              "name": "token",
              "type": "address"
            },
            {
              "internalType": "uint256",
              "name": "permitAmount",
              "type": "uint256"
            },
            {
              "components": [
                {
                  "internalType": "uint256",
                  "name": "deadline",
                  "type": "uint256"
                },
                {
                  "internalType": "uint8",
                  "name": "v",
                  "type": "uint8"
                },
                {
                  "internalType": "bytes32",
                  "name": "r",
                  "type": "bytes32"
                },
                {
                  "internalType": "bytes32",
                  "name": "s",
                  "type": "bytes32"
                }
              ],
              "internalType": "struct IController.PermitSignature",
              "name": "signature",
              "type": "tuple"
            }
          ],
          "internalType": "struct IController.ERC20PermitParams[]",
          "name": "permitParamsList",
          "type": "tuple[]"
        },
        {
          "internalType": "uint64",
          "name": "deadline",
          "type": "uint64"
        }
      ],
      "name": "limit",
      "outputs": [
        {
          "internalType": "OrderId[]",
          "name": "ids",
          "type": "uint256[]"
        }
      ],
      "stateMutability": "payable",
      "type": "function"
    },
    {
      "inputs": [
        {
          "internalType": "address",
          "name": "sender",
          "type": "address"
        },
        {
          "internalType": "bytes",
          "name": "data",
          "type": "bytes"
        }
      ],
      "name": "lockAcquired",
      "outputs": [
        {
          "internalType": "bytes",
          "name": "returnData",
          "type": "bytes"
        }
      ],
      "stateMutability": "nonpayable",
      "type": "function"
    },
    {
      "inputs": [
        {
          "components": [
            {
              "internalType": "BookId",
              "name": "id",
              "type": "uint192"
            },
            {
              "internalType": "Tick",
              "name": "tick",
              "type": "int24"
            },
            {
              "internalType": "uint256",
              "name": "quoteAmount",
              "type": "uint256"
            },
            {
              "internalType": "bytes",
              "name": "hookData",
              "type": "bytes"
            }
          ],
          "internalType": "struct IController.MakeOrderParams[]",
          "name": "orderParamsList",
          "type": "tuple[]"
        },
        {
          "internalType": "address[]",
          "name": "tokensToSettle",
          "type": "address[]"
        },
        {
          "components": [
            {
              "internalType": "address",
              "name": "token",
              "type": "address"
            },
            {
              "internalType": "uint256",
              "name": "permitAmount",
              "type": "uint256"
            },
            {
              "components": [
                {
                  "internalType": "uint256",
                  "name": "deadline",
                  "type": "uint256"
                },
                {
                  "internalType": "uint8",
                  "name": "v",
                  "type": "uint8"
                },
                {
                  "internalType": "bytes32",
                  "name": "r",
                  "type": "bytes32"
                },
                {
                  "internalType": "bytes32",
                  "name": "s",
                  "type": "bytes32"
                }
              ],
              "internalType": "struct IController.PermitSignature",
              "name": "signature",
              "type": "tuple"
            }
          ],
          "internalType": "struct IController.ERC20PermitParams[]",
          "name": "permitParamsList",
          "type": "tuple[]"
        },
        {
          "internalType": "uint64",
          "name": "deadline",
          "type": "uint64"
        }
      ],
      "name": "make",
      "outputs": [
        {
          "internalType": "OrderId[]",
          "name": "ids",
          "type": "uint256[]"
        }
      ],
      "stateMutability": "payable",
      "type": "function"
    },
    {
      "inputs": [
        {
          "components": [
            {
              "components": [
                {
                  "internalType": "Currency",
                  "name": "base",
                  "type": "address"
                },
                {
                  "internalType": "uint64",
                  "name": "unit",
                  "type": "uint64"
                },
                {
                  "internalType": "Currency",
                  "name": "quote",
                  "type": "address"
                },
                {
                  "internalType": "FeePolicy",
                  "name": "makerPolicy",
                  "type": "uint24"
                },
                {
                  "internalType": "contract IHooks",
                  "name": "hooks",
                  "type": "address"
                },
                {
                  "internalType": "FeePolicy",
                  "name": "takerPolicy",
                  "type": "uint24"
                }
              ],
              "internalType": "struct IBookManager.BookKey",
              "name": "key",
              "type": "tuple"
            },
            {
              "internalType": "bytes",
              "name": "hookData",
              "type": "bytes"
            }
          ],
          "internalType": "struct IController.OpenBookParams[]",
          "name": "openBookParamsList",
          "type": "tuple[]"
        },
        {
          "internalType": "uint64",
          "name": "deadline",
          "type": "uint64"
        }
      ],
      "name": "open",
      "outputs": [],
      "stateMutability": "nonpayable",
      "type": "function"
    },
    {
      "inputs": [
        {
          "components": [
            {
              "internalType": "BookId",
              "name": "id",
              "type": "uint192"
            },
            {
              "internalType": "uint256",
              "name": "limitPrice",
              "type": "uint256"
            },
            {
              "internalType": "uint256",
              "name": "baseAmount",
              "type": "uint256"
            },
            {
              "internalType": "bytes",
              "name": "hookData",
              "type": "bytes"
            }
          ],
          "internalType": "struct IController.SpendOrderParams[]",
          "name": "orderParamsList",
          "type": "tuple[]"
        },
        {
          "internalType": "address[]",
          "name": "tokensToSettle",
          "type": "address[]"
        },
        {
          "components": [
            {
              "internalType": "address",
              "name": "token",
              "type": "address"
            },
            {
              "internalType": "uint256",
              "name": "permitAmount",
              "type": "uint256"
            },
            {
              "components": [
                {
                  "internalType": "uint256",
                  "name": "deadline",
                  "type": "uint256"
                },
                {
                  "internalType": "uint8",
                  "name": "v",
                  "type": "uint8"
                },
                {
                  "internalType": "bytes32",
                  "name": "r",
                  "type": "bytes32"
                },
                {
                  "internalType": "bytes32",
                  "name": "s",
                  "type": "bytes32"
                }
              ],
              "internalType": "struct IController.PermitSignature",
              "name": "signature",
              "type": "tuple"
            }
          ],
          "internalType": "struct IController.ERC20PermitParams[]",
          "name": "permitParamsList",
          "type": "tuple[]"
        },
        {
          "internalType": "uint64",
          "name": "deadline",
          "type": "uint64"
        }
      ],
      "name": "spend",
      "outputs": [],
      "stateMutability": "payable",
      "type": "function"
    },
    {
      "inputs": [
        {
          "components": [
            {
              "internalType": "BookId",
              "name": "id",
              "type": "uint192"
            },
            {
              "internalType": "uint256",
              "name": "limitPrice",
              "type": "uint256"
            },
            {
              "internalType": "uint256",
              "name": "quoteAmount",
              "type": "uint256"
            },
            {
              "internalType": "bytes",
              "name": "hookData",
              "type": "bytes"
            }
          ],
          "internalType": "struct IController.TakeOrderParams[]",
          "name": "orderParamsList",
          "type": "tuple[]"
        },
        {
          "internalType": "address[]",
          "name": "tokensToSettle",
          "type": "address[]"
        },
        {
          "components": [
            {
              "internalType": "address",
              "name": "token",
              "type": "address"
            },
            {
              "internalType": "uint256",
              "name": "permitAmount",
              "type": "uint256"
            },
            {
              "components": [
                {
                  "internalType": "uint256",
                  "name": "deadline",
                  "type": "uint256"
                },
                {
                  "internalType": "uint8",
                  "name": "v",
                  "type": "uint8"
                },
                {
                  "internalType": "bytes32",
                  "name": "r",
                  "type": "bytes32"
                },
                {
                  "internalType": "bytes32",
                  "name": "s",
                  "type": "bytes32"
                }
              ],
              "internalType": "struct IController.PermitSignature",
              "name": "signature",
              "type": "tuple"
            }
          ],
          "internalType": "struct IController.ERC20PermitParams[]",
          "name": "permitParamsList",
          "type": "tuple[]"
        },
        {
          "internalType": "uint64",
          "name": "deadline",
          "type": "uint64"
        }
      ],
      "name": "take",
      "outputs": [],
      "stateMutability": "payable",
      "type": "function"
    },
    {
      "inputs": [
        {
          "internalType": "Tick",
          "name": "tick",
          "type": "int24"
        }
      ],
      "name": "toPrice",
      "outputs": [
        {
          "internalType": "uint256",
          "name": "",
          "type": "uint256"
        }
      ],
      "stateMutability": "pure",
      "type": "function"
    },
    {
      "stateMutability": "payable",
      "type": "receive"
    }
  ],
  "transactionHash": "0xf3f899be42051643b664641b12968a52f9149b027ef0d68734d93702cddb8167",
  "args": [
    "0xBe84BD49aAf710Cc11FA9675c79D107af8552f17"
  ],
  "numDeployments": 1,
  "solcInputHash": "6d67cda5872fd76f8ff4e0dcae9b6502",
  "bytecode": "0x60a06040523480156200001157600080fd5b50604051620059733803806200597383398101604081905262000034916200004b565b60016000556001600160a01b03166080526200007d565b6000602082840312156200005e57600080fd5b81516001600160a01b03811681146200007657600080fd5b9392505050565b6080516157d0620001a3600039600081816102f1015281816104dc015281816106c10152818161080f0152818161099c01528181610a6801528181610bc901528181610e47015281816110b50152818161147f015281816115480152818161160e015281816118f6015281816119b201528181611da901528181611e3701528181611f1c015281816120d10152818161217601528181612214015281816123260152818161244a015281816124ef0152818161258d015281816126ad015281816127da01528181612858015281816128ff015281816129fe01528181612a8301528181612ac701528181612b5b01528181612bdb01528181612cc701528181612d4501528181612db701528181612e4b01528181612ec3015261365501526157d06000f3fe6080604052600436106100e15760003560e01c8063a04c796b1161007f578063d35f1c4211610059578063d35f1c4214610283578063dea2955314610296578063ef2a846e146102b6578063fe815746146102c957600080fd5b8063a04c796b146101f9578063a183a10414610219578063d09ef2411461023957600080fd5b806350835858116100bb57806350835858146101845780637658ab05146101a45780637d773110146101c45780638feb85b7146101d757600080fd5b806315c7afb4146100ed57806341a8bb8814610123578063483f9f2f1461015157600080fd5b366100e857005b600080fd5b3480156100f957600080fd5b5061010d610108366004613ef0565b6102dc565b60405161011a9190613fd2565b60405180910390f35b34801561012f57600080fd5b5061014361013e366004614019565b61097b565b60405190815260200161011a565b34801561015d57600080fd5b5061017161016c366004614052565b610aed565b60405160029190910b815260200161011a565b34801561019057600080fd5b5061014361019f36600461406b565b610af8565b6101b76101b236600461417b565b610b06565b60405161011a919061427b565b6101b76101d23660046142bf565b610c7b565b3480156101e357600080fd5b506101f76101f236600461436c565b610ef0565b005b34801561020557600080fd5b506101f761021436600461436c565b611142565b34801561022557600080fd5b506101f76102343660046143f5565b6112c4565b34801561024557600080fd5b50610259610254366004614052565b611509565b604080516001600160a01b039095168552602085019390935291830152606082015260800161011a565b6101f76102913660046142bf565b61172f565b3480156102a257600080fd5b506101436102b136600461444b565b611985565b6101f76102c43660046142bf565b611a25565b6101b76102d73660046142bf565b611ba9565b60606102e6611d2f565b336001600160a01b037f00000000000000000000000000000000000000000000000000000000000000001614158061032757506001600160a01b0383163014155b1561035e576040517fc0185c6400000000000000000000000000000000000000000000000000000000815260040160405180910390fd5b6000806000808580602001905181019061037891906145cf565b8251939750919550935091506000816001600160401b0381111561039e5761039e613df5565b6040519080825280602002602001820160405280156103c7578160200160208202803683370190505b5090506000805b838110156109345760008782815181106103ea576103ea6146cc565b6020026020010151905060006006811115610407576104076146e2565b816006811115610419576104196146e2565b0361045857610453878381518110610433576104336146cc565b602002602001015180602001905181019061044e91906147b9565b611d72565b61092b565b600181600681111561046c5761046c6146e2565b0361056a5760006104a8888481518110610488576104886146cc565b60200260200101518060200190518101906104a3919061484d565b611e11565b90508015610564576040516323b872dd60e01b81523060048201526001600160a01b038b81166024830152604482018390527f000000000000000000000000000000000000000000000000000000000000000016906323b872dd90606401600060405180830381600087803b15801561052057600080fd5b505af1158015610534573d6000803e3d6000fd5b5050505080858580610545906148ff565b965081518110610557576105576146cc565b6020026020010181815250505b5061092b565b600281600681111561057e5761057e6146e2565b036105ba5760006104a888848151811061059a5761059a6146cc565b60200260200101518060200190518101906105b59190614918565b611ff4565b60038160068111156105ce576105ce6146e2565b0361060f576106088783815181106105e8576105e86146cc565b60200260200101518060200190518101906106039190614a5f565b6120a9565b505061092b565b6004816006811115610623576106236146e2565b0361065d5761060887838151811061063d5761063d6146cc565b60200260200101518060200190518101906106589190614a5f565b612422565b6005816006811115610671576106716146e2565b036107ab57600087838151811061068a5761068a6146cc565b60200260200101518060200190518101906106a59190614a93565b80516040516331a9108f60e11b815260048101829052919250907f00000000000000000000000000000000000000000000000000000000000000006001600160a01b031690632f584a6d908290636352211e90602401602060405180830381865afa158015610718573d6000803e3d6000fd5b505050506040513d601f19601f8201168201806040525081019061073c9190614aee565b6040516001600160e01b031960e084901b1681526001600160a01b039182166004820152908e1660248201526044810184905260640160006040518083038186803b15801561078a57600080fd5b505afa15801561079e573d6000803e3d6000fd5b50505050610608826127a3565b60068160068111156107bf576107bf6146e2565b036108f95760008783815181106107d8576107d86146cc565b60200260200101518060200190518101906107f39190614b0b565b80516040516331a9108f60e11b815260048101829052919250907f00000000000000000000000000000000000000000000000000000000000000006001600160a01b031690632f584a6d908290636352211e90602401602060405180830381865afa158015610866573d6000803e3d6000fd5b505050506040513d601f19601f8201168201806040525081019061088a9190614aee565b6040516001600160e01b031960e084901b1681526001600160a01b039182166004820152908e1660248201526044810184905260640160006040518083038186803b1580156108d857600080fd5b505afa1580156108ec573d6000803e3d6000fd5b5050505061060882612854565b6040517f4a7f394f00000000000000000000000000000000000000000000000000000000815260040160405180910390fd5b506001016103ce565b5061093f87856129d5565b80825281604051602001610953919061427b565b6040516020818303038152906040529750505050505050506109756001600055565b92915050565b604051639b22917d60e01b81526001600160c01b03831660048201526000907f00000000000000000000000000000000000000000000000000000000000000006001600160a01b031690639b22917d9060240160c060405180830381865afa1580156109eb573d6000803e3d6000fd5b505050506040513d601f19601f82011682018060405250810190610a0f9190614b8b565b602001516040517f41a8bb880000000000000000000000000000000000000000000000000000000081526001600160c01b0385166004820152600284900b60248201526001600160401b03909116906001600160a01b037f000000000000000000000000000000000000000000000000000000000000000016906341a8bb8890604401602060405180830381865afa158015610aaf573d6000803e3d6000fd5b505050506040513d601f19601f82011682018060405250810190610ad39190614ba7565b6001600160401b0316610ae69190614bc4565b9392505050565b6000610975826130de565b60006109758260020b613206565b606081806001600160401b0316421115610b335760405163637910d560e11b815260040160405180910390fd5b8b8a14610b6c576040517f947d5a8400000000000000000000000000000000000000000000000000000000815260040160405180910390fd5b610b76878761350a565b610b808585613611565b6000338e8e8e8e8e8e604051602001610b9f9796959493929190614cbb565b60408051601f19818403018152908290526313942f3360e31b825291506000906001600160a01b037f00000000000000000000000000000000000000000000000000000000000000001690639ca1799890610c009030908690600401614d8c565b6000604051808303816000875af1158015610c1f573d6000803e3d6000fd5b505050506040513d6000823e601f3d908101601f19168201604052610c479190810190614dae565b90508051600014610c695780806020019051810190610c669190614de2565b93505b5050509b9a5050505050505050505050565b606081806001600160401b0316421115610ca85760405163637910d560e11b815260040160405180910390fd5b8484610cb4828261350a565b896000816001600160401b03811115610ccf57610ccf613df5565b604051908082528060200260200182016040528015610cf8578160200160208202803683370190505b5090506000826001600160401b03811115610d1557610d15613df5565b604051908082528060200260200182016040528015610d4857816020015b6060815260200190600190039081610d335790505b50905060005b83811015610e01576001838281518110610d6a57610d6a6146cc565b60200260200101906006811115610d8357610d836146e2565b90816006811115610d9657610d966146e2565b9052508e8e82818110610dab57610dab6146cc565b9050602002810190610dbd9190614e67565b604051602001610dcd9190614e87565b604051602081830303815290604052828281518110610dee57610dee6146cc565b6020908102919091010152600101610d4e565b5060003383838f8f604051602001610e1d959493929190614f7b565b60408051601f19818403018152908290526313942f3360e31b825291506000906001600160a01b037f00000000000000000000000000000000000000000000000000000000000000001690639ca1799890610e7e9030908690600401614d8c565b6000604051808303816000875af1158015610e9d573d6000803e3d6000fd5b505050506040513d6000823e601f3d908101601f19168201604052610ec59190810190614dae565b905080806020019051810190610edb9190614de2565b98505050505050505050979650505050505050565b80806001600160401b0316421115610f1b5760405163637910d560e11b815260040160405180910390fd5b610f258484613611565b866000816001600160401b03811115610f4057610f40613df5565b604051908082528060200260200182016040528015610f69578160200160208202803683370190505b5090506000826001600160401b03811115610f8657610f86613df5565b604051908082528060200260200182016040528015610fb957816020015b6060815260200190600190039081610fa45790505b50905060005b83811015611072576005838281518110610fdb57610fdb6146cc565b60200260200101906006811115610ff457610ff46146e2565b90816006811115611007576110076146e2565b9052508b8b8281811061101c5761101c6146cc565b905060200281019061102e9190614fc4565b60405160200161103e9190614fda565b60405160208183030381529060405282828151811061105f5761105f6146cc565b6020908102919091010152600101610fbf565b5060003383838c8c60405160200161108e959493929190614f7b565b60408051601f19818403018152908290526313942f3360e31b825291506001600160a01b037f00000000000000000000000000000000000000000000000000000000000000001690639ca17998906110ec9030908590600401614d8c565b6000604051808303816000875af115801561110b573d6000803e3d6000fd5b505050506040513d6000823e601f3d908101601f191682016040526111339190810190614dae565b50505050505050505050505050565b80806001600160401b031642111561116d5760405163637910d560e11b815260040160405180910390fd5b6111778484613611565b866000816001600160401b0381111561119257611192613df5565b6040519080825280602002602001820160405280156111bb578160200160208202803683370190505b5090506000826001600160401b038111156111d8576111d8613df5565b60405190808252806020026020018201604052801561120b57816020015b60608152602001906001900390816111f65790505b50905060005b8381101561107257600683828151811061122d5761122d6146cc565b60200260200101906006811115611246576112466146e2565b90816006811115611259576112596146e2565b9052508b8b8281811061126e5761126e6146cc565b90506020028101906112809190615008565b604051602001611290919061501e565b6040516020818303038152906040528282815181106112b1576112b16146cc565b6020908102919091010152600101611211565b80806001600160401b03164211156112ef5760405163637910d560e11b815260040160405180910390fd5b826000816001600160401b0381111561130a5761130a613df5565b604051908082528060200260200182016040528015611333578160200160208202803683370190505b5090506000826001600160401b0381111561135057611350613df5565b60405190808252806020026020018201604052801561138357816020015b606081526020019060019003908161136e5790505b50905060005b8381101561143c5760008382815181106113a5576113a56146cc565b602002602001019060068111156113be576113be6146e2565b908160068111156113d1576113d16146e2565b9052508787828181106113e6576113e66146cc565b90506020028101906113f89190615056565b6040516020016114089190615082565b604051602081830303815290604052828281518110611429576114296146cc565b6020908102919091010152600101611389565b506060600033848484604051602001611458949392919061514a565b60408051601f19818403018152908290526313942f3360e31b825291506001600160a01b037f00000000000000000000000000000000000000000000000000000000000000001690639ca17998906114b69030908590600401614d8c565b6000604051808303816000875af11580156114d5573d6000803e3d6000fd5b505050506040513d6000823e601f3d908101601f191682016040526114fd9190810190614dae565b50505050505050505050565b60008080808080604087901c602888901c604051639b22917d60e01b81526001600160c01b038316600482015291935091506000906001600160a01b037f00000000000000000000000000000000000000000000000000000000000000001690639b22917d9060240160c060405180830381865afa15801561158f573d6000803e3d6000fd5b505050506040513d601f19601f820116820180604052508101906115b39190614b8b565b60208101519091506001600160401b03166115d1600284900b613206565b6040517fd09ef241000000000000000000000000000000000000000000000000000000008152600481018b90529097506000906001600160a01b037f0000000000000000000000000000000000000000000000000000000000000000169063d09ef24190602401606060405180830381865afa158015611655573d6000803e3d6000fd5b505050506040513d601f19601f8201168201806040525081019061167991906151ca565b80516020820151909a50909150611699906001600160401b031683614bc4565b60608401516040830151919850906116cb906116be906001600160401b031685614bc4565b600287900b90600061372d565b96506116dc8162ffffff1660171c90565b6117225760006116f262ffffff83168983613758565b905060008113611714576117058161521e565b61170f908961523a565b61171e565b61171e818961524d565b9750505b5050505050509193509193565b80806001600160401b031642111561175a5760405163637910d560e11b815260040160405180910390fd5b8383611766828261350a565b886000816001600160401b0381111561178157611781613df5565b6040519080825280602002602001820160405280156117aa578160200160208202803683370190505b5090506000826001600160401b038111156117c7576117c7613df5565b6040519080825280602002602001820160405280156117fa57816020015b60608152602001906001900390816117e55790505b50905060005b838110156118b357600483828151811061181c5761181c6146cc565b60200260200101906006811115611835576118356146e2565b90816006811115611848576118486146e2565b9052508d8d8281811061185d5761185d6146cc565b905060200281019061186f9190614e67565b60405160200161187f91906152b0565b6040516020818303038152906040528282815181106118a0576118a06146cc565b6020908102919091010152600101611800565b5060003383838e8e6040516020016118cf959493929190614f7b565b60408051601f19818403018152908290526313942f3360e31b825291506001600160a01b037f00000000000000000000000000000000000000000000000000000000000000001690639ca179989061192d9030908590600401614d8c565b6000604051808303816000875af115801561194c573d6000803e3d6000fd5b505050506040513d6000823e601f3d908101601f191682016040526119749190810190614dae565b505050505050505050505050505050565b604051633d982e2160e11b81526001600160c01b0382166004820152600090610975906001600160a01b037f00000000000000000000000000000000000000000000000000000000000000001690637b305c4290602401602060405180830381865afa1580156119f9573d6000803e3d6000fd5b505050506040513d601f19601f82011682018060405250810190611a1d91906152c3565b60020b613206565b80806001600160401b0316421115611a505760405163637910d560e11b815260040160405180910390fd5b8383611a5c828261350a565b886000816001600160401b03811115611a7757611a77613df5565b604051908082528060200260200182016040528015611aa0578160200160208202803683370190505b5090506000826001600160401b03811115611abd57611abd613df5565b604051908082528060200260200182016040528015611af057816020015b6060815260200190600190039081611adb5790505b50905060005b838110156118b3576003838281518110611b1257611b126146cc565b60200260200101906006811115611b2b57611b2b6146e2565b90816006811115611b3e57611b3e6146e2565b9052508d8d82818110611b5357611b536146cc565b9050602002810190611b659190614e67565b604051602001611b7591906152b0565b604051602081830303815290604052828281518110611b9657611b966146cc565b6020908102919091010152600101611af6565b606081806001600160401b0316421115611bd65760405163637910d560e11b815260040160405180910390fd5b8484611be2828261350a565b896000816001600160401b03811115611bfd57611bfd613df5565b604051908082528060200260200182016040528015611c26578160200160208202803683370190505b5090506000826001600160401b03811115611c4357611c43613df5565b604051908082528060200260200182016040528015611c7657816020015b6060815260200190600190039081611c615790505b50905060005b83811015610e01576002838281518110611c9857611c986146cc565b60200260200101906006811115611cb157611cb16146e2565b90816006811115611cc457611cc46146e2565b9052508e8e82818110611cd957611cd96146cc565b9050602002810190611ceb9190615056565b604051602001611cfb91906152e0565b604051602081830303815290604052828281518110611d1c57611d1c6146cc565b6020908102919091010152600101611c7c565b600260005403611d6b576040517f3ee5aeb500000000000000000000000000000000000000000000000000000000815260040160405180910390fd5b6002600055565b805160208201516040517ffefc7c510000000000000000000000000000000000000000000000000000000081526001600160a01b037f0000000000000000000000000000000000000000000000000000000000000000169263fefc7c5192611ddc92600401615399565b600060405180830381600087803b158015611df657600080fd5b505af1158015611e0a573d6000803e3d6000fd5b5050505050565b8051604051639b22917d60e01b81526001600160c01b03909116600482015260009081907f00000000000000000000000000000000000000000000000000000000000000006001600160a01b031690639b22917d9060240160c060405180830381865afa158015611e86573d6000803e3d6000fd5b505050506040513d601f19601f82011682018060405250810190611eaa9190614b8b565b9050600083604001519050611ec8826060015162ffffff1660171c90565b15611ee6576060820151611ee39062ffffff168260006137db565b90505b6000611f0983602001516001600160401b031683611f049190615427565b613832565b90506001600160401b03811615611fec577f00000000000000000000000000000000000000000000000000000000000000006001600160a01b0316631dbef4886040518060800160405280868152602001886020015160020b8152602001846001600160401b0316815260200160006001600160a01b031681525087606001516040518363ffffffff1660e01b8152600401611fa692919061543b565b60408051808303816000875af1158015611fc4573d6000803e3d6000fd5b505050506040513d601f19601f82011682018060405250810190611fe891906154ea565b5093505b505050919050565b600080612039604051806080016040528085600001516001600160c01b0316815260200185604001518152602001856080015181526020018560a00151815250612422565b915050808360800181815161204e919061524d565b9052506080830151156120a3576120a0604051806080016040528085602001516001600160c01b03168152602001856060015160020b8152602001856080015181526020018560c00151815250611e11565b91505b50919050565b8051604051639b22917d60e01b81526001600160c01b039091166004820152600090819081907f00000000000000000000000000000000000000000000000000000000000000006001600160a01b031690639b22917d9060240160c060405180830381865afa158015612120573d6000803e3d6000fd5b505050506040513d601f19601f820116820180604052508101906121449190614b8b565b90505b8284604001511180156121eb5750835160405163fcc8fc9b60e01b81526001600160c01b0390911660048201527f00000000000000000000000000000000000000000000000000000000000000006001600160a01b03169063fcc8fc9b90602401602060405180830381865afa1580156121c5573d6000803e3d6000fd5b505050506040513d601f19601f820116820180604052508101906121e9919061550e565b155b1561241c578351604051633d982e2160e11b81526001600160c01b0390911660048201526000907f00000000000000000000000000000000000000000000000000000000000000006001600160a01b031690637b305c4290602401602060405180830381865afa158015612263573d6000803e3d6000fd5b505050506040513d601f19601f8201168201806040525081019061228791906152c3565b90506122958160020b613206565b856020015110156122a6575061241c565b60006122bb8360a0015162ffffff1660171c90565b156122ec576122e58587604001510360018560a0015162ffffff166137db9092919063ffffffff16565b90506122f6565b8486604001510390505b60208301516001600160401b031680820490820615156001160190508060000361232157505061241c565b6000807f00000000000000000000000000000000000000000000000000000000000000006001600160a01b0316633b9500b060405180606001604052808881526020018760020b815260200161237687613832565b6001600160401b03168152508a606001516040518363ffffffff1660e01b81526004016123a4929190615530565b60408051808303816000875af11580156123c2573d6000803e3d6000fd5b505050506040513d601f19601f820116820180604052508101906123e691906154ea565b91509150816000036123fb575050505061241c565b612405828861523a565b9650612411818761523a565b955050505050612147565b50915091565b8051604051639b22917d60e01b81526001600160c01b039091166004820152600090819081907f00000000000000000000000000000000000000000000000000000000000000006001600160a01b031690639b22917d9060240160c060405180830381865afa158015612499573d6000803e3d6000fd5b505050506040513d601f19601f820116820180604052508101906124bd9190614b8b565b90505b8360400151821080156125645750835160405163fcc8fc9b60e01b81526001600160c01b0390911660048201527f00000000000000000000000000000000000000000000000000000000000000006001600160a01b03169063fcc8fc9b90602401602060405180830381865afa15801561253e573d6000803e3d6000fd5b505050506040513d601f19601f82011682018060405250810190612562919061550e565b155b1561241c578351604051633d982e2160e11b81526001600160c01b0390911660048201526000907f00000000000000000000000000000000000000000000000000000000000000006001600160a01b031690637b305c4290602401602060405180830381865afa1580156125dc573d6000803e3d6000fd5b505050506040513d601f19601f8201168201806040525081019061260091906152c3565b905061260e8160020b613206565b8560200151101561261f575061241c565b60006126348360a0015162ffffff1660171c90565b156126475783866040015103905061266f565b61266c8487604001510360008560a0015162ffffff166137db9092919063ffffffff16565b90505b60208301516001600160401b031661268d600284900b83600061388a565b6126979190615427565b9050806000036126a857505061241c565b6000807f00000000000000000000000000000000000000000000000000000000000000006001600160a01b0316633b9500b060405180606001604052808881526020018760020b81526020016126fd87613832565b6001600160401b03168152508a606001516040518363ffffffff1660e01b815260040161272b929190615530565b60408051808303816000875af1158015612749573d6000803e3d6000fd5b505050506040513d601f19601f8201168201806040525081019061276d91906154ea565b9150915080600003612782575050505061241c565b61278c828861523a565b9650612798818761523a565b9550505050506124c0565b805160208201516040517f38926b6d0000000000000000000000000000000000000000000000000000000081526001600160a01b037f000000000000000000000000000000000000000000000000000000000000000016926338926b6d9261280d926004016155cb565b6020604051808303816000875af115801561282c573d6000803e3d6000fd5b505050506040513d601f19601f8201168201806040525081019061285091906155e4565b5050565b60007f00000000000000000000000000000000000000000000000000000000000000006001600160a01b0316639b22917d612893846000015160401c90565b6040516001600160e01b031960e084901b1681526001600160c01b03909116600482015260240160c060405180830381865afa1580156128d7573d6000803e3d6000fd5b505050506040513d601f19601f820116820180604052508101906128fb9190614b8b565b90507f00000000000000000000000000000000000000000000000000000000000000006001600160a01b03166314d6a9eb60405180604001604052808560000151815260200161296185602001516001600160401b03168760200151611f049190615427565b6001600160401b031681525084604001516040518363ffffffff1660e01b815260040161298f9291906155fd565b6020604051808303816000875af19250505080156129ca575060408051601f3d908101601f191682019092526129c7918101906155e4565b60015b15612850575b505050565b60405163a54b283160e01b81523060048201526000602482018190529081906001600160a01b037f0000000000000000000000000000000000000000000000000000000000000000169063a54b283190604401602060405180830381865afa158015612a45573d6000803e3d6000fd5b505050506040513d601f19601f82011682018060405250810190612a6991906155e4565b90506000811315612b3657612aa86001600160a01b0383167f0000000000000000000000000000000000000000000000000000000000000000836138d5565b604051636a256b2960e01b81526001600160a01b0383811660048301527f00000000000000000000000000000000000000000000000000000000000000001690636a256b29906024016020604051808303816000875af1158015612b10573d6000803e3d6000fd5b505050506040513d601f19601f82011682018060405250810190612b3491906155e4565b505b60405163a54b283160e01b81523060048201526001600160a01b0383811660248301527f0000000000000000000000000000000000000000000000000000000000000000169063a54b283190604401602060405180830381865afa158015612ba2573d6000803e3d6000fd5b505050506040513d601f19601f82011682018060405250810190612bc691906155e4565b90506000811215612c73576001600160a01b037f00000000000000000000000000000000000000000000000000000000000000001663d9caed128386612c0b8561521e565b6040516001600160e01b031960e086901b1681526001600160a01b0393841660048201529290911660248301526044820152606401600060405180830381600087803b158015612c5a57600080fd5b505af1158015612c6e573d6000803e3d6000fd5b505050505b825160005b818110156130c3576000858281518110612c9457612c946146cc565b602090810291909101015160405163a54b283160e01b81523060048201526001600160a01b0380831660248301529192507f00000000000000000000000000000000000000000000000000000000000000009091169063a54b283190604401602060405180830381865afa158015612d10573d6000803e3d6000fd5b505050506040513d601f19601f82011682018060405250810190612d3491906155e4565b93506000841315612e2657612d98877f000000000000000000000000000000000000000000000000000000000000000086898681518110612d7757612d776146cc565b60200260200101516001600160a01b03166139aa909392919063ffffffff16565b604051636a256b2960e01b81526001600160a01b0382811660048301527f00000000000000000000000000000000000000000000000000000000000000001690636a256b29906024016020604051808303816000875af1158015612e00573d6000803e3d6000fd5b505050506040513d601f19601f82011682018060405250810190612e2491906155e4565b505b60405163a54b283160e01b81523060048201526001600160a01b0382811660248301527f0000000000000000000000000000000000000000000000000000000000000000169063a54b283190604401602060405180830381865afa158015612e92573d6000803e3d6000fd5b505050506040513d601f19601f82011682018060405250810190612eb691906155e4565b93506000841215612f7d577f00000000000000000000000000000000000000000000000000000000000000006001600160a01b031663d9caed12878481518110612f0257612f026146cc565b60200260200101518987612f159061521e565b6040516001600160e01b031960e086901b1681526001600160a01b0393841660048201529290911660248301526044820152606401600060405180830381600087803b158015612f6457600080fd5b505af1158015612f78573d6000803e3d6000fd5b505050505b6000868381518110612f9157612f916146cc565b60209081029190910101516040517f70a082310000000000000000000000000000000000000000000000000000000081523060048201526001600160a01b03909116906370a0823190602401602060405180830381865afa158015612ffa573d6000803e3d6000fd5b505050506040513d601f19601f8201168201806040525081019061301e91906155e4565b905080156130b957868381518110613038576130386146cc565b602090810291909101015160405163a9059cbb60e01b81526001600160a01b038a81166004830152602482018490529091169063a9059cbb906044016020604051808303816000875af1158015613093573d6000803e3d6000fd5b505050506040513d601f19601f820116820180604052508101906130b7919061550e565b505b5050600101612c78565b504715611e0a57611e0a6001600160a01b03841686476138d5565b600081790c6c127c88125cebb2bdb677f331363f32cf19fe80d4d1220a2781118061310f575066149bbbfa13177281105b15613145576040517ebfc92100000000000000000000000000000000000000000000000000000000815260040160405180910390fd5b600061315084613a19565b9050600061316d6e097451d28210c583bbf7279ff89c718361562a565b905060006e097451d28210c583bbf7279ff89c71608087901c1561319b576911d069599f549a28ce716131ac565b6e097451d28210c583bbf7279ff89c6f5b6131c7906effffffffffffffffffffffffffffff1685615658565b6131d1919061562a565b90508082036131e4575092506120a39050565b856131ee83613206565b116131fd575092506120a39050565b95945050505050565b600061321182613b42565b816000600282900b8113613225578161322e565b61322e8261567f565b62ffffff8116915060011615613256576ffff97272373d413259a46990580e2139925061326b565b70010000000000000000000000000000000092505b600281161561328e5760806ffff2e50f5f656932ef12357cf3c7fdcb8402901c92505b60048116156132b15760806fffe5caca7e10e4e61c3624eaa0941ccf8402901c92505b60088116156132d45760806fffcb9843d60f6159c9db58835c9266438402901c92505b60108116156132f75760806fff973b41fa98c081472e6896dfb254bf8402901c92505b602081161561331a5760806fff2ea16466c96a3843ec78b326b528608402901c92505b604081161561333d5760806ffe5dee046a99a2a811c461f1969c30528402901c92505b60808116156133605760806ffcbe86c7900a88aedcffc83b479aa3a38402901c92505b6101008116156133845760806ff987a7253ac413176f2b074cf7815e538402901c92505b6102008116156133a85760806ff3392b0822b70005940c7a398e4b70f28402901c92505b6104008116156133cc5760806fe7159475a2c29b7443b29c7fa6e889d88402901c92505b6108008116156133f05760806fd097f3bdfd2022b8845ad8f792aa58258402901c92505b6110008116156134145760806fa9f746462d870fdf8a65dc1f90e061e48402901c92505b6120008116156134385760806f70d869a156d2a1b890bb3df62baf32f68402901c92505b61400081161561345c5760806f31be135f97d08fd981231505542fcfa58402901c92505b6180008116156134805760806f09aa508b5b7a84e1c677de54f3e99bc88402901c92505b620100008116156134a45760806e5d6af8dedb81196699c329225ee6048402901c92505b620200008116156134c75760806d2216e584f5fa1ea926041bedfe978402901c92505b620400008116156134e85760806b048a170391f7dc42444e8fa28402901c92505b60008260020b13156135035761350083600019615427565b92505b5050919050565b60005b818110156129d0576000838383818110613529576135296146cc565b905060c0020180360381019061353f91906156f6565b604081015151909150156136085780516020808301516040808501518051938101518183015160609092015192517fd505accf0000000000000000000000000000000000000000000000000000000081523360048201523060248201526044810194909452606484019490945260ff909316608483015260a482019290925260c48101919091526001600160a01b039091169063d505accf9060e401600060405180830381600087803b1580156135f557600080fd5b505af1925050508015613606575060015b505b5060010161350d565b60005b818110156129d0576000838383818110613630576136306146cc565b905060a002016020018036038101906136499190615734565b805190915015613724577f00000000000000000000000000000000000000000000000000000000000000006001600160a01b0316637ac2ff7b30868686818110613695576136956146cc565b865160208801516040808a015160608b015191516001600160e01b031960e08b901b1681526001600160a01b03909816600489015260a090940295909501356024870152604486019190915260ff16606485015260848401525060a482015260c401600060405180830381600087803b15801561371157600080fd5b505af1925050508015613722575060015b505b50600101613614565b6000613750608084901b6137438660020b613206565b8082061515851691040190565b949350505050565b60006207a11f19627fffff851601600281900b8212828161377c578260000361377e565b825b62ffffff16905060006137b86137948389614bc4565b620f4240886137aa578581830615151691040190565b808206151586151691040190565b9050826137cd576137c88161521e565b6137cf565b805b98975050505050505050565b60006207a11f19627fffff851601600281900b82128284156137fe578260000392505b82620f4240019050613827620f4240876138189190614bc4565b82810615158416908390040190565b979650505050505050565b60006001600160401b0382111561388657604080517f6dfcc6500000000000000000000000000000000000000000000000000000000081526004810191909152602481018390526044015b60405180910390fd5b5090565b600061375061389b8560020b613206565b6138a59085614bc4565b6fffffffffffffffffffffffffffffffff8116151584167001000000000000000000000000000000009091040190565b60006001600160a01b03841661392d5760008060008085875af1905080613928576040517ff4b3b1bc00000000000000000000000000000000000000000000000000000000815260040160405180910390fd5b6139a4565b60405163a9059cbb60e01b81526001600160a01b0384166004820152826024820152602060006044836000895af13d15601f3d11600160005114161716915050806139a4576040517ff27f64e400000000000000000000000000000000000000000000000000000000815260040160405180910390fd5b50505050565b604080516001600160a01b0385811660248301528416604482015260648082018490528251808303909101815260849091019091526020810180517bffffffffffffffffffffffffffffffffffffffffffffffffffffffff166323b872dd60e01b1790526139a4908590613ba1565b6000808211613a2757600080fd5b6000613a3283613c1d565b905060808160ff161115613a5857613a4b608082615750565b60ff1683901c9250613a78565b60808160ff161015613a7857613a6f816080615750565b60ff1683901b92505b6fffffffffffffffffffffffffffffffff929092169160006080613a9f8160ff8516615658565b901b90506001607f1b60005b60808160ff16108015613abe5750600086115b15613b38576080613acf8780614bc4565b613add906001607f1b61523a565b613aec911c600188901b61523a565b95506fffffffffffffffffffffffffffffffff861115613b1f5791811791613b1c6001607f1b600188901c61524d565b95505b60019190911d9080613b3081615769565b915050613aab565b5090949350505050565b6207ffff600282900b1380613b675750613b5e6207ffff61567f565b60020b8160020b125b15613b9e576040517fce8ef7fc00000000000000000000000000000000000000000000000000000000815260040160405180910390fd5b50565b6000613bb66001600160a01b03841683613ca7565b90508051600014158015613bdb575080806020019051810190613bd9919061550e565b155b156129d0576040517f5274afe70000000000000000000000000000000000000000000000000000000081526001600160a01b038416600482015260240161387d565b6000808211613c2b57600080fd5b5060016fffffffffffffffffffffffffffffffff821160071b91821c6001600160401b03811160061b90811c63ffffffff811160051b90811c61ffff811160041b90811c60ff8111600390811b91821c600f811160021b90811c918211871b91821c969096119490961792909217171791909117919091171790565b6060610ae68383600084600080856001600160a01b03168486604051613ccd9190615788565b60006040518083038185875af1925050503d8060008114613d0a576040519150601f19603f3d011682016040523d82523d6000602084013e613d0f565b606091505b5091509150613d1f868383613d29565b9695505050505050565b606082613d3e57613d3982613d9e565b610ae6565b8151158015613d5557506001600160a01b0384163b155b15613d97576040517f9996b3150000000000000000000000000000000000000000000000000000000081526001600160a01b038516600482015260240161387d565b5080610ae6565b805115613dae5780518082602001fd5b6040517f1425ea4200000000000000000000000000000000000000000000000000000000815260040160405180910390fd5b6001600160a01b0381168114613b9e57600080fd5b634e487b7160e01b600052604160045260246000fd5b604080519081016001600160401b0381118282101715613e2d57613e2d613df5565b60405290565b604051608081016001600160401b0381118282101715613e2d57613e2d613df5565b60405160e081016001600160401b0381118282101715613e2d57613e2d613df5565b604051606081016001600160401b0381118282101715613e2d57613e2d613df5565b604051601f8201601f191681016001600160401b0381118282101715613ec157613ec1613df5565b604052919050565b60006001600160401b03821115613ee257613ee2613df5565b50601f01601f191660200190565b60008060408385031215613f0357600080fd5b8235613f0e81613de0565b915060208301356001600160401b03811115613f2957600080fd5b8301601f81018513613f3a57600080fd5b8035613f4d613f4882613ec9565b613e99565b818152866020838501011115613f6257600080fd5b816020840160208301376000602083830101528093505050509250929050565b60005b83811015613f9d578181015183820152602001613f85565b50506000910152565b60008151808452613fbe816020860160208601613f82565b601f01601f19169290920160200192915050565b602081526000610ae66020830184613fa6565b6001600160c01b0381168114613b9e57600080fd5b8060020b8114613b9e57600080fd5b803561401481613ffa565b919050565b6000806040838503121561402c57600080fd5b823561403781613fe5565b9150602083013561404781613ffa565b809150509250929050565b60006020828403121561406457600080fd5b5035919050565b60006020828403121561407d57600080fd5b8135610ae681613ffa565b60008083601f84011261409a57600080fd5b5081356001600160401b038111156140b157600080fd5b6020830191508360208260051b85010111156140cc57600080fd5b9250929050565b60008083601f8401126140e557600080fd5b5081356001600160401b038111156140fc57600080fd5b60208301915083602060c0830285010111156140cc57600080fd5b60008083601f84011261412957600080fd5b5081356001600160401b0381111561414057600080fd5b60208301915083602060a0830285010111156140cc57600080fd5b6001600160401b0381168114613b9e57600080fd5b80356140148161415b565b600080600080600080600080600080600060c08c8e03121561419c57600080fd5b6001600160401b03808d3511156141b257600080fd5b6141bf8e8e358f01614088565b909c509a5060208d01358110156141d557600080fd5b6141e58e60208f01358f01614088565b909a50985060408d01358110156141fb57600080fd5b61420b8e60408f01358f01614088565b909850965060608d013581101561422157600080fd5b6142318e60608f01358f016140d3565b909650945060808d013581101561424757600080fd5b506142588d60808e01358e01614117565b909350915061426960a08d01614170565b90509295989b509295989b9093969950565b6020808252825182820181905260009190848201906040850190845b818110156142b357835183529284019291840191600101614297565b50909695505050505050565b60008060008060008060006080888a0312156142da57600080fd5b87356001600160401b03808211156142f157600080fd5b6142fd8b838c01614088565b909950975060208a013591508082111561431657600080fd5b6143228b838c01614088565b909750955060408a013591508082111561433b57600080fd5b506143488a828b016140d3565b909450925050606088013561435c8161415b565b8091505092959891949750929550565b60008060008060008060006080888a03121561438757600080fd5b87356001600160401b038082111561439e57600080fd5b6143aa8b838c01614088565b909950975060208a01359150808211156143c357600080fd5b6143cf8b838c01614088565b909750955060408a01359150808211156143e857600080fd5b506143488a828b01614117565b60008060006040848603121561440a57600080fd5b83356001600160401b0381111561442057600080fd5b61442c86828701614088565b90945092505060208401356144408161415b565b809150509250925092565b60006020828403121561445d57600080fd5b8135610ae681613fe5565b60006001600160401b0382111561448157614481613df5565b5060051b60200190565b60078110613b9e57600080fd5b600082601f8301126144a957600080fd5b81516144b7613f4882613ec9565b8181528460208386010111156144cc57600080fd5b613750826020830160208701613f82565b600082601f8301126144ee57600080fd5b815160206144fe613f4883614468565b82815260059290921b8401810191818101908684111561451d57600080fd5b8286015b8481101561455c5780516001600160401b038111156145405760008081fd5b61454e8986838b0101614498565b845250918301918301614521565b509695505050505050565b600082601f83011261457857600080fd5b81516020614588613f4883614468565b8083825260208201915060208460051b8701019350868411156145aa57600080fd5b602086015b8481101561455c5780516145c281613de0565b83529183019183016145af565b600080600080608085870312156145e557600080fd5b84516145f081613de0565b809450506020808601516001600160401b038082111561460f57600080fd5b818801915088601f83011261462357600080fd5b8151614631613f4882614468565b81815260059190911b8301840190848101908b83111561465057600080fd5b938501935b828510156146775784516146688161448b565b82529385019390850190614655565b60408b0151909850945050508083111561469057600080fd5b61469c89848a016144dd565b945060608801519250808311156146b257600080fd5b50506146c087828801614567565b91505092959194509250565b634e487b7160e01b600052603260045260246000fd5b634e487b7160e01b600052602160045260246000fd5b62ffffff81168114613b9e57600080fd5b600060c0828403121561471b57600080fd5b60405160c081018181106001600160401b038211171561473d5761473d613df5565b8060405250809150825161475081613de0565b815260208301516147608161415b565b6020820152604083015161477381613de0565b60408201526060830151614786816146f8565b6060820152608083015161479981613de0565b608082015260a08301516147ac816146f8565b60a0919091015292915050565b6000602082840312156147cb57600080fd5b81516001600160401b03808211156147e257600080fd5b9083019060e082860312156147f657600080fd5b6147fe613e0b565b6148088684614709565b815260c08301518281111561481c57600080fd5b61482887828601614498565b60208301525095945050505050565b805161401481613fe5565b805161401481613ffa565b60006020828403121561485f57600080fd5b81516001600160401b038082111561487657600080fd5b908301906080828603121561488a57600080fd5b614892613e33565b825161489d81613fe5565b815260208301516148ad81613ffa565b6020820152604083810151908201526060830151828111156148ce57600080fd5b6148da87828601614498565b60608301525095945050505050565b634e487b7160e01b600052601160045260246000fd5b600060018201614911576149116148e9565b5060010190565b60006020828403121561492a57600080fd5b81516001600160401b038082111561494157600080fd5b9083019060e0828603121561495557600080fd5b61495d613e55565b61496683614837565b815261497460208401614837565b60208201526040830151604082015261498f60608401614842565b60608201526080830151608082015260a0830151828111156149b057600080fd5b6149bc87828601614498565b60a08301525060c0830151828111156149d457600080fd5b6149e087828601614498565b60c08301525095945050505050565b600060808284031215614a0157600080fd5b614a09613e33565b90508151614a1681613fe5565b80825250602082015160208201526040820151604082015260608201516001600160401b03811115614a4757600080fd5b614a5384828501614498565b60608301525092915050565b600060208284031215614a7157600080fd5b81516001600160401b03811115614a8757600080fd5b613750848285016149ef565b600060208284031215614aa557600080fd5b81516001600160401b0380821115614abc57600080fd5b9083019060408286031215614ad057600080fd5b614ad8613e0b565b8251815260208301518281111561481c57600080fd5b600060208284031215614b0057600080fd5b8151610ae681613de0565b600060208284031215614b1d57600080fd5b81516001600160401b0380821115614b3457600080fd5b9083019060608286031215614b4857600080fd5b614b50613e77565b8251815260208301516020820152604083015182811115614b7057600080fd5b614b7c87828601614498565b60408301525095945050505050565b600060c08284031215614b9d57600080fd5b610ae68383614709565b600060208284031215614bb957600080fd5b8151610ae68161415b565b8082028115828204841417610975576109756148e9565b600060078210614bfb57634e487b7160e01b600052602160045260246000fd5b50815260200190565b81835281816020850137506000828201602090810191909152601f909101601f19169091010190565b6000808335601e19843603018112614c4457600080fd5b83016020810192503590506001600160401b03811115614c6357600080fd5b8036038213156140cc57600080fd5b8183526000602080850194508260005b85811015614cb0578135614c9581613de0565b6001600160a01b031687529582019590820190600101614c82565b509495945050505050565b6001600160a01b038816815260806020808301829052908201879052600090889060a08401835b8a811015614d0e578335614cf58161448b565b614cff8382614bdb565b94840194925050600101614ce2565b5084810360408601528781528181019250600588901b810182018960005b8a811015614d6657838303601f19018652614d47828d614c2d565b614d52858284614c04565b978701979450505090840190600101614d2c565b50508581036060870152614d7b81888a614c72565b9d9c50505050505050505050505050565b6001600160a01b03831681526040602082015260006137506040830184613fa6565b600060208284031215614dc057600080fd5b81516001600160401b03811115614dd657600080fd5b61375084828501614498565b60006020808385031215614df557600080fd5b82516001600160401b03811115614e0b57600080fd5b8301601f81018513614e1c57600080fd5b8051614e2a613f4882614468565b81815260059190911b82018301908381019087831115614e4957600080fd5b928401925b8284101561382757835182529284019290840190614e4e565b60008235607e19833603018112614e7d57600080fd5b9190910192915050565b6020815260008235614e9881613fe5565b6001600160c01b0381166020840152506020830135614eb681613ffa565b8060020b60408401525060408301356060830152614ed76060840184614c2d565b6080808501526131fd60a085018284614c04565b60008151808452602080850194506020840160005b83811015614cb057614f13878351614bdb565b965090820190600101614f00565b60008282518085526020808601955060208260051b8401016020860160005b84811015614f6e57601f19868403018952614f5c838351613fa6565b98840198925090830190600101614f40565b5090979650505050505050565b6001600160a01b0386168152608060208201526000614f9d6080830187614eeb565b8281036040840152614faf8187614f21565b905082810360608401526137cf818587614c72565b60008235603e19833603018112614e7d57600080fd5b60208152813560208201526000614ff46020840184614c2d565b6040808501526131fd606085018284614c04565b60008235605e19833603018112614e7d57600080fd5b60208152813560208201526020820135604082015260006150426040840184614c2d565b6060808501526131fd608085018284614c04565b6000823560de19833603018112614e7d57600080fd5b8035614014816146f8565b803561401481613de0565b602081526000823561509381613de0565b6001600160a01b038082166020850152602085013591506150b38261415b565b6001600160401b0382166040850152604085013591506150d282613de0565b166060838101919091528301356150e8816146f8565b62ffffff811660808401525061510060808401615077565b6001600160a01b03811660a08401525061511c60a0840161506c565b62ffffff811660c08401525061513560c0840184614c2d565b60e0808501526131fd61010085018284614c04565b60006001600160a01b03808716835260206080602085015261516f6080850188614eeb565b84810360408601526151818188614f21565b85810360608701528651808252602080890193509091019060005b818110156151ba57835186168352928401929184019160010161519c565b50909a9950505050505050505050565b6000606082840312156151dc57600080fd5b6151e4613e77565b82516151ef81613de0565b815260208301516151ff8161415b565b602082015260408301516152128161415b565b60408201529392505050565b6000600160ff1b8203615233576152336148e9565b5060000390565b80820180821115610975576109756148e9565b81810381811115610975576109756148e9565b6000813561526d81613fe5565b6001600160c01b038116845250602082013560208401526040820135604084015261529b6060830183614c2d565b608060608601526131fd608086018284614c04565b602081526000610ae66020830184615260565b6000602082840312156152d557600080fd5b8151610ae681613ffa565b60208152600082356152f181613fe5565b6001600160c01b038116602084015250602083013561530f81613fe5565b6001600160c01b0381166040840152506040830135606083015261533560608401614009565b615344608084018260020b9052565b50608083013560a083015261535c60a0840184614c2d565b60e060c085015261537261010085018284614c04565b91505061538260c0850185614c2d565b848303601f190160e0860152613d1f838284614c04565b6153fb81846001600160a01b038082511683526001600160401b036020830151166020840152806040830151166040840152606082015162ffffff80821660608601528260808501511660808601528060a08501511660a08601525050505050565b60e060c0820152600061375060e0830184613fa6565b634e487b7160e01b600052601260045260246000fd5b60008261543657615436615411565b500490565b60006101406154a38386516001600160a01b038082511683526001600160401b036020830151166020840152806040830151166040840152606082015162ffffff80821660608601528260808501511660808601528060a08501511660a08601525050505050565b602085015160020b60c08401526001600160401b0360408601511660e08401526001600160a01b03606086015116610100840152806101208401526131fd81840185613fa6565b600080604083850312156154fd57600080fd5b505080516020909101519092909150565b60006020828403121561552057600080fd5b81518015158114610ae657600080fd5b60006101206155988386516001600160a01b038082511683526001600160401b036020830151166020840152806040830151166040840152606082015162ffffff80821660608601528260808501511660808601528060a08501511660a08601525050505050565b602085015160020b60c08401526001600160401b0360408601511660e0840152806101008401526131fd81840185613fa6565b8281526040602082015260006137506040830184613fa6565b6000602082840312156155f657600080fd5b5051919050565b825181526001600160401b0360208401511660208201526060604082015260006137506060830184613fa6565b60008261563957615639615411565b600160ff1b821460001984141615615653576156536148e9565b500590565b8181036000831280158383131683831282161715615678576156786148e9565b5092915050565b60008160020b627fffff198103615698576156986148e9565b60000392915050565b6000608082840312156156b357600080fd5b6156bb613e33565b905081358152602082013560ff811681146156d557600080fd5b80602083015250604082013560408201526060820135606082015292915050565b600060c0828403121561570857600080fd5b615710613e77565b823561571b81613de0565b81526020838101359082015261521284604085016156a1565b60006080828403121561574657600080fd5b610ae683836156a1565b60ff8281168282160390811115610975576109756148e9565b600060ff821660ff810361577f5761577f6148e9565b60010192915050565b60008251614e7d818460208701613f8256fea26469706673582212209ea403c9537d17bbc2cb65b102db52d4bada65dbd1c53c92c9ad82e06365594264736f6c63430008180033",
  "devdoc": {
    "errors": {
      "AddressEmptyCode(address)": [
        {
          "details": "There's no code at `target` (it is not a contract)."
        }
      ],
      "AddressInsufficientBalance(address)": [
        {
          "details": "The ETH balance of the account is not enough to perform the operation."
        }
      ],
      "FailedInnerCall()": [
        {
          "details": "A call to an address target failed. The target may have reverted."
        }
      ],
      "ReentrancyGuardReentrantCall()": [
        {
          "details": "Unauthorized reentrant call."
        }
      ],
      "SafeCastOverflowedUintDowncast(uint8,uint256)": [
        {
          "details": "Value doesn't fit in an uint of `bits` size."
        }
      ],
      "SafeERC20FailedOperation(address)": [
        {
          "details": "An operation with an ERC20 token failed."
        }
      ]
    },
    "kind": "dev",
    "methods": {},
    "version": 1
  },
  "userdoc": {
    "errors": {
      "ERC20TransferFailed()": [
        {
          "notice": "Thrown when an ERC20 transfer fails"
        }
      ],
      "NativeTransferFailed()": [
        {
          "notice": "Thrown when a native transfer fails"
        }
      ]
    },
    "kind": "user",
    "methods": {},
    "version": 1
  },
  "storageLayout": {
    "storage": [
      {
        "astId": 3456,
        "contract": "contracts/Controller.sol:Controller",
        "label": "_status",
        "offset": 0,
        "slot": "0",
        "type": "t_uint256"
      }
    ],
    "types": {
      "t_uint256": {
        "encoding": "inplace",
        "label": "uint256",
        "numberOfBytes": "32"
      }
    }
  }
}