{
  "address": "0xb9ED1007225bD0c0b45981F798cbec45ef2A79AC",
  "abi": [
    {
      "inputs": [
        {
          "internalType": "contract IBookManager",
          "name": "bookManager_",
          "type": "address"
        }
      ],
      "stateMutability": "nonpayable",
      "type": "constructor"
    },
    {
      "inputs": [],
      "name": "InvalidTick",
      "type": "error"
    },
    {
      "inputs": [
        {
          "internalType": "uint256",
          "name": "value",
          "type": "uint256"
        }
      ],
      "name": "SafeCastOverflowedUintToInt",
      "type": "error"
    },
    {
      "inputs": [],
      "name": "bookManager",
      "outputs": [
        {
          "internalType": "contract IBookManager",
          "name": "",
          "type": "address"
        }
      ],
      "stateMutability": "view",
      "type": "function"
    },
    {
      "inputs": [
        {
          "components": [
            {
              "internalType": "BookId",
              "name": "id",
              "type": "uint192"
            },
            {
              "internalType": "uint256",
              "name": "limitPrice",
              "type": "uint256"
            },
            {
              "internalType": "uint256",
              "name": "quoteAmount",
              "type": "uint256"
            },
            {
              "internalType": "uint256",
              "name": "maxBaseAmount",
              "type": "uint256"
            },
            {
              "internalType": "bytes",
              "name": "hookData",
              "type": "bytes"
            }
          ],
          "internalType": "struct IController.TakeOrderParams",
          "name": "params",
          "type": "tuple"
        }
      ],
      "name": "getExpectedInput",
      "outputs": [
        {
          "internalType": "uint256",
          "name": "takenQuoteAmount",
          "type": "uint256"
        },
        {
          "internalType": "uint256",
          "name": "spendBaseAmount",
          "type": "uint256"
        }
      ],
      "stateMutability": "view",
      "type": "function"
    },
    {
      "inputs": [
        {
          "components": [
            {
              "internalType": "BookId",
              "name": "id",
              "type": "uint192"
            },
            {
              "internalType": "uint256",
              "name": "limitPrice",
              "type": "uint256"
            },
            {
              "internalType": "uint256",
              "name": "baseAmount",
              "type": "uint256"
            },
            {
              "internalType": "uint256",
              "name": "minQuoteAmount",
              "type": "uint256"
            },
            {
              "internalType": "bytes",
              "name": "hookData",
              "type": "bytes"
            }
          ],
          "internalType": "struct IController.SpendOrderParams",
          "name": "params",
          "type": "tuple"
        }
      ],
      "name": "getExpectedOutput",
      "outputs": [
        {
          "internalType": "uint256",
          "name": "takenQuoteAmount",
          "type": "uint256"
        },
        {
          "internalType": "uint256",
          "name": "spendBaseAmount",
          "type": "uint256"
        }
      ],
      "stateMutability": "view",
      "type": "function"
    },
    {
      "inputs": [
        {
          "internalType": "BookId",
          "name": "id",
          "type": "uint192"
        },
        {
          "internalType": "Tick",
          "name": "tick",
          "type": "int24"
        },
        {
          "internalType": "uint256",
          "name": "n",
          "type": "uint256"
        }
      ],
      "name": "getLiquidity",
      "outputs": [
        {
          "components": [
            {
              "internalType": "Tick",
              "name": "tick",
              "type": "int24"
            },
            {
              "internalType": "uint64",
              "name": "depth",
              "type": "uint64"
            }
          ],
          "internalType": "struct IBookViewer.Liquidity[]",
          "name": "liquidity",
          "type": "tuple[]"
        }
      ],
      "stateMutability": "view",
      "type": "function"
    }
  ],
  "transactionHash": "0xec9fe1cb2c11baccbdb2a65c1e384d004a22d3bbb021b418b1fff223e87115a6",
  "args": [
    "0x93A43391978BFC0bc708d5f55b0Abe7A9ede1B91"
  ],
  "numDeployments": 1,
  "solcInputHash": "0b2a98aba86e456313484c6a02a83511",
  "bytecode": "0x60a0604052348015600f57600080fd5b506040516117c73803806117c7833981016040819052602c91603c565b6001600160a01b0316608052606a565b600060208284031215604d57600080fd5b81516001600160a01b0381168114606357600080fd5b9392505050565b6080516116e16100e660003960008181609601528181610118015281816101af01528181610257015281816103be01528181610512015281816105bf01528181610656015281816106fe01528181610843015281816109ab01528181610ab501528181610b6101528181610c350152610cf201526116e16000f3fe608060405234801561001057600080fd5b506004361061004c5760003560e01c80630202121a14610051578063130391b61461007e5780633f322bc914610091578063694d8a29146100d0575b600080fd5b61006461005f3660046113ab565b6100f0565b604080519283526020830191909152015b60405180910390f35b61006461008c3660046113ab565b610597565b6100b87f000000000000000000000000000000000000000000000000000000000000000081565b6040516001600160a01b039091168152602001610075565b6100e36100de3660046113ef565b610a29565b604051610075919061142e565b8051604051639b22917d60e01b81526001600160c01b039091166004820152600090819081907f00000000000000000000000000000000000000000000000000000000000000006001600160a01b031690639b22917d9060240160c060405180830381865afa158015610167573d6000803e3d6000fd5b505050506040513d601f19601f8201168201806040525081019061018b91906114ca565b845160405163fcc8fc9b60e01b81526001600160c01b0390911660048201529091507f00000000000000000000000000000000000000000000000000000000000000006001600160a01b03169063fcc8fc9b90602401602060405180830381865afa1580156101fe573d6000803e3d6000fd5b505050506040513d601f19601f82011682018060405250810190610222919061156f565b156102335750600093849350915050565b835160405163cdc92f2d60e01b81526001600160c01b0390911660048201526000907f00000000000000000000000000000000000000000000000000000000000000006001600160a01b03169063cdc92f2d90602401602060405180830381865afa1580156102a6573d6000803e3d6000fd5b505050506040513d601f19601f820116820180604052508101906102ca9190611598565b90505b846040015183111580156102e85750627fffff19600282900b135b15610590576102f98160020b610d78565b8560200151116105905760006103188360a0015162ffffff1660171c90565b1561032b57838660400151039050610353565b6103508487604001510360008560a0015162ffffff166110439092919063ffffffff16565b90505b602083015167ffffffffffffffff16610372600284900b83600061109a565b8161037f5761037f6115b5565b049050806000036103905750610590565b8551604051630835177160e31b81526001600160c01b039091166004820152600283900b60248201526000907f00000000000000000000000000000000000000000000000000000000000000006001600160a01b0316906341a8bb8890604401602060405180830381865afa15801561040d573d6000803e3d6000fd5b505050506040513d601f19601f8201168201806040525081019061043191906115cb565b67ffffffffffffffff1690506000846020015167ffffffffffffffff1683831161045b578261045d565b835b0290506000610472600286900b8360016110e5565b90506104878660a0015162ffffff1660171c90565b156104ab5760a08601516104a29062ffffff16836000611108565b820391506104ce565b60a08601516104c19062ffffff16826000611108565b6104ca8261118b565b0190505b806000036104df5750505050610590565b885160405163285e76b760e21b81526001600160c01b039091166004820152600286900b602482015297820197968101967f00000000000000000000000000000000000000000000000000000000000000006001600160a01b03169063a179dadc90604401602060405180830381865afa158015610561573d6000803e3d6000fd5b505050506040513d601f19601f820116820180604052508101906105859190611598565b9450505050506102cd565b5050915091565b8051604051639b22917d60e01b81526001600160c01b039091166004820152600090819081907f00000000000000000000000000000000000000000000000000000000000000006001600160a01b031690639b22917d9060240160c060405180830381865afa15801561060e573d6000803e3d6000fd5b505050506040513d601f19601f8201168201806040525081019061063291906114ca565b845160405163fcc8fc9b60e01b81526001600160c01b0390911660048201529091507f00000000000000000000000000000000000000000000000000000000000000006001600160a01b03169063fcc8fc9b90602401602060405180830381865afa1580156106a5573d6000803e3d6000fd5b505050506040513d601f19601f820116820180604052508101906106c9919061156f565b156106da5750600093849350915050565b835160405163cdc92f2d60e01b81526001600160c01b0390911660048201526000907f00000000000000000000000000000000000000000000000000000000000000006001600160a01b03169063cdc92f2d90602401602060405180830381865afa15801561074d573d6000803e3d6000fd5b505050506040513d601f19601f820116820180604052508101906107719190611598565b90505b627fffff19600282900b1315610590576107908160020b610d78565b8560200151116105905760006107af8360a0015162ffffff1660171c90565b156107e0576107d98587604001510360018560a0015162ffffff166110439092919063ffffffff16565b90506107ea565b8486604001510390505b602083015167ffffffffffffffff168082049082061515600116019050806000036108155750610590565b8551604051630835177160e31b81526001600160c01b039091166004820152600283900b60248201526000907f00000000000000000000000000000000000000000000000000000000000000006001600160a01b0316906341a8bb8890604401602060405180830381865afa158015610892573d6000803e3d6000fd5b505050506040513d601f19601f820116820180604052508101906108b691906115cb565b67ffffffffffffffff1690506000846020015167ffffffffffffffff168383116108e057826108e2565b835b02905060006108f7600286900b8360016110e5565b905061090c8660a0015162ffffff1660171c90565b156109305760a08601516109279062ffffff16836000611108565b82039150610953565b60a08601516109469062ffffff16826000611108565b61094f8261118b565b0190505b816000036109645750505050610590565b6040890151978201979681019688106109805750505050610590565b885160405163285e76b760e21b81526001600160c01b039091166004820152600286900b60248201527f00000000000000000000000000000000000000000000000000000000000000006001600160a01b03169063a179dadc90604401602060405180830381865afa1580156109fa573d6000803e3d6000fd5b505050506040513d601f19601f82011682018060405250810190610a1e9190611598565b945050505050610774565b60608167ffffffffffffffff811115610a4457610a44611251565b604051908082528060200260200182016040528015610a8957816020015b6040805180820190915260008082526020820152815260200190600190039081610a625790505b50604051630835177160e31b81526001600160c01b0386166004820152600285900b60248201529091507f00000000000000000000000000000000000000000000000000000000000000006001600160a01b0316906341a8bb8890604401602060405180830381865afa158015610b04573d6000803e3d6000fd5b505050506040513d601f19601f82011682018060405250810190610b2891906115cb565b67ffffffffffffffff16600003610bd75760405163285e76b760e21b81526001600160c01b0385166004820152600284900b60248201527f00000000000000000000000000000000000000000000000000000000000000006001600160a01b03169063a179dadc90604401602060405180830381865afa158015610bb0573d6000803e3d6000fd5b505050506040513d601f19601f82011682018060405250810190610bd49190611598565b92505b60005b82811015610d6f5762800000600285900b0115610d6f57604080518082018252600286900b8082529151630835177160e31b81526001600160c01b038816600482015260248101929092529060208201906001600160a01b037f000000000000000000000000000000000000000000000000000000000000000016906341a8bb8890604401602060405180830381865afa158015610c7c573d6000803e3d6000fd5b505050506040513d601f19601f82011682018060405250810190610ca091906115cb565b67ffffffffffffffff16815250828281518110610cbf57610cbf6115e6565b602090810291909101015260405163285e76b760e21b81526001600160c01b0386166004820152600285900b60248201527f00000000000000000000000000000000000000000000000000000000000000006001600160a01b03169063a179dadc90604401602060405180830381865afa158015610d41573d6000803e3d6000fd5b505050506040513d601f19601f82011682018060405250810190610d659190611598565b9350600101610bda565b81529392505050565b6000610d83826111f2565b816000600282900b8113610d975781610da0565b610da082611612565b62ffffff8116915060011615610dc4576bfff97272373d413259a469909250610dd5565b6c0100000000000000000000000092505b6002811615610df45760606bfff2e50f5f656932ef12357c8402901c92505b6004811615610e135760606bffe5caca7e10e4e61c3624ea8402901c92505b6008811615610e325760606bffcb9843d60f6159c9db58838402901c92505b6010811615610e515760606bff973b41fa98c081472e68968402901c92505b6020811615610e705760606bff2ea16466c96a3843ec78b38402901c92505b6040811615610e8f5760606bfe5dee046a99a2a811c461f18402901c92505b6080811615610eae5760606bfcbe86c7900a88aedcffc83b8402901c92505b610100811615610ece5760606bf987a7253ac413176f2b074c8402901c92505b610200811615610eee5760606bf3392b0822b70005940c7a398402901c92505b610400811615610f0e5760606be7159475a2c29b7443b29c7f8402901c92505b610800811615610f2e5760606bd097f3bdfd2022b8845ad8f78402901c92505b611000811615610f4e5760606ba9f746462d870fdf8a65dc1f8402901c92505b612000811615610f6e5760606b70d869a156d2a1b890bb3df68402901c92505b614000811615610f8e5760606b31be135f97d08fd9812315058402901c92505b618000811615610fae5760606b09aa508b5b7a84e1c677de548402901c92505b62010000811615610fce5760606a5d6af8dedb81196699c3298402901c92505b62020000811615610fed576060692216e584f5fa1ea926048402901c92505b6204000081161561100a57606067048a170391f7dc428402901c92505b60008260020b131561103c57611039837801000000000000000000000000000000000000000000000000611634565b92505b5050919050565b60006207a11f19627fffff851601600281900b8212828415611066578260000392505b82620f424001905061108f620f4240876110809190611656565b82810615158416908390040190565b979650505050505050565b60006110dd6110ab8560020b610d78565b6110b59085611656565b6bffffffffffffffffffffffff8116151584166c010000000000000000000000009091040190565b949350505050565b60006110dd606084901b6110fb8660020b610d78565b8082061515851691040190565b60006207a11f19627fffff851601600281900b8212828161112c578260000361112e565b825b62ffffff16905060006111686111448389611656565b620f42408861115a578581830615151691040190565b808206151586151691040190565b90508261117d5761117881611673565b61117f565b805b98975050505050505050565b60007f7fffffffffffffffffffffffffffffffffffffffffffffffffffffffffffffff8211156111ee576040517f24775e060000000000000000000000000000000000000000000000000000000081526004810183905260240160405180910390fd5b5090565b6207ffff600282900b1380611217575061120e6207ffff611612565b60020b8160020b125b1561124e576040517fce8ef7fc00000000000000000000000000000000000000000000000000000000815260040160405180910390fd5b50565b634e487b7160e01b600052604160045260246000fd5b60405160a0810167ffffffffffffffff8111828210171561128a5761128a611251565b60405290565b604051601f8201601f1916810167ffffffffffffffff811182821017156112b9576112b9611251565b604052919050565b80356001600160c01b03811681146112d857600080fd5b919050565b600060a082840312156112ef57600080fd5b6112f7611267565b9050611302826112c1565b8152602080830135818301526040830135604083015260608301356060830152608083013567ffffffffffffffff8082111561133d57600080fd5b818501915085601f83011261135157600080fd5b81358181111561136357611363611251565b611375601f8201601f19168501611290565b9150808252868482850101111561138b57600080fd5b808484018584013760008482840101525080608085015250505092915050565b6000602082840312156113bd57600080fd5b813567ffffffffffffffff8111156113d457600080fd5b6110dd848285016112dd565b8060020b811461124e57600080fd5b60008060006060848603121561140457600080fd5b61140d846112c1565b9250602084013561141d816113e0565b929592945050506040919091013590565b602080825282518282018190526000919060409081850190868401855b8281101561147d578151805160020b855286015167ffffffffffffffff1686850152928401929085019060010161144b565b5091979650505050505050565b6001600160a01b038116811461124e57600080fd5b805167ffffffffffffffff811681146112d857600080fd5b805162ffffff811681146112d857600080fd5b600060c082840312156114dc57600080fd5b60405160c0810181811067ffffffffffffffff821117156114ff576114ff611251565b604052825161150d8161148a565b815261151b6020840161149f565b6020820152604083015161152e8161148a565b604082015261153f606084016114b7565b606082015260808301516115528161148a565b608082015261156360a084016114b7565b60a08201529392505050565b60006020828403121561158157600080fd5b8151801515811461159157600080fd5b9392505050565b6000602082840312156115aa57600080fd5b8151611591816113e0565b634e487b7160e01b600052601260045260246000fd5b6000602082840312156115dd57600080fd5b6115918261149f565b634e487b7160e01b600052603260045260246000fd5b634e487b7160e01b600052601160045260246000fd5b60008160020b627fffff19810361162b5761162b6115fc565b60000392915050565b60008261165157634e487b7160e01b600052601260045260246000fd5b500490565b808202811582820484141761166d5761166d6115fc565b92915050565b60007f800000000000000000000000000000000000000000000000000000000000000082036116a4576116a46115fc565b506000039056fea2646970667358221220c0550993de1df382fc7f2a9f1845c89f7e351a1e2e6ea1c4ef5dea3c1b19cddc64736f6c63430008190033",
  "devdoc": {
    "errors": {
      "SafeCastOverflowedUintToInt(uint256)": [
        {
          "details": "An uint value doesn't fit in an int of `bits` size."
        }
      ]
    },
    "kind": "dev",
    "methods": {
      "getExpectedInput((uint192,uint256,uint256,uint256,bytes))": {
        "params": {
          "params": "The parameters of the take order"
        },
        "returns": {
          "spendBaseAmount": "The expected spend base amount",
          "takenQuoteAmount": "The expected taken quote amount"
        }
      },
      "getExpectedOutput((uint192,uint256,uint256,uint256,bytes))": {
        "params": {
          "params": "The parameters of the spend order"
        },
        "returns": {
          "spendBaseAmount": "The expected spend base amount",
          "takenQuoteAmount": "The expected taken quote amount"
        }
      }
    },
    "stateVariables": {
      "bookManager": {
        "return": "The instance of the book manager",
        "returns": {
          "_0": "The instance of the book manager"
        }
      }
    },
    "version": 1
  },
  "userdoc": {
    "kind": "user",
    "methods": {
      "bookManager()": {
        "notice": "Returns the book manager"
      },
      "getExpectedInput((uint192,uint256,uint256,uint256,bytes))": {
        "notice": "Returns the expected input for a take order"
      },
      "getExpectedOutput((uint192,uint256,uint256,uint256,bytes))": {
        "notice": "Returns the expected output for a spend order"
      }
    },
    "version": 1
  },
  "storageLayout": {
    "storage": [],
    "types": null
  }
}