{
  "address": "0x3A2875239c3947A9e2e76C4DE21D3050bc16b4Ee",
  "abi": [
    {
      "inputs": [
        {
          "internalType": "address",
          "name": "bookManager",
          "type": "address"
        }
      ],
      "stateMutability": "nonpayable",
      "type": "constructor"
    },
    {
      "inputs": [
        {
          "internalType": "address",
          "name": "target",
          "type": "address"
        }
      ],
      "name": "AddressEmptyCode",
      "type": "error"
    },
    {
      "inputs": [],
      "name": "ControllerSlippage",
      "type": "error"
    },
    {
      "inputs": [],
      "name": "Deadline",
      "type": "error"
    },
    {
      "inputs": [],
      "name": "ERC20TransferFailed",
      "type": "error"
    },
    {
      "inputs": [],
      "name": "FailedCall",
      "type": "error"
    },
    {
      "inputs": [
        {
          "internalType": "uint256",
          "name": "balance",
          "type": "uint256"
        },
        {
          "internalType": "uint256",
          "name": "needed",
          "type": "uint256"
        }
      ],
      "name": "InsufficientBalance",
      "type": "error"
    },
    {
      "inputs": [],
      "name": "InvalidAccess",
      "type": "error"
    },
    {
      "inputs": [],
      "name": "InvalidAction",
      "type": "error"
    },
    {
      "inputs": [],
      "name": "InvalidLength",
      "type": "error"
    },
    {
      "inputs": [],
      "name": "InvalidMarket",
      "type": "error"
    },
    {
      "inputs": [],
      "name": "InvalidPrice",
      "type": "error"
    },
    {
      "inputs": [],
      "name": "InvalidTick",
      "type": "error"
    },
    {
      "inputs": [],
      "name": "NativeTransferFailed",
      "type": "error"
    },
    {
      "inputs": [],
      "name": "ReentrancyGuardReentrantCall",
      "type": "error"
    },
    {
      "inputs": [
        {
          "internalType": "uint8",
          "name": "bits",
          "type": "uint8"
        },
        {
          "internalType": "uint256",
          "name": "value",
          "type": "uint256"
        }
      ],
      "name": "SafeCastOverflowedUintDowncast",
      "type": "error"
    },
    {
      "inputs": [
        {
          "internalType": "address",
          "name": "token",
          "type": "address"
        }
      ],
      "name": "SafeERC20FailedOperation",
      "type": "error"
    },
    {
      "inputs": [
        {
          "components": [
            {
              "internalType": "OrderId",
              "name": "id",
              "type": "uint256"
            },
            {
              "internalType": "uint256",
              "name": "leftQuoteAmount",
              "type": "uint256"
            },
            {
              "internalType": "bytes",
              "name": "hookData",
              "type": "bytes"
            }
          ],
          "internalType": "struct IController.CancelOrderParams[]",
          "name": "orderParamsList",
          "type": "tuple[]"
        },
        {
          "internalType": "address[]",
          "name": "tokensToSettle",
          "type": "address[]"
        },
        {
          "components": [
            {
              "internalType": "uint256",
              "name": "tokenId",
              "type": "uint256"
            },
            {
              "components": [
                {
                  "internalType": "uint256",
                  "name": "deadline",
                  "type": "uint256"
                },
                {
                  "internalType": "uint8",
                  "name": "v",
                  "type": "uint8"
                },
                {
                  "internalType": "bytes32",
                  "name": "r",
                  "type": "bytes32"
                },
                {
                  "internalType": "bytes32",
                  "name": "s",
                  "type": "bytes32"
                }
              ],
              "internalType": "struct IController.PermitSignature",
              "name": "signature",
              "type": "tuple"
            }
          ],
          "internalType": "struct IController.ERC721PermitParams[]",
          "name": "permitParamsList",
          "type": "tuple[]"
        },
        {
          "internalType": "uint64",
          "name": "deadline",
          "type": "uint64"
        }
      ],
      "name": "cancel",
      "outputs": [],
      "stateMutability": "nonpayable",
      "type": "function"
    },
    {
      "inputs": [
        {
          "components": [
            {
              "internalType": "OrderId",
              "name": "id",
              "type": "uint256"
            },
            {
              "internalType": "bytes",
              "name": "hookData",
              "type": "bytes"
            }
          ],
          "internalType": "struct IController.ClaimOrderParams[]",
          "name": "orderParamsList",
          "type": "tuple[]"
        },
        {
          "internalType": "address[]",
          "name": "tokensToSettle",
          "type": "address[]"
        },
        {
          "components": [
            {
              "internalType": "uint256",
              "name": "tokenId",
              "type": "uint256"
            },
            {
              "components": [
                {
                  "internalType": "uint256",
                  "name": "deadline",
                  "type": "uint256"
                },
                {
                  "internalType": "uint8",
                  "name": "v",
                  "type": "uint8"
                },
                {
                  "internalType": "bytes32",
                  "name": "r",
                  "type": "bytes32"
                },
                {
                  "internalType": "bytes32",
                  "name": "s",
                  "type": "bytes32"
                }
              ],
              "internalType": "struct IController.PermitSignature",
              "name": "signature",
              "type": "tuple"
            }
          ],
          "internalType": "struct IController.ERC721PermitParams[]",
          "name": "permitParamsList",
          "type": "tuple[]"
        },
        {
          "internalType": "uint64",
          "name": "deadline",
          "type": "uint64"
        }
      ],
      "name": "claim",
      "outputs": [],
      "stateMutability": "nonpayable",
      "type": "function"
    },
    {
      "inputs": [
        {
          "internalType": "enum IController.Action[]",
          "name": "actionList",
          "type": "uint8[]"
        },
        {
          "internalType": "bytes[]",
          "name": "paramsDataList",
          "type": "bytes[]"
        },
        {
          "internalType": "address[]",
          "name": "tokensToSettle",
          "type": "address[]"
        },
        {
          "components": [
            {
              "internalType": "address",
              "name": "token",
              "type": "address"
            },
            {
              "internalType": "uint256",
              "name": "permitAmount",
              "type": "uint256"
            },
            {
              "components": [
                {
                  "internalType": "uint256",
                  "name": "deadline",
                  "type": "uint256"
                },
                {
                  "internalType": "uint8",
                  "name": "v",
                  "type": "uint8"
                },
                {
                  "internalType": "bytes32",
                  "name": "r",
                  "type": "bytes32"
                },
                {
                  "internalType": "bytes32",
                  "name": "s",
                  "type": "bytes32"
                }
              ],
              "internalType": "struct IController.PermitSignature",
              "name": "signature",
              "type": "tuple"
            }
          ],
          "internalType": "struct IController.ERC20PermitParams[]",
          "name": "erc20PermitParamsList",
          "type": "tuple[]"
        },
        {
          "components": [
            {
              "internalType": "uint256",
              "name": "tokenId",
              "type": "uint256"
            },
            {
              "components": [
                {
                  "internalType": "uint256",
                  "name": "deadline",
                  "type": "uint256"
                },
                {
                  "internalType": "uint8",
                  "name": "v",
                  "type": "uint8"
                },
                {
                  "internalType": "bytes32",
                  "name": "r",
                  "type": "bytes32"
                },
                {
                  "internalType": "bytes32",
                  "name": "s",
                  "type": "bytes32"
                }
              ],
              "internalType": "struct IController.PermitSignature",
              "name": "signature",
              "type": "tuple"
            }
          ],
          "internalType": "struct IController.ERC721PermitParams[]",
          "name": "erc721PermitParamsList",
          "type": "tuple[]"
        },
        {
          "internalType": "uint64",
          "name": "deadline",
          "type": "uint64"
        }
      ],
      "name": "execute",
      "outputs": [
        {
          "internalType": "OrderId[]",
          "name": "ids",
          "type": "uint256[]"
        }
      ],
      "stateMutability": "payable",
      "type": "function"
    },
    {
      "inputs": [
        {
          "internalType": "uint256",
          "name": "price",
          "type": "uint256"
        }
      ],
      "name": "fromPrice",
      "outputs": [
        {
          "internalType": "Tick",
          "name": "",
          "type": "int24"
        }
      ],
      "stateMutability": "pure",
      "type": "function"
    },
    {
      "inputs": [
        {
          "internalType": "BookId",
          "name": "id",
          "type": "uint192"
        },
        {
          "internalType": "Tick",
          "name": "tick",
          "type": "int24"
        }
      ],
      "name": "getDepth",
      "outputs": [
        {
          "internalType": "uint256",
          "name": "",
          "type": "uint256"
        }
      ],
      "stateMutability": "view",
      "type": "function"
    },
    {
      "inputs": [
        {
          "internalType": "BookId",
          "name": "id",
          "type": "uint192"
        }
      ],
      "name": "getHighestPrice",
      "outputs": [
        {
          "internalType": "uint256",
          "name": "",
          "type": "uint256"
        }
      ],
      "stateMutability": "view",
      "type": "function"
    },
    {
      "inputs": [
        {
          "internalType": "OrderId",
          "name": "orderId",
          "type": "uint256"
        }
      ],
      "name": "getOrder",
      "outputs": [
        {
          "internalType": "address",
          "name": "provider",
          "type": "address"
        },
        {
          "internalType": "uint256",
          "name": "price",
          "type": "uint256"
        },
        {
          "internalType": "uint256",
          "name": "openAmount",
          "type": "uint256"
        },
        {
          "internalType": "uint256",
          "name": "claimableAmount",
          "type": "uint256"
        }
      ],
      "stateMutability": "view",
      "type": "function"
    },
    {
      "inputs": [
        {
          "components": [
            {
              "internalType": "BookId",
              "name": "takeBookId",
              "type": "uint192"
            },
            {
              "internalType": "BookId",
              "name": "makeBookId",
              "type": "uint192"
            },
            {
              "internalType": "uint256",
              "name": "limitPrice",
              "type": "uint256"
            },
            {
              "internalType": "Tick",
              "name": "tick",
              "type": "int24"
            },
            {
              "internalType": "uint256",
              "name": "quoteAmount",
              "type": "uint256"
            },
            {
              "internalType": "bytes",
              "name": "takeHookData",
              "type": "bytes"
            },
            {
              "internalType": "bytes",
              "name": "makeHookData",
              "type": "bytes"
            }
          ],
          "internalType": "struct IController.LimitOrderParams[]",
          "name": "orderParamsList",
          "type": "tuple[]"
        },
        {
          "internalType": "address[]",
          "name": "tokensToSettle",
          "type": "address[]"
        },
        {
          "components": [
            {
              "internalType": "address",
              "name": "token",
              "type": "address"
            },
            {
              "internalType": "uint256",
              "name": "permitAmount",
              "type": "uint256"
            },
            {
              "components": [
                {
                  "internalType": "uint256",
                  "name": "deadline",
                  "type": "uint256"
                },
                {
                  "internalType": "uint8",
                  "name": "v",
                  "type": "uint8"
                },
                {
                  "internalType": "bytes32",
                  "name": "r",
                  "type": "bytes32"
                },
                {
                  "internalType": "bytes32",
                  "name": "s",
                  "type": "bytes32"
                }
              ],
              "internalType": "struct IController.PermitSignature",
              "name": "signature",
              "type": "tuple"
            }
          ],
          "internalType": "struct IController.ERC20PermitParams[]",
          "name": "permitParamsList",
          "type": "tuple[]"
        },
        {
          "internalType": "uint64",
          "name": "deadline",
          "type": "uint64"
        }
      ],
      "name": "limit",
      "outputs": [
        {
          "internalType": "OrderId[]",
          "name": "ids",
          "type": "uint256[]"
        }
      ],
      "stateMutability": "payable",
      "type": "function"
    },
    {
      "inputs": [
        {
          "internalType": "address",
          "name": "sender",
          "type": "address"
        },
        {
          "internalType": "bytes",
          "name": "data",
          "type": "bytes"
        }
      ],
      "name": "lockAcquired",
      "outputs": [
        {
          "internalType": "bytes",
          "name": "returnData",
          "type": "bytes"
        }
      ],
      "stateMutability": "nonpayable",
      "type": "function"
    },
    {
      "inputs": [
        {
          "components": [
            {
              "internalType": "BookId",
              "name": "id",
              "type": "uint192"
            },
            {
              "internalType": "Tick",
              "name": "tick",
              "type": "int24"
            },
            {
              "internalType": "uint256",
              "name": "quoteAmount",
              "type": "uint256"
            },
            {
              "internalType": "bytes",
              "name": "hookData",
              "type": "bytes"
            }
          ],
          "internalType": "struct IController.MakeOrderParams[]",
          "name": "orderParamsList",
          "type": "tuple[]"
        },
        {
          "internalType": "address[]",
          "name": "tokensToSettle",
          "type": "address[]"
        },
        {
          "components": [
            {
              "internalType": "address",
              "name": "token",
              "type": "address"
            },
            {
              "internalType": "uint256",
              "name": "permitAmount",
              "type": "uint256"
            },
            {
              "components": [
                {
                  "internalType": "uint256",
                  "name": "deadline",
                  "type": "uint256"
                },
                {
                  "internalType": "uint8",
                  "name": "v",
                  "type": "uint8"
                },
                {
                  "internalType": "bytes32",
                  "name": "r",
                  "type": "bytes32"
                },
                {
                  "internalType": "bytes32",
                  "name": "s",
                  "type": "bytes32"
                }
              ],
              "internalType": "struct IController.PermitSignature",
              "name": "signature",
              "type": "tuple"
            }
          ],
          "internalType": "struct IController.ERC20PermitParams[]",
          "name": "permitParamsList",
          "type": "tuple[]"
        },
        {
          "internalType": "uint64",
          "name": "deadline",
          "type": "uint64"
        }
      ],
      "name": "make",
      "outputs": [
        {
          "internalType": "OrderId[]",
          "name": "ids",
          "type": "uint256[]"
        }
      ],
      "stateMutability": "payable",
      "type": "function"
    },
    {
      "inputs": [
        {
          "components": [
            {
              "components": [
                {
                  "internalType": "Currency",
                  "name": "base",
                  "type": "address"
                },
                {
                  "internalType": "uint64",
                  "name": "unit",
                  "type": "uint64"
                },
                {
                  "internalType": "Currency",
                  "name": "quote",
                  "type": "address"
                },
                {
                  "internalType": "FeePolicy",
                  "name": "makerPolicy",
                  "type": "uint24"
                },
                {
                  "internalType": "contract IHooks",
                  "name": "hooks",
                  "type": "address"
                },
                {
                  "internalType": "FeePolicy",
                  "name": "takerPolicy",
                  "type": "uint24"
                }
              ],
              "internalType": "struct IBookManager.BookKey",
              "name": "key",
              "type": "tuple"
            },
            {
              "internalType": "bytes",
              "name": "hookData",
              "type": "bytes"
            }
          ],
          "internalType": "struct IController.OpenBookParams[]",
          "name": "openBookParamsList",
          "type": "tuple[]"
        },
        {
          "internalType": "uint64",
          "name": "deadline",
          "type": "uint64"
        }
      ],
      "name": "open",
      "outputs": [],
      "stateMutability": "nonpayable",
      "type": "function"
    },
    {
      "inputs": [
        {
          "components": [
            {
              "internalType": "BookId",
              "name": "id",
              "type": "uint192"
            },
            {
              "internalType": "uint256",
              "name": "limitPrice",
              "type": "uint256"
            },
            {
              "internalType": "uint256",
              "name": "baseAmount",
              "type": "uint256"
            },
            {
              "internalType": "uint256",
              "name": "minQuoteAmount",
              "type": "uint256"
            },
            {
              "internalType": "bytes",
              "name": "hookData",
              "type": "bytes"
            }
          ],
          "internalType": "struct IController.SpendOrderParams[]",
          "name": "orderParamsList",
          "type": "tuple[]"
        },
        {
          "internalType": "address[]",
          "name": "tokensToSettle",
          "type": "address[]"
        },
        {
          "components": [
            {
              "internalType": "address",
              "name": "token",
              "type": "address"
            },
            {
              "internalType": "uint256",
              "name": "permitAmount",
              "type": "uint256"
            },
            {
              "components": [
                {
                  "internalType": "uint256",
                  "name": "deadline",
                  "type": "uint256"
                },
                {
                  "internalType": "uint8",
                  "name": "v",
                  "type": "uint8"
                },
                {
                  "internalType": "bytes32",
                  "name": "r",
                  "type": "bytes32"
                },
                {
                  "internalType": "bytes32",
                  "name": "s",
                  "type": "bytes32"
                }
              ],
              "internalType": "struct IController.PermitSignature",
              "name": "signature",
              "type": "tuple"
            }
          ],
          "internalType": "struct IController.ERC20PermitParams[]",
          "name": "permitParamsList",
          "type": "tuple[]"
        },
        {
          "internalType": "uint64",
          "name": "deadline",
          "type": "uint64"
        }
      ],
      "name": "spend",
      "outputs": [],
      "stateMutability": "payable",
      "type": "function"
    },
    {
      "inputs": [
        {
          "components": [
            {
              "internalType": "BookId",
              "name": "id",
              "type": "uint192"
            },
            {
              "internalType": "uint256",
              "name": "limitPrice",
              "type": "uint256"
            },
            {
              "internalType": "uint256",
              "name": "quoteAmount",
              "type": "uint256"
            },
            {
              "internalType": "uint256",
              "name": "maxBaseAmount",
              "type": "uint256"
            },
            {
              "internalType": "bytes",
              "name": "hookData",
              "type": "bytes"
            }
          ],
          "internalType": "struct IController.TakeOrderParams[]",
          "name": "orderParamsList",
          "type": "tuple[]"
        },
        {
          "internalType": "address[]",
          "name": "tokensToSettle",
          "type": "address[]"
        },
        {
          "components": [
            {
              "internalType": "address",
              "name": "token",
              "type": "address"
            },
            {
              "internalType": "uint256",
              "name": "permitAmount",
              "type": "uint256"
            },
            {
              "components": [
                {
                  "internalType": "uint256",
                  "name": "deadline",
                  "type": "uint256"
                },
                {
                  "internalType": "uint8",
                  "name": "v",
                  "type": "uint8"
                },
                {
                  "internalType": "bytes32",
                  "name": "r",
                  "type": "bytes32"
                },
                {
                  "internalType": "bytes32",
                  "name": "s",
                  "type": "bytes32"
                }
              ],
              "internalType": "struct IController.PermitSignature",
              "name": "signature",
              "type": "tuple"
            }
          ],
          "internalType": "struct IController.ERC20PermitParams[]",
          "name": "permitParamsList",
          "type": "tuple[]"
        },
        {
          "internalType": "uint64",
          "name": "deadline",
          "type": "uint64"
        }
      ],
      "name": "take",
      "outputs": [],
      "stateMutability": "payable",
      "type": "function"
    },
    {
      "inputs": [
        {
          "internalType": "Tick",
          "name": "tick",
          "type": "int24"
        }
      ],
      "name": "toPrice",
      "outputs": [
        {
          "internalType": "uint256",
          "name": "",
          "type": "uint256"
        }
      ],
      "stateMutability": "pure",
      "type": "function"
    },
    {
      "stateMutability": "payable",
      "type": "receive"
    }
  ],
  "transactionHash": "0x33dfd0446a38870b0db214bcdf61ca6f611f7743cd50b24835de92408acc4278",
  "args": [
    "0x93A43391978BFC0bc708d5f55b0Abe7A9ede1B91"
  ],
  "numDeployments": 1,
  "solcInputHash": "0b2a98aba86e456313484c6a02a83511",
  "bytecode": "0x60a0604052348015600f57600080fd5b50604051615962380380615962833981016040819052602c916041565b60016000556001600160a01b0316608052606f565b600060208284031215605257600080fd5b81516001600160a01b0381168114606857600080fd5b9392505050565b6080516157ce610194600039600081816104a301528181610547015281816107320152818161091701528181610a6501528181610bfe01528181610c9201528181610d5e01528181610ebf0152818161113d015281816113ab01528181611775015281816119c201528181611a8801528181611eb501528181611f4301528181612028015281816121e40152818161228901528181612327015281816124390152818161258201528181612627015281816126c5015281816127e501528181612937015281816129b501528181612a5c01528181612b5a01528181612bd501528181612c2d01528181612cc101528181612d7e01528181612e2f01528181612ead01528181612f2701528181612fbb01528181613033015261360501526157ce6000f3fe6080604052600436106100e15760003560e01c80637d7731101161007f578063a183a10411610059578063a183a1041461024c578063c0e8e89a1461026c578063d09ef2411461027f578063fe815746146102c957600080fd5b80637d773110146101f95780638feb85b71461020c578063a04c796b1461022c57600080fd5b806341a8bb88116100bb57806341a8bb8814610166578063483f9f2f1461018657806350835858146101b95780637658ab05146101d957600080fd5b806309ae2c13146100ed57806315c7afb4146101025780631ae45a121461013857600080fd5b366100e857005b600080fd5b6101006100fb366004613ea4565b6102dc565b005b34801561010e57600080fd5b5061012261011d366004614061565b610532565b60405161012f9190614143565b60405180910390f35b34801561014457600080fd5b5061015861015336600461416b565b610bd1565b60405190815260200161012f565b34801561017257600080fd5b506101586101813660046141a2565b610c71565b34801561019257600080fd5b506101a66101a13660046141db565b610de3565b60405160029190910b815260200161012f565b3480156101c557600080fd5b506101586101d43660046141f4565b610dee565b6101ec6101e7366004614255565b610dfc565b60405161012f9190614355565b6101ec610207366004613ea4565b610f71565b34801561021857600080fd5b50610100610227366004614399565b6111e6565b34801561023857600080fd5b50610100610247366004614399565b611438565b34801561025857600080fd5b50610100610267366004614422565b6115ba565b61010061027a366004613ea4565b6117ff565b34801561028b57600080fd5b5061029f61029a3660046141db565b611983565b604080516001600160a01b039095168552602085019390935291830152606082015260800161012f565b6101ec6102d7366004613ea4565b611ba9565b80806001600160401b03164211156103075760405163637910d560e11b815260040160405180910390fd5b83836103138282611d2f565b886000816001600160401b0381111561032e5761032e613f66565b604051908082528060200260200182016040528015610357578160200160208202803683370190505b5090506000826001600160401b0381111561037457610374613f66565b6040519080825280602002602001820160405280156103a757816020015b60608152602001906001900390816103925790505b50905060005b838110156104605760038382815181106103c9576103c9614478565b602002602001019060068111156103e2576103e261448e565b908160068111156103f5576103f561448e565b9052508d8d8281811061040a5761040a614478565b905060200281019061041c91906144a4565b60405160200161042c9190614595565b60405160208183030381529060405282828151811061044d5761044d614478565b60209081029190910101526001016103ad565b5060003383838e8e60405160200161047c9594939291906146aa565b60408051601f19818403018152908290526313942f3360e31b825291506001600160a01b037f00000000000000000000000000000000000000000000000000000000000000001690639ca17998906104da90309085906004016146f3565b6000604051808303816000875af11580156104f9573d6000803e3d6000fd5b505050506040513d6000823e601f3d908101601f19168201604052610521919081019061475a565b505050505050505050505050505050565b606061053c611e3b565b336001600160a01b037f00000000000000000000000000000000000000000000000000000000000000001614158061057d57506001600160a01b0383163014155b156105b4576040517fc0185c6400000000000000000000000000000000000000000000000000000000815260040160405180910390fd5b600080600080858060200190518101906105ce91906148b0565b8251939750919550935091506000816001600160401b038111156105f4576105f4613f66565b60405190808252806020026020018201604052801561061d578160200160208202803683370190505b5090506000805b83811015610b8a57600087828151811061064057610640614478565b602002602001015190506000600681111561065d5761065d61448e565b81600681111561066f5761066f61448e565b036106ae576106a987838151811061068957610689614478565b60200260200101518060200190518101906106a49190614a6e565b611e7e565b610b81565b60018160068111156106c2576106c261448e565b036107c05760006106fe8884815181106106de576106de614478565b60200260200101518060200190518101906106f99190614b02565b611f1d565b905080156107ba576040516323b872dd60e01b81523060048201526001600160a01b038b81166024830152604482018390527f000000000000000000000000000000000000000000000000000000000000000016906323b872dd90606401600060405180830381600087803b15801561077657600080fd5b505af115801561078a573d6000803e3d6000fd5b505050508085858061079b90614bb4565b9650815181106107ad576107ad614478565b6020026020010181815250505b50610b81565b60028160068111156107d4576107d461448e565b036108105760006106fe8884815181106107f0576107f0614478565b602002602001015180602001905181019061080b9190614bcd565b612100565b60038160068111156108245761082461448e565b036108655761085e87838151811061083e5761083e614478565b60200260200101518060200190518101906108599190614d3c565b6121bc565b5050610b81565b60048160068111156108795761087961448e565b036108b35761085e87838151811061089357610893614478565b60200260200101518060200190518101906108ae9190614d3c565b61255a565b60058160068111156108c7576108c761448e565b03610a015760008783815181106108e0576108e0614478565b60200260200101518060200190518101906108fb9190614d70565b80516040516331a9108f60e11b815260048101829052919250907f00000000000000000000000000000000000000000000000000000000000000006001600160a01b031690632f584a6d908290636352211e90602401602060405180830381865afa15801561096e573d6000803e3d6000fd5b505050506040513d601f19601f820116820180604052508101906109929190614dcb565b6040516001600160e01b031960e084901b1681526001600160a01b039182166004820152908e1660248201526044810184905260640160006040518083038186803b1580156109e057600080fd5b505afa1580156109f4573d6000803e3d6000fd5b5050505061085e82612900565b6006816006811115610a1557610a1561448e565b03610b4f576000878381518110610a2e57610a2e614478565b6020026020010151806020019051810190610a499190614de8565b80516040516331a9108f60e11b815260048101829052919250907f00000000000000000000000000000000000000000000000000000000000000006001600160a01b031690632f584a6d908290636352211e90602401602060405180830381865afa158015610abc573d6000803e3d6000fd5b505050506040513d601f19601f82011682018060405250810190610ae09190614dcb565b6040516001600160e01b031960e084901b1681526001600160a01b039182166004820152908e1660248201526044810184905260640160006040518083038186803b158015610b2e57600080fd5b505afa158015610b42573d6000803e3d6000fd5b5050505061085e826129b1565b6040517f4a7f394f00000000000000000000000000000000000000000000000000000000815260040160405180910390fd5b50600101610624565b50610b958785612b31565b80825281604051602001610ba99190614355565b604051602081830303815290604052975050505050505050610bcb6001600055565b92915050565b60405163cdc92f2d60e01b81526001600160c01b0382166004820152600090610bcb906001600160a01b037f0000000000000000000000000000000000000000000000000000000000000000169063cdc92f2d90602401602060405180830381865afa158015610c45573d6000803e3d6000fd5b505050506040513d601f19601f82011682018060405250810190610c699190614e68565b60020b613247565b604051639b22917d60e01b81526001600160c01b03831660048201526000907f00000000000000000000000000000000000000000000000000000000000000006001600160a01b031690639b22917d9060240160c060405180830381865afa158015610ce1573d6000803e3d6000fd5b505050506040513d601f19601f82011682018060405250810190610d059190614e85565b602001516040517f41a8bb880000000000000000000000000000000000000000000000000000000081526001600160c01b0385166004820152600284900b60248201526001600160401b03909116906001600160a01b037f000000000000000000000000000000000000000000000000000000000000000016906341a8bb8890604401602060405180830381865afa158015610da5573d6000803e3d6000fd5b505050506040513d601f19601f82011682018060405250810190610dc99190614ea1565b6001600160401b0316610ddc9190614ebe565b9392505050565b6000610bcb82613512565b6000610bcb8260020b613247565b606081806001600160401b0316421115610e295760405163637910d560e11b815260040160405180910390fd5b8b8a14610e62576040517f947d5a8400000000000000000000000000000000000000000000000000000000815260040160405180910390fd5b610e6c8787611d2f565b610e7685856135c1565b6000338e8e8e8e8e8e604051602001610e959796959493929190614ed5565b60408051601f19818403018152908290526313942f3360e31b825291506000906001600160a01b037f00000000000000000000000000000000000000000000000000000000000000001690639ca1799890610ef690309086906004016146f3565b6000604051808303816000875af1158015610f15573d6000803e3d6000fd5b505050506040513d6000823e601f3d908101601f19168201604052610f3d919081019061475a565b90508051600014610f5f5780806020019051810190610f5c9190614fa6565b93505b5050509b9a5050505050505050505050565b606081806001600160401b0316421115610f9e5760405163637910d560e11b815260040160405180910390fd5b8484610faa8282611d2f565b896000816001600160401b03811115610fc557610fc5613f66565b604051908082528060200260200182016040528015610fee578160200160208202803683370190505b5090506000826001600160401b0381111561100b5761100b613f66565b60405190808252806020026020018201604052801561103e57816020015b60608152602001906001900390816110295790505b50905060005b838110156110f757600183828151811061106057611060614478565b602002602001019060068111156110795761107961448e565b9081600681111561108c5761108c61448e565b9052508e8e828181106110a1576110a1614478565b90506020028101906110b3919061502b565b6040516020016110c39190615041565b6040516020818303038152906040528282815181106110e4576110e4614478565b6020908102919091010152600101611044565b5060003383838f8f6040516020016111139594939291906146aa565b60408051601f19818403018152908290526313942f3360e31b825291506000906001600160a01b037f00000000000000000000000000000000000000000000000000000000000000001690639ca179989061117490309086906004016146f3565b6000604051808303816000875af1158015611193573d6000803e3d6000fd5b505050506040513d6000823e601f3d908101601f191682016040526111bb919081019061475a565b9050808060200190518101906111d19190614fa6565b98505050505050505050979650505050505050565b80806001600160401b03164211156112115760405163637910d560e11b815260040160405180910390fd5b61121b84846135c1565b866000816001600160401b0381111561123657611236613f66565b60405190808252806020026020018201604052801561125f578160200160208202803683370190505b5090506000826001600160401b0381111561127c5761127c613f66565b6040519080825280602002602001820160405280156112af57816020015b606081526020019060019003908161129a5790505b50905060005b838110156113685760058382815181106112d1576112d1614478565b602002602001019060068111156112ea576112ea61448e565b908160068111156112fd576112fd61448e565b9052508b8b8281811061131257611312614478565b905060200281019061132491906150a5565b60405160200161133491906150bb565b60405160208183030381529060405282828151811061135557611355614478565b60209081029190910101526001016112b5565b5060003383838c8c6040516020016113849594939291906146aa565b60408051601f19818403018152908290526313942f3360e31b825291506001600160a01b037f00000000000000000000000000000000000000000000000000000000000000001690639ca17998906113e290309085906004016146f3565b6000604051808303816000875af1158015611401573d6000803e3d6000fd5b505050506040513d6000823e601f3d908101601f19168201604052611429919081019061475a565b50505050505050505050505050565b80806001600160401b03164211156114635760405163637910d560e11b815260040160405180910390fd5b61146d84846135c1565b866000816001600160401b0381111561148857611488613f66565b6040519080825280602002602001820160405280156114b1578160200160208202803683370190505b5090506000826001600160401b038111156114ce576114ce613f66565b60405190808252806020026020018201604052801561150157816020015b60608152602001906001900390816114ec5790505b50905060005b8381101561136857600683828151811061152357611523614478565b6020026020010190600681111561153c5761153c61448e565b9081600681111561154f5761154f61448e565b9052508b8b8281811061156457611564614478565b905060200281019061157691906150e9565b60405160200161158691906150ff565b6040516020818303038152906040528282815181106115a7576115a7614478565b6020908102919091010152600101611507565b80806001600160401b03164211156115e55760405163637910d560e11b815260040160405180910390fd5b826000816001600160401b0381111561160057611600613f66565b604051908082528060200260200182016040528015611629578160200160208202803683370190505b5090506000826001600160401b0381111561164657611646613f66565b60405190808252806020026020018201604052801561167957816020015b60608152602001906001900390816116645790505b50905060005b8381101561173257600083828151811061169b5761169b614478565b602002602001019060068111156116b4576116b461448e565b908160068111156116c7576116c761448e565b9052508787828181106116dc576116dc614478565b90506020028101906116ee9190615137565b6040516020016116fe9190615163565b60405160208183030381529060405282828151811061171f5761171f614478565b602090810291909101015260010161167f565b50606060003384848460405160200161174e949392919061522b565b60408051601f19818403018152908290526313942f3360e31b825291506001600160a01b037f00000000000000000000000000000000000000000000000000000000000000001690639ca17998906117ac90309085906004016146f3565b6000604051808303816000875af11580156117cb573d6000803e3d6000fd5b505050506040513d6000823e601f3d908101601f191682016040526117f3919081019061475a565b50505050505050505050565b80806001600160401b031642111561182a5760405163637910d560e11b815260040160405180910390fd5b83836118368282611d2f565b886000816001600160401b0381111561185157611851613f66565b60405190808252806020026020018201604052801561187a578160200160208202803683370190505b5090506000826001600160401b0381111561189757611897613f66565b6040519080825280602002602001820160405280156118ca57816020015b60608152602001906001900390816118b55790505b50905060005b838110156104605760048382815181106118ec576118ec614478565b602002602001019060068111156119055761190561448e565b908160068111156119185761191861448e565b9052508d8d8281811061192d5761192d614478565b905060200281019061193f91906144a4565b60405160200161194f9190614595565b60405160208183030381529060405282828151811061197057611970614478565b60209081029190910101526001016118d0565b60008080808080604087901c602888901c604051639b22917d60e01b81526001600160c01b038316600482015291935091506000906001600160a01b037f00000000000000000000000000000000000000000000000000000000000000001690639b22917d9060240160c060405180830381865afa158015611a09573d6000803e3d6000fd5b505050506040513d601f19601f82011682018060405250810190611a2d9190614e85565b60208101519091506001600160401b0316611a4b600284900b613247565b6040517fd09ef241000000000000000000000000000000000000000000000000000000008152600481018b90529097506000906001600160a01b037f0000000000000000000000000000000000000000000000000000000000000000169063d09ef24190602401606060405180830381865afa158015611acf573d6000803e3d6000fd5b505050506040513d601f19601f82011682018060405250810190611af391906152ab565b80516020820151909a50909150611b13906001600160401b031683614ebe565b6060840151604083015191985090611b4590611b38906001600160401b031685614ebe565b600287900b9060006136dd565b9650611b568162ffffff1660171c90565b611b9c576000611b6c62ffffff83168983613708565b905060008113611b8e57611b7f816152ff565b611b899089615337565b611b98565b611b98818961534a565b9750505b5050505050509193509193565b606081806001600160401b0316421115611bd65760405163637910d560e11b815260040160405180910390fd5b8484611be28282611d2f565b896000816001600160401b03811115611bfd57611bfd613f66565b604051908082528060200260200182016040528015611c26578160200160208202803683370190505b5090506000826001600160401b03811115611c4357611c43613f66565b604051908082528060200260200182016040528015611c7657816020015b6060815260200190600190039081611c615790505b50905060005b838110156110f7576002838281518110611c9857611c98614478565b60200260200101906006811115611cb157611cb161448e565b90816006811115611cc457611cc461448e565b9052508e8e82818110611cd957611cd9614478565b9050602002810190611ceb9190615137565b604051602001611cfb919061535d565b604051602081830303815290604052828281518110611d1c57611d1c614478565b6020908102919091010152600101611c7c565b60005b81811015611e36576000838383818110611d4e57611d4e614478565b905060c00201803603810190611d64919061546b565b60408101515190915015611e2d5780516020808301516040808501518051938101518183015160609092015192517fd505accf0000000000000000000000000000000000000000000000000000000081523360048201523060248201526044810194909452606484019490945260ff909316608483015260a482019290925260c48101919091526001600160a01b039091169063d505accf9060e401600060405180830381600087803b158015611e1a57600080fd5b505af1925050508015611e2b575060015b505b50600101611d32565b505050565b600260005403611e77576040517f3ee5aeb500000000000000000000000000000000000000000000000000000000815260040160405180910390fd5b6002600055565b805160208201516040517ffefc7c510000000000000000000000000000000000000000000000000000000081526001600160a01b037f0000000000000000000000000000000000000000000000000000000000000000169263fefc7c5192611ee8926004016154a9565b600060405180830381600087803b158015611f0257600080fd5b505af1158015611f16573d6000803e3d6000fd5b5050505050565b8051604051639b22917d60e01b81526001600160c01b03909116600482015260009081907f00000000000000000000000000000000000000000000000000000000000000006001600160a01b031690639b22917d9060240160c060405180830381865afa158015611f92573d6000803e3d6000fd5b505050506040513d601f19601f82011682018060405250810190611fb69190614e85565b9050600083604001519050611fd4826060015162ffffff1660171c90565b15611ff2576060820151611fef9062ffffff1682600061378b565b90505b600061201583602001516001600160401b0316836120109190615537565b6137e2565b90506001600160401b038116156120f8577f00000000000000000000000000000000000000000000000000000000000000006001600160a01b0316631dbef4886040518060800160405280868152602001886020015160020b8152602001846001600160401b0316815260200160006001600160a01b031681525087606001516040518363ffffffff1660e01b81526004016120b2929190615559565b60408051808303816000875af11580156120d0573d6000803e3d6000fd5b505050506040513d601f19601f820116820180604052508101906120f49190615608565b5093505b505050919050565b60008061214c6040518060a0016040528085600001516001600160c01b031681526020018560400151815260200185608001518152602001600081526020018560a0015181525061255a565b9150508083608001818151612161919061534a565b9052506080830151156121b6576121b3604051806080016040528085602001516001600160c01b03168152602001856060015160020b8152602001856080015181526020018560c00151815250611f1d565b91505b50919050565b8051604051639b22917d60e01b81526001600160c01b039091166004820152600090819081907f00000000000000000000000000000000000000000000000000000000000000006001600160a01b031690639b22917d9060240160c060405180830381865afa158015612233573d6000803e3d6000fd5b505050506040513d601f19601f820116820180604052508101906122579190614e85565b90505b8284604001511180156122fe5750835160405163fcc8fc9b60e01b81526001600160c01b0390911660048201527f00000000000000000000000000000000000000000000000000000000000000006001600160a01b03169063fcc8fc9b90602401602060405180830381865afa1580156122d8573d6000803e3d6000fd5b505050506040513d601f19601f820116820180604052508101906122fc919061562c565b155b1561252f57835160405163cdc92f2d60e01b81526001600160c01b0390911660048201526000907f00000000000000000000000000000000000000000000000000000000000000006001600160a01b03169063cdc92f2d90602401602060405180830381865afa158015612376573d6000803e3d6000fd5b505050506040513d601f19601f8201168201806040525081019061239a9190614e68565b90506123a88160020b613247565b856020015111156123b9575061252f565b60006123ce8360a0015162ffffff1660171c90565b156123ff576123f88587604001510360018560a0015162ffffff1661378b9092919063ffffffff16565b9050612409565b8486604001510390505b60208301516001600160401b031680820490820615156001160190508060000361243457505061252f565b6000807f00000000000000000000000000000000000000000000000000000000000000006001600160a01b0316633b9500b060405180606001604052808881526020018760020b8152602001612489876137e2565b6001600160401b03168152508a608001516040518363ffffffff1660e01b81526004016124b792919061564e565b60408051808303816000875af11580156124d5573d6000803e3d6000fd5b505050506040513d601f19601f820116820180604052508101906124f99190615608565b915091508160000361250e575050505061252f565b6125188288615337565b96506125248187615337565b95505050505061225a565b818460600151101561255457604051630f271b5560e41b815260040160405180910390fd5b50915091565b8051604051639b22917d60e01b81526001600160c01b039091166004820152600090819081907f00000000000000000000000000000000000000000000000000000000000000006001600160a01b031690639b22917d9060240160c060405180830381865afa1580156125d1573d6000803e3d6000fd5b505050506040513d601f19601f820116820180604052508101906125f59190614e85565b90505b83604001518210801561269c5750835160405163fcc8fc9b60e01b81526001600160c01b0390911660048201527f00000000000000000000000000000000000000000000000000000000000000006001600160a01b03169063fcc8fc9b90602401602060405180830381865afa158015612676573d6000803e3d6000fd5b505050506040513d601f19601f8201168201806040525081019061269a919061562c565b155b156128db57835160405163cdc92f2d60e01b81526001600160c01b0390911660048201526000907f00000000000000000000000000000000000000000000000000000000000000006001600160a01b03169063cdc92f2d90602401602060405180830381865afa158015612714573d6000803e3d6000fd5b505050506040513d601f19601f820116820180604052508101906127389190614e68565b90506127468160020b613247565b8560200151111561275757506128db565b600061276c8360a0015162ffffff1660171c90565b1561277f578386604001510390506127a7565b6127a48487604001510360008560a0015162ffffff1661378b9092919063ffffffff16565b90505b60208301516001600160401b03166127c5600284900b83600061383a565b6127cf9190615537565b9050806000036127e05750506128db565b6000807f00000000000000000000000000000000000000000000000000000000000000006001600160a01b0316633b9500b060405180606001604052808881526020018760020b8152602001612835876137e2565b6001600160401b03168152508a608001516040518363ffffffff1660e01b815260040161286392919061564e565b60408051808303816000875af1158015612881573d6000803e3d6000fd5b505050506040513d601f19601f820116820180604052508101906128a59190615608565b91509150806000036128ba57505050506128db565b6128c48288615337565b96506128d08187615337565b9550505050506125f8565b828460600151111561255457604051630f271b5560e41b815260040160405180910390fd5b805160208201516040517f38926b6d0000000000000000000000000000000000000000000000000000000081526001600160a01b037f000000000000000000000000000000000000000000000000000000000000000016926338926b6d9261296a926004016156e9565b6020604051808303816000875af1158015612989573d6000803e3d6000fd5b505050506040513d601f19601f820116820180604052508101906129ad9190615702565b5050565b60007f00000000000000000000000000000000000000000000000000000000000000006001600160a01b0316639b22917d6129f0846000015160401c90565b6040516001600160e01b031960e084901b1681526001600160c01b03909116600482015260240160c060405180830381865afa158015612a34573d6000803e3d6000fd5b505050506040513d601f19601f82011682018060405250810190612a589190614e85565b90507f00000000000000000000000000000000000000000000000000000000000000006001600160a01b03166314d6a9eb604051806040016040528085600001518152602001612abe85602001516001600160401b031687602001516120109190615537565b6001600160401b031681525084604001516040518363ffffffff1660e01b8152600401612aec92919061571b565b6020604051808303816000875af1925050508015612b27575060408051601f3d908101601f19168201909252612b2491810190615702565b60015b156129ad57505050565b60405163a54b283160e01b81523060048201526000602482018190529081906001600160a01b037f0000000000000000000000000000000000000000000000000000000000000000169063a54b283190604401602060405180830381865afa158015612ba1573d6000803e3d6000fd5b505050506040513d601f19601f82011682018060405250810190612bc59190615702565b90506000811215612c9c57612c0e7f0000000000000000000000000000000000000000000000000000000000000000612bfd836152ff565b6001600160a01b038516919061387d565b604051636a256b2960e01b81526001600160a01b0383811660048301527f00000000000000000000000000000000000000000000000000000000000000001690636a256b29906024016020604051808303816000875af1158015612c76573d6000803e3d6000fd5b505050506040513d601f19601f82011682018060405250810190612c9a9190615702565b505b60405163a54b283160e01b81523060048201526001600160a01b0383811660248301527f0000000000000000000000000000000000000000000000000000000000000000169063a54b283190604401602060405180830381865afa158015612d08573d6000803e3d6000fd5b505050506040513d601f19601f82011682018060405250810190612d2c9190615702565b90506000811315612ddb576040517fd9caed120000000000000000000000000000000000000000000000000000000081526001600160a01b0383811660048301528581166024830152604482018390527f0000000000000000000000000000000000000000000000000000000000000000169063d9caed1290606401600060405180830381600087803b158015612dc257600080fd5b505af1158015612dd6573d6000803e3d6000fd5b505050505b825160005b8181101561322c576000858281518110612dfc57612dfc614478565b602090810291909101015160405163a54b283160e01b81523060048201526001600160a01b0380831660248301529192507f00000000000000000000000000000000000000000000000000000000000000009091169063a54b283190604401602060405180830381865afa158015612e78573d6000803e3d6000fd5b505050506040513d601f19601f82011682018060405250810190612e9c9190615702565b93506000841215612f9657612f08877f0000000000000000000000000000000000000000000000000000000000000000612ed5876152ff565b898681518110612ee757612ee7614478565b60200260200101516001600160a01b0316613952909392919063ffffffff16565b604051636a256b2960e01b81526001600160a01b0382811660048301527f00000000000000000000000000000000000000000000000000000000000000001690636a256b29906024016020604051808303816000875af1158015612f70573d6000803e3d6000fd5b505050506040513d601f19601f82011682018060405250810190612f949190615702565b505b60405163a54b283160e01b81523060048201526001600160a01b0382811660248301527f0000000000000000000000000000000000000000000000000000000000000000169063a54b283190604401602060405180830381865afa158015613002573d6000803e3d6000fd5b505050506040513d601f19601f820116820180604052508101906130269190615702565b935060008413156130e6577f00000000000000000000000000000000000000000000000000000000000000006001600160a01b031663d9caed1287848151811061307257613072614478565b60209081029190910101516040516001600160e01b031960e084901b1681526001600160a01b039182166004820152908a16602482015260448101879052606401600060405180830381600087803b1580156130cd57600080fd5b505af11580156130e1573d6000803e3d6000fd5b505050505b60008683815181106130fa576130fa614478565b60209081029190910101516040517f70a082310000000000000000000000000000000000000000000000000000000081523060048201526001600160a01b03909116906370a0823190602401602060405180830381865afa158015613163573d6000803e3d6000fd5b505050506040513d601f19601f820116820180604052508101906131879190615702565b90508015613222578683815181106131a1576131a1614478565b602090810291909101015160405163a9059cbb60e01b81526001600160a01b038a81166004830152602482018490529091169063a9059cbb906044016020604051808303816000875af11580156131fc573d6000803e3d6000fd5b505050506040513d601f19601f82011682018060405250810190613220919061562c565b505b5050600101612de0565b504715611f1657611f166001600160a01b038416864761387d565b6000613252826139c1565b816000600282900b8113613266578161326f565b61326f82615748565b62ffffff8116915060011615613293576bfff97272373d413259a4699092506132a4565b6c0100000000000000000000000092505b60028116156132c35760606bfff2e50f5f656932ef12357c8402901c92505b60048116156132e25760606bffe5caca7e10e4e61c3624ea8402901c92505b60088116156133015760606bffcb9843d60f6159c9db58838402901c92505b60108116156133205760606bff973b41fa98c081472e68968402901c92505b602081161561333f5760606bff2ea16466c96a3843ec78b38402901c92505b604081161561335e5760606bfe5dee046a99a2a811c461f18402901c92505b608081161561337d5760606bfcbe86c7900a88aedcffc83b8402901c92505b61010081161561339d5760606bf987a7253ac413176f2b074c8402901c92505b6102008116156133bd5760606bf3392b0822b70005940c7a398402901c92505b6104008116156133dd5760606be7159475a2c29b7443b29c7f8402901c92505b6108008116156133fd5760606bd097f3bdfd2022b8845ad8f78402901c92505b61100081161561341d5760606ba9f746462d870fdf8a65dc1f8402901c92505b61200081161561343d5760606b70d869a156d2a1b890bb3df68402901c92505b61400081161561345d5760606b31be135f97d08fd9812315058402901c92505b61800081161561347d5760606b09aa508b5b7a84e1c677de548402901c92505b6201000081161561349d5760606a5d6af8dedb81196699c3298402901c92505b620200008116156134bc576060692216e584f5fa1ea926048402901c92505b620400008116156134d957606067048a170391f7dc428402901c92505b60008260020b131561350b57613508837801000000000000000000000000000000000000000000000000615537565b92505b5050919050565b600081750c6c1313451aab317fb9b67e11777e9a5a6ccdb2ebae81118061353b575062149bbb81105b15613571576040517ebfc92100000000000000000000000000000000000000000000000000000000815260040160405180910390fd5b600070010000000000000000000000000000000061358e85613a20565b6527107fff743402816135a3576135a3615521565b059050836135b082613247565b11156121b3576000190191506121b6565b60005b81811015611e365760008383838181106135e0576135e0614478565b905060a002016020018036038101906135f9919061576a565b8051909150156136d4577f00000000000000000000000000000000000000000000000000000000000000006001600160a01b0316637ac2ff7b3086868681811061364557613645614478565b865160208801516040808a015160608b015191516001600160e01b031960e08b901b1681526001600160a01b03909816600489015260a090940295909501356024870152604486019190915260ff16606485015260848401525060a482015260c401600060405180830381600087803b1580156136c157600080fd5b505af19250505080156136d2575060015b505b506001016135c4565b6000613700606084901b6136f38660020b613247565b8082061515851691040190565b949350505050565b60006207a11f19627fffff851601600281900b8212828161372c578260000361372e565b825b62ffffff16905060006137686137448389614ebe565b620f42408861375a578581830615151691040190565b808206151586151691040190565b90508261377d57613778816152ff565b61377f565b805b98975050505050505050565b60006207a11f19627fffff851601600281900b82128284156137ae578260000392505b82620f42400190506137d7620f4240876137c89190614ebe565b82810615158416908390040190565b979650505050505050565b60006001600160401b0382111561383657604080517f6dfcc6500000000000000000000000000000000000000000000000000000000081526004810191909152602481018390526044015b60405180910390fd5b5090565b600061370061384b8560020b613247565b6138559085614ebe565b6bffffffffffffffffffffffff8116151584166c010000000000000000000000009091040190565b60006001600160a01b0384166138d55760008060008085875af19050806138d0576040517ff4b3b1bc00000000000000000000000000000000000000000000000000000000815260040160405180910390fd5b61394c565b60405163a9059cbb60e01b81526001600160a01b0384166004820152826024820152602060006044836000895af13d15601f3d116001600051141617169150508061394c576040517ff27f64e400000000000000000000000000000000000000000000000000000000815260040160405180910390fd5b50505050565b604080516001600160a01b0385811660248301528416604482015260648082018490528251808303909101815260849091019091526020810180517bffffffffffffffffffffffffffffffffffffffffffffffffffffffff166323b872dd60e01b17905261394c908590613c3b565b6207ffff600282900b13806139e657506139dd6207ffff615748565b60020b8160020b125b15613a1d576040517fce8ef7fc00000000000000000000000000000000000000000000000000000000815260040160405180910390fd5b50565b6fffffffffffffffffffffffffffffffff811160071b81811c6001600160401b031060061b1781811c63ffffffff1060051b1781811c61ffff1060041b1781811c60ff1060031b1760008213613a7e57631615e6386000526004601cfd5b7103782dace9d90000000000000000000000007ff8f9f9faf9fdfafbf9fdfcfdfafbfcfef9fafdfafcfcfbfefafafcfbffffffff6f8421084210842108cc6318c6db6d54be84841c1c601f161a90911891821b609f90811c6c465772b2bbbb5f824b15207a3081018102606090811d6d0388eaa27412d5aca026815d636e018202811d6d0df99ac502031bf953eff472fdcc018202811d6d13cdffb29d51d99322bdff5f2211018202811d6d0a0f742023def783a307a986912e018202811d6d01920d8043ca89b5239253284e42018202811d6c0b7a86d7375468fac667a0a527016c29508e458543d8aa4df2abee7883018302821d6d0139601a2efabe717e604cbb4894018302821d6d02247f7a7b6594320649aa03aba1018302821d6c8c3f38e95a6b1ff2ab1c3b343619018302821d6d02384773bdf1ac5676facced60901901830290911d6cb9a025d814b29c212b8b1a07cd19019091027ffffffffffffffff5f6af8f7b3396644f18e157960000000000000000000000000105711340daa0d5f769dba1915cef59f0815a5506029290037d0267a36c0c95b3975ab3ee5b203a7614a3f75373f047d803ae7b6687f2b302919091010590565b6000613c506001600160a01b03841683613cb7565b90508051600014158015613c75575080806020019051810190613c73919061562c565b155b15611e36576040517f5274afe70000000000000000000000000000000000000000000000000000000081526001600160a01b038416600482015260240161382d565b6060610ddc8383600084600080856001600160a01b03168486604051613cdd9190615786565b60006040518083038185875af1925050503d8060008114613d1a576040519150601f19603f3d011682016040523d82523d6000602084013e613d1f565b606091505b5091509150613d2f868383613d39565b9695505050505050565b606082613d4e57613d4982613dae565b610ddc565b8151158015613d6557506001600160a01b0384163b155b15613da7576040517f9996b3150000000000000000000000000000000000000000000000000000000081526001600160a01b038516600482015260240161382d565b5080610ddc565b805115613dbe5780518082602001fd5b6040517fd6bda27500000000000000000000000000000000000000000000000000000000815260040160405180910390fd5b60008083601f840112613e0257600080fd5b5081356001600160401b03811115613e1957600080fd5b6020830191508360208260051b8501011115613e3457600080fd5b9250929050565b60008083601f840112613e4d57600080fd5b5081356001600160401b03811115613e6457600080fd5b60208301915083602060c083028501011115613e3457600080fd5b6001600160401b0381168114613a1d57600080fd5b8035613e9f81613e7f565b919050565b60008060008060008060006080888a031215613ebf57600080fd5b87356001600160401b0380821115613ed657600080fd5b613ee28b838c01613df0565b909950975060208a0135915080821115613efb57600080fd5b613f078b838c01613df0565b909750955060408a0135915080821115613f2057600080fd5b50613f2d8a828b01613e3b565b9094509250506060880135613f4181613e7f565b8091505092959891949750929550565b6001600160a01b0381168114613a1d57600080fd5b634e487b7160e01b600052604160045260246000fd5b604080519081016001600160401b0381118282101715613f9e57613f9e613f66565b60405290565b604051608081016001600160401b0381118282101715613f9e57613f9e613f66565b60405160e081016001600160401b0381118282101715613f9e57613f9e613f66565b604051606081016001600160401b0381118282101715613f9e57613f9e613f66565b604051601f8201601f191681016001600160401b038111828210171561403257614032613f66565b604052919050565b60006001600160401b0382111561405357614053613f66565b50601f01601f191660200190565b6000806040838503121561407457600080fd5b823561407f81613f51565b915060208301356001600160401b0381111561409a57600080fd5b8301601f810185136140ab57600080fd5b80356140be6140b98261403a565b61400a565b8181528660208385010111156140d357600080fd5b816020840160208301376000602083830101528093505050509250929050565b60005b8381101561410e5781810151838201526020016140f6565b50506000910152565b6000815180845261412f8160208601602086016140f3565b601f01601f19169290920160200192915050565b602081526000610ddc6020830184614117565b6001600160c01b0381168114613a1d57600080fd5b60006020828403121561417d57600080fd5b8135610ddc81614156565b8060020b8114613a1d57600080fd5b8035613e9f81614188565b600080604083850312156141b557600080fd5b82356141c081614156565b915060208301356141d081614188565b809150509250929050565b6000602082840312156141ed57600080fd5b5035919050565b60006020828403121561420657600080fd5b8135610ddc81614188565b60008083601f84011261422357600080fd5b5081356001600160401b0381111561423a57600080fd5b60208301915083602060a083028501011115613e3457600080fd5b600080600080600080600080600080600060c08c8e03121561427657600080fd5b6001600160401b03808d35111561428c57600080fd5b6142998e8e358f01613df0565b909c509a5060208d01358110156142af57600080fd5b6142bf8e60208f01358f01613df0565b909a50985060408d01358110156142d557600080fd5b6142e58e60408f01358f01613df0565b909850965060608d01358110156142fb57600080fd5b61430b8e60608f01358f01613e3b565b909650945060808d013581101561432157600080fd5b506143328d60808e01358e01614211565b909350915061434360a08d01613e94565b90509295989b509295989b9093969950565b6020808252825182820181905260009190848201906040850190845b8181101561438d57835183529284019291840191600101614371565b50909695505050505050565b60008060008060008060006080888a0312156143b457600080fd5b87356001600160401b03808211156143cb57600080fd5b6143d78b838c01613df0565b909950975060208a01359150808211156143f057600080fd5b6143fc8b838c01613df0565b909750955060408a013591508082111561441557600080fd5b50613f2d8a828b01614211565b60008060006040848603121561443757600080fd5b83356001600160401b0381111561444d57600080fd5b61445986828701613df0565b909450925050602084013561446d81613e7f565b809150509250925092565b634e487b7160e01b600052603260045260246000fd5b634e487b7160e01b600052602160045260246000fd5b60008235609e198336030181126144ba57600080fd5b9190910192915050565b6000808335601e198436030181126144db57600080fd5b83016020810192503590506001600160401b038111156144fa57600080fd5b803603821315613e3457600080fd5b81835281816020850137506000828201602090810191909152601f909101601f19169091010190565b6000813561453f81614156565b6001600160c01b03811684525060208201356020840152604082013560408401526060820135606084015261457760808301836144c4565b60a0608086015261458c60a086018284614509565b95945050505050565b602081526000610ddc6020830184614532565b6000600782106145c857634e487b7160e01b600052602160045260246000fd5b50815260200190565b60008151808452602080850194506020840160005b83811015614607576145f98783516145a8565b9650908201906001016145e6565b509495945050505050565b60008282518085526020808601955060208260051b8401016020860160005b8481101561465f57601f1986840301895261464d838351614117565b98840198925090830190600101614631565b5090979650505050505050565b8183526000602080850194508260005b8581101561460757813561468f81613f51565b6001600160a01b03168752958201959082019060010161467c565b6001600160a01b03861681526080602082015260006146cc60808301876145d1565b82810360408401526146de8187614612565b9050828103606084015261377f81858761466c565b6001600160a01b03831681526040602082015260006137006040830184614117565b600082601f83011261472657600080fd5b81516147346140b98261403a565b81815284602083860101111561474957600080fd5b6137008260208301602087016140f3565b60006020828403121561476c57600080fd5b81516001600160401b0381111561478257600080fd5b61370084828501614715565b60006001600160401b038211156147a7576147a7613f66565b5060051b60200190565b60078110613a1d57600080fd5b600082601f8301126147cf57600080fd5b815160206147df6140b98361478e565b82815260059290921b840181019181810190868411156147fe57600080fd5b8286015b8481101561483d5780516001600160401b038111156148215760008081fd5b61482f8986838b0101614715565b845250918301918301614802565b509695505050505050565b600082601f83011261485957600080fd5b815160206148696140b98361478e565b8083825260208201915060208460051b87010193508684111561488b57600080fd5b602086015b8481101561483d5780516148a381613f51565b8352918301918301614890565b600080600080608085870312156148c657600080fd5b84516148d181613f51565b809450506020808601516001600160401b03808211156148f057600080fd5b818801915088601f83011261490457600080fd5b81516149126140b98261478e565b81815260059190911b8301840190848101908b83111561493157600080fd5b938501935b82851015614958578451614949816147b1565b82529385019390850190614936565b60408b0151909850945050508083111561497157600080fd5b61497d89848a016147be565b9450606088015192508083111561499357600080fd5b50506149a187828801614848565b91505092959194509250565b62ffffff81168114613a1d57600080fd5b600060c082840312156149d057600080fd5b60405160c081018181106001600160401b03821117156149f2576149f2613f66565b80604052508091508251614a0581613f51565b81526020830151614a1581613e7f565b60208201526040830151614a2881613f51565b60408201526060830151614a3b816149ad565b60608201526080830151614a4e81613f51565b608082015260a0830151614a61816149ad565b60a0919091015292915050565b600060208284031215614a8057600080fd5b81516001600160401b0380821115614a9757600080fd5b9083019060e08286031215614aab57600080fd5b614ab3613f7c565b614abd86846149be565b815260c083015182811115614ad157600080fd5b614add87828601614715565b60208301525095945050505050565b8051613e9f81614156565b8051613e9f81614188565b600060208284031215614b1457600080fd5b81516001600160401b0380821115614b2b57600080fd5b9083019060808286031215614b3f57600080fd5b614b47613fa4565b8251614b5281614156565b81526020830151614b6281614188565b602082015260408381015190820152606083015182811115614b8357600080fd5b614b8f87828601614715565b60608301525095945050505050565b634e487b7160e01b600052601160045260246000fd5b600060018201614bc657614bc6614b9e565b5060010190565b600060208284031215614bdf57600080fd5b81516001600160401b0380821115614bf657600080fd5b9083019060e08286031215614c0a57600080fd5b614c12613fc6565b614c1b83614aec565b8152614c2960208401614aec565b602082015260408301516040820152614c4460608401614af7565b60608201526080830151608082015260a083015182811115614c6557600080fd5b614c7187828601614715565b60a08301525060c083015182811115614c8957600080fd5b614c9587828601614715565b60c08301525095945050505050565b600060a08284031215614cb657600080fd5b60405160a081016001600160401b038282108183111715614cd957614cd9613f66565b8160405282935084519150614ced82614156565b8183526020850151602084015260408501516040840152606085015160608401526080850151915080821115614d2257600080fd5b50614d2f85828601614715565b6080830152505092915050565b600060208284031215614d4e57600080fd5b81516001600160401b03811115614d6457600080fd5b61370084828501614ca4565b600060208284031215614d8257600080fd5b81516001600160401b0380821115614d9957600080fd5b9083019060408286031215614dad57600080fd5b614db5613f7c565b82518152602083015182811115614ad157600080fd5b600060208284031215614ddd57600080fd5b8151610ddc81613f51565b600060208284031215614dfa57600080fd5b81516001600160401b0380821115614e1157600080fd5b9083019060608286031215614e2557600080fd5b614e2d613fe8565b8251815260208301516020820152604083015182811115614e4d57600080fd5b614e5987828601614715565b60408301525095945050505050565b600060208284031215614e7a57600080fd5b8151610ddc81614188565b600060c08284031215614e9757600080fd5b610ddc83836149be565b600060208284031215614eb357600080fd5b8151610ddc81613e7f565b8082028115828204841417610bcb57610bcb614b9e565b6001600160a01b038816815260806020808301829052908201879052600090889060a08401835b8a811015614f28578335614f0f816147b1565b614f1983826145a8565b94840194925050600101614efc565b5084810360408601528781528181019250600588901b810182018960005b8a811015614f8057838303601f19018652614f61828d6144c4565b614f6c858284614509565b978701979450505090840190600101614f46565b50508581036060870152614f9581888a61466c565b9d9c50505050505050505050505050565b60006020808385031215614fb957600080fd5b82516001600160401b03811115614fcf57600080fd5b8301601f81018513614fe057600080fd5b8051614fee6140b98261478e565b81815260059190911b8201830190838101908783111561500d57600080fd5b928401925b828410156137d757835182529284019290840190615012565b60008235607e198336030181126144ba57600080fd5b602081526000823561505281614156565b6001600160c01b038116602084015250602083013561507081614188565b8060020b6040840152506040830135606083015261509160608401846144c4565b60808085015261458c60a085018284614509565b60008235603e198336030181126144ba57600080fd5b602081528135602082015260006150d560208401846144c4565b60408085015261458c606085018284614509565b60008235605e198336030181126144ba57600080fd5b602081528135602082015260208201356040820152600061512360408401846144c4565b60608085015261458c608085018284614509565b6000823560de198336030181126144ba57600080fd5b8035613e9f816149ad565b8035613e9f81613f51565b602081526000823561517481613f51565b6001600160a01b0380821660208501526020850135915061519482613e7f565b6001600160401b0382166040850152604085013591506151b382613f51565b166060838101919091528301356151c9816149ad565b62ffffff81166080840152506151e160808401615158565b6001600160a01b03811660a0840152506151fd60a0840161514d565b62ffffff811660c08401525061521660c08401846144c4565b60e08085015261458c61010085018284614509565b60006001600160a01b03808716835260206080602085015261525060808501886145d1565b84810360408601526152628188614612565b85810360608701528651808252602080890193509091019060005b8181101561529b57835186168352928401929184019160010161527d565b50909a9950505050505050505050565b6000606082840312156152bd57600080fd5b6152c5613fe8565b82516152d081613f51565b815260208301516152e081613e7f565b602082015260408301516152f381613e7f565b60408201529392505050565b60007f8000000000000000000000000000000000000000000000000000000000000000820361533057615330614b9e565b5060000390565b80820180821115610bcb57610bcb614b9e565b81810381811115610bcb57610bcb614b9e565b602081526000823561536e81614156565b6001600160c01b038116602084015250602083013561538c81614156565b6001600160c01b038116604084015250604083013560608301526153b260608401614197565b6153c1608084018260020b9052565b50608083013560a08301526153d960a08401846144c4565b60e060c08501526153ef61010085018284614509565b9150506153ff60c08501856144c4565b848303601f190160e0860152613d2f838284614509565b60006080828403121561542857600080fd5b615430613fa4565b905081358152602082013560ff8116811461544a57600080fd5b80602083015250604082013560408201526060820135606082015292915050565b600060c0828403121561547d57600080fd5b615485613fe8565b823561549081613f51565b8152602083810135908201526152f38460408501615416565b61550b81846001600160a01b038082511683526001600160401b036020830151166020840152806040830151166040840152606082015162ffffff80821660608601528260808501511660808601528060a08501511660a08601525050505050565b60e060c0820152600061370060e0830184614117565b634e487b7160e01b600052601260045260246000fd5b60008261555457634e487b7160e01b600052601260045260246000fd5b500490565b60006101406155c18386516001600160a01b038082511683526001600160401b036020830151166020840152806040830151166040840152606082015162ffffff80821660608601528260808501511660808601528060a08501511660a08601525050505050565b602085015160020b60c08401526001600160401b0360408601511660e08401526001600160a01b036060860151166101008401528061012084015261458c81840185614117565b6000806040838503121561561b57600080fd5b505080516020909101519092909150565b60006020828403121561563e57600080fd5b81518015158114610ddc57600080fd5b60006101206156b68386516001600160a01b038082511683526001600160401b036020830151166020840152806040830151166040840152606082015162ffffff80821660608601528260808501511660808601528060a08501511660a08601525050505050565b602085015160020b60c08401526001600160401b0360408601511660e08401528061010084015261458c81840185614117565b8281526040602082015260006137006040830184614117565b60006020828403121561571457600080fd5b5051919050565b825181526001600160401b0360208401511660208201526060604082015260006137006060830184614117565b60008160020b627fffff19810361576157615761614b9e565b60000392915050565b60006080828403121561577c57600080fd5b610ddc8383615416565b600082516144ba8184602087016140f356fea2646970667358221220cfe5445b1f1740950c5dbddf94713eeaed55b4939b573f88b05e7d61d939de5964736f6c63430008190033",
  "devdoc": {
    "errors": {
      "AddressEmptyCode(address)": [
        {
          "details": "There's no code at `target` (it is not a contract)."
        }
      ],
      "FailedCall()": [
        {
          "details": "A call to an address target failed. The target may have reverted."
        }
      ],
      "InsufficientBalance(uint256,uint256)": [
        {
          "details": "The ETH balance of the account is not enough to perform the operation."
        }
      ],
      "ReentrancyGuardReentrantCall()": [
        {
          "details": "Unauthorized reentrant call."
        }
      ],
      "SafeCastOverflowedUintDowncast(uint8,uint256)": [
        {
          "details": "Value doesn't fit in an uint of `bits` size."
        }
      ],
      "SafeERC20FailedOperation(address)": [
        {
          "details": "An operation with an ERC-20 token failed."
        }
      ]
    },
    "kind": "dev",
    "methods": {
      "cancel((uint256,uint256,bytes)[],address[],(uint256,(uint256,uint8,bytes32,bytes32))[],uint64)": {
        "details": "IMPORTANT: The caller must provide `tokensToSettle` to receive appropriate tokens after execution.",
        "params": {
          "deadline": "The deadline for the actions",
          "orderParamsList": "The list of actions to cancel",
          "permitParamsList": "The parameters of the permits",
          "tokensToSettle": "The tokens to settle"
        }
      },
      "claim((uint256,bytes)[],address[],(uint256,(uint256,uint8,bytes32,bytes32))[],uint64)": {
        "details": "IMPORTANT: The caller must provide `tokensToSettle` to receive appropriate tokens after execution.",
        "params": {
          "deadline": "The deadline for the actions",
          "orderParamsList": "The list of actions to claim",
          "permitParamsList": "The parameters of the permits",
          "tokensToSettle": "The tokens to settle"
        }
      },
      "execute(uint8[],bytes[],address[],(address,uint256,(uint256,uint8,bytes32,bytes32))[],(uint256,(uint256,uint8,bytes32,bytes32))[],uint64)": {
        "details": "IMPORTANT: The caller must provide `tokensToSettle` to receive appropriate tokens after execution.",
        "params": {
          "actionList": "The list of actions to execute",
          "deadline": "The deadline for the actions",
          "erc20PermitParamsList": "The parameters of the ERC20 permits",
          "erc721PermitParamsList": "The parameters of the ERC721 permits",
          "paramsDataList": "The parameters of the actions",
          "tokensToSettle": "The tokens to settle"
        },
        "returns": {
          "ids": "The ids of the orders"
        }
      },
      "fromPrice(uint256)": {
        "params": {
          "price": "The price to convert"
        },
        "returns": {
          "_0": "The tick"
        }
      },
      "getDepth(uint192,int24)": {
        "params": {
          "id": "The id of the book",
          "tick": "The tick of the book"
        },
        "returns": {
          "_0": "The depth of the book in quote amount"
        }
      },
      "getHighestPrice(uint192)": {
        "params": {
          "id": "The id of the book"
        },
        "returns": {
          "_0": "The highest price of the book with 2**96 precision"
        }
      },
      "getOrder(uint256)": {
        "params": {
          "orderId": "The id of the order"
        },
        "returns": {
          "claimableAmount": "The claimable base amount of the order",
          "openAmount": "The open quote amount of the order",
          "price": "The price of the order with 2**96 precision",
          "provider": "The provider of the order"
        }
      },
      "make((uint192,int24,uint256,bytes)[],address[],(address,uint256,(uint256,uint8,bytes32,bytes32))[],uint64)": {
        "details": "IMPORTANT: The caller must provide `tokensToSettle` to receive appropriate tokens after execution.",
        "params": {
          "deadline": "The deadline for the actions",
          "orderParamsList": "The list of actions to make",
          "permitParamsList": "The parameters of the permits",
          "tokensToSettle": "The tokens to settle"
        },
        "returns": {
          "ids": "The ids of the orders"
        }
      },
      "open(((address,uint64,address,uint24,address,uint24),bytes)[],uint64)": {
        "params": {
          "deadline": "The deadline for the action",
          "openBookParamsList": "The parameters of the open book action"
        }
      },
      "spend((uint192,uint256,uint256,uint256,bytes)[],address[],(address,uint256,(uint256,uint8,bytes32,bytes32))[],uint64)": {
        "details": "IMPORTANT: The caller must provide `tokensToSettle` to receive appropriate tokens after execution.",
        "params": {
          "deadline": "The deadline for the actions",
          "orderParamsList": "The list of actions to spend",
          "permitParamsList": "The parameters of the permits",
          "tokensToSettle": "The tokens to settle"
        }
      },
      "take((uint192,uint256,uint256,uint256,bytes)[],address[],(address,uint256,(uint256,uint8,bytes32,bytes32))[],uint64)": {
        "details": "IMPORTANT: The caller must provide `tokensToSettle` to receive appropriate tokens after execution.",
        "params": {
          "deadline": "The deadline for the actions",
          "orderParamsList": "The list of actions to take",
          "permitParamsList": "The parameters of the permits",
          "tokensToSettle": "The tokens to settle"
        }
      },
      "toPrice(int24)": {
        "params": {
          "tick": "The tick to convert"
        },
        "returns": {
          "_0": "The price with 2**96 precision"
        }
      }
    },
    "version": 1
  },
  "userdoc": {
    "errors": {
      "ERC20TransferFailed()": [
        {
          "notice": "Thrown when an ERC20 transfer fails"
        }
      ],
      "NativeTransferFailed()": [
        {
          "notice": "Thrown when a native transfer fails"
        }
      ]
    },
    "kind": "user",
    "methods": {
      "cancel((uint256,uint256,bytes)[],address[],(uint256,(uint256,uint8,bytes32,bytes32))[],uint64)": {
        "notice": "Cancels a list of orders"
      },
      "claim((uint256,bytes)[],address[],(uint256,(uint256,uint8,bytes32,bytes32))[],uint64)": {
        "notice": "Claims a list of orders"
      },
      "execute(uint8[],bytes[],address[],(address,uint256,(uint256,uint8,bytes32,bytes32))[],(uint256,(uint256,uint8,bytes32,bytes32))[],uint64)": {
        "notice": "Executes a list of actions"
      },
      "fromPrice(uint256)": {
        "notice": "Converts a price to a tick"
      },
      "getDepth(uint192,int24)": {
        "notice": "Returns the depth of a book"
      },
      "getHighestPrice(uint192)": {
        "notice": "Returns the highest price of a book"
      },
      "getOrder(uint256)": {
        "notice": "Returns the details of an order"
      },
      "make((uint192,int24,uint256,bytes)[],address[],(address,uint256,(uint256,uint8,bytes32,bytes32))[],uint64)": {
        "notice": "Makes a list of orders"
      },
      "open(((address,uint64,address,uint24,address,uint24),bytes)[],uint64)": {
        "notice": "Opens a book"
      },
      "spend((uint192,uint256,uint256,uint256,bytes)[],address[],(address,uint256,(uint256,uint8,bytes32,bytes32))[],uint64)": {
        "notice": "Spends to take a list of orders"
      },
      "take((uint192,uint256,uint256,uint256,bytes)[],address[],(address,uint256,(uint256,uint8,bytes32,bytes32))[],uint64)": {
        "notice": "Takes a list of orders"
      },
      "toPrice(int24)": {
        "notice": "Converts a tick to a price"
      }
    },
    "version": 1
  },
  "storageLayout": {
    "storage": [
      {
        "astId": 2331,
        "contract": "src/Controller.sol:Controller",
        "label": "_status",
        "offset": 0,
        "slot": "0",
        "type": "t_uint256"
      }
    ],
    "types": {
      "t_uint256": {
        "encoding": "inplace",
        "label": "uint256",
        "numberOfBytes": "32"
      }
    }
  }
}