{
  "address": "0xaF08CE077578374799C918A5a8DA7BEc5298BCED",
  "abi": [
    {
      "inputs": [
        {
          "internalType": "address",
          "name": "owner_",
          "type": "address"
        },
        {
          "internalType": "address",
          "name": "defaultProvider_",
          "type": "address"
        },
        {
          "internalType": "string",
          "name": "baseURI_",
          "type": "string"
        },
        {
          "internalType": "string",
          "name": "contractURI_",
          "type": "string"
        },
        {
          "internalType": "string",
          "name": "name_",
          "type": "string"
        },
        {
          "internalType": "string",
          "name": "symbol_",
          "type": "string"
        }
      ],
      "stateMutability": "nonpayable",
      "type": "constructor"
    },
    {
      "inputs": [],
      "name": "BookNotOpened",
      "type": "error"
    },
    {
      "inputs": [],
      "name": "CurrencyNotSettled",
      "type": "error"
    },
    {
      "inputs": [],
      "name": "ECDSAInvalidSignature",
      "type": "error"
    },
    {
      "inputs": [
        {
          "internalType": "uint256",
          "name": "length",
          "type": "uint256"
        }
      ],
      "name": "ECDSAInvalidSignatureLength",
      "type": "error"
    },
    {
      "inputs": [
        {
          "internalType": "bytes32",
          "name": "s",
          "type": "bytes32"
        }
      ],
      "name": "ECDSAInvalidSignatureS",
      "type": "error"
    },
    {
      "inputs": [],
      "name": "ERC20TransferFailed",
      "type": "error"
    },
    {
      "inputs": [
        {
          "internalType": "address",
          "name": "sender",
          "type": "address"
        },
        {
          "internalType": "uint256",
          "name": "tokenId",
          "type": "uint256"
        },
        {
          "internalType": "address",
          "name": "owner",
          "type": "address"
        }
      ],
      "name": "ERC721IncorrectOwner",
      "type": "error"
    },
    {
      "inputs": [
        {
          "internalType": "address",
          "name": "operator",
          "type": "address"
        },
        {
          "internalType": "uint256",
          "name": "tokenId",
          "type": "uint256"
        }
      ],
      "name": "ERC721InsufficientApproval",
      "type": "error"
    },
    {
      "inputs": [
        {
          "internalType": "address",
          "name": "approver",
          "type": "address"
        }
      ],
      "name": "ERC721InvalidApprover",
      "type": "error"
    },
    {
      "inputs": [
        {
          "internalType": "address",
          "name": "operator",
          "type": "address"
        }
      ],
      "name": "ERC721InvalidOperator",
      "type": "error"
    },
    {
      "inputs": [
        {
          "internalType": "address",
          "name": "owner",
          "type": "address"
        }
      ],
      "name": "ERC721InvalidOwner",
      "type": "error"
    },
    {
      "inputs": [
        {
          "internalType": "address",
          "name": "receiver",
          "type": "address"
        }
      ],
      "name": "ERC721InvalidReceiver",
      "type": "error"
    },
    {
      "inputs": [
        {
          "internalType": "address",
          "name": "sender",
          "type": "address"
        }
      ],
      "name": "ERC721InvalidSender",
      "type": "error"
    },
    {
      "inputs": [
        {
          "internalType": "uint256",
          "name": "tokenId",
          "type": "uint256"
        }
      ],
      "name": "ERC721NonexistentToken",
      "type": "error"
    },
    {
      "inputs": [],
      "name": "EmptyError",
      "type": "error"
    },
    {
      "inputs": [],
      "name": "FailedHookCall",
      "type": "error"
    },
    {
      "inputs": [
        {
          "internalType": "address",
          "name": "hooks",
          "type": "address"
        }
      ],
      "name": "HookAddressNotValid",
      "type": "error"
    },
    {
      "inputs": [],
      "name": "InvalidFeePolicy",
      "type": "error"
    },
    {
      "inputs": [],
      "name": "InvalidHookResponse",
      "type": "error"
    },
    {
      "inputs": [
        {
          "internalType": "address",
          "name": "provider",
          "type": "address"
        }
      ],
      "name": "InvalidProvider",
      "type": "error"
    },
    {
      "inputs": [],
      "name": "InvalidShortString",
      "type": "error"
    },
    {
      "inputs": [],
      "name": "InvalidSignature",
      "type": "error"
    },
    {
      "inputs": [],
      "name": "InvalidTick",
      "type": "error"
    },
    {
      "inputs": [],
      "name": "InvalidUnitSize",
      "type": "error"
    },
    {
      "inputs": [
        {
          "internalType": "address",
          "name": "locker",
          "type": "address"
        },
        {
          "internalType": "address",
          "name": "hook",
          "type": "address"
        }
      ],
      "name": "LockedBy",
      "type": "error"
    },
    {
      "inputs": [],
      "name": "NativeTransferFailed",
      "type": "error"
    },
    {
      "inputs": [
        {
          "internalType": "address",
          "name": "owner",
          "type": "address"
        }
      ],
      "name": "OwnableInvalidOwner",
      "type": "error"
    },
    {
      "inputs": [
        {
          "internalType": "address",
          "name": "account",
          "type": "address"
        }
      ],
      "name": "OwnableUnauthorizedAccount",
      "type": "error"
    },
    {
      "inputs": [],
      "name": "PermitExpired",
      "type": "error"
    },
    {
      "inputs": [
        {
          "internalType": "int256",
          "name": "value",
          "type": "int256"
        }
      ],
      "name": "SafeCastOverflowedIntToUint",
      "type": "error"
    },
    {
      "inputs": [
        {
          "internalType": "uint256",
          "name": "value",
          "type": "uint256"
        }
      ],
      "name": "SafeCastOverflowedUintToInt",
      "type": "error"
    },
    {
      "inputs": [
        {
          "internalType": "string",
          "name": "str",
          "type": "string"
        }
      ],
      "name": "StringTooLong",
      "type": "error"
    },
    {
      "anonymous": false,
      "inputs": [
        {
          "indexed": true,
          "internalType": "address",
          "name": "owner",
          "type": "address"
        },
        {
          "indexed": true,
          "internalType": "address",
          "name": "approved",
          "type": "address"
        },
        {
          "indexed": true,
          "internalType": "uint256",
          "name": "tokenId",
          "type": "uint256"
        }
      ],
      "name": "Approval",
      "type": "event"
    },
    {
      "anonymous": false,
      "inputs": [
        {
          "indexed": true,
          "internalType": "address",
          "name": "owner",
          "type": "address"
        },
        {
          "indexed": true,
          "internalType": "address",
          "name": "operator",
          "type": "address"
        },
        {
          "indexed": false,
          "internalType": "bool",
          "name": "approved",
          "type": "bool"
        }
      ],
      "name": "ApprovalForAll",
      "type": "event"
    },
    {
      "anonymous": false,
      "inputs": [
        {
          "indexed": true,
          "internalType": "OrderId",
          "name": "orderId",
          "type": "uint256"
        },
        {
          "indexed": false,
          "internalType": "uint64",
          "name": "unit",
          "type": "uint64"
        }
      ],
      "name": "Cancel",
      "type": "event"
    },
    {
      "anonymous": false,
      "inputs": [
        {
          "indexed": true,
          "internalType": "OrderId",
          "name": "orderId",
          "type": "uint256"
        },
        {
          "indexed": false,
          "internalType": "uint64",
          "name": "unit",
          "type": "uint64"
        }
      ],
      "name": "Claim",
      "type": "event"
    },
    {
      "anonymous": false,
      "inputs": [
        {
          "indexed": true,
          "internalType": "address",
          "name": "provider",
          "type": "address"
        },
        {
          "indexed": true,
          "internalType": "address",
          "name": "recipient",
          "type": "address"
        },
        {
          "indexed": true,
          "internalType": "Currency",
          "name": "currency",
          "type": "address"
        },
        {
          "indexed": false,
          "internalType": "uint256",
          "name": "amount",
          "type": "uint256"
        }
      ],
      "name": "Collect",
      "type": "event"
    },
    {
      "anonymous": false,
      "inputs": [
        {
          "indexed": true,
          "internalType": "address",
          "name": "provider",
          "type": "address"
        }
      ],
      "name": "Delist",
      "type": "event"
    },
    {
      "anonymous": false,
      "inputs": [],
      "name": "EIP712DomainChanged",
      "type": "event"
    },
    {
      "anonymous": false,
      "inputs": [
        {
          "indexed": true,
          "internalType": "BookId",
          "name": "bookId",
          "type": "uint192"
        },
        {
          "indexed": true,
          "internalType": "address",
          "name": "user",
          "type": "address"
        },
        {
          "indexed": false,
          "internalType": "Tick",
          "name": "tick",
          "type": "int24"
        },
        {
          "indexed": false,
          "internalType": "uint256",
          "name": "orderIndex",
          "type": "uint256"
        },
        {
          "indexed": false,
          "internalType": "uint64",
          "name": "unit",
          "type": "uint64"
        },
        {
          "indexed": false,
          "internalType": "address",
          "name": "provider",
          "type": "address"
        }
      ],
      "name": "Make",
      "type": "event"
    },
    {
      "anonymous": false,
      "inputs": [
        {
          "indexed": true,
          "internalType": "BookId",
          "name": "id",
          "type": "uint192"
        },
        {
          "indexed": true,
          "internalType": "Currency",
          "name": "base",
          "type": "address"
        },
        {
          "indexed": true,
          "internalType": "Currency",
          "name": "quote",
          "type": "address"
        },
        {
          "indexed": false,
          "internalType": "uint64",
          "name": "unitSize",
          "type": "uint64"
        },
        {
          "indexed": false,
          "internalType": "FeePolicy",
          "name": "makerPolicy",
          "type": "uint24"
        },
        {
          "indexed": false,
          "internalType": "FeePolicy",
          "name": "takerPolicy",
          "type": "uint24"
        },
        {
          "indexed": false,
          "internalType": "contract IHooks",
          "name": "hooks",
          "type": "address"
        }
      ],
      "name": "Open",
      "type": "event"
    },
    {
      "anonymous": false,
      "inputs": [
        {
          "indexed": true,
          "internalType": "address",
          "name": "previousOwner",
          "type": "address"
        },
        {
          "indexed": true,
          "internalType": "address",
          "name": "newOwner",
          "type": "address"
        }
      ],
      "name": "OwnershipTransferStarted",
      "type": "event"
    },
    {
      "anonymous": false,
      "inputs": [
        {
          "indexed": true,
          "internalType": "address",
          "name": "previousOwner",
          "type": "address"
        },
        {
          "indexed": true,
          "internalType": "address",
          "name": "newOwner",
          "type": "address"
        }
      ],
      "name": "OwnershipTransferred",
      "type": "event"
    },
    {
      "anonymous": false,
      "inputs": [
        {
          "indexed": true,
          "internalType": "address",
          "name": "newDefaultProvider",
          "type": "address"
        }
      ],
      "name": "SetDefaultProvider",
      "type": "event"
    },
    {
      "anonymous": false,
      "inputs": [
        {
          "indexed": true,
          "internalType": "BookId",
          "name": "bookId",
          "type": "uint192"
        },
        {
          "indexed": true,
          "internalType": "address",
          "name": "user",
          "type": "address"
        },
        {
          "indexed": false,
          "internalType": "Tick",
          "name": "tick",
          "type": "int24"
        },
        {
          "indexed": false,
          "internalType": "uint64",
          "name": "unit",
          "type": "uint64"
        }
      ],
      "name": "Take",
      "type": "event"
    },
    {
      "anonymous": false,
      "inputs": [
        {
          "indexed": true,
          "internalType": "address",
          "name": "from",
          "type": "address"
        },
        {
          "indexed": true,
          "internalType": "address",
          "name": "to",
          "type": "address"
        },
        {
          "indexed": true,
          "internalType": "uint256",
          "name": "tokenId",
          "type": "uint256"
        }
      ],
      "name": "Transfer",
      "type": "event"
    },
    {
      "anonymous": false,
      "inputs": [
        {
          "indexed": true,
          "internalType": "address",
          "name": "provider",
          "type": "address"
        }
      ],
      "name": "Whitelist",
      "type": "event"
    },
    {
      "inputs": [],
      "name": "DOMAIN_SEPARATOR",
      "outputs": [
        {
          "internalType": "bytes32",
          "name": "",
          "type": "bytes32"
        }
      ],
      "stateMutability": "view",
      "type": "function"
    },
    {
      "inputs": [],
      "name": "PERMIT_TYPEHASH",
      "outputs": [
        {
          "internalType": "bytes32",
          "name": "",
          "type": "bytes32"
        }
      ],
      "stateMutability": "view",
      "type": "function"
    },
    {
      "inputs": [],
      "name": "acceptOwnership",
      "outputs": [],
      "stateMutability": "nonpayable",
      "type": "function"
    },
    {
      "inputs": [
        {
          "internalType": "address",
          "name": "to",
          "type": "address"
        },
        {
          "internalType": "uint256",
          "name": "tokenId",
          "type": "uint256"
        }
      ],
      "name": "approve",
      "outputs": [],
      "stateMutability": "nonpayable",
      "type": "function"
    },
    {
      "inputs": [
        {
          "internalType": "address",
          "name": "owner",
          "type": "address"
        }
      ],
      "name": "balanceOf",
      "outputs": [
        {
          "internalType": "uint256",
          "name": "",
          "type": "uint256"
        }
      ],
      "stateMutability": "view",
      "type": "function"
    },
    {
      "inputs": [],
      "name": "baseURI",
      "outputs": [
        {
          "internalType": "string",
          "name": "",
          "type": "string"
        }
      ],
      "stateMutability": "view",
      "type": "function"
    },
    {
      "inputs": [
        {
          "components": [
            {
              "internalType": "OrderId",
              "name": "id",
              "type": "uint256"
            },
            {
              "internalType": "uint64",
              "name": "toUnit",
              "type": "uint64"
            }
          ],
          "internalType": "struct IBookManager.CancelParams",
          "name": "params",
          "type": "tuple"
        },
        {
          "internalType": "bytes",
          "name": "hookData",
          "type": "bytes"
        }
      ],
      "name": "cancel",
      "outputs": [
        {
          "internalType": "uint256",
          "name": "canceledAmount",
          "type": "uint256"
        }
      ],
      "stateMutability": "nonpayable",
      "type": "function"
    },
    {
      "inputs": [
        {
          "internalType": "address",
          "name": "owner",
          "type": "address"
        },
        {
          "internalType": "address",
          "name": "spender",
          "type": "address"
        },
        {
          "internalType": "uint256",
          "name": "tokenId",
          "type": "uint256"
        }
      ],
      "name": "checkAuthorized",
      "outputs": [],
      "stateMutability": "view",
      "type": "function"
    },
    {
      "inputs": [
        {
          "internalType": "OrderId",
          "name": "id",
          "type": "uint256"
        },
        {
          "internalType": "bytes",
          "name": "hookData",
          "type": "bytes"
        }
      ],
      "name": "claim",
      "outputs": [
        {
          "internalType": "uint256",
          "name": "claimedAmount",
          "type": "uint256"
        }
      ],
      "stateMutability": "nonpayable",
      "type": "function"
    },
    {
      "inputs": [
        {
          "internalType": "address",
          "name": "recipient",
          "type": "address"
        },
        {
          "internalType": "Currency",
          "name": "currency",
          "type": "address"
        }
      ],
      "name": "collect",
      "outputs": [
        {
          "internalType": "uint256",
          "name": "amount",
          "type": "uint256"
        }
      ],
      "stateMutability": "nonpayable",
      "type": "function"
    },
    {
      "inputs": [],
      "name": "contractURI",
      "outputs": [
        {
          "internalType": "string",
          "name": "",
          "type": "string"
        }
      ],
      "stateMutability": "view",
      "type": "function"
    },
    {
      "inputs": [],
      "name": "defaultProvider",
      "outputs": [
        {
          "internalType": "address",
          "name": "",
          "type": "address"
        }
      ],
      "stateMutability": "view",
      "type": "function"
    },
    {
      "inputs": [
        {
          "internalType": "address",
          "name": "provider",
          "type": "address"
        }
      ],
      "name": "delist",
      "outputs": [],
      "stateMutability": "nonpayable",
      "type": "function"
    },
    {
      "inputs": [],
      "name": "eip712Domain",
      "outputs": [
        {
          "internalType": "bytes1",
          "name": "fields",
          "type": "bytes1"
        },
        {
          "internalType": "string",
          "name": "name",
          "type": "string"
        },
        {
          "internalType": "string",
          "name": "version",
          "type": "string"
        },
        {
          "internalType": "uint256",
          "name": "chainId",
          "type": "uint256"
        },
        {
          "internalType": "address",
          "name": "verifyingContract",
          "type": "address"
        },
        {
          "internalType": "bytes32",
          "name": "salt",
          "type": "bytes32"
        },
        {
          "internalType": "uint256[]",
          "name": "extensions",
          "type": "uint256[]"
        }
      ],
      "stateMutability": "view",
      "type": "function"
    },
    {
      "inputs": [
        {
          "components": [
            {
              "internalType": "Currency",
              "name": "base",
              "type": "address"
            },
            {
              "internalType": "uint64",
              "name": "unitSize",
              "type": "uint64"
            },
            {
              "internalType": "Currency",
              "name": "quote",
              "type": "address"
            },
            {
              "internalType": "FeePolicy",
              "name": "makerPolicy",
              "type": "uint24"
            },
            {
              "internalType": "contract IHooks",
              "name": "hooks",
              "type": "address"
            },
            {
              "internalType": "FeePolicy",
              "name": "takerPolicy",
              "type": "uint24"
            }
          ],
          "internalType": "struct IBookManager.BookKey",
          "name": "key",
          "type": "tuple"
        }
      ],
      "name": "encodeBookKey",
      "outputs": [
        {
          "internalType": "BookId",
          "name": "",
          "type": "uint192"
        }
      ],
      "stateMutability": "pure",
      "type": "function"
    },
    {
      "inputs": [
        {
          "internalType": "uint256",
          "name": "tokenId",
          "type": "uint256"
        }
      ],
      "name": "getApproved",
      "outputs": [
        {
          "internalType": "address",
          "name": "",
          "type": "address"
        }
      ],
      "stateMutability": "view",
      "type": "function"
    },
    {
      "inputs": [
        {
          "internalType": "BookId",
          "name": "id",
          "type": "uint192"
        }
      ],
      "name": "getBookKey",
      "outputs": [
        {
          "components": [
            {
              "internalType": "Currency",
              "name": "base",
              "type": "address"
            },
            {
              "internalType": "uint64",
              "name": "unitSize",
              "type": "uint64"
            },
            {
              "internalType": "Currency",
              "name": "quote",
              "type": "address"
            },
            {
              "internalType": "FeePolicy",
              "name": "makerPolicy",
              "type": "uint24"
            },
            {
              "internalType": "contract IHooks",
              "name": "hooks",
              "type": "address"
            },
            {
              "internalType": "FeePolicy",
              "name": "takerPolicy",
              "type": "uint24"
            }
          ],
          "internalType": "struct IBookManager.BookKey",
          "name": "",
          "type": "tuple"
        }
      ],
      "stateMutability": "view",
      "type": "function"
    },
    {
      "inputs": [
        {
          "internalType": "address",
          "name": "locker",
          "type": "address"
        },
        {
          "internalType": "Currency",
          "name": "currency",
          "type": "address"
        }
      ],
      "name": "getCurrencyDelta",
      "outputs": [
        {
          "internalType": "int256",
          "name": "",
          "type": "int256"
        }
      ],
      "stateMutability": "view",
      "type": "function"
    },
    {
      "inputs": [
        {
          "internalType": "BookId",
          "name": "id",
          "type": "uint192"
        },
        {
          "internalType": "Tick",
          "name": "tick",
          "type": "int24"
        }
      ],
      "name": "getDepth",
      "outputs": [
        {
          "internalType": "uint64",
          "name": "",
          "type": "uint64"
        }
      ],
      "stateMutability": "view",
      "type": "function"
    },
    {
      "inputs": [
        {
          "internalType": "BookId",
          "name": "id",
          "type": "uint192"
        }
      ],
      "name": "getHighest",
      "outputs": [
        {
          "internalType": "Tick",
          "name": "",
          "type": "int24"
        }
      ],
      "stateMutability": "view",
      "type": "function"
    },
    {
      "inputs": [
        {
          "internalType": "uint256",
          "name": "i",
          "type": "uint256"
        }
      ],
      "name": "getLock",
      "outputs": [
        {
          "internalType": "address",
          "name": "",
          "type": "address"
        },
        {
          "internalType": "address",
          "name": "",
          "type": "address"
        }
      ],
      "stateMutability": "view",
      "type": "function"
    },
    {
      "inputs": [],
      "name": "getLockData",
      "outputs": [
        {
          "internalType": "uint128",
          "name": "",
          "type": "uint128"
        },
        {
          "internalType": "uint128",
          "name": "",
          "type": "uint128"
        }
      ],
      "stateMutability": "view",
      "type": "function"
    },
    {
      "inputs": [
        {
          "internalType": "OrderId",
          "name": "id",
          "type": "uint256"
        }
      ],
      "name": "getOrder",
      "outputs": [
        {
          "components": [
            {
              "internalType": "address",
              "name": "provider",
              "type": "address"
            },
            {
              "internalType": "uint64",
              "name": "open",
              "type": "uint64"
            },
            {
              "internalType": "uint64",
              "name": "claimable",
              "type": "uint64"
            }
          ],
          "internalType": "struct IBookManager.OrderInfo",
          "name": "",
          "type": "tuple"
        }
      ],
      "stateMutability": "view",
      "type": "function"
    },
    {
      "inputs": [
        {
          "internalType": "address",
          "name": "owner",
          "type": "address"
        },
        {
          "internalType": "address",
          "name": "operator",
          "type": "address"
        }
      ],
      "name": "isApprovedForAll",
      "outputs": [
        {
          "internalType": "bool",
          "name": "",
          "type": "bool"
        }
      ],
      "stateMutability": "view",
      "type": "function"
    },
    {
      "inputs": [
        {
          "internalType": "BookId",
          "name": "id",
          "type": "uint192"
        }
      ],
      "name": "isEmpty",
      "outputs": [
        {
          "internalType": "bool",
          "name": "",
          "type": "bool"
        }
      ],
      "stateMutability": "view",
      "type": "function"
    },
    {
      "inputs": [
        {
          "internalType": "BookId",
          "name": "id",
          "type": "uint192"
        }
      ],
      "name": "isOpened",
      "outputs": [
        {
          "internalType": "bool",
          "name": "",
          "type": "bool"
        }
      ],
      "stateMutability": "view",
      "type": "function"
    },
    {
      "inputs": [
        {
          "internalType": "address",
          "name": "provider",
          "type": "address"
        }
      ],
      "name": "isWhitelisted",
      "outputs": [
        {
          "internalType": "bool",
          "name": "",
          "type": "bool"
        }
      ],
      "stateMutability": "view",
      "type": "function"
    },
    {
      "inputs": [
        {
          "internalType": "bytes32",
          "name": "slot",
          "type": "bytes32"
        }
      ],
      "name": "load",
      "outputs": [
        {
          "internalType": "bytes32",
          "name": "value",
          "type": "bytes32"
        }
      ],
      "stateMutability": "view",
      "type": "function"
    },
    {
      "inputs": [
        {
          "internalType": "bytes32",
          "name": "startSlot",
          "type": "bytes32"
        },
        {
          "internalType": "uint256",
          "name": "nSlot",
          "type": "uint256"
        }
      ],
      "name": "load",
      "outputs": [
        {
          "internalType": "bytes",
          "name": "value",
          "type": "bytes"
        }
      ],
      "stateMutability": "view",
      "type": "function"
    },
    {
      "inputs": [
        {
          "internalType": "address",
          "name": "locker",
          "type": "address"
        },
        {
          "internalType": "bytes",
          "name": "data",
          "type": "bytes"
        }
      ],
      "name": "lock",
      "outputs": [
        {
          "internalType": "bytes",
          "name": "result",
          "type": "bytes"
        }
      ],
      "stateMutability": "nonpayable",
      "type": "function"
    },
    {
      "inputs": [
        {
          "components": [
            {
              "components": [
                {
                  "internalType": "Currency",
                  "name": "base",
                  "type": "address"
                },
                {
                  "internalType": "uint64",
                  "name": "unitSize",
                  "type": "uint64"
                },
                {
                  "internalType": "Currency",
                  "name": "quote",
                  "type": "address"
                },
                {
                  "internalType": "FeePolicy",
                  "name": "makerPolicy",
                  "type": "uint24"
                },
                {
                  "internalType": "contract IHooks",
                  "name": "hooks",
                  "type": "address"
                },
                {
                  "internalType": "FeePolicy",
                  "name": "takerPolicy",
                  "type": "uint24"
                }
              ],
              "internalType": "struct IBookManager.BookKey",
              "name": "key",
              "type": "tuple"
            },
            {
              "internalType": "Tick",
              "name": "tick",
              "type": "int24"
            },
            {
              "internalType": "uint64",
              "name": "unit",
              "type": "uint64"
            },
            {
              "internalType": "address",
              "name": "provider",
              "type": "address"
            }
          ],
          "internalType": "struct IBookManager.MakeParams",
          "name": "params",
          "type": "tuple"
        },
        {
          "internalType": "bytes",
          "name": "hookData",
          "type": "bytes"
        }
      ],
      "name": "make",
      "outputs": [
        {
          "internalType": "OrderId",
          "name": "id",
          "type": "uint256"
        },
        {
          "internalType": "uint256",
          "name": "quoteAmount",
          "type": "uint256"
        }
      ],
      "stateMutability": "nonpayable",
      "type": "function"
    },
    {
      "inputs": [
        {
          "internalType": "BookId",
          "name": "id",
          "type": "uint192"
        },
        {
          "internalType": "Tick",
          "name": "tick",
          "type": "int24"
        }
      ],
      "name": "maxLessThan",
      "outputs": [
        {
          "internalType": "Tick",
          "name": "",
          "type": "int24"
        }
      ],
      "stateMutability": "view",
      "type": "function"
    },
    {
      "inputs": [],
      "name": "name",
      "outputs": [
        {
          "internalType": "string",
          "name": "",
          "type": "string"
        }
      ],
      "stateMutability": "view",
      "type": "function"
    },
    {
      "inputs": [
        {
          "internalType": "uint256",
          "name": "id",
          "type": "uint256"
        }
      ],
      "name": "nonces",
      "outputs": [
        {
          "internalType": "uint256",
          "name": "",
          "type": "uint256"
        }
      ],
      "stateMutability": "view",
      "type": "function"
    },
    {
      "inputs": [
        {
          "components": [
            {
              "internalType": "Currency",
              "name": "base",
              "type": "address"
            },
            {
              "internalType": "uint64",
              "name": "unitSize",
              "type": "uint64"
            },
            {
              "internalType": "Currency",
              "name": "quote",
              "type": "address"
            },
            {
              "internalType": "FeePolicy",
              "name": "makerPolicy",
              "type": "uint24"
            },
            {
              "internalType": "contract IHooks",
              "name": "hooks",
              "type": "address"
            },
            {
              "internalType": "FeePolicy",
              "name": "takerPolicy",
              "type": "uint24"
            }
          ],
          "internalType": "struct IBookManager.BookKey",
          "name": "key",
          "type": "tuple"
        },
        {
          "internalType": "bytes",
          "name": "hookData",
          "type": "bytes"
        }
      ],
      "name": "open",
      "outputs": [],
      "stateMutability": "nonpayable",
      "type": "function"
    },
    {
      "inputs": [],
      "name": "owner",
      "outputs": [
        {
          "internalType": "address",
          "name": "",
          "type": "address"
        }
      ],
      "stateMutability": "view",
      "type": "function"
    },
    {
      "inputs": [
        {
          "internalType": "uint256",
          "name": "tokenId",
          "type": "uint256"
        }
      ],
      "name": "ownerOf",
      "outputs": [
        {
          "internalType": "address",
          "name": "",
          "type": "address"
        }
      ],
      "stateMutability": "view",
      "type": "function"
    },
    {
      "inputs": [],
      "name": "pendingOwner",
      "outputs": [
        {
          "internalType": "address",
          "name": "",
          "type": "address"
        }
      ],
      "stateMutability": "view",
      "type": "function"
    },
    {
      "inputs": [
        {
          "internalType": "address",
          "name": "spender",
          "type": "address"
        },
        {
          "internalType": "uint256",
          "name": "tokenId",
          "type": "uint256"
        },
        {
          "internalType": "uint256",
          "name": "deadline",
          "type": "uint256"
        },
        {
          "internalType": "uint8",
          "name": "v",
          "type": "uint8"
        },
        {
          "internalType": "bytes32",
          "name": "r",
          "type": "bytes32"
        },
        {
          "internalType": "bytes32",
          "name": "s",
          "type": "bytes32"
        }
      ],
      "name": "permit",
      "outputs": [],
      "stateMutability": "nonpayable",
      "type": "function"
    },
    {
      "inputs": [],
      "name": "renounceOwnership",
      "outputs": [],
      "stateMutability": "nonpayable",
      "type": "function"
    },
    {
      "inputs": [
        {
          "internalType": "Currency",
          "name": "currency",
          "type": "address"
        }
      ],
      "name": "reservesOf",
      "outputs": [
        {
          "internalType": "uint256",
          "name": "",
          "type": "uint256"
        }
      ],
      "stateMutability": "view",
      "type": "function"
    },
    {
      "inputs": [
        {
          "internalType": "address",
          "name": "from",
          "type": "address"
        },
        {
          "internalType": "address",
          "name": "to",
          "type": "address"
        },
        {
          "internalType": "uint256",
          "name": "tokenId",
          "type": "uint256"
        }
      ],
      "name": "safeTransferFrom",
      "outputs": [],
      "stateMutability": "nonpayable",
      "type": "function"
    },
    {
      "inputs": [
        {
          "internalType": "address",
          "name": "from",
          "type": "address"
        },
        {
          "internalType": "address",
          "name": "to",
          "type": "address"
        },
        {
          "internalType": "uint256",
          "name": "tokenId",
          "type": "uint256"
        },
        {
          "internalType": "bytes",
          "name": "data",
          "type": "bytes"
        }
      ],
      "name": "safeTransferFrom",
      "outputs": [],
      "stateMutability": "nonpayable",
      "type": "function"
    },
    {
      "inputs": [
        {
          "internalType": "address",
          "name": "operator",
          "type": "address"
        },
        {
          "internalType": "bool",
          "name": "approved",
          "type": "bool"
        }
      ],
      "name": "setApprovalForAll",
      "outputs": [],
      "stateMutability": "nonpayable",
      "type": "function"
    },
    {
      "inputs": [
        {
          "internalType": "address",
          "name": "newDefaultProvider",
          "type": "address"
        }
      ],
      "name": "setDefaultProvider",
      "outputs": [],
      "stateMutability": "nonpayable",
      "type": "function"
    },
    {
      "inputs": [
        {
          "internalType": "Currency",
          "name": "currency",
          "type": "address"
        }
      ],
      "name": "settle",
      "outputs": [
        {
          "internalType": "uint256",
          "name": "paid",
          "type": "uint256"
        }
      ],
      "stateMutability": "payable",
      "type": "function"
    },
    {
      "inputs": [
        {
          "internalType": "bytes4",
          "name": "interfaceId",
          "type": "bytes4"
        }
      ],
      "name": "supportsInterface",
      "outputs": [
        {
          "internalType": "bool",
          "name": "",
          "type": "bool"
        }
      ],
      "stateMutability": "view",
      "type": "function"
    },
    {
      "inputs": [],
      "name": "symbol",
      "outputs": [
        {
          "internalType": "string",
          "name": "",
          "type": "string"
        }
      ],
      "stateMutability": "view",
      "type": "function"
    },
    {
      "inputs": [
        {
          "components": [
            {
              "components": [
                {
                  "internalType": "Currency",
                  "name": "base",
                  "type": "address"
                },
                {
                  "internalType": "uint64",
                  "name": "unitSize",
                  "type": "uint64"
                },
                {
                  "internalType": "Currency",
                  "name": "quote",
                  "type": "address"
                },
                {
                  "internalType": "FeePolicy",
                  "name": "makerPolicy",
                  "type": "uint24"
                },
                {
                  "internalType": "contract IHooks",
                  "name": "hooks",
                  "type": "address"
                },
                {
                  "internalType": "FeePolicy",
                  "name": "takerPolicy",
                  "type": "uint24"
                }
              ],
              "internalType": "struct IBookManager.BookKey",
              "name": "key",
              "type": "tuple"
            },
            {
              "internalType": "Tick",
              "name": "tick",
              "type": "int24"
            },
            {
              "internalType": "uint64",
              "name": "maxUnit",
              "type": "uint64"
            }
          ],
          "internalType": "struct IBookManager.TakeParams",
          "name": "params",
          "type": "tuple"
        },
        {
          "internalType": "bytes",
          "name": "hookData",
          "type": "bytes"
        }
      ],
      "name": "take",
      "outputs": [
        {
          "internalType": "uint256",
          "name": "quoteAmount",
          "type": "uint256"
        },
        {
          "internalType": "uint256",
          "name": "baseAmount",
          "type": "uint256"
        }
      ],
      "stateMutability": "nonpayable",
      "type": "function"
    },
    {
      "inputs": [
        {
          "internalType": "address",
          "name": "provider",
          "type": "address"
        },
        {
          "internalType": "Currency",
          "name": "currency",
          "type": "address"
        }
      ],
      "name": "tokenOwed",
      "outputs": [
        {
          "internalType": "uint256",
          "name": "amount",
          "type": "uint256"
        }
      ],
      "stateMutability": "view",
      "type": "function"
    },
    {
      "inputs": [
        {
          "internalType": "uint256",
          "name": "tokenId",
          "type": "uint256"
        }
      ],
      "name": "tokenURI",
      "outputs": [
        {
          "internalType": "string",
          "name": "",
          "type": "string"
        }
      ],
      "stateMutability": "view",
      "type": "function"
    },
    {
      "inputs": [
        {
          "internalType": "address",
          "name": "from",
          "type": "address"
        },
        {
          "internalType": "address",
          "name": "to",
          "type": "address"
        },
        {
          "internalType": "uint256",
          "name": "tokenId",
          "type": "uint256"
        }
      ],
      "name": "transferFrom",
      "outputs": [],
      "stateMutability": "nonpayable",
      "type": "function"
    },
    {
      "inputs": [
        {
          "internalType": "address",
          "name": "newOwner",
          "type": "address"
        }
      ],
      "name": "transferOwnership",
      "outputs": [],
      "stateMutability": "nonpayable",
      "type": "function"
    },
    {
      "inputs": [
        {
          "internalType": "address",
          "name": "provider",
          "type": "address"
        }
      ],
      "name": "whitelist",
      "outputs": [],
      "stateMutability": "nonpayable",
      "type": "function"
    },
    {
      "inputs": [
        {
          "internalType": "Currency",
          "name": "currency",
          "type": "address"
        },
        {
          "internalType": "address",
          "name": "to",
          "type": "address"
        },
        {
          "internalType": "uint256",
          "name": "amount",
          "type": "uint256"
        }
      ],
      "name": "withdraw",
      "outputs": [],
      "stateMutability": "nonpayable",
      "type": "function"
    },
    {
      "stateMutability": "payable",
      "type": "receive"
    }
  ],
  "transactionHash": "0xfb4125a29d0a194b87f7a7491f1bf6f6cac617cf0c17336c4ffde9014c1fa12c",
  "args": [
    "0x5F79EE8f8fA862E98201120d83c4eC39D9468D49",
    "0x5F79EE8f8fA862E98201120d83c4eC39D9468D49",
    "https://clober.io/api/nft/chains/64165/orders/",
    "https://clober.io/api/contract/chains/64165",
    "Clober Orderbook Maker Order",
    "CLOB-ORDER"
  ],
  "numDeployments": 1,
  "solcInputHash": "9ee70d6b7a8962ea0c8586843379ee68",
  "bytecode": "0x61016060405234801561001157600080fd5b506040516164d73803806164d78339810160408190526100309161038f565b6040805180820190915260018152601960f91b60208201528290829082818a8285600061005d83826104e7565b50600161006a82826104e7565b5050506001600160a01b03811661009c57604051631e4fbdf760e01b8152600060048201526024015b60405180910390fd5b6100a581610189565b506100b18260076101a5565b610120526100c08160086101a5565b61014052815160208084019190912060e052815190820120610100524660a05261014d60e05161010051604080517f8b73c3c69bb8fe3d512ecc4cf759cc79239f7b179b0ffacaa9a75d522b39400f60208201529081019290925260608201524660808201523060a082015260009060c00160405160208183030381529060405280519060200120905090565b60805250503060c0525061016491508690506101d8565b600a61017085826104e7565b50600b61017d84826104e7565b505050505050506105fd565b600680546001600160a01b03191690556101a281610222565b50565b60006020835110156101c1576101ba83610274565b90506101d2565b816101cc84826104e7565b5060ff90505b92915050565b600c80546001600160a01b0319166001600160a01b0383169081179091556040517fef673bbfc2ac7e4d4b810bffda0b15a1f2b48c2aa4d178d3fca87d0d1f33706290600090a250565b600580546001600160a01b038381166001600160a01b0319831681179093556040519116919082907f8be0079c531659141344cd1fd0a4f28419497f9722a3daafe3b4186f6b6457e090600090a35050565b600080829050601f8151111561029f578260405163305a27a960e01b815260040161009391906105a6565b80516102aa826105d9565b179392505050565b80516001600160a01b03811681146102c957600080fd5b919050565b634e487b7160e01b600052604160045260246000fd5b60005b838110156102ff5781810151838201526020016102e7565b50506000910152565b600082601f83011261031957600080fd5b81516001600160401b0380821115610333576103336102ce565b604051601f8301601f19908116603f0116810190828211818310171561035b5761035b6102ce565b8160405283815286602085880101111561037457600080fd5b6103858460208301602089016102e4565b9695505050505050565b60008060008060008060c087890312156103a857600080fd5b6103b1876102b2565b95506103bf602088016102b2565b60408801519095506001600160401b03808211156103dc57600080fd5b6103e88a838b01610308565b955060608901519150808211156103fe57600080fd5b61040a8a838b01610308565b9450608089015191508082111561042057600080fd5b61042c8a838b01610308565b935060a089015191508082111561044257600080fd5b5061044f89828a01610308565b9150509295509295509295565b600181811c9082168061047057607f821691505b60208210810361049057634e487b7160e01b600052602260045260246000fd5b50919050565b601f8211156104e2576000816000526020600020601f850160051c810160208610156104bf5750805b601f850160051c820191505b818110156104de578281556001016104cb565b5050505b505050565b81516001600160401b03811115610500576105006102ce565b6105148161050e845461045c565b84610496565b602080601f83116001811461054957600084156105315750858301515b600019600386901b1c1916600185901b1785556104de565b600085815260208120601f198616915b8281101561057857888601518255948401946001909101908401610559565b50858210156105965787850151600019600388901b60f8161c191681555b5050505050600190811b01905550565b60208152600082518060208401526105c58160408501602087016102e4565b601f01601f19169190910160400192915050565b805160208083015191908110156104905760001960209190910360031b1b16919050565b60805160a05160c05160e051610100516101205161014051615e8061065760003960006138670152600061383a015260006132bd01526000613295015260006131f00152600061321a015260006132440152615e806000f3fe6080604052600436106103645760003560e01c80637ac2ff7b116101c6578063cdc92f2d116100f7578063e8a3d48511610095578063f2fde38b1161006f578063f2fde38b14610c24578063f86a11b314610c44578063fcc8fc9b14610c64578063fefc7c5114610c8457600080fd5b8063e8a3d48514610ba7578063e985e9c514610bbc578063f035079914610c0557600080fd5b8063d83747e8116100d1578063d83747e814610b29578063d9caed1214610b49578063de4478ec14610b69578063e30c397814610b8957600080fd5b8063cdc92f2d14610a21578063d09ef24114610a41578063d68f4dd114610a9e57600080fd5b80639b22917d11610164578063a179dadc1161013e578063a179dadc1461098e578063a22cb465146109c1578063b88d4fde146109e1578063c87b56dd14610a0157600080fd5b80639b22917d1461086e5780639ca179981461094e578063a12ef25e1461096e57600080fd5b806393c85a21116101a057806393c85a21146107ec57806395d89b41146108195780639611cf6c1461082e5780639b19251a1461084e57600080fd5b80637ac2ff7b1461078657806384b0196e146107a65780638da5cb5b146107ce57600080fd5b80633af32abf116102a05780636352211e1161023e5780636c0360eb116102185780636c0360eb1461072757806370a082311461073c578063715018a61461075c57806379ba50971461077157600080fd5b80636352211e146106d45780636a256b29146106f45780636b2cc75c1461070757600080fd5b806341a8bb881161027a57806341a8bb881461061d57806342842e0e146106565780634c02bf0b1461067657806355af6a32146106b457600080fd5b80633af32abf146105955780633b9500b0146105c55780633e547b06146105e557600080fd5b80631dbef4881161030d5780632f584a6d116102e75780632f584a6d1461050c57806330adf81f1461052c5780633644e5151461056057806338926b6d1461057557600080fd5b80631dbef4881461047f5780631ff63f93146104b457806323b872dd146104ec57600080fd5b8063095ea7b31161033e578063095ea7b3146103ff578063141a468c1461042157806314d6a9eb1461045f57600080fd5b806301ffc9a71461037057806306fdde03146103a5578063081812fc146103c757600080fd5b3661036b57005b600080fd5b34801561037c57600080fd5b5061039061038b366004614c49565b610ca4565b60405190151581526020015b60405180910390f35b3480156103b157600080fd5b506103ba610ce8565b60405161039c9190614cb6565b3480156103d357600080fd5b506103e76103e2366004614cc9565b610d7a565b6040516001600160a01b03909116815260200161039c565b34801561040b57600080fd5b5061041f61041a366004614cf7565b610da3565b005b34801561042d57600080fd5b5061045161043c366004614cc9565b60009081526009602052604090205460a01c90565b60405190815260200161039c565b34801561046b57600080fd5b5061045161047a366004614d6c565b610db2565b34801561048b57600080fd5b5061049f61049a366004614dc7565b610ffb565b6040805192835260208301919091520161039c565b3480156104c057600080fd5b506104d46104cf366004614e1d565b6113f8565b6040516001600160c01b03909116815260200161039c565b3480156104f857600080fd5b5061041f610507366004614e39565b61140c565b34801561051857600080fd5b5061041f610527366004614e39565b6114b0565b34801561053857600080fd5b506104517f49ecf333e5b8c95c40fdafc95c1ad136e8914a8fb55e9dc8bb01eaa83a2df9ad81565b34801561056c57600080fd5b506104516114c0565b34801561058157600080fd5b50610451610590366004614e7a565b6114cf565b3480156105a157600080fd5b506103906105b0366004614ead565b600f6020526000908152604090205460ff1681565b3480156105d157600080fd5b5061049f6105e0366004614eca565b6118a1565b3480156105f157600080fd5b50610451610600366004614ef1565b601060209081526000928352604080842090915290825290205481565b34801561062957600080fd5b5061063d610638366004614f53565b611b74565b60405167ffffffffffffffff909116815260200161039c565b34801561066257600080fd5b5061041f610671366004614e39565b611b9d565b34801561068257600080fd5b50600080516020615d2b83398151915254604080516001600160801b038316815260809290921c60208301520161039c565b3480156106c057600080fd5b506103906106cf366004614f86565b611bb8565b3480156106e057600080fd5b506103e76106ef366004614cc9565b611be9565b610451610702366004614ead565b611bf4565b34801561071357600080fd5b5061041f610722366004614ead565b611c5d565b34801561073357600080fd5b506103ba611cae565b34801561074857600080fd5b50610451610757366004614ead565b611d3c565b34801561076857600080fd5b5061041f611d9d565b34801561077d57600080fd5b5061041f611db1565b34801561079257600080fd5b5061041f6107a1366004614fa1565b611df5565b3480156107b257600080fd5b506107bb61205a565b60405161039c9796959493929190615003565b3480156107da57600080fd5b506005546001600160a01b03166103e7565b3480156107f857600080fd5b50610451610807366004614ead565b600d6020526000908152604090205481565b34801561082557600080fd5b506103ba6120bc565b34801561083a57600080fd5b50610451610849366004614ef1565b6120cb565b34801561085a57600080fd5b5061041f610869366004614ead565b6120e1565b34801561087a57600080fd5b50610941610889366004614f86565b6040805160c081018252600080825260208201819052918101829052606081018290526080810182905260a0810191909152506001600160c01b03166000908152600e6020908152604091829020825160c08101845281546001600160a01b03808216835267ffffffffffffffff600160a01b92839004169483019490945260018301548085169583019590955262ffffff94819004851660608301526002909201549283166080820152910490911660a082015290565b60405161039c91906150b8565b34801561095a57600080fd5b506103ba61096936600461511f565b612135565b34801561097a57600080fd5b50610451610989366004614ef1565b6122b4565b34801561099a57600080fd5b506109ae6109a9366004614f53565b61236c565b60405160029190910b815260200161039c565b3480156109cd57600080fd5b5061041f6109dc36600461515b565b61238e565b3480156109ed57600080fd5b5061041f6109fc3660046151fd565b612399565b348015610a0d57600080fd5b506103ba610a1c366004614cc9565b6123b0565b348015610a2d57600080fd5b506109ae610a3c366004614f86565b612417565b348015610a4d57600080fd5b50610a61610a5c366004614cc9565b612438565b6040805182516001600160a01b0316815260208084015167ffffffffffffffff90811691830191909152928201519092169082015260600161039c565b348015610aaa57600080fd5b50610b09610ab9366004614cc9565b6002027f722b431450ce53c44434ec138439e45a0639fe031b803ee019b776fae5cfa2b18101547f722b431450ce53c44434ec138439e45a0639fe031b803ee019b776fae5cfa2b2909101549091565b604080516001600160a01b0393841681529290911660208301520161039c565b348015610b3557600080fd5b50600c546103e7906001600160a01b031681565b348015610b5557600080fd5b5061041f610b64366004614e39565b612581565b348015610b7557600080fd5b5061041f610b84366004614ead565b6125e8565b348015610b9557600080fd5b506006546001600160a01b03166103e7565b348015610bb357600080fd5b506103ba6125f9565b348015610bc857600080fd5b50610390610bd7366004614ef1565b6001600160a01b03918216600090815260046020908152604080832093909416825291909152205460ff1690565b348015610c1157600080fd5b50610451610c20366004614cc9565b5490565b348015610c3057600080fd5b5061041f610c3f366004614ead565b612606565b348015610c5057600080fd5b506103ba610c5f3660046152ac565b612677565b348015610c7057600080fd5b50610390610c7f366004614f86565b6126f4565b348015610c9057600080fd5b5061041f610c9f3660046152ce565b612715565b60006001600160e01b031982167f6831a4fd000000000000000000000000000000000000000000000000000000001480610ce25750610ce282612a8f565b92915050565b606060008054610cf790615309565b80601f0160208091040260200160405190810160405280929190818152602001828054610d2390615309565b8015610d705780601f10610d4557610100808354040283529160200191610d70565b820191906000526020600020905b815481529060010190602001808311610d5357829003601f168201915b5050505050905090565b6000610d8582612b2a565b506000828152600360205260409020546001600160a01b0316610ce2565b610dae828233612b63565b5050565b6000610dbd33612b70565b610ddf610dd7853560009081526009602052604090205490565b338635612c09565b8335604090811c6000908152600e602090815290829020825160c08101845281546001600160a01b03808216835267ffffffffffffffff600160a01b92839004169483019490945260018301548085169583019590955262ffffff9481900485166060830152600283015493841660808301819052930490931660a08401529190610e6c90878787612c86565b600080731fA03eDB1B8839a5319A7D2c1Ae6AAE492342bAD633ac502c1858a35610e9c60408d0160208e01615353565b6040516001600160e01b031960e086901b1681526004810193909352602483019190915267ffffffffffffffff1660448201526064016040805180830381865af4158015610eee573d6000803e3d6000fd5b505050506040513d601f19601f82011682018060405250810190610f129190615370565b91509150826020015167ffffffffffffffff168267ffffffffffffffff16029450610f46836060015162ffffff1660171c90565b15610f6b576060830151600090610f649062ffffff16876001612d06565b9590950194505b8067ffffffffffffffff16600003610f8757610f878835612d89565b610f95836040015186612dc4565b60405167ffffffffffffffff831681528835907f0c6ba7ef5064094c17cce013aa4c617a23e2582f867774d07a5931de43b85d729060200160405180910390a26080830151610ff0906001600160a01b031689848a8a612e77565b505050509392505050565b60008061100733612b70565b600061101b61012087016101008801614ead565b6001600160a01b0316141580156110625750600f600061104361012088016101008901614ead565b6001600160a01b0316815260208101919091526040016000205460ff16155b156110bc5761107961012086016101008701614ead565b6040517f962715990000000000000000000000000000000000000000000000000000000081526001600160a01b0390911660048201526024015b60405180910390fd5b6110d76110cf60e0870160c0880161539f565b60020b612f00565b60006110f06110eb36889003880188615477565b612f5c565b6001600160c01b0381166000908152600e6020526040902090915061111481612f98565b61114961112636899003890189615493565b878761113860a08c0160808d01614ead565b6001600160a01b0316929190612fe1565b6000731fA03eDB1B8839a5319A7D2c1Ae6AAE492342bAD63ffa0afb58361117660e08c0160c08d0161539f565b6111876101008d0160e08e01615353565b6111996101208e016101008f01614ead565b6040516001600160e01b031960e087901b168152600481019490945260029290920b602484015267ffffffffffffffff1660448301526001600160a01b03166064820152608401602060405180830381865af41580156111fd573d6000803e3d6000fd5b505050506040513d601f19601f820116820180604052508101906112219190615517565b90506112538361123760e08b0160c08c0161539f565b60409190911b60289190911b67ffffff00000000001601820190565b9450600061126760408a0160208b01615353565b67ffffffffffffffff166112826101008b0160e08c01615353565b67ffffffffffffffff160294508490506112b06112a560808b0160608c0161553e565b62ffffff1660171c90565b156112dc576112d78560006112cb60808d0160608e0161553e565b62ffffff169190612d06565b019350835b6112fd6112ef60608b0160408c01614ead565b6112f88361556f565b612dc4565b611307338761301f565b336001600160c01b0385167f251db4df45fa692f68b4e3f072919384c5b71995c71bf22888385168930fd22a61134360e08d0160c08e0161539f565b858d60e00160208101906113579190615353565b8e61010001602081019061136b9190614ead565b6040805160029590950b855264ffffffffff93909316602085015267ffffffffffffffff91909116838301526001600160a01b03166060830152519081900360800190a36113ec6113c1368b90038b018b615493565b878a8a8d60000160800160208101906113da9190614ead565b6001600160a01b03169392919061309d565b50505050935093915050565b6000610ce26110eb36849003840184615477565b6001600160a01b03821661143657604051633250574960e11b8152600060048201526024016110b3565b60006114438383336130dd565b9050836001600160a01b0316816001600160a01b0316146114aa576040517f64283d7b0000000000000000000000000000000000000000000000000000000081526001600160a01b03808616600483015260248201849052821660448201526064016110b3565b50505050565b6114bb838383612c09565b505050565b60006114ca6131e3565b905090565b60006114da33612b70565b6000848152600960205260409020546114f4903386612c09565b604084811c6000908152600e602090815290829020825160c08101845281546001600160a01b03808216835267ffffffffffffffff600160a01b92839004169483019490945260018301548085169583019590955262ffffff94819004851660608301526002830154938416608083018190529304841660a0820152602888901c9093169264ffffffffff88169261158e9089898961330e565b6040517fc49d262100000000000000000000000000000000000000000000000000000000815260048101839052600285900b602482015264ffffffffff84166044820152600090731fA03eDB1B8839a5319A7D2c1Ae6AAE492342bAD9063c49d262190606401602060405180830381865af4158015611611573d6000803e3d6000fd5b505050506040513d601f19601f8201168201806040525081019061163591906155a7565b6020830151909150600090819067ffffffffffffffff808516911602611660600289900b828461334b565b606086015160a0870151919a509061167d62ffffff821660171c90565b1561169a5761169362ffffff8216846001612d06565b94506116ae565b6116ab62ffffff82168c6001612d06565b93505b6116bd8262ffffff1660171c90565b156116e4576116d362ffffff8316846001612d06565b6116dd90866155c4565b9450611732565b60006116f662ffffff84168d83612d06565b905061170281866155c4565b945060008113611724576117158161556f565b61171f908d6155ec565b61172e565b61172e818d6155ff565b9b50505b50600091506117449050868989613376565b80519091506001600160a01b0381166117655750600c546001600160a01b03165b60008413156117b857611777846133cb565b6001600160a01b0380831660009081526010602090815260408083208b820151909416835292905290812080549091906117b29084906155ec565b90915550505b6000831315611809576117ca836133cb565b6001600160a01b0380831660009081526010602090815260408083208b51909416835292905290812080549091906118039084906155ec565b90915550505b816020015167ffffffffffffffff16600003611828576118288d612d89565b8551611837906112f88c61340e565b60405167ffffffffffffffff861681528d907ffc7df80a30ee916cc040221cf6fcfb3c6dc994b3fa4c4ab23e8a0f134de5c0c09060200160405180910390a26080860151611891906001600160a01b03168e878f8f61346d565b5050505050505050509392505050565b6000806118ad33612b70565b6118c06110cf60e0870160c0880161539f565b60006118d46110eb36889003880188615477565b6001600160c01b0381166000908152600e602052604090209091506118f881612f98565b61192d61190a36899003890189615612565b878761191c60a08c0160808d01614ead565b6001600160a01b03169291906134ac565b6000731fA03eDB1B8839a5319A7D2c1Ae6AAE492342bAD63a151a7e18361195a60e08c0160c08d0161539f565b61196b6101008d0160e08e01615353565b6040516001600160e01b031960e086901b168152600481019390935260029190910b602483015267ffffffffffffffff166044820152606401602060405180830381865af41580156119c1573d6000803e3d6000fd5b505050506040513d601f19601f820116820180604052508101906119e591906155a7565b90506119f76040890160208a01615353565b67ffffffffffffffff8281169116029450611a28856001611a1e60e08c0160c08d0161539f565b60020b919061334b565b9350846000611a368661340e565b9050611a4b6112a560c08c0160a08d0161553e565b15611a7a57611a668760006112cb60c08e0160a08f0161553e565b611a709083615682565b9150819650611aa0565b611a908660006112cb60c08e0160a08f0161553e565b611a9a90826155c4565b90508095505b611ab9611ab360608c0160408d01614ead565b83612dc4565b611ac96112ef60208c018c614ead565b336001600160c01b0386167fc4c20b9c4a5ada3b01b7a391a08dd81a1be01dd8ef63170dd9da44ecee3db11b611b0560e08e0160c08f0161539f565b6040805160029290920b825267ffffffffffffffff881660208301520160405180910390a3611b67611b3c368c90038c018c615612565b848b8b8e6000016080016020810190611b559190614ead565b6001600160a01b0316939291906134ea565b5050505050935093915050565b6001600160c01b0382166000908152600e60205260408120611b96908361352a565b9392505050565b6114bb83838360405180602001604052806000815250612399565b6001600160c01b0381166000908152600e6020526040812054600160a01b900467ffffffffffffffff161515610ce2565b6000610ce282612b2a565b6000611bff33612b70565b6001600160a01b0382166000818152600d602052604090205490611c2290613561565b6001600160a01b0384166000908152600d60205260409020819055611c489082906155ff565b9150611c57836112f88461340e565b50919050565b611c656135fe565b6001600160a01b0381166000818152600f6020526040808220805460ff19169055517f88f58aa68e1f754fecfec41a6758d18d4a53fa15d4e206fd54bbdfe7a9e98da79190a250565b600a8054611cbb90615309565b80601f0160208091040260200160405190810160405280929190818152602001828054611ce790615309565b8015611d345780601f10611d0957610100808354040283529160200191611d34565b820191906000526020600020905b815481529060010190602001808311611d1757829003601f168201915b505050505081565b60006001600160a01b038216611d81576040517f89c62b64000000000000000000000000000000000000000000000000000000008152600060048201526024016110b3565b506001600160a01b031660009081526002602052604090205490565b611da56135fe565b611daf600061362b565b565b60065433906001600160a01b03168114611de95760405163118cdaa760e01b81526001600160a01b03821660048201526024016110b3565b611df28161362b565b50565b83421115611e2f576040517f1a15a3cc00000000000000000000000000000000000000000000000000000000815260040160405180910390fd5b6000611ead7f49ecf333e5b8c95c40fdafc95c1ad136e8914a8fb55e9dc8bb01eaa83a2df9ad8888611e6081613644565b6040805160208101959095526001600160a01b03909316928401929092526060830152608082015260a0810187905260c0016040516020818303038152906040528051906020012061367f565b90506000611eba87611be9565b9050806001600160a01b0316886001600160a01b031603611eee57604051638baa579f60e01b815260040160405180910390fd5b6001600160a01b0381163b1561200657604080516020810186905280820185905260f887901b7fff000000000000000000000000000000000000000000000000000000000000001660608201528151604181830301815260618201928390527f1626ba7e000000000000000000000000000000000000000000000000000000009092526001600160a01b03831691631626ba7e91611f909186916065016156a2565b602060405180830381865afa158015611fad573d6000803e3d6000fd5b505050506040513d601f19601f82011682018060405250810190611fd191906156bb565b6001600160e01b031916631626ba7e60e01b1461200157604051638baa579f60e01b815260040160405180910390fd5b612043565b806001600160a01b031661201c838787876136c7565b6001600160a01b03161461204357604051638baa579f60e01b815260040160405180910390fd5b61205088888360016136f5565b5050505050505050565b60006060806000806000606061206e613833565b612076613860565b604080516000808252602082019092527f0f000000000000000000000000000000000000000000000000000000000000009b939a50919850469750309650945092509050565b606060018054610cf790615309565b6000611b9683836014526000526028600c205490565b6120e96135fe565b6001600160a01b0381166000818152600f6020526040808220805460ff19166001179055517feb73900b98b6a3e2b8b01708fe544760cf570d21e7fbe5225f24e48b5b2b432e9190a250565b600080516020615d2b83398151915280546001600160801b0381166002027f722b431450ce53c44434ec138439e45a0639fe031b803ee019b776fae5cfa2b18101869055337f722b431450ce53c44434ec138439e45a0639fe031b803ee019b776fae5cfa2b290910155600101905560606040517f15c7afb40000000000000000000000000000000000000000000000000000000081526001600160a01b038516906315c7afb4906121ef90339087908790600401615701565b6000604051808303816000875af115801561220e573d6000803e3d6000fd5b505050506040513d6000823e601f3d908101601f191682016040526122369190810190615724565b905061224061388d565b600080516020615d2b833981519152546001600160801b0381169060801c8115801561227457506001600160801b03811615155b156122ab576040517f5212cba100000000000000000000000000000000000000000000000000000000815260040160405180910390fd5b50509392505050565b3360009081526010602090815260408083206001600160a01b03851684528252808320805490849055600d90925282208054919283926122f59084906155ff565b9091555061230f90506001600160a01b0383168483613921565b816001600160a01b0316836001600160a01b0316336001600160a01b03167f1c4f94f28cc9152354d4b98b8614b28c6c828a98d88228fa9577c7b9475e120c8460405161235e91815260200190565b60405180910390a492915050565b6001600160c01b0382166000908152600e60205260408120611b969083613a04565b610dae338383613a13565b6123a484848461140c565b6114aa84848484613acb565b60606123bb82612b2a565b5060006123c6613bed565b905060008151116123e65760405180602001604052806000815250611b96565b806123f084613bfc565b604051602001612401929190615792565b6040516020818303038152906040529392505050565b6001600160c01b0381166000908152600e60205260408120610ce290613c9c565b604080516060810182526000808252602080830182905282840182905284841c808352600e909152928120919291602885901c62ffffff169164ffffffffff86169190612486828585613376565b6040517f329b4a0100000000000000000000000000000000000000000000000000000000815260048101849052600286900b602482015264ffffffffff85166044820152909150600090731fA03eDB1B8839a5319A7D2c1Ae6AAE492342bAD9063329b4a0190606401602060405180830381865af415801561250c573d6000803e3d6000fd5b505050506040513d601f19601f8201168201806040525081019061253091906155a7565b9050604051806060016040528083600001516001600160a01b031681526020018284602001510367ffffffffffffffff1681526020018267ffffffffffffffff168152509650505050505050919050565b61258a33612b70565b80156114bb576125a68361259d8361340e565b6112f89061556f565b6001600160a01b0383166000908152600d6020526040812080548392906125ce9084906155ff565b909155506114bb90506001600160a01b0384168383613921565b6125f06135fe565b611df281613caa565b600b8054611cbb90615309565b61260e6135fe565b600680546001600160a01b0383166001600160a01b0319909116811790915561263f6005546001600160a01b031690565b6001600160a01b03167f38d16b8cac22d99fc7c124b9cd0de2d3fa1faef420bfe791d8c362d765e2270060405160405180910390a350565b60606126848260206157c1565b67ffffffffffffffff81111561269c5761269c61518e565b6040519080825280601f01601f1916602001820160405280156126c6576020820181803683370190505b50905060005b828110156126ed5780840154602060018301028301526001810190506126cc565b5092915050565b6001600160c01b0381166000908152600e60205260408120610ce290613cf4565b61271e33612b70565b61272e6040840160208501615353565b67ffffffffffffffff16600003612771576040517faf6c36ab00000000000000000000000000000000000000000000000000000000815260040160405180910390fd5b6000612783608085016060860161553e565b9050600061279760c0860160a0870161553e565b90506127a78262ffffff16613d02565b80156127bc57506127bc8162ffffff16613d02565b6127d957604051637a34030f60e01b815260040160405180910390fd5b6000620f423f19627fffff848116908416010160020b121561280e57604051637a34030f60e01b815260040160405180910390fd5b6000627fffff83166207a11f190160020b128061283957506000627fffff82166207a11f190160020b125b1561287e5761284d8162ffffff1660171c90565b151561285e8362ffffff1660171c90565b15151461287e57604051637a34030f60e01b815260040160405180910390fd5b600061289060a0870160808801614ead565b90506128a4816001600160a01b0316613d33565b6128e5576040517fe65af6a00000000000000000000000000000000000000000000000000000000081526001600160a01b03821660048201526024016110b3565b6129096128f736889003880188615477565b6001600160a01b038316908787613d6b565b600061291d6110eb36899003890189615477565b6001600160c01b0381166000908152600e60205260409081902090517fab8a7e3f000000000000000000000000000000000000000000000000000000008152919250731fA03eDB1B8839a5319A7D2c1Ae6AAE492342bAD9163ab8a7e3f91612989918b906004016157d8565b60006040518083038186803b1580156129a157600080fd5b505af41580156129b5573d6000803e3d6000fd5b506129ca925050506060880160408901614ead565b6001600160a01b03166129e06020890189614ead565b6001600160a01b03166001600160c01b0383167f803427d75ce3214f82dc7aa4910635170a6655e2c1663dc03429dd04100cba5a612a2460408c0160208d01615353565b6040805167ffffffffffffffff909216825262ffffff808b1660208401528916908201526001600160a01b038716606082015260800160405180910390a4612a86612a7436899003890189615477565b6001600160a01b038416908888613da9565b50505050505050565b60006001600160e01b031982167f80ac58cd000000000000000000000000000000000000000000000000000000001480612af257506001600160e01b031982167f5b5e139f00000000000000000000000000000000000000000000000000000000145b80610ce257507f01ffc9a7000000000000000000000000000000000000000000000000000000006001600160e01b0319831614610ce2565b6000818152600960205260408120546001600160a01b038116610ce257604051637e27328960e01b8152600481018490526024016110b3565b6114bb83838360016136f5565b6000612b7a613de7565b90506000612b86613e55565b9050816001600160a01b0316836001600160a01b031603612ba657505050565b806001600160a01b0316836001600160a01b031603612bc457505050565b6040517f74d863650000000000000000000000000000000000000000000000000000000081526001600160a01b038084166004830152821660248201526044016110b3565b612c14838383613ea8565b6114bb576001600160a01b038316612c4257604051637e27328960e01b8152600481018290526024016110b3565b6040517f177e802f0000000000000000000000000000000000000000000000000000000081526001600160a01b0383166004820152602481018290526044016110b3565b7302000000000000000000000000000000000000008416156114aa576114aa63295b52c560e01b33858585604051602401612cc494939291906158a8565b60408051601f198184030181529190526020810180516001600160e01b03166001600160e01b0319909316929092179091526001600160a01b03861690613f2b565b60006207a11f19627fffff851601600281900b82128281612d2a5782600003612d2c565b825b62ffffff1690506000612d66612d4283896157c1565b620f424088612d58578581830615151691040190565b808206151586151691040190565b905082612d7b57612d768161556f565b612d7d565b805b98975050505050505050565b6000612d9860008360006130dd565b90506001600160a01b038116610dae57604051637e27328960e01b8152600481018390526024016110b3565b80600003612dd0575050565b6000612dda613de7565b601484905260008181526028600c208054850190819055919250819003612e3857612e33700100000000000000000000000000000000600080516020615d2b8339815191525403600080516020615d2b83398151915255565b6114aa565b8281036114aa576114aa700100000000000000000000000000000000600080516020615d2b8339815191525401600080516020615d2b83398151915255565b730100000000000000000000000000000000000000851615612ef957612ef9635125ce9c60e01b3386868686604051602401612eb79594939291906158d8565b60408051601f198184030181529190526020810180516001600160e01b03166001600160e01b0319909316929092179091526001600160a01b03871690613f2b565b5050505050565b6207ffff600282900b1380612f255750612f1c6207ffff615923565b60020b8160020b125b15611df2576040517fce8ef7fc00000000000000000000000000000000000000000000000000000000815260040160405180910390fd5b60008082604051602001612f7091906150b8565b60408051601f1981840301815291905280516020909101206001600160c01b03169392505050565b8054600160a01b900467ffffffffffffffff16611df2576040517f1e3636e600000000000000000000000000000000000000000000000000000000815260040160405180910390fd5b7320000000000000000000000000000000000000008416156114aa576114aa633fda46bb60e01b33858585604051602401612cc494939291906159e0565b6001600160a01b03821661304957604051633250574960e11b8152600060048201526024016110b3565b6000613057838360006130dd565b90506001600160a01b038116156114bb576040517f73c6ac6e000000000000000000000000000000000000000000000000000000008152600060048201526024016110b3565b731000000000000000000000000000000000000000851615612ef957612ef963eba8155960e01b3386868686604051602401612eb7959493929190615a12565b6000828152600960205260408120546001600160a01b0383161561310657613106818486612c09565b6001600160a01b03811615613144576131236000856000806136f5565b6001600160a01b038116600090815260026020526040902080546000190190555b6001600160a01b03851615613173576001600160a01b0385166000908152600260205260409020805460010190555b600084815260096020526040902080546001600160a01b0319166001600160a01b03871617905583856001600160a01b0316826001600160a01b03167fddf252ad1be2c89b69c2b068fc378daa952ba7f163c4a11628f55a4df523b3ef60405160405180910390a4949350505050565b6000306001600160a01b037f00000000000000000000000000000000000000000000000000000000000000001614801561323c57507f000000000000000000000000000000000000000000000000000000000000000046145b1561326657507f000000000000000000000000000000000000000000000000000000000000000090565b6114ca604080517f8b73c3c69bb8fe3d512ecc4cf759cc79239f7b179b0ffacaa9a75d522b39400f60208201527f0000000000000000000000000000000000000000000000000000000000000000918101919091527f000000000000000000000000000000000000000000000000000000000000000060608201524660808201523060a082015260009060c00160405160208183030381529060405280519060200120905090565b72800000000000000000000000000000000000008416156114aa576114aa63827e0eb260e01b33858585604051602401612cc49493929190615a4b565b600061336e606084901b6133618660020b613f89565b8082061515851691040190565b949350505050565b6040805180820190915260008082526020820152613395848484614254565b6040805180820190915290546001600160a01b0381168252600160a01b900467ffffffffffffffff166020820152949350505050565b60008082121561340a576040517fa8ce4432000000000000000000000000000000000000000000000000000000008152600481018390526024016110b3565b5090565b60007f7fffffffffffffffffffffffffffffffffffffffffffffffffffffffffffffff82111561340a576040517f24775e06000000000000000000000000000000000000000000000000000000008152600481018390526024016110b3565b7240000000000000000000000000000000000000851615612ef957612ef96348042cf460e01b3386868686604051602401612eb7959493929190615a74565b7308000000000000000000000000000000000000008416156114aa576114aa63fab3c75660e01b33858585604051602401612cc49493929190615b34565b730400000000000000000000000000000000000000851615612ef957612ef9639eb477b260e01b3386868686604051602401612eb7959493929190615b66565b60006135396005840183614298565b600283900b60009081526003850160205260409020613557906142db565b611b969190615ba9565b60006001600160a01b038216613578575047919050565b6040517f70a082310000000000000000000000000000000000000000000000000000000081523060048201526001600160a01b038316906370a0823190602401602060405180830381865afa1580156135d5573d6000803e3d6000fd5b505050506040513d601f19601f82011682018060405250810190610ce29190615bca565b919050565b6005546001600160a01b03163314611daf5760405163118cdaa760e01b81523360048201526024016110b3565b600680546001600160a01b0319169055611df28161431c565b60008181526009602052604090205460a081901c9061366781600160a01b6155ec565b60009384526009602052604090932092909255919050565b6000610ce261368c6131e3565b836040517f19010000000000000000000000000000000000000000000000000000000000008152600281019290925260228201526042902090565b6000806000806136d98888888861436e565b9250925092506136e9828261443d565b50909695505050505050565b808061370957506001600160a01b03821615155b1561380357600061371984612b2a565b90506001600160a01b038316158015906137455750826001600160a01b0316816001600160a01b031614155b801561377757506001600160a01b0380821660009081526004602090815260408083209387168352929052205460ff16155b156137b9576040517fa9fbf51f0000000000000000000000000000000000000000000000000000000081526001600160a01b03841660048201526024016110b3565b81156138015783856001600160a01b0316826001600160a01b03167f8c5be1e5ebec7d5bd14f71427d1e84f3dd0314c0f7b2291e5b200ac8c7c3b92560405160405180910390a45b505b5050600090815260036020526040902080546001600160a01b0319166001600160a01b0392909216919091179055565b60606114ca7f00000000000000000000000000000000000000000000000000000000000000006007614541565b60606114ca7f00000000000000000000000000000000000000000000000000000000000000006008614541565b600080516020615d2b833981519152546001600160801b038116806138ba5763f1c77ed06000526004601cfd5b60006002600019928301027f722b431450ce53c44434ec138439e45a0639fe031b803ee019b776fae5cfa2b181018290557f722b431450ce53c44434ec138439e45a0639fe031b803ee019b776fae5cfa2b2015501600080516020615d2b83398151915255565b60006001600160a01b0384166139745760008060008085875af1905080612e33576040517ff4b3b1bc00000000000000000000000000000000000000000000000000000000815260040160405180910390fd5b6040517fa9059cbb0000000000000000000000000000000000000000000000000000000081526001600160a01b0384166004820152826024820152602060006044836000895af13d15601f3d11600160005114161716915050806114aa576040517ff27f64e400000000000000000000000000000000000000000000000000000000815260040160405180910390fd5b6000611b9660048401836145ec565b6001600160a01b038216613a5e576040517f5b08ba180000000000000000000000000000000000000000000000000000000081526001600160a01b03831660048201526024016110b3565b6001600160a01b03838116600081815260046020908152604080832094871680845294825291829020805460ff191686151590811790915591519182527f17307eab39ab6107e8899845ad3d59bd9653f200f220920489ca2b5937696c31910160405180910390a3505050565b6001600160a01b0383163b156114aa57604051630a85bd0160e11b81526001600160a01b0384169063150b7a0290613b0d903390889087908790600401615be3565b6020604051808303816000875af1925050508015613b48575060408051601f3d908101601f19168201909252613b45918101906156bb565b60015b613bb1573d808015613b76576040519150601f19603f3d011682016040523d82523d6000602084013e613b7b565b606091505b508051600003613ba957604051633250574960e11b81526001600160a01b03851660048201526024016110b3565b805181602001fd5b6001600160e01b03198116630a85bd0160e11b14612ef957604051633250574960e11b81526001600160a01b03851660048201526024016110b3565b6060600a8054610cf790615309565b60606000613c0983614722565b600101905060008167ffffffffffffffff811115613c2957613c2961518e565b6040519080825280601f01601f191660200182016040528015613c53576020820181803683370190505b5090508181016020015b600019017f3031323334353637383961626364656600000000000000000000000000000000600a86061a8153600a8504945084613c5d57509392505050565b6000610ce282600401614804565b600c80546001600160a01b0319166001600160a01b0383169081179091556040517fef673bbfc2ac7e4d4b810bffda0b15a1f2b48c2aa4d178d3fca87d0d1f33706290600090a250565b6000610ce2826004016148f8565b60006207a11f19627fffff8316016207a120600282900b1380613d2b57506207a11f198160020b125b159392505050565b60006001600160a01b0382161580610ce257505072400000000000000000000000000000000000006001600160a01b03909116101590565b7380000000000000000000000000000000000000008416156114aa576114aa635df4d91860e01b33858585604051602401612cc49493929190615c15565b7340000000000000000000000000000000000000008416156114aa576114aa6371ded94360e01b33858585604051602401612cc49493929190615c15565b600080613e09600080516020615d2b833981519152546001600160801b031690565b6001600160801b0316905060008111613e23576000613e4f565b60026000198201027f722b431450ce53c44434ec138439e45a0639fe031b803ee019b776fae5cfa2b101545b91505090565b60006114ca613e79600080516020615d2b833981519152546001600160801b031690565b6001600160801b03167ffcac7593714b88fec0c578a53e9f3f6e4b47eb26c9dcaa7eff23a3ac156be422015490565b60006001600160a01b0383161580159061336e5750826001600160a01b0316846001600160a01b03161480613f0257506001600160a01b0380851660009081526004602090815260408083209387168352929052205460ff165b8061336e5750506000908152600360205260409020546001600160a01b03908116911614919050565b600080613f388484614940565b91509150816001600160e01b031916816001600160e01b031916146114aa576040517f1e048e1d00000000000000000000000000000000000000000000000000000000815260040160405180910390fd5b6000613f9482612f00565b816000600282900b8113613fa85781613fb1565b613fb182615923565b62ffffff8116915060011615613fd5576bfff97272373d413259a469909250613fe6565b6c0100000000000000000000000092505b60028116156140055760606bfff2e50f5f656932ef12357c8402901c92505b60048116156140245760606bffe5caca7e10e4e61c3624ea8402901c92505b60088116156140435760606bffcb9843d60f6159c9db58838402901c92505b60108116156140625760606bff973b41fa98c081472e68968402901c92505b60208116156140815760606bff2ea16466c96a3843ec78b38402901c92505b60408116156140a05760606bfe5dee046a99a2a811c461f18402901c92505b60808116156140bf5760606bfcbe86c7900a88aedcffc83b8402901c92505b6101008116156140df5760606bf987a7253ac413176f2b074c8402901c92505b6102008116156140ff5760606bf3392b0822b70005940c7a398402901c92505b61040081161561411f5760606be7159475a2c29b7443b29c7f8402901c92505b61080081161561413f5760606bd097f3bdfd2022b8845ad8f78402901c92505b61100081161561415f5760606ba9f746462d870fdf8a65dc1f8402901c92505b61200081161561417f5760606b70d869a156d2a1b890bb3df68402901c92505b61400081161561419f5760606b31be135f97d08fd9812315058402901c92505b6180008116156141bf5760606b09aa508b5b7a84e1c677de548402901c92505b620100008116156141df5760606a5d6af8dedb81196699c3298402901c92505b620200008116156141fe576060692216e584f5fa1ea926048402901c92505b6204000081161561421b57606067048a170391f7dc428402901c92505b60008260020b131561424d5761424a837801000000000000000000000000000000000000000000000000615c9f565b92505b5050919050565b600282900b60009081526003840160205260408120600401805464ffffffffff841690811061428557614285615cc1565b9060005260206000200190509392505050565b600281901c623fffff166000818152602084905260408120549091906003841690600685901b60c0161c67ffffffffffffffff1680151590035b95945050505050565b60016000908152602082905260408120546142f8908260046149f5565b6000808052602084905260408120546143129160046149f5565b610ce29190615cd7565b600580546001600160a01b038381166001600160a01b0319831681179093556040519116919082907f8be0079c531659141344cd1fd0a4f28419497f9722a3daafe3b4186f6b6457e090600090a35050565b600080807f7fffffffffffffffffffffffffffffff5d576e7357a4501ddfe92f46681b20a08411156143a95750600091506003905082614433565b604080516000808252602082018084528a905260ff891692820192909252606081018790526080810186905260019060a0016020604051602081039080840390855afa1580156143fd573d6000803e3d6000fd5b5050604051601f1901519150506001600160a01b03811661442957506000925060019150829050614433565b9250600091508190505b9450945094915050565b600082600381111561445157614451615cf8565b0361445a575050565b600182600381111561446e5761446e615cf8565b036144a5576040517ff645eedf00000000000000000000000000000000000000000000000000000000815260040160405180910390fd5b60028260038111156144b9576144b9615cf8565b036144f3576040517ffce698f7000000000000000000000000000000000000000000000000000000008152600481018290526024016110b3565b600382600381111561450757614507615cf8565b03610dae576040517fd78bce0c000000000000000000000000000000000000000000000000000000008152600481018290526024016110b3565b606060ff831461455b5761455483614a36565b9050610ce2565b81805461456790615309565b80601f016020809104026020016040519081016040528092919081815260200182805461459390615309565b80156145e05780601f106145b5576101008083540402835291602001916145e0565b820191906000526020600020905b8154815290600101906020018083116145c357829003601f168201915b50505050509050610ce2565b62800000811901600881901c61ffff16600081815260208590526040812054909260ff1690600119821b168084036146f657600883901c801960009081526020889052604081205460011960ff87161b16908190036146ca57600088816146747f7710c0702d438d37259561c892984b894ff622adfa3d98b5dfe5a9763f94b95460016155ec565b81526020019081526020016000205483600119901b169050806000036146a657627fffff199650505050505050610ce2565b6146af81614a75565b60ff168019600090815260208b905260409020549093509150505b6146d381614a75565b60ff16600883901b17945087600086815260200190815260200160002054925050505b6146ff81614a75565b60ff16915062ffffff627fffff19600885901b84170119165b9695505050505050565b6000807a184f03e93ff9f4daa797ed6e38ed64bf6a1f010000000000000000831061476b577a184f03e93ff9f4daa797ed6e38ed64bf6a1f010000000000000000830492506040015b6d04ee2d6d415b85acef81000000008310614797576d04ee2d6d415b85acef8100000000830492506020015b662386f26fc1000083106147b557662386f26fc10000830492506010015b6305f5e10083106147cd576305f5e100830492506008015b61271083106147e157612710830492506004015b606483106147f3576064830492506002015b600a8310610ce25760010192915050565b600061480f826148f8565b15614846576040517f4f3d7def00000000000000000000000000000000000000000000000000000000815260040160405180910390fd5b600061488c83826148787f7710c0702d438d37259561c892984b894ff622adfa3d98b5dfe5a9763f94b95460016155ec565b815260200190815260200160002054614a75565b60ff16905060006148af8460008419815260200190815260200160002054614a75565b60ff16600883901b17905060006148d785600084815260200190815260200160002054614a75565b60ff16905062ffffff627fffff19600884901b831701191695945050505050565b600081816149277f7710c0702d438d37259561c892984b894ff622adfa3d98b5dfe5a9763f94b95460016155ec565b8152602001908152602001600020546000149050919050565b600080600061494e85614aee565b905060208401519250600080866001600160a01b0316866040516149729190615d0e565b6000604051808303816000865af19150503d80600081146149af576040519150601f19603f3d011682016040523d82523d6000602084013e6149b4565b606091505b5091509150816149c7576149c781614b62565b808060200190518101906149db91906156bb565b935082156149eb576149eb614b9d565b5050509250929050565b600682901b9290921c916000825b82811015614a2b57604085901c9467ffffffffffffffff168015019190910190600101614a03565b509190039003919050565b60606000614a4383614bf2565b604080516020808252818301909252919250600091906020820181803683375050509182525060208101929092525090565b6000808211614a8357600080fd5b60007e818283848586878898a8b8c8d8e8f929395969799a9b9d9e9faaeb6bedeeff600184190184160260f81c90506040518061012001604052806101008152602001615d4b61010091398181518110614adf57614adf615cc1565b016020015160f81c9392505050565b600080614af9613e55565b6001600160a01b0316036135f9576000614b28600080516020615d2b833981519152546001600160801b031690565b6001600160801b0316905082817ffcac7593714b88fec0c578a53e9f3f6e4b47eb26c9dcaa7eff23a3ac156be42201556001915050919050565b8051600003613ba9576040517f36bc48c500000000000000000000000000000000000000000000000000000000815260040160405180910390fd5b6000614bbe600080516020615d2b833981519152546001600160801b031690565b6001600160801b031690506000817ffcac7593714b88fec0c578a53e9f3f6e4b47eb26c9dcaa7eff23a3ac156be422015550565b600060ff8216601f811115610ce2576040517fb3512b0c00000000000000000000000000000000000000000000000000000000815260040160405180910390fd5b6001600160e01b031981168114611df257600080fd5b600060208284031215614c5b57600080fd5b8135611b9681614c33565b60005b83811015614c81578181015183820152602001614c69565b50506000910152565b60008151808452614ca2816020860160208601614c66565b601f01601f19169290920160200192915050565b602081526000611b966020830184614c8a565b600060208284031215614cdb57600080fd5b5035919050565b6001600160a01b0381168114611df257600080fd5b60008060408385031215614d0a57600080fd5b8235614d1581614ce2565b946020939093013593505050565b60008083601f840112614d3557600080fd5b50813567ffffffffffffffff811115614d4d57600080fd5b602083019150836020828501011115614d6557600080fd5b9250929050565b60008060008385036060811215614d8257600080fd5b6040811215614d9057600080fd5b50839250604084013567ffffffffffffffff811115614dae57600080fd5b614dba86828701614d23565b9497909650939450505050565b6000806000838503610140811215614dde57600080fd5b61012080821215614dee57600080fd5b859450840135905067ffffffffffffffff811115614dae57600080fd5b600060c08284031215611c5757600080fd5b600060c08284031215614e2f57600080fd5b611b968383614e0b565b600080600060608486031215614e4e57600080fd5b8335614e5981614ce2565b92506020840135614e6981614ce2565b929592945050506040919091013590565b600080600060408486031215614e8f57600080fd5b83359250602084013567ffffffffffffffff811115614dae57600080fd5b600060208284031215614ebf57600080fd5b8135611b9681614ce2565b6000806000838503610120811215614ee157600080fd5b61010080821215614dee57600080fd5b60008060408385031215614f0457600080fd5b8235614f0f81614ce2565b91506020830135614f1f81614ce2565b809150509250929050565b80356001600160c01b03811681146135f957600080fd5b8035600281900b81146135f957600080fd5b60008060408385031215614f6657600080fd5b614f6f83614f2a565b9150614f7d60208401614f41565b90509250929050565b600060208284031215614f9857600080fd5b611b9682614f2a565b60008060008060008060c08789031215614fba57600080fd5b8635614fc581614ce2565b95506020870135945060408701359350606087013560ff81168114614fe957600080fd5b9598949750929560808101359460a0909101359350915050565b7fff00000000000000000000000000000000000000000000000000000000000000881681526000602060e0602084015261504060e084018a614c8a565b8381036040850152615052818a614c8a565b606085018990526001600160a01b038816608086015260a0850187905284810360c08601528551808252602080880193509091019060005b818110156150a65783518352928401929184019160010161508a565b50909c9b505050505050505050505050565b60c08101610ce282846001600160a01b0380825116835267ffffffffffffffff6020830151166020840152806040830151166040840152606082015162ffffff80821660608601528260808501511660808601528060a08501511660a08601525050505050565b60008060006040848603121561513457600080fd5b833561513f81614ce2565b9250602084013567ffffffffffffffff811115614dae57600080fd5b6000806040838503121561516e57600080fd5b823561517981614ce2565b915060208301358015158114614f1f57600080fd5b634e487b7160e01b600052604160045260246000fd5b604051601f8201601f1916810167ffffffffffffffff811182821017156151cd576151cd61518e565b604052919050565b600067ffffffffffffffff8211156151ef576151ef61518e565b50601f01601f191660200190565b6000806000806080858703121561521357600080fd5b843561521e81614ce2565b9350602085013561522e81614ce2565b925060408501359150606085013567ffffffffffffffff81111561525157600080fd5b8501601f8101871361526257600080fd5b8035615275615270826151d5565b6151a4565b81815288602083850101111561528a57600080fd5b8160208401602083013760006020838301015280935050505092959194509250565b600080604083850312156152bf57600080fd5b50508035926020909101359150565b600080600060e084860312156152e357600080fd5b6152ed8585614e0b565b925060c084013567ffffffffffffffff811115614dae57600080fd5b600181811c9082168061531d57607f821691505b602082108103611c5757634e487b7160e01b600052602260045260246000fd5b67ffffffffffffffff81168114611df257600080fd5b60006020828403121561536557600080fd5b8135611b968161533d565b6000806040838503121561538357600080fd5b825161538e8161533d565b6020840151909250614f1f8161533d565b6000602082840312156153b157600080fd5b611b9682614f41565b803562ffffff811681146135f957600080fd5b600060c082840312156153df57600080fd5b60405160c0810181811067ffffffffffffffff821117156154025761540261518e565b604052905080823561541381614ce2565b815260208301356154238161533d565b6020820152604083013561543681614ce2565b6040820152615447606084016153ba565b6060820152608083013561545a81614ce2565b608082015261546b60a084016153ba565b60a08201525092915050565b600060c0828403121561548957600080fd5b611b9683836153cd565b600061012082840312156154a657600080fd5b6040516080810181811067ffffffffffffffff821117156154c9576154c961518e565b6040526154d684846153cd565b81526154e460c08401614f41565b602082015260e08301356154f78161533d565b604082015261010083013561550b81614ce2565b60608201529392505050565b60006020828403121561552957600080fd5b815164ffffffffff81168114611b9657600080fd5b60006020828403121561555057600080fd5b611b96826153ba565b634e487b7160e01b600052601160045260246000fd5b60007f800000000000000000000000000000000000000000000000000000000000000082036155a0576155a0615559565b5060000390565b6000602082840312156155b957600080fd5b8151611b968161533d565b80820182811260008312801582168215821617156155e4576155e4615559565b505092915050565b80820180821115610ce257610ce2615559565b81810381811115610ce257610ce2615559565b6000610100828403121561562557600080fd5b6040516060810181811067ffffffffffffffff821117156156485761564861518e565b60405261565584846153cd565b815261566360c08401614f41565b602082015260e08301356156768161533d565b60408201529392505050565b81810360008312801583831316838312821617156126ed576126ed615559565b82815260406020820152600061336e6040830184614c8a565b6000602082840312156156cd57600080fd5b8151611b9681614c33565b81835281816020850137506000828201602090810191909152601f909101601f19169091010190565b6001600160a01b03841681526040602082015260006142d26040830184866156d8565b60006020828403121561573657600080fd5b815167ffffffffffffffff81111561574d57600080fd5b8201601f8101841361575e57600080fd5b805161576c615270826151d5565b81815285602083850101111561578157600080fd5b6142d2826020830160208601614c66565b600083516157a4818460208801614c66565b8351908301906157b8818360208801614c66565b01949350505050565b8082028115828204841417610ce257610ce2615559565b82815260e0810182356157ea81614ce2565b6001600160a01b0380821660208501526020850135915061580a8261533d565b67ffffffffffffffff821660408501526040850135915061582a82614ce2565b808216606085015261583e606086016153ba565b915062ffffff80831660808601526080860135925061585c83614ce2565b81831660a08601528061587160a088016153ba565b1660c08601525050509392505050565b8035825260208101356158938161533d565b67ffffffffffffffff81166020840152505050565b6001600160a01b03851681526158c16020820185615881565b6080606082015260006147186080830184866156d8565b6001600160a01b03861681526158f16020820186615881565b67ffffffffffffffff8416606082015260a06080820152600061591860a0830184866156d8565b979650505050505050565b60008160020b627fffff19810361593c5761593c615559565b60000392915050565b6159a98282516001600160a01b0380825116835267ffffffffffffffff6020830151166020840152806040830151166040840152606082015162ffffff80821660608601528260808501511660808601528060a08501511660a08601525050505050565b602081015160020b60c0830152604081015167ffffffffffffffff1660e0830152606001516001600160a01b031661010090910152565b60006101606001600160a01b03871683526159fe6020840187615945565b8061014084015261591881840185876156d8565b60006101806001600160a01b0388168352615a306020840188615945565b8561014084015280610160840152612d7d81840185876156d8565b6001600160a01b03851681528360208201526060604082015260006147186060830184866156d8565b6001600160a01b038616815284602082015267ffffffffffffffff841660408201526080606082015260006159186080830184866156d8565b615b118282516001600160a01b0380825116835267ffffffffffffffff6020830151166020840152806040830151166040840152606082015162ffffff80821660608601528260808501511660808601528060a08501511660a08601525050505050565b602081015160020b60c08301526040015167ffffffffffffffff1660e090910152565b60006101406001600160a01b0387168352615b526020840187615aad565b8061012084015261591881840185876156d8565b60006101606001600160a01b0388168352615b846020840188615aad565b67ffffffffffffffff861661012084015280610140840152612d7d81840185876156d8565b67ffffffffffffffff8281168282160390808211156126ed576126ed615559565b600060208284031215615bdc57600080fd5b5051919050565b60006001600160a01b038087168352808616602084015250836040830152608060608301526147186080830184614c8a565b60006101006001600160a01b0387168352615c8c60208401876001600160a01b0380825116835267ffffffffffffffff6020830151166020840152806040830151166040840152606082015162ffffff80821660608601528260808501511660808601528060a08501511660a08601525050505050565b8060e084015261591881840185876156d8565b600082615cbc57634e487b7160e01b600052601260045260246000fd5b500490565b634e487b7160e01b600052603260045260246000fd5b67ffffffffffffffff8181168382160190808211156126ed576126ed615559565b634e487b7160e01b600052602160045260246000fd5b60008251615d20818460208701614c66565b919091019291505056fe760a9a962ae3d184e99c0483cf5684fb3170f47116ca4f445c50209da4f4f9070001020903110a19042112290b311a3905412245134d2a550c5d32651b6d3a7506264262237d468514804e8d2b95569d0d495ea533a966b11c886eb93bc176c9071727374353637324837e9b47af86c7155181ad4fd18ed32c9096db57d59ee30e2e4a6a5f92a6be3498aae067ddb2eb1d5989b56fd7baf33ca0c2ee77e5caf7ff0810182028303840444c545c646c7425617c847f8c949c48a4a8b087b8c0c816365272829aaec650acd0d28fdad4e22d6991bd97dfdcea58b4d6f29fede4f6fe0f1f2f3f4b5b6b607b8b93a3a7b7bf357199c5abcfd9e168bcdee9b3f1ecf5fd1e3e5a7a8aa2b670c4ced8bbe8f0f4fc3d79a1c3cde7effb78cce6facbf9f8a264697066735822122064feaa1fe70a6a1585f8f8ccc3b703c26af31fc1264c13d443f8631af8f5ca8264736f6c63430008190033",
  "deployedBytecode": "0x6080604052600436106103645760003560e01c80637ac2ff7b116101c6578063cdc92f2d116100f7578063e8a3d48511610095578063f2fde38b1161006f578063f2fde38b14610c24578063f86a11b314610c44578063fcc8fc9b14610c64578063fefc7c5114610c8457600080fd5b8063e8a3d48514610ba7578063e985e9c514610bbc578063f035079914610c0557600080fd5b8063d83747e8116100d1578063d83747e814610b29578063d9caed1214610b49578063de4478ec14610b69578063e30c397814610b8957600080fd5b8063cdc92f2d14610a21578063d09ef24114610a41578063d68f4dd114610a9e57600080fd5b80639b22917d11610164578063a179dadc1161013e578063a179dadc1461098e578063a22cb465146109c1578063b88d4fde146109e1578063c87b56dd14610a0157600080fd5b80639b22917d1461086e5780639ca179981461094e578063a12ef25e1461096e57600080fd5b806393c85a21116101a057806393c85a21146107ec57806395d89b41146108195780639611cf6c1461082e5780639b19251a1461084e57600080fd5b80637ac2ff7b1461078657806384b0196e146107a65780638da5cb5b146107ce57600080fd5b80633af32abf116102a05780636352211e1161023e5780636c0360eb116102185780636c0360eb1461072757806370a082311461073c578063715018a61461075c57806379ba50971461077157600080fd5b80636352211e146106d45780636a256b29146106f45780636b2cc75c1461070757600080fd5b806341a8bb881161027a57806341a8bb881461061d57806342842e0e146106565780634c02bf0b1461067657806355af6a32146106b457600080fd5b80633af32abf146105955780633b9500b0146105c55780633e547b06146105e557600080fd5b80631dbef4881161030d5780632f584a6d116102e75780632f584a6d1461050c57806330adf81f1461052c5780633644e5151461056057806338926b6d1461057557600080fd5b80631dbef4881461047f5780631ff63f93146104b457806323b872dd146104ec57600080fd5b8063095ea7b31161033e578063095ea7b3146103ff578063141a468c1461042157806314d6a9eb1461045f57600080fd5b806301ffc9a71461037057806306fdde03146103a5578063081812fc146103c757600080fd5b3661036b57005b600080fd5b34801561037c57600080fd5b5061039061038b366004614c49565b610ca4565b60405190151581526020015b60405180910390f35b3480156103b157600080fd5b506103ba610ce8565b60405161039c9190614cb6565b3480156103d357600080fd5b506103e76103e2366004614cc9565b610d7a565b6040516001600160a01b03909116815260200161039c565b34801561040b57600080fd5b5061041f61041a366004614cf7565b610da3565b005b34801561042d57600080fd5b5061045161043c366004614cc9565b60009081526009602052604090205460a01c90565b60405190815260200161039c565b34801561046b57600080fd5b5061045161047a366004614d6c565b610db2565b34801561048b57600080fd5b5061049f61049a366004614dc7565b610ffb565b6040805192835260208301919091520161039c565b3480156104c057600080fd5b506104d46104cf366004614e1d565b6113f8565b6040516001600160c01b03909116815260200161039c565b3480156104f857600080fd5b5061041f610507366004614e39565b61140c565b34801561051857600080fd5b5061041f610527366004614e39565b6114b0565b34801561053857600080fd5b506104517f49ecf333e5b8c95c40fdafc95c1ad136e8914a8fb55e9dc8bb01eaa83a2df9ad81565b34801561056c57600080fd5b506104516114c0565b34801561058157600080fd5b50610451610590366004614e7a565b6114cf565b3480156105a157600080fd5b506103906105b0366004614ead565b600f6020526000908152604090205460ff1681565b3480156105d157600080fd5b5061049f6105e0366004614eca565b6118a1565b3480156105f157600080fd5b50610451610600366004614ef1565b601060209081526000928352604080842090915290825290205481565b34801561062957600080fd5b5061063d610638366004614f53565b611b74565b60405167ffffffffffffffff909116815260200161039c565b34801561066257600080fd5b5061041f610671366004614e39565b611b9d565b34801561068257600080fd5b50600080516020615d2b83398151915254604080516001600160801b038316815260809290921c60208301520161039c565b3480156106c057600080fd5b506103906106cf366004614f86565b611bb8565b3480156106e057600080fd5b506103e76106ef366004614cc9565b611be9565b610451610702366004614ead565b611bf4565b34801561071357600080fd5b5061041f610722366004614ead565b611c5d565b34801561073357600080fd5b506103ba611cae565b34801561074857600080fd5b50610451610757366004614ead565b611d3c565b34801561076857600080fd5b5061041f611d9d565b34801561077d57600080fd5b5061041f611db1565b34801561079257600080fd5b5061041f6107a1366004614fa1565b611df5565b3480156107b257600080fd5b506107bb61205a565b60405161039c9796959493929190615003565b3480156107da57600080fd5b506005546001600160a01b03166103e7565b3480156107f857600080fd5b50610451610807366004614ead565b600d6020526000908152604090205481565b34801561082557600080fd5b506103ba6120bc565b34801561083a57600080fd5b50610451610849366004614ef1565b6120cb565b34801561085a57600080fd5b5061041f610869366004614ead565b6120e1565b34801561087a57600080fd5b50610941610889366004614f86565b6040805160c081018252600080825260208201819052918101829052606081018290526080810182905260a0810191909152506001600160c01b03166000908152600e6020908152604091829020825160c08101845281546001600160a01b03808216835267ffffffffffffffff600160a01b92839004169483019490945260018301548085169583019590955262ffffff94819004851660608301526002909201549283166080820152910490911660a082015290565b60405161039c91906150b8565b34801561095a57600080fd5b506103ba61096936600461511f565b612135565b34801561097a57600080fd5b50610451610989366004614ef1565b6122b4565b34801561099a57600080fd5b506109ae6109a9366004614f53565b61236c565b60405160029190910b815260200161039c565b3480156109cd57600080fd5b5061041f6109dc36600461515b565b61238e565b3480156109ed57600080fd5b5061041f6109fc3660046151fd565b612399565b348015610a0d57600080fd5b506103ba610a1c366004614cc9565b6123b0565b348015610a2d57600080fd5b506109ae610a3c366004614f86565b612417565b348015610a4d57600080fd5b50610a61610a5c366004614cc9565b612438565b6040805182516001600160a01b0316815260208084015167ffffffffffffffff90811691830191909152928201519092169082015260600161039c565b348015610aaa57600080fd5b50610b09610ab9366004614cc9565b6002027f722b431450ce53c44434ec138439e45a0639fe031b803ee019b776fae5cfa2b18101547f722b431450ce53c44434ec138439e45a0639fe031b803ee019b776fae5cfa2b2909101549091565b604080516001600160a01b0393841681529290911660208301520161039c565b348015610b3557600080fd5b50600c546103e7906001600160a01b031681565b348015610b5557600080fd5b5061041f610b64366004614e39565b612581565b348015610b7557600080fd5b5061041f610b84366004614ead565b6125e8565b348015610b9557600080fd5b506006546001600160a01b03166103e7565b348015610bb357600080fd5b506103ba6125f9565b348015610bc857600080fd5b50610390610bd7366004614ef1565b6001600160a01b03918216600090815260046020908152604080832093909416825291909152205460ff1690565b348015610c1157600080fd5b50610451610c20366004614cc9565b5490565b348015610c3057600080fd5b5061041f610c3f366004614ead565b612606565b348015610c5057600080fd5b506103ba610c5f3660046152ac565b612677565b348015610c7057600080fd5b50610390610c7f366004614f86565b6126f4565b348015610c9057600080fd5b5061041f610c9f3660046152ce565b612715565b60006001600160e01b031982167f6831a4fd000000000000000000000000000000000000000000000000000000001480610ce25750610ce282612a8f565b92915050565b606060008054610cf790615309565b80601f0160208091040260200160405190810160405280929190818152602001828054610d2390615309565b8015610d705780601f10610d4557610100808354040283529160200191610d70565b820191906000526020600020905b815481529060010190602001808311610d5357829003601f168201915b5050505050905090565b6000610d8582612b2a565b506000828152600360205260409020546001600160a01b0316610ce2565b610dae828233612b63565b5050565b6000610dbd33612b70565b610ddf610dd7853560009081526009602052604090205490565b338635612c09565b8335604090811c6000908152600e602090815290829020825160c08101845281546001600160a01b03808216835267ffffffffffffffff600160a01b92839004169483019490945260018301548085169583019590955262ffffff9481900485166060830152600283015493841660808301819052930490931660a08401529190610e6c90878787612c86565b60008073__$0f327795fa3d4a8ebc1d1bf7dff56892af$__633ac502c1858a35610e9c60408d0160208e01615353565b6040516001600160e01b031960e086901b1681526004810193909352602483019190915267ffffffffffffffff1660448201526064016040805180830381865af4158015610eee573d6000803e3d6000fd5b505050506040513d601f19601f82011682018060405250810190610f129190615370565b91509150826020015167ffffffffffffffff168267ffffffffffffffff16029450610f46836060015162ffffff1660171c90565b15610f6b576060830151600090610f649062ffffff16876001612d06565b9590950194505b8067ffffffffffffffff16600003610f8757610f878835612d89565b610f95836040015186612dc4565b60405167ffffffffffffffff831681528835907f0c6ba7ef5064094c17cce013aa4c617a23e2582f867774d07a5931de43b85d729060200160405180910390a26080830151610ff0906001600160a01b031689848a8a612e77565b505050509392505050565b60008061100733612b70565b600061101b61012087016101008801614ead565b6001600160a01b0316141580156110625750600f600061104361012088016101008901614ead565b6001600160a01b0316815260208101919091526040016000205460ff16155b156110bc5761107961012086016101008701614ead565b6040517f962715990000000000000000000000000000000000000000000000000000000081526001600160a01b0390911660048201526024015b60405180910390fd5b6110d76110cf60e0870160c0880161539f565b60020b612f00565b60006110f06110eb36889003880188615477565b612f5c565b6001600160c01b0381166000908152600e6020526040902090915061111481612f98565b61114961112636899003890189615493565b878761113860a08c0160808d01614ead565b6001600160a01b0316929190612fe1565b600073__$0f327795fa3d4a8ebc1d1bf7dff56892af$__63ffa0afb58361117660e08c0160c08d0161539f565b6111876101008d0160e08e01615353565b6111996101208e016101008f01614ead565b6040516001600160e01b031960e087901b168152600481019490945260029290920b602484015267ffffffffffffffff1660448301526001600160a01b03166064820152608401602060405180830381865af41580156111fd573d6000803e3d6000fd5b505050506040513d601f19601f820116820180604052508101906112219190615517565b90506112538361123760e08b0160c08c0161539f565b60409190911b60289190911b67ffffff00000000001601820190565b9450600061126760408a0160208b01615353565b67ffffffffffffffff166112826101008b0160e08c01615353565b67ffffffffffffffff160294508490506112b06112a560808b0160608c0161553e565b62ffffff1660171c90565b156112dc576112d78560006112cb60808d0160608e0161553e565b62ffffff169190612d06565b019350835b6112fd6112ef60608b0160408c01614ead565b6112f88361556f565b612dc4565b611307338761301f565b336001600160c01b0385167f251db4df45fa692f68b4e3f072919384c5b71995c71bf22888385168930fd22a61134360e08d0160c08e0161539f565b858d60e00160208101906113579190615353565b8e61010001602081019061136b9190614ead565b6040805160029590950b855264ffffffffff93909316602085015267ffffffffffffffff91909116838301526001600160a01b03166060830152519081900360800190a36113ec6113c1368b90038b018b615493565b878a8a8d60000160800160208101906113da9190614ead565b6001600160a01b03169392919061309d565b50505050935093915050565b6000610ce26110eb36849003840184615477565b6001600160a01b03821661143657604051633250574960e11b8152600060048201526024016110b3565b60006114438383336130dd565b9050836001600160a01b0316816001600160a01b0316146114aa576040517f64283d7b0000000000000000000000000000000000000000000000000000000081526001600160a01b03808616600483015260248201849052821660448201526064016110b3565b50505050565b6114bb838383612c09565b505050565b60006114ca6131e3565b905090565b60006114da33612b70565b6000848152600960205260409020546114f4903386612c09565b604084811c6000908152600e602090815290829020825160c08101845281546001600160a01b03808216835267ffffffffffffffff600160a01b92839004169483019490945260018301548085169583019590955262ffffff94819004851660608301526002830154938416608083018190529304841660a0820152602888901c9093169264ffffffffff88169261158e9089898961330e565b6040517fc49d262100000000000000000000000000000000000000000000000000000000815260048101839052600285900b602482015264ffffffffff8416604482015260009073__$0f327795fa3d4a8ebc1d1bf7dff56892af$__9063c49d262190606401602060405180830381865af4158015611611573d6000803e3d6000fd5b505050506040513d601f19601f8201168201806040525081019061163591906155a7565b6020830151909150600090819067ffffffffffffffff808516911602611660600289900b828461334b565b606086015160a0870151919a509061167d62ffffff821660171c90565b1561169a5761169362ffffff8216846001612d06565b94506116ae565b6116ab62ffffff82168c6001612d06565b93505b6116bd8262ffffff1660171c90565b156116e4576116d362ffffff8316846001612d06565b6116dd90866155c4565b9450611732565b60006116f662ffffff84168d83612d06565b905061170281866155c4565b945060008113611724576117158161556f565b61171f908d6155ec565b61172e565b61172e818d6155ff565b9b50505b50600091506117449050868989613376565b80519091506001600160a01b0381166117655750600c546001600160a01b03165b60008413156117b857611777846133cb565b6001600160a01b0380831660009081526010602090815260408083208b820151909416835292905290812080549091906117b29084906155ec565b90915550505b6000831315611809576117ca836133cb565b6001600160a01b0380831660009081526010602090815260408083208b51909416835292905290812080549091906118039084906155ec565b90915550505b816020015167ffffffffffffffff16600003611828576118288d612d89565b8551611837906112f88c61340e565b60405167ffffffffffffffff861681528d907ffc7df80a30ee916cc040221cf6fcfb3c6dc994b3fa4c4ab23e8a0f134de5c0c09060200160405180910390a26080860151611891906001600160a01b03168e878f8f61346d565b5050505050505050509392505050565b6000806118ad33612b70565b6118c06110cf60e0870160c0880161539f565b60006118d46110eb36889003880188615477565b6001600160c01b0381166000908152600e602052604090209091506118f881612f98565b61192d61190a36899003890189615612565b878761191c60a08c0160808d01614ead565b6001600160a01b03169291906134ac565b600073__$0f327795fa3d4a8ebc1d1bf7dff56892af$__63a151a7e18361195a60e08c0160c08d0161539f565b61196b6101008d0160e08e01615353565b6040516001600160e01b031960e086901b168152600481019390935260029190910b602483015267ffffffffffffffff166044820152606401602060405180830381865af41580156119c1573d6000803e3d6000fd5b505050506040513d601f19601f820116820180604052508101906119e591906155a7565b90506119f76040890160208a01615353565b67ffffffffffffffff8281169116029450611a28856001611a1e60e08c0160c08d0161539f565b60020b919061334b565b9350846000611a368661340e565b9050611a4b6112a560c08c0160a08d0161553e565b15611a7a57611a668760006112cb60c08e0160a08f0161553e565b611a709083615682565b9150819650611aa0565b611a908660006112cb60c08e0160a08f0161553e565b611a9a90826155c4565b90508095505b611ab9611ab360608c0160408d01614ead565b83612dc4565b611ac96112ef60208c018c614ead565b336001600160c01b0386167fc4c20b9c4a5ada3b01b7a391a08dd81a1be01dd8ef63170dd9da44ecee3db11b611b0560e08e0160c08f0161539f565b6040805160029290920b825267ffffffffffffffff881660208301520160405180910390a3611b67611b3c368c90038c018c615612565b848b8b8e6000016080016020810190611b559190614ead565b6001600160a01b0316939291906134ea565b5050505050935093915050565b6001600160c01b0382166000908152600e60205260408120611b96908361352a565b9392505050565b6114bb83838360405180602001604052806000815250612399565b6001600160c01b0381166000908152600e6020526040812054600160a01b900467ffffffffffffffff161515610ce2565b6000610ce282612b2a565b6000611bff33612b70565b6001600160a01b0382166000818152600d602052604090205490611c2290613561565b6001600160a01b0384166000908152600d60205260409020819055611c489082906155ff565b9150611c57836112f88461340e565b50919050565b611c656135fe565b6001600160a01b0381166000818152600f6020526040808220805460ff19169055517f88f58aa68e1f754fecfec41a6758d18d4a53fa15d4e206fd54bbdfe7a9e98da79190a250565b600a8054611cbb90615309565b80601f0160208091040260200160405190810160405280929190818152602001828054611ce790615309565b8015611d345780601f10611d0957610100808354040283529160200191611d34565b820191906000526020600020905b815481529060010190602001808311611d1757829003601f168201915b505050505081565b60006001600160a01b038216611d81576040517f89c62b64000000000000000000000000000000000000000000000000000000008152600060048201526024016110b3565b506001600160a01b031660009081526002602052604090205490565b611da56135fe565b611daf600061362b565b565b60065433906001600160a01b03168114611de95760405163118cdaa760e01b81526001600160a01b03821660048201526024016110b3565b611df28161362b565b50565b83421115611e2f576040517f1a15a3cc00000000000000000000000000000000000000000000000000000000815260040160405180910390fd5b6000611ead7f49ecf333e5b8c95c40fdafc95c1ad136e8914a8fb55e9dc8bb01eaa83a2df9ad8888611e6081613644565b6040805160208101959095526001600160a01b03909316928401929092526060830152608082015260a0810187905260c0016040516020818303038152906040528051906020012061367f565b90506000611eba87611be9565b9050806001600160a01b0316886001600160a01b031603611eee57604051638baa579f60e01b815260040160405180910390fd5b6001600160a01b0381163b1561200657604080516020810186905280820185905260f887901b7fff000000000000000000000000000000000000000000000000000000000000001660608201528151604181830301815260618201928390527f1626ba7e000000000000000000000000000000000000000000000000000000009092526001600160a01b03831691631626ba7e91611f909186916065016156a2565b602060405180830381865afa158015611fad573d6000803e3d6000fd5b505050506040513d601f19601f82011682018060405250810190611fd191906156bb565b6001600160e01b031916631626ba7e60e01b1461200157604051638baa579f60e01b815260040160405180910390fd5b612043565b806001600160a01b031661201c838787876136c7565b6001600160a01b03161461204357604051638baa579f60e01b815260040160405180910390fd5b61205088888360016136f5565b5050505050505050565b60006060806000806000606061206e613833565b612076613860565b604080516000808252602082019092527f0f000000000000000000000000000000000000000000000000000000000000009b939a50919850469750309650945092509050565b606060018054610cf790615309565b6000611b9683836014526000526028600c205490565b6120e96135fe565b6001600160a01b0381166000818152600f6020526040808220805460ff19166001179055517feb73900b98b6a3e2b8b01708fe544760cf570d21e7fbe5225f24e48b5b2b432e9190a250565b600080516020615d2b83398151915280546001600160801b0381166002027f722b431450ce53c44434ec138439e45a0639fe031b803ee019b776fae5cfa2b18101869055337f722b431450ce53c44434ec138439e45a0639fe031b803ee019b776fae5cfa2b290910155600101905560606040517f15c7afb40000000000000000000000000000000000000000000000000000000081526001600160a01b038516906315c7afb4906121ef90339087908790600401615701565b6000604051808303816000875af115801561220e573d6000803e3d6000fd5b505050506040513d6000823e601f3d908101601f191682016040526122369190810190615724565b905061224061388d565b600080516020615d2b833981519152546001600160801b0381169060801c8115801561227457506001600160801b03811615155b156122ab576040517f5212cba100000000000000000000000000000000000000000000000000000000815260040160405180910390fd5b50509392505050565b3360009081526010602090815260408083206001600160a01b03851684528252808320805490849055600d90925282208054919283926122f59084906155ff565b9091555061230f90506001600160a01b0383168483613921565b816001600160a01b0316836001600160a01b0316336001600160a01b03167f1c4f94f28cc9152354d4b98b8614b28c6c828a98d88228fa9577c7b9475e120c8460405161235e91815260200190565b60405180910390a492915050565b6001600160c01b0382166000908152600e60205260408120611b969083613a04565b610dae338383613a13565b6123a484848461140c565b6114aa84848484613acb565b60606123bb82612b2a565b5060006123c6613bed565b905060008151116123e65760405180602001604052806000815250611b96565b806123f084613bfc565b604051602001612401929190615792565b6040516020818303038152906040529392505050565b6001600160c01b0381166000908152600e60205260408120610ce290613c9c565b604080516060810182526000808252602080830182905282840182905284841c808352600e909152928120919291602885901c62ffffff169164ffffffffff86169190612486828585613376565b6040517f329b4a0100000000000000000000000000000000000000000000000000000000815260048101849052600286900b602482015264ffffffffff8516604482015290915060009073__$0f327795fa3d4a8ebc1d1bf7dff56892af$__9063329b4a0190606401602060405180830381865af415801561250c573d6000803e3d6000fd5b505050506040513d601f19601f8201168201806040525081019061253091906155a7565b9050604051806060016040528083600001516001600160a01b031681526020018284602001510367ffffffffffffffff1681526020018267ffffffffffffffff168152509650505050505050919050565b61258a33612b70565b80156114bb576125a68361259d8361340e565b6112f89061556f565b6001600160a01b0383166000908152600d6020526040812080548392906125ce9084906155ff565b909155506114bb90506001600160a01b0384168383613921565b6125f06135fe565b611df281613caa565b600b8054611cbb90615309565b61260e6135fe565b600680546001600160a01b0383166001600160a01b0319909116811790915561263f6005546001600160a01b031690565b6001600160a01b03167f38d16b8cac22d99fc7c124b9cd0de2d3fa1faef420bfe791d8c362d765e2270060405160405180910390a350565b60606126848260206157c1565b67ffffffffffffffff81111561269c5761269c61518e565b6040519080825280601f01601f1916602001820160405280156126c6576020820181803683370190505b50905060005b828110156126ed5780840154602060018301028301526001810190506126cc565b5092915050565b6001600160c01b0381166000908152600e60205260408120610ce290613cf4565b61271e33612b70565b61272e6040840160208501615353565b67ffffffffffffffff16600003612771576040517faf6c36ab00000000000000000000000000000000000000000000000000000000815260040160405180910390fd5b6000612783608085016060860161553e565b9050600061279760c0860160a0870161553e565b90506127a78262ffffff16613d02565b80156127bc57506127bc8162ffffff16613d02565b6127d957604051637a34030f60e01b815260040160405180910390fd5b6000620f423f19627fffff848116908416010160020b121561280e57604051637a34030f60e01b815260040160405180910390fd5b6000627fffff83166207a11f190160020b128061283957506000627fffff82166207a11f190160020b125b1561287e5761284d8162ffffff1660171c90565b151561285e8362ffffff1660171c90565b15151461287e57604051637a34030f60e01b815260040160405180910390fd5b600061289060a0870160808801614ead565b90506128a4816001600160a01b0316613d33565b6128e5576040517fe65af6a00000000000000000000000000000000000000000000000000000000081526001600160a01b03821660048201526024016110b3565b6129096128f736889003880188615477565b6001600160a01b038316908787613d6b565b600061291d6110eb36899003890189615477565b6001600160c01b0381166000908152600e60205260409081902090517fab8a7e3f00000000000000000000000000000000000000000000000000000000815291925073__$0f327795fa3d4a8ebc1d1bf7dff56892af$__9163ab8a7e3f91612989918b906004016157d8565b60006040518083038186803b1580156129a157600080fd5b505af41580156129b5573d6000803e3d6000fd5b506129ca925050506060880160408901614ead565b6001600160a01b03166129e06020890189614ead565b6001600160a01b03166001600160c01b0383167f803427d75ce3214f82dc7aa4910635170a6655e2c1663dc03429dd04100cba5a612a2460408c0160208d01615353565b6040805167ffffffffffffffff909216825262ffffff808b1660208401528916908201526001600160a01b038716606082015260800160405180910390a4612a86612a7436899003890189615477565b6001600160a01b038416908888613da9565b50505050505050565b60006001600160e01b031982167f80ac58cd000000000000000000000000000000000000000000000000000000001480612af257506001600160e01b031982167f5b5e139f00000000000000000000000000000000000000000000000000000000145b80610ce257507f01ffc9a7000000000000000000000000000000000000000000000000000000006001600160e01b0319831614610ce2565b6000818152600960205260408120546001600160a01b038116610ce257604051637e27328960e01b8152600481018490526024016110b3565b6114bb83838360016136f5565b6000612b7a613de7565b90506000612b86613e55565b9050816001600160a01b0316836001600160a01b031603612ba657505050565b806001600160a01b0316836001600160a01b031603612bc457505050565b6040517f74d863650000000000000000000000000000000000000000000000000000000081526001600160a01b038084166004830152821660248201526044016110b3565b612c14838383613ea8565b6114bb576001600160a01b038316612c4257604051637e27328960e01b8152600481018290526024016110b3565b6040517f177e802f0000000000000000000000000000000000000000000000000000000081526001600160a01b0383166004820152602481018290526044016110b3565b7302000000000000000000000000000000000000008416156114aa576114aa63295b52c560e01b33858585604051602401612cc494939291906158a8565b60408051601f198184030181529190526020810180516001600160e01b03166001600160e01b0319909316929092179091526001600160a01b03861690613f2b565b60006207a11f19627fffff851601600281900b82128281612d2a5782600003612d2c565b825b62ffffff1690506000612d66612d4283896157c1565b620f424088612d58578581830615151691040190565b808206151586151691040190565b905082612d7b57612d768161556f565b612d7d565b805b98975050505050505050565b6000612d9860008360006130dd565b90506001600160a01b038116610dae57604051637e27328960e01b8152600481018390526024016110b3565b80600003612dd0575050565b6000612dda613de7565b601484905260008181526028600c208054850190819055919250819003612e3857612e33700100000000000000000000000000000000600080516020615d2b8339815191525403600080516020615d2b83398151915255565b6114aa565b8281036114aa576114aa700100000000000000000000000000000000600080516020615d2b8339815191525401600080516020615d2b83398151915255565b730100000000000000000000000000000000000000851615612ef957612ef9635125ce9c60e01b3386868686604051602401612eb79594939291906158d8565b60408051601f198184030181529190526020810180516001600160e01b03166001600160e01b0319909316929092179091526001600160a01b03871690613f2b565b5050505050565b6207ffff600282900b1380612f255750612f1c6207ffff615923565b60020b8160020b125b15611df2576040517fce8ef7fc00000000000000000000000000000000000000000000000000000000815260040160405180910390fd5b60008082604051602001612f7091906150b8565b60408051601f1981840301815291905280516020909101206001600160c01b03169392505050565b8054600160a01b900467ffffffffffffffff16611df2576040517f1e3636e600000000000000000000000000000000000000000000000000000000815260040160405180910390fd5b7320000000000000000000000000000000000000008416156114aa576114aa633fda46bb60e01b33858585604051602401612cc494939291906159e0565b6001600160a01b03821661304957604051633250574960e11b8152600060048201526024016110b3565b6000613057838360006130dd565b90506001600160a01b038116156114bb576040517f73c6ac6e000000000000000000000000000000000000000000000000000000008152600060048201526024016110b3565b731000000000000000000000000000000000000000851615612ef957612ef963eba8155960e01b3386868686604051602401612eb7959493929190615a12565b6000828152600960205260408120546001600160a01b0383161561310657613106818486612c09565b6001600160a01b03811615613144576131236000856000806136f5565b6001600160a01b038116600090815260026020526040902080546000190190555b6001600160a01b03851615613173576001600160a01b0385166000908152600260205260409020805460010190555b600084815260096020526040902080546001600160a01b0319166001600160a01b03871617905583856001600160a01b0316826001600160a01b03167fddf252ad1be2c89b69c2b068fc378daa952ba7f163c4a11628f55a4df523b3ef60405160405180910390a4949350505050565b6000306001600160a01b037f00000000000000000000000000000000000000000000000000000000000000001614801561323c57507f000000000000000000000000000000000000000000000000000000000000000046145b1561326657507f000000000000000000000000000000000000000000000000000000000000000090565b6114ca604080517f8b73c3c69bb8fe3d512ecc4cf759cc79239f7b179b0ffacaa9a75d522b39400f60208201527f0000000000000000000000000000000000000000000000000000000000000000918101919091527f000000000000000000000000000000000000000000000000000000000000000060608201524660808201523060a082015260009060c00160405160208183030381529060405280519060200120905090565b72800000000000000000000000000000000000008416156114aa576114aa63827e0eb260e01b33858585604051602401612cc49493929190615a4b565b600061336e606084901b6133618660020b613f89565b8082061515851691040190565b949350505050565b6040805180820190915260008082526020820152613395848484614254565b6040805180820190915290546001600160a01b0381168252600160a01b900467ffffffffffffffff166020820152949350505050565b60008082121561340a576040517fa8ce4432000000000000000000000000000000000000000000000000000000008152600481018390526024016110b3565b5090565b60007f7fffffffffffffffffffffffffffffffffffffffffffffffffffffffffffffff82111561340a576040517f24775e06000000000000000000000000000000000000000000000000000000008152600481018390526024016110b3565b7240000000000000000000000000000000000000851615612ef957612ef96348042cf460e01b3386868686604051602401612eb7959493929190615a74565b7308000000000000000000000000000000000000008416156114aa576114aa63fab3c75660e01b33858585604051602401612cc49493929190615b34565b730400000000000000000000000000000000000000851615612ef957612ef9639eb477b260e01b3386868686604051602401612eb7959493929190615b66565b60006135396005840183614298565b600283900b60009081526003850160205260409020613557906142db565b611b969190615ba9565b60006001600160a01b038216613578575047919050565b6040517f70a082310000000000000000000000000000000000000000000000000000000081523060048201526001600160a01b038316906370a0823190602401602060405180830381865afa1580156135d5573d6000803e3d6000fd5b505050506040513d601f19601f82011682018060405250810190610ce29190615bca565b919050565b6005546001600160a01b03163314611daf5760405163118cdaa760e01b81523360048201526024016110b3565b600680546001600160a01b0319169055611df28161431c565b60008181526009602052604090205460a081901c9061366781600160a01b6155ec565b60009384526009602052604090932092909255919050565b6000610ce261368c6131e3565b836040517f19010000000000000000000000000000000000000000000000000000000000008152600281019290925260228201526042902090565b6000806000806136d98888888861436e565b9250925092506136e9828261443d565b50909695505050505050565b808061370957506001600160a01b03821615155b1561380357600061371984612b2a565b90506001600160a01b038316158015906137455750826001600160a01b0316816001600160a01b031614155b801561377757506001600160a01b0380821660009081526004602090815260408083209387168352929052205460ff16155b156137b9576040517fa9fbf51f0000000000000000000000000000000000000000000000000000000081526001600160a01b03841660048201526024016110b3565b81156138015783856001600160a01b0316826001600160a01b03167f8c5be1e5ebec7d5bd14f71427d1e84f3dd0314c0f7b2291e5b200ac8c7c3b92560405160405180910390a45b505b5050600090815260036020526040902080546001600160a01b0319166001600160a01b0392909216919091179055565b60606114ca7f00000000000000000000000000000000000000000000000000000000000000006007614541565b60606114ca7f00000000000000000000000000000000000000000000000000000000000000006008614541565b600080516020615d2b833981519152546001600160801b038116806138ba5763f1c77ed06000526004601cfd5b60006002600019928301027f722b431450ce53c44434ec138439e45a0639fe031b803ee019b776fae5cfa2b181018290557f722b431450ce53c44434ec138439e45a0639fe031b803ee019b776fae5cfa2b2015501600080516020615d2b83398151915255565b60006001600160a01b0384166139745760008060008085875af1905080612e33576040517ff4b3b1bc00000000000000000000000000000000000000000000000000000000815260040160405180910390fd5b6040517fa9059cbb0000000000000000000000000000000000000000000000000000000081526001600160a01b0384166004820152826024820152602060006044836000895af13d15601f3d11600160005114161716915050806114aa576040517ff27f64e400000000000000000000000000000000000000000000000000000000815260040160405180910390fd5b6000611b9660048401836145ec565b6001600160a01b038216613a5e576040517f5b08ba180000000000000000000000000000000000000000000000000000000081526001600160a01b03831660048201526024016110b3565b6001600160a01b03838116600081815260046020908152604080832094871680845294825291829020805460ff191686151590811790915591519182527f17307eab39ab6107e8899845ad3d59bd9653f200f220920489ca2b5937696c31910160405180910390a3505050565b6001600160a01b0383163b156114aa57604051630a85bd0160e11b81526001600160a01b0384169063150b7a0290613b0d903390889087908790600401615be3565b6020604051808303816000875af1925050508015613b48575060408051601f3d908101601f19168201909252613b45918101906156bb565b60015b613bb1573d808015613b76576040519150601f19603f3d011682016040523d82523d6000602084013e613b7b565b606091505b508051600003613ba957604051633250574960e11b81526001600160a01b03851660048201526024016110b3565b805181602001fd5b6001600160e01b03198116630a85bd0160e11b14612ef957604051633250574960e11b81526001600160a01b03851660048201526024016110b3565b6060600a8054610cf790615309565b60606000613c0983614722565b600101905060008167ffffffffffffffff811115613c2957613c2961518e565b6040519080825280601f01601f191660200182016040528015613c53576020820181803683370190505b5090508181016020015b600019017f3031323334353637383961626364656600000000000000000000000000000000600a86061a8153600a8504945084613c5d57509392505050565b6000610ce282600401614804565b600c80546001600160a01b0319166001600160a01b0383169081179091556040517fef673bbfc2ac7e4d4b810bffda0b15a1f2b48c2aa4d178d3fca87d0d1f33706290600090a250565b6000610ce2826004016148f8565b60006207a11f19627fffff8316016207a120600282900b1380613d2b57506207a11f198160020b125b159392505050565b60006001600160a01b0382161580610ce257505072400000000000000000000000000000000000006001600160a01b03909116101590565b7380000000000000000000000000000000000000008416156114aa576114aa635df4d91860e01b33858585604051602401612cc49493929190615c15565b7340000000000000000000000000000000000000008416156114aa576114aa6371ded94360e01b33858585604051602401612cc49493929190615c15565b600080613e09600080516020615d2b833981519152546001600160801b031690565b6001600160801b0316905060008111613e23576000613e4f565b60026000198201027f722b431450ce53c44434ec138439e45a0639fe031b803ee019b776fae5cfa2b101545b91505090565b60006114ca613e79600080516020615d2b833981519152546001600160801b031690565b6001600160801b03167ffcac7593714b88fec0c578a53e9f3f6e4b47eb26c9dcaa7eff23a3ac156be422015490565b60006001600160a01b0383161580159061336e5750826001600160a01b0316846001600160a01b03161480613f0257506001600160a01b0380851660009081526004602090815260408083209387168352929052205460ff165b8061336e5750506000908152600360205260409020546001600160a01b03908116911614919050565b600080613f388484614940565b91509150816001600160e01b031916816001600160e01b031916146114aa576040517f1e048e1d00000000000000000000000000000000000000000000000000000000815260040160405180910390fd5b6000613f9482612f00565b816000600282900b8113613fa85781613fb1565b613fb182615923565b62ffffff8116915060011615613fd5576bfff97272373d413259a469909250613fe6565b6c0100000000000000000000000092505b60028116156140055760606bfff2e50f5f656932ef12357c8402901c92505b60048116156140245760606bffe5caca7e10e4e61c3624ea8402901c92505b60088116156140435760606bffcb9843d60f6159c9db58838402901c92505b60108116156140625760606bff973b41fa98c081472e68968402901c92505b60208116156140815760606bff2ea16466c96a3843ec78b38402901c92505b60408116156140a05760606bfe5dee046a99a2a811c461f18402901c92505b60808116156140bf5760606bfcbe86c7900a88aedcffc83b8402901c92505b6101008116156140df5760606bf987a7253ac413176f2b074c8402901c92505b6102008116156140ff5760606bf3392b0822b70005940c7a398402901c92505b61040081161561411f5760606be7159475a2c29b7443b29c7f8402901c92505b61080081161561413f5760606bd097f3bdfd2022b8845ad8f78402901c92505b61100081161561415f5760606ba9f746462d870fdf8a65dc1f8402901c92505b61200081161561417f5760606b70d869a156d2a1b890bb3df68402901c92505b61400081161561419f5760606b31be135f97d08fd9812315058402901c92505b6180008116156141bf5760606b09aa508b5b7a84e1c677de548402901c92505b620100008116156141df5760606a5d6af8dedb81196699c3298402901c92505b620200008116156141fe576060692216e584f5fa1ea926048402901c92505b6204000081161561421b57606067048a170391f7dc428402901c92505b60008260020b131561424d5761424a837801000000000000000000000000000000000000000000000000615c9f565b92505b5050919050565b600282900b60009081526003840160205260408120600401805464ffffffffff841690811061428557614285615cc1565b9060005260206000200190509392505050565b600281901c623fffff166000818152602084905260408120549091906003841690600685901b60c0161c67ffffffffffffffff1680151590035b95945050505050565b60016000908152602082905260408120546142f8908260046149f5565b6000808052602084905260408120546143129160046149f5565b610ce29190615cd7565b600580546001600160a01b038381166001600160a01b0319831681179093556040519116919082907f8be0079c531659141344cd1fd0a4f28419497f9722a3daafe3b4186f6b6457e090600090a35050565b600080807f7fffffffffffffffffffffffffffffff5d576e7357a4501ddfe92f46681b20a08411156143a95750600091506003905082614433565b604080516000808252602082018084528a905260ff891692820192909252606081018790526080810186905260019060a0016020604051602081039080840390855afa1580156143fd573d6000803e3d6000fd5b5050604051601f1901519150506001600160a01b03811661442957506000925060019150829050614433565b9250600091508190505b9450945094915050565b600082600381111561445157614451615cf8565b0361445a575050565b600182600381111561446e5761446e615cf8565b036144a5576040517ff645eedf00000000000000000000000000000000000000000000000000000000815260040160405180910390fd5b60028260038111156144b9576144b9615cf8565b036144f3576040517ffce698f7000000000000000000000000000000000000000000000000000000008152600481018290526024016110b3565b600382600381111561450757614507615cf8565b03610dae576040517fd78bce0c000000000000000000000000000000000000000000000000000000008152600481018290526024016110b3565b606060ff831461455b5761455483614a36565b9050610ce2565b81805461456790615309565b80601f016020809104026020016040519081016040528092919081815260200182805461459390615309565b80156145e05780601f106145b5576101008083540402835291602001916145e0565b820191906000526020600020905b8154815290600101906020018083116145c357829003601f168201915b50505050509050610ce2565b62800000811901600881901c61ffff16600081815260208590526040812054909260ff1690600119821b168084036146f657600883901c801960009081526020889052604081205460011960ff87161b16908190036146ca57600088816146747f7710c0702d438d37259561c892984b894ff622adfa3d98b5dfe5a9763f94b95460016155ec565b81526020019081526020016000205483600119901b169050806000036146a657627fffff199650505050505050610ce2565b6146af81614a75565b60ff168019600090815260208b905260409020549093509150505b6146d381614a75565b60ff16600883901b17945087600086815260200190815260200160002054925050505b6146ff81614a75565b60ff16915062ffffff627fffff19600885901b84170119165b9695505050505050565b6000807a184f03e93ff9f4daa797ed6e38ed64bf6a1f010000000000000000831061476b577a184f03e93ff9f4daa797ed6e38ed64bf6a1f010000000000000000830492506040015b6d04ee2d6d415b85acef81000000008310614797576d04ee2d6d415b85acef8100000000830492506020015b662386f26fc1000083106147b557662386f26fc10000830492506010015b6305f5e10083106147cd576305f5e100830492506008015b61271083106147e157612710830492506004015b606483106147f3576064830492506002015b600a8310610ce25760010192915050565b600061480f826148f8565b15614846576040517f4f3d7def00000000000000000000000000000000000000000000000000000000815260040160405180910390fd5b600061488c83826148787f7710c0702d438d37259561c892984b894ff622adfa3d98b5dfe5a9763f94b95460016155ec565b815260200190815260200160002054614a75565b60ff16905060006148af8460008419815260200190815260200160002054614a75565b60ff16600883901b17905060006148d785600084815260200190815260200160002054614a75565b60ff16905062ffffff627fffff19600884901b831701191695945050505050565b600081816149277f7710c0702d438d37259561c892984b894ff622adfa3d98b5dfe5a9763f94b95460016155ec565b8152602001908152602001600020546000149050919050565b600080600061494e85614aee565b905060208401519250600080866001600160a01b0316866040516149729190615d0e565b6000604051808303816000865af19150503d80600081146149af576040519150601f19603f3d011682016040523d82523d6000602084013e6149b4565b606091505b5091509150816149c7576149c781614b62565b808060200190518101906149db91906156bb565b935082156149eb576149eb614b9d565b5050509250929050565b600682901b9290921c916000825b82811015614a2b57604085901c9467ffffffffffffffff168015019190910190600101614a03565b509190039003919050565b60606000614a4383614bf2565b604080516020808252818301909252919250600091906020820181803683375050509182525060208101929092525090565b6000808211614a8357600080fd5b60007e818283848586878898a8b8c8d8e8f929395969799a9b9d9e9faaeb6bedeeff600184190184160260f81c90506040518061012001604052806101008152602001615d4b61010091398181518110614adf57614adf615cc1565b016020015160f81c9392505050565b600080614af9613e55565b6001600160a01b0316036135f9576000614b28600080516020615d2b833981519152546001600160801b031690565b6001600160801b0316905082817ffcac7593714b88fec0c578a53e9f3f6e4b47eb26c9dcaa7eff23a3ac156be42201556001915050919050565b8051600003613ba9576040517f36bc48c500000000000000000000000000000000000000000000000000000000815260040160405180910390fd5b6000614bbe600080516020615d2b833981519152546001600160801b031690565b6001600160801b031690506000817ffcac7593714b88fec0c578a53e9f3f6e4b47eb26c9dcaa7eff23a3ac156be422015550565b600060ff8216601f811115610ce2576040517fb3512b0c00000000000000000000000000000000000000000000000000000000815260040160405180910390fd5b6001600160e01b031981168114611df257600080fd5b600060208284031215614c5b57600080fd5b8135611b9681614c33565b60005b83811015614c81578181015183820152602001614c69565b50506000910152565b60008151808452614ca2816020860160208601614c66565b601f01601f19169290920160200192915050565b602081526000611b966020830184614c8a565b600060208284031215614cdb57600080fd5b5035919050565b6001600160a01b0381168114611df257600080fd5b60008060408385031215614d0a57600080fd5b8235614d1581614ce2565b946020939093013593505050565b60008083601f840112614d3557600080fd5b50813567ffffffffffffffff811115614d4d57600080fd5b602083019150836020828501011115614d6557600080fd5b9250929050565b60008060008385036060811215614d8257600080fd5b6040811215614d9057600080fd5b50839250604084013567ffffffffffffffff811115614dae57600080fd5b614dba86828701614d23565b9497909650939450505050565b6000806000838503610140811215614dde57600080fd5b61012080821215614dee57600080fd5b859450840135905067ffffffffffffffff811115614dae57600080fd5b600060c08284031215611c5757600080fd5b600060c08284031215614e2f57600080fd5b611b968383614e0b565b600080600060608486031215614e4e57600080fd5b8335614e5981614ce2565b92506020840135614e6981614ce2565b929592945050506040919091013590565b600080600060408486031215614e8f57600080fd5b83359250602084013567ffffffffffffffff811115614dae57600080fd5b600060208284031215614ebf57600080fd5b8135611b9681614ce2565b6000806000838503610120811215614ee157600080fd5b61010080821215614dee57600080fd5b60008060408385031215614f0457600080fd5b8235614f0f81614ce2565b91506020830135614f1f81614ce2565b809150509250929050565b80356001600160c01b03811681146135f957600080fd5b8035600281900b81146135f957600080fd5b60008060408385031215614f6657600080fd5b614f6f83614f2a565b9150614f7d60208401614f41565b90509250929050565b600060208284031215614f9857600080fd5b611b9682614f2a565b60008060008060008060c08789031215614fba57600080fd5b8635614fc581614ce2565b95506020870135945060408701359350606087013560ff81168114614fe957600080fd5b9598949750929560808101359460a0909101359350915050565b7fff00000000000000000000000000000000000000000000000000000000000000881681526000602060e0602084015261504060e084018a614c8a565b8381036040850152615052818a614c8a565b606085018990526001600160a01b038816608086015260a0850187905284810360c08601528551808252602080880193509091019060005b818110156150a65783518352928401929184019160010161508a565b50909c9b505050505050505050505050565b60c08101610ce282846001600160a01b0380825116835267ffffffffffffffff6020830151166020840152806040830151166040840152606082015162ffffff80821660608601528260808501511660808601528060a08501511660a08601525050505050565b60008060006040848603121561513457600080fd5b833561513f81614ce2565b9250602084013567ffffffffffffffff811115614dae57600080fd5b6000806040838503121561516e57600080fd5b823561517981614ce2565b915060208301358015158114614f1f57600080fd5b634e487b7160e01b600052604160045260246000fd5b604051601f8201601f1916810167ffffffffffffffff811182821017156151cd576151cd61518e565b604052919050565b600067ffffffffffffffff8211156151ef576151ef61518e565b50601f01601f191660200190565b6000806000806080858703121561521357600080fd5b843561521e81614ce2565b9350602085013561522e81614ce2565b925060408501359150606085013567ffffffffffffffff81111561525157600080fd5b8501601f8101871361526257600080fd5b8035615275615270826151d5565b6151a4565b81815288602083850101111561528a57600080fd5b8160208401602083013760006020838301015280935050505092959194509250565b600080604083850312156152bf57600080fd5b50508035926020909101359150565b600080600060e084860312156152e357600080fd5b6152ed8585614e0b565b925060c084013567ffffffffffffffff811115614dae57600080fd5b600181811c9082168061531d57607f821691505b602082108103611c5757634e487b7160e01b600052602260045260246000fd5b67ffffffffffffffff81168114611df257600080fd5b60006020828403121561536557600080fd5b8135611b968161533d565b6000806040838503121561538357600080fd5b825161538e8161533d565b6020840151909250614f1f8161533d565b6000602082840312156153b157600080fd5b611b9682614f41565b803562ffffff811681146135f957600080fd5b600060c082840312156153df57600080fd5b60405160c0810181811067ffffffffffffffff821117156154025761540261518e565b604052905080823561541381614ce2565b815260208301356154238161533d565b6020820152604083013561543681614ce2565b6040820152615447606084016153ba565b6060820152608083013561545a81614ce2565b608082015261546b60a084016153ba565b60a08201525092915050565b600060c0828403121561548957600080fd5b611b9683836153cd565b600061012082840312156154a657600080fd5b6040516080810181811067ffffffffffffffff821117156154c9576154c961518e565b6040526154d684846153cd565b81526154e460c08401614f41565b602082015260e08301356154f78161533d565b604082015261010083013561550b81614ce2565b60608201529392505050565b60006020828403121561552957600080fd5b815164ffffffffff81168114611b9657600080fd5b60006020828403121561555057600080fd5b611b96826153ba565b634e487b7160e01b600052601160045260246000fd5b60007f800000000000000000000000000000000000000000000000000000000000000082036155a0576155a0615559565b5060000390565b6000602082840312156155b957600080fd5b8151611b968161533d565b80820182811260008312801582168215821617156155e4576155e4615559565b505092915050565b80820180821115610ce257610ce2615559565b81810381811115610ce257610ce2615559565b6000610100828403121561562557600080fd5b6040516060810181811067ffffffffffffffff821117156156485761564861518e565b60405261565584846153cd565b815261566360c08401614f41565b602082015260e08301356156768161533d565b60408201529392505050565b81810360008312801583831316838312821617156126ed576126ed615559565b82815260406020820152600061336e6040830184614c8a565b6000602082840312156156cd57600080fd5b8151611b9681614c33565b81835281816020850137506000828201602090810191909152601f909101601f19169091010190565b6001600160a01b03841681526040602082015260006142d26040830184866156d8565b60006020828403121561573657600080fd5b815167ffffffffffffffff81111561574d57600080fd5b8201601f8101841361575e57600080fd5b805161576c615270826151d5565b81815285602083850101111561578157600080fd5b6142d2826020830160208601614c66565b600083516157a4818460208801614c66565b8351908301906157b8818360208801614c66565b01949350505050565b8082028115828204841417610ce257610ce2615559565b82815260e0810182356157ea81614ce2565b6001600160a01b0380821660208501526020850135915061580a8261533d565b67ffffffffffffffff821660408501526040850135915061582a82614ce2565b808216606085015261583e606086016153ba565b915062ffffff80831660808601526080860135925061585c83614ce2565b81831660a08601528061587160a088016153ba565b1660c08601525050509392505050565b8035825260208101356158938161533d565b67ffffffffffffffff81166020840152505050565b6001600160a01b03851681526158c16020820185615881565b6080606082015260006147186080830184866156d8565b6001600160a01b03861681526158f16020820186615881565b67ffffffffffffffff8416606082015260a06080820152600061591860a0830184866156d8565b979650505050505050565b60008160020b627fffff19810361593c5761593c615559565b60000392915050565b6159a98282516001600160a01b0380825116835267ffffffffffffffff6020830151166020840152806040830151166040840152606082015162ffffff80821660608601528260808501511660808601528060a08501511660a08601525050505050565b602081015160020b60c0830152604081015167ffffffffffffffff1660e0830152606001516001600160a01b031661010090910152565b60006101606001600160a01b03871683526159fe6020840187615945565b8061014084015261591881840185876156d8565b60006101806001600160a01b0388168352615a306020840188615945565b8561014084015280610160840152612d7d81840185876156d8565b6001600160a01b03851681528360208201526060604082015260006147186060830184866156d8565b6001600160a01b038616815284602082015267ffffffffffffffff841660408201526080606082015260006159186080830184866156d8565b615b118282516001600160a01b0380825116835267ffffffffffffffff6020830151166020840152806040830151166040840152606082015162ffffff80821660608601528260808501511660808601528060a08501511660a08601525050505050565b602081015160020b60c08301526040015167ffffffffffffffff1660e090910152565b60006101406001600160a01b0387168352615b526020840187615aad565b8061012084015261591881840185876156d8565b60006101606001600160a01b0388168352615b846020840188615aad565b67ffffffffffffffff861661012084015280610140840152612d7d81840185876156d8565b67ffffffffffffffff8281168282160390808211156126ed576126ed615559565b600060208284031215615bdc57600080fd5b5051919050565b60006001600160a01b038087168352808616602084015250836040830152608060608301526147186080830184614c8a565b60006101006001600160a01b0387168352615c8c60208401876001600160a01b0380825116835267ffffffffffffffff6020830151166020840152806040830151166040840152606082015162ffffff80821660608601528260808501511660808601528060a08501511660a08601525050505050565b8060e084015261591881840185876156d8565b600082615cbc57634e487b7160e01b600052601260045260246000fd5b500490565b634e487b7160e01b600052603260045260246000fd5b67ffffffffffffffff8181168382160190808211156126ed576126ed615559565b634e487b7160e01b600052602160045260246000fd5b60008251615d20818460208701614c66565b919091019291505056fe760a9a962ae3d184e99c0483cf5684fb3170f47116ca4f445c50209da4f4f9070001020903110a19042112290b311a3905412245134d2a550c5d32651b6d3a7506264262237d468514804e8d2b95569d0d495ea533a966b11c886eb93bc176c9071727374353637324837e9b47af86c7155181ad4fd18ed32c9096db57d59ee30e2e4a6a5f92a6be3498aae067ddb2eb1d5989b56fd7baf33ca0c2ee77e5caf7ff0810182028303840444c545c646c7425617c847f8c949c48a4a8b087b8c0c816365272829aaec650acd0d28fdad4e22d6991bd97dfdcea58b4d6f29fede4f6fe0f1f2f3f4b5b6b607b8b93a3a7b7bf357199c5abcfd9e168bcdee9b3f1ecf5fd1e3e5a7a8aa2b670c4ced8bbe8f0f4fc3d79a1c3cde7effb78cce6facbf9f8a264697066735822122064feaa1fe70a6a1585f8f8ccc3b703c26af31fc1264c13d443f8631af8f5ca8264736f6c63430008190033",
  "libraries": {
    "Book": "0x1fA03eDB1B8839a5319A7D2c1Ae6AAE492342bAD"
  },
  "devdoc": {
    "errors": {
      "ECDSAInvalidSignature()": [
        {
          "details": "The signature derives the `address(0)`."
        }
      ],
      "ECDSAInvalidSignatureLength(uint256)": [
        {
          "details": "The signature has an invalid length."
        }
      ],
      "ECDSAInvalidSignatureS(bytes32)": [
        {
          "details": "The signature has an S value that is in the upper half order."
        }
      ],
      "ERC721IncorrectOwner(address,uint256,address)": [
        {
          "details": "Indicates an error related to the ownership over a particular token. Used in transfers.",
          "params": {
            "owner": "Address of the current owner of a token.",
            "sender": "Address whose tokens are being transferred.",
            "tokenId": "Identifier number of a token."
          }
        }
      ],
      "ERC721InsufficientApproval(address,uint256)": [
        {
          "details": "Indicates a failure with the `operator`s approval. Used in transfers.",
          "params": {
            "operator": "Address that may be allowed to operate on tokens without being their owner.",
            "tokenId": "Identifier number of a token."
          }
        }
      ],
      "ERC721InvalidApprover(address)": [
        {
          "details": "Indicates a failure with the `approver` of a token to be approved. Used in approvals.",
          "params": {
            "approver": "Address initiating an approval operation."
          }
        }
      ],
      "ERC721InvalidOperator(address)": [
        {
          "details": "Indicates a failure with the `operator` to be approved. Used in approvals.",
          "params": {
            "operator": "Address that may be allowed to operate on tokens without being their owner."
          }
        }
      ],
      "ERC721InvalidOwner(address)": [
        {
          "details": "Indicates that an address can't be an owner. For example, `address(0)` is a forbidden owner in EIP-20. Used in balance queries.",
          "params": {
            "owner": "Address of the current owner of a token."
          }
        }
      ],
      "ERC721InvalidReceiver(address)": [
        {
          "details": "Indicates a failure with the token `receiver`. Used in transfers.",
          "params": {
            "receiver": "Address to which tokens are being transferred."
          }
        }
      ],
      "ERC721InvalidSender(address)": [
        {
          "details": "Indicates a failure with the token `sender`. Used in transfers.",
          "params": {
            "sender": "Address whose tokens are being transferred."
          }
        }
      ],
      "ERC721NonexistentToken(uint256)": [
        {
          "details": "Indicates a `tokenId` whose `owner` is the zero address.",
          "params": {
            "tokenId": "Identifier number of a token."
          }
        }
      ],
      "HookAddressNotValid(address)": [
        {
          "params": {
            "hooks": "The address of the hooks contract"
          }
        }
      ],
      "OwnableInvalidOwner(address)": [
        {
          "details": "The owner is not a valid owner account. (eg. `address(0)`)"
        }
      ],
      "OwnableUnauthorizedAccount(address)": [
        {
          "details": "The caller account is not authorized to perform an operation."
        }
      ],
      "SafeCastOverflowedIntToUint(int256)": [
        {
          "details": "An int value doesn't fit in an uint of `bits` size."
        }
      ],
      "SafeCastOverflowedUintToInt(uint256)": [
        {
          "details": "An uint value doesn't fit in an int of `bits` size."
        }
      ]
    },
    "events": {
      "Approval(address,address,uint256)": {
        "details": "Emitted when `owner` enables `approved` to manage the `tokenId` token."
      },
      "ApprovalForAll(address,address,bool)": {
        "details": "Emitted when `owner` enables or disables (`approved`) `operator` to manage all of its assets."
      },
      "Cancel(uint256,uint64)": {
        "params": {
          "orderId": "The order id",
          "unit": "The canceled unit"
        }
      },
      "Claim(uint256,uint64)": {
        "params": {
          "orderId": "The order id",
          "unit": "The claimed unit"
        }
      },
      "Collect(address,address,address,uint256)": {
        "params": {
          "amount": "The collected amount",
          "currency": "The currency",
          "provider": "The provider address",
          "recipient": "The recipient address"
        }
      },
      "Delist(address)": {
        "params": {
          "provider": "The provider address"
        }
      },
      "EIP712DomainChanged()": {
        "details": "MAY be emitted to signal that the domain could have changed."
      },
      "Make(uint192,address,int24,uint256,uint64,address)": {
        "params": {
          "bookId": "The book id",
          "orderIndex": "The order index",
          "provider": "The provider address",
          "tick": "The order tick",
          "unit": "The order unit",
          "user": "The user address"
        }
      },
      "Open(uint192,address,address,uint64,uint24,uint24,address)": {
        "params": {
          "base": "The base currency",
          "hooks": "The hooks contract",
          "id": "The book id",
          "makerPolicy": "The maker fee policy",
          "quote": "The quote currency",
          "takerPolicy": "The taker fee policy",
          "unitSize": "The unit size of the book"
        }
      },
      "SetDefaultProvider(address)": {
        "params": {
          "newDefaultProvider": "The new default provider address"
        }
      },
      "Take(uint192,address,int24,uint64)": {
        "params": {
          "bookId": "The book id",
          "tick": "The order tick",
          "unit": "The order unit",
          "user": "The user address"
        }
      },
      "Transfer(address,address,uint256)": {
        "details": "Emitted when `tokenId` token is transferred from `from` to `to`."
      },
      "Whitelist(address)": {
        "params": {
          "provider": "The provider address"
        }
      }
    },
    "kind": "dev",
    "methods": {
      "acceptOwnership()": {
        "details": "The new owner accepts the ownership transfer."
      },
      "approve(address,uint256)": {
        "details": "See {IERC721-approve}."
      },
      "balanceOf(address)": {
        "details": "See {IERC721-balanceOf}."
      },
      "cancel((uint256,uint64),bytes)": {
        "params": {
          "hookData": "The hook data",
          "params": "The order parameters"
        },
        "returns": {
          "canceledAmount": "The amount of quote currency canceled"
        }
      },
      "checkAuthorized(address,address,uint256)": {
        "params": {
          "owner": "The address of the token owner",
          "spender": "The address of the spender",
          "tokenId": "The token ID"
        }
      },
      "claim(uint256,bytes)": {
        "params": {
          "hookData": "The hook data",
          "id": "The order ID"
        },
        "returns": {
          "claimedAmount": "The amount claimed"
        }
      },
      "collect(address,address)": {
        "params": {
          "currency": "The currency",
          "recipient": "The recipient address"
        },
        "returns": {
          "amount": "The collected amount"
        }
      },
      "delist(address)": {
        "params": {
          "provider": "The provider address"
        }
      },
      "eip712Domain()": {
        "details": "See {IERC-5267}."
      },
      "encodeBookKey((address,uint64,address,uint24,address,uint24))": {
        "params": {
          "key": "The BookKey to encode"
        },
        "returns": {
          "_0": "The encoded BookId"
        }
      },
      "getApproved(uint256)": {
        "details": "See {IERC721-getApproved}."
      },
      "getBookKey(uint192)": {
        "params": {
          "id": "The book ID"
        },
        "returns": {
          "_0": "The book key"
        }
      },
      "getCurrencyDelta(address,address)": {
        "params": {
          "currency": "The currency in question",
          "locker": "The address of the locker"
        },
        "returns": {
          "_0": "The net change in currency balance"
        }
      },
      "getDepth(uint192,int24)": {
        "params": {
          "id": "The book ID",
          "tick": "The tick"
        },
        "returns": {
          "_0": "The depth of the tick"
        }
      },
      "getHighest(uint192)": {
        "params": {
          "id": "The book ID"
        },
        "returns": {
          "_0": "The highest tick"
        }
      },
      "getLock(uint256)": {
        "params": {
          "i": "The index of the lock"
        },
        "returns": {
          "_0": "The locker's address",
          "_1": "The caller's address"
        }
      },
      "getLockData()": {
        "returns": {
          "_0": "The lock data including necessary numeric values"
        }
      },
      "getOrder(uint256)": {
        "params": {
          "id": "The order ID"
        },
        "returns": {
          "_0": "Order information including provider, open status, and claimable unit"
        }
      },
      "isApprovedForAll(address,address)": {
        "details": "See {IERC721-isApprovedForAll}."
      },
      "isEmpty(uint192)": {
        "params": {
          "id": "The book ID"
        },
        "returns": {
          "_0": "True if the book is empty, false otherwise"
        }
      },
      "isOpened(uint192)": {
        "params": {
          "id": "The book ID"
        },
        "returns": {
          "_0": "True if the book is opened, false otherwise"
        }
      },
      "load(bytes32)": {
        "params": {
          "slot": "The storage slot"
        },
        "returns": {
          "value": "The value in the slot"
        }
      },
      "load(bytes32,uint256)": {
        "params": {
          "nSlot": "The number of slots to load",
          "startSlot": "The starting slot"
        },
        "returns": {
          "value": "The sequence of values"
        }
      },
      "lock(address,bytes)": {
        "params": {
          "data": "The lock data",
          "locker": "The locker address"
        },
        "returns": {
          "result": "The lock return data"
        }
      },
      "make(((address,uint64,address,uint24,address,uint24),int24,uint64,address),bytes)": {
        "params": {
          "hookData": "The hook data",
          "params": "The order parameters"
        },
        "returns": {
          "id": "The order id. Returns 0 if the order is not settled",
          "quoteAmount": "The amount of quote currency to be paid"
        }
      },
      "maxLessThan(uint192,int24)": {
        "details": "Returns `Tick.wrap(type(int24).min)` if the specified tick is the lowest",
        "params": {
          "id": "The book ID",
          "tick": "The specified tick"
        },
        "returns": {
          "_0": "The next lower tick"
        }
      },
      "name()": {
        "details": "See {IERC721Metadata-name}."
      },
      "open((address,uint64,address,uint24,address,uint24),bytes)": {
        "params": {
          "hookData": "The hook data",
          "key": "The book key"
        }
      },
      "owner()": {
        "details": "Returns the address of the current owner."
      },
      "ownerOf(uint256)": {
        "details": "See {IERC721-ownerOf}."
      },
      "pendingOwner()": {
        "details": "Returns the address of the pending owner."
      },
      "permit(address,uint256,uint256,uint8,bytes32,bytes32)": {
        "params": {
          "deadline": "The deadline for the signature",
          "r": "The r value of the signature",
          "s": "The s value of the signature",
          "spender": "The address to approve",
          "tokenId": "The tokenId to approve",
          "v": "The recovery id of the signature"
        }
      },
      "renounceOwnership()": {
        "details": "Leaves the contract without owner. It will not be possible to call `onlyOwner` functions. Can only be called by the current owner. NOTE: Renouncing ownership will leave the contract without an owner, thereby disabling any functionality that is only available to the owner."
      },
      "safeTransferFrom(address,address,uint256)": {
        "details": "See {IERC721-safeTransferFrom}."
      },
      "safeTransferFrom(address,address,uint256,bytes)": {
        "details": "See {IERC721-safeTransferFrom}."
      },
      "setApprovalForAll(address,bool)": {
        "details": "See {IERC721-setApprovalForAll}."
      },
      "setDefaultProvider(address)": {
        "params": {
          "newDefaultProvider": "The new default provider address"
        }
      },
      "settle(address)": {
        "params": {
          "currency": "The currency"
        },
        "returns": {
          "paid": "The settled amount"
        }
      },
      "symbol()": {
        "details": "See {IERC721Metadata-symbol}."
      },
      "take(((address,uint64,address,uint24,address,uint24),int24,uint64),bytes)": {
        "params": {
          "hookData": "The hook data",
          "params": "The order parameters"
        },
        "returns": {
          "baseAmount": "The amount of base currency to be paid",
          "quoteAmount": "The amount of quote currency to be received"
        }
      },
      "tokenURI(uint256)": {
        "details": "See {IERC721Metadata-tokenURI}."
      },
      "transferFrom(address,address,uint256)": {
        "details": "See {IERC721-transferFrom}."
      },
      "transferOwnership(address)": {
        "details": "Starts the ownership transfer of the contract to a new account. Replaces the pending transfer if there is one. Can only be called by the current owner."
      },
      "whitelist(address)": {
        "params": {
          "provider": "The provider address"
        }
      },
      "withdraw(address,address,uint256)": {
        "params": {
          "amount": "The amount",
          "currency": "The currency",
          "to": "The recipient address"
        }
      }
    },
    "stateVariables": {
      "baseURI": {
        "return": "The base URI",
        "returns": {
          "_0": "The base URI"
        }
      },
      "contractURI": {
        "return": "The contract URI",
        "returns": {
          "_0": "The contract URI"
        }
      },
      "defaultProvider": {
        "return": "The default provider",
        "returns": {
          "_0": "The default provider"
        }
      },
      "isWhitelisted": {
        "params": {
          "provider": "The address of the provider"
        },
        "return": "True if the provider is whitelisted, false otherwise",
        "returns": {
          "_0": "True if the provider is whitelisted, false otherwise"
        }
      },
      "reservesOf": {
        "params": {
          "currency": "The currency in question"
        },
        "return": "The total reserves amount",
        "returns": {
          "_0": "The total reserves amount"
        }
      },
      "tokenOwed": {
        "params": {
          "currency": "The currency in question",
          "provider": "The provider's address"
        },
        "return": "amount The owed amount",
        "returns": {
          "amount": "The owed amount"
        }
      }
    },
    "version": 1
  },
  "userdoc": {
    "errors": {
      "ERC20TransferFailed()": [
        {
          "notice": "Thrown when an ERC20 transfer fails"
        }
      ],
      "FailedHookCall()": [
        {
          "notice": "thrown when a hook call fails"
        }
      ],
      "HookAddressNotValid(address)": [
        {
          "notice": "Thrown if the address will not lead to the specified hook calls being called"
        }
      ],
      "InvalidHookResponse()": [
        {
          "notice": "Hook did not return its selector"
        }
      ],
      "NativeTransferFailed()": [
        {
          "notice": "Thrown when a native transfer fails"
        }
      ]
    },
    "events": {
      "Cancel(uint256,uint64)": {
        "notice": "Event emitted when an order is canceled"
      },
      "Claim(uint256,uint64)": {
        "notice": "Event emitted when an order is claimed"
      },
      "Collect(address,address,address,uint256)": {
        "notice": "Event emitted when a provider collects fees"
      },
      "Delist(address)": {
        "notice": "Event emitted when a provider is delisted"
      },
      "Make(uint192,address,int24,uint256,uint64,address)": {
        "notice": "Event emitted when a new order is made"
      },
      "Open(uint192,address,address,uint64,uint24,uint24,address)": {
        "notice": "Event emitted when a new book is opened"
      },
      "SetDefaultProvider(address)": {
        "notice": "Event emitted when new default provider is set"
      },
      "Take(uint192,address,int24,uint64)": {
        "notice": "Event emitted when an order is taken"
      },
      "Whitelist(address)": {
        "notice": "Event emitted when a provider is whitelisted"
      }
    },
    "kind": "user",
    "methods": {
      "DOMAIN_SEPARATOR()": {
        "notice": "The EIP-712 domain separator for this contract"
      },
      "PERMIT_TYPEHASH()": {
        "notice": "The EIP-712 typehash for the permit struct used by the contract"
      },
      "baseURI()": {
        "notice": "Returns the base URI"
      },
      "cancel((uint256,uint64),bytes)": {
        "notice": "Cancel a limit order"
      },
      "checkAuthorized(address,address,uint256)": {
        "notice": "Verifies if an owner has authorized a spender for a token"
      },
      "claim(uint256,bytes)": {
        "notice": "Claims an order"
      },
      "collect(address,address)": {
        "notice": "Collects fees from a provider"
      },
      "contractURI()": {
        "notice": "Returns the contract URI"
      },
      "defaultProvider()": {
        "notice": "Returns the default provider"
      },
      "delist(address)": {
        "notice": "Delists a provider"
      },
      "encodeBookKey((address,uint64,address,uint24,address,uint24))": {
        "notice": "Encodes a BookKey into a BookId"
      },
      "getBookKey(uint192)": {
        "notice": "Retrieves the book key for a given book ID"
      },
      "getCurrencyDelta(address,address)": {
        "notice": "Calculates the currency balance changes for a given locker"
      },
      "getDepth(uint192,int24)": {
        "notice": "Returns the depth of a given book ID and tick"
      },
      "getHighest(uint192)": {
        "notice": "Retrieves the highest tick for a given book ID"
      },
      "getLock(uint256)": {
        "notice": "Retrieves the locker and caller addresses for a given lock"
      },
      "getLockData()": {
        "notice": "Provides the lock data"
      },
      "getOrder(uint256)": {
        "notice": "Provides information about an order"
      },
      "isEmpty(uint192)": {
        "notice": "Checks if a book is empty"
      },
      "isOpened(uint192)": {
        "notice": "Checks if a book is opened"
      },
      "isWhitelisted(address)": {
        "notice": "Checks if a provider is whitelisted"
      },
      "load(bytes32)": {
        "notice": "Loads a value from a specific storage slot"
      },
      "load(bytes32,uint256)": {
        "notice": "Loads a sequence of values starting from a specific slot"
      },
      "lock(address,bytes)": {
        "notice": "Locks a book manager function"
      },
      "make(((address,uint64,address,uint24,address,uint24),int24,uint64,address),bytes)": {
        "notice": "Make a limit order"
      },
      "maxLessThan(uint192,int24)": {
        "notice": "Finds the maximum tick less than a specified tick in a book"
      },
      "open((address,uint64,address,uint24,address,uint24),bytes)": {
        "notice": "Opens a new book"
      },
      "permit(address,uint256,uint256,uint8,bytes32,bytes32)": {
        "notice": "Approve the spender to transfer the given tokenId"
      },
      "reservesOf(address)": {
        "notice": "Returns the total reserves of a given currency"
      },
      "setDefaultProvider(address)": {
        "notice": "Sets the default provider"
      },
      "settle(address)": {
        "notice": "Settles a currency"
      },
      "take(((address,uint64,address,uint24,address,uint24),int24,uint64),bytes)": {
        "notice": "Take a limit order at specific tick"
      },
      "tokenOwed(address,address)": {
        "notice": "Calculates the amount owed to a provider in a given currency"
      },
      "whitelist(address)": {
        "notice": "Whitelists a provider"
      },
      "withdraw(address,address,uint256)": {
        "notice": "Withdraws a currency"
      }
    },
    "version": 1
  },
  "storageLayout": {
    "storage": [
      {
        "astId": 9261,
        "contract": "src/BookManager.sol:BookManager",
        "label": "_name",
        "offset": 0,
        "slot": "0",
        "type": "t_string_storage"
      },
      {
        "astId": 9263,
        "contract": "src/BookManager.sol:BookManager",
        "label": "_symbol",
        "offset": 0,
        "slot": "1",
        "type": "t_string_storage"
      },
      {
        "astId": 9267,
        "contract": "src/BookManager.sol:BookManager",
        "label": "_balances",
        "offset": 0,
        "slot": "2",
        "type": "t_mapping(t_address,t_uint256)"
      },
      {
        "astId": 9271,
        "contract": "src/BookManager.sol:BookManager",
        "label": "_tokenApprovals",
        "offset": 0,
        "slot": "3",
        "type": "t_mapping(t_uint256,t_address)"
      },
      {
        "astId": 9277,
        "contract": "src/BookManager.sol:BookManager",
        "label": "_operatorApprovals",
        "offset": 0,
        "slot": "4",
        "type": "t_mapping(t_address,t_mapping(t_address,t_bool))"
      },
      {
        "astId": 8,
        "contract": "src/BookManager.sol:BookManager",
        "label": "_owner",
        "offset": 0,
        "slot": "5",
        "type": "t_address"
      },
      {
        "astId": 156,
        "contract": "src/BookManager.sol:BookManager",
        "label": "_pendingOwner",
        "offset": 0,
        "slot": "6",
        "type": "t_address"
      },
      {
        "astId": 2438,
        "contract": "src/BookManager.sol:BookManager",
        "label": "_nameFallback",
        "offset": 0,
        "slot": "7",
        "type": "t_string_storage"
      },
      {
        "astId": 2440,
        "contract": "src/BookManager.sol:BookManager",
        "label": "_versionFallback",
        "offset": 0,
        "slot": "8",
        "type": "t_string_storage"
      },
      {
        "astId": 10271,
        "contract": "src/BookManager.sol:BookManager",
        "label": "_nonceAndOwner",
        "offset": 0,
        "slot": "9",
        "type": "t_mapping(t_uint256,t_uint256)"
      },
      {
        "astId": 5729,
        "contract": "src/BookManager.sol:BookManager",
        "label": "baseURI",
        "offset": 0,
        "slot": "10",
        "type": "t_string_storage"
      },
      {
        "astId": 5732,
        "contract": "src/BookManager.sol:BookManager",
        "label": "contractURI",
        "offset": 0,
        "slot": "11",
        "type": "t_string_storage"
      },
      {
        "astId": 5735,
        "contract": "src/BookManager.sol:BookManager",
        "label": "defaultProvider",
        "offset": 0,
        "slot": "12",
        "type": "t_address"
      },
      {
        "astId": 5741,
        "contract": "src/BookManager.sol:BookManager",
        "label": "reservesOf",
        "offset": 0,
        "slot": "13",
        "type": "t_mapping(t_userDefinedValueType(Currency)8850,t_uint256)"
      },
      {
        "astId": 5747,
        "contract": "src/BookManager.sol:BookManager",
        "label": "_books",
        "offset": 0,
        "slot": "14",
        "type": "t_mapping(t_userDefinedValueType(BookId)8823,t_struct(State)8159_storage)"
      },
      {
        "astId": 5752,
        "contract": "src/BookManager.sol:BookManager",
        "label": "isWhitelisted",
        "offset": 0,
        "slot": "15",
        "type": "t_mapping(t_address,t_bool)"
      },
      {
        "astId": 5760,
        "contract": "src/BookManager.sol:BookManager",
        "label": "tokenOwed",
        "offset": 0,
        "slot": "16",
        "type": "t_mapping(t_address,t_mapping(t_userDefinedValueType(Currency)8850,t_uint256))"
      }
    ],
    "types": {
      "t_address": {
        "encoding": "inplace",
        "label": "address",
        "numberOfBytes": "20"
      },
      "t_array(t_mapping(t_uint256,t_uint256))4_storage": {
        "base": "t_mapping(t_uint256,t_uint256)",
        "encoding": "inplace",
        "label": "mapping(uint256 => uint256)[4]",
        "numberOfBytes": "128"
      },
      "t_array(t_struct(Order)8133_storage)dyn_storage": {
        "base": "t_struct(Order)8133_storage",
        "encoding": "dynamic_array",
        "label": "struct Book.Order[]",
        "numberOfBytes": "32"
      },
      "t_bool": {
        "encoding": "inplace",
        "label": "bool",
        "numberOfBytes": "1"
      },
      "t_contract(IHooks)8046": {
        "encoding": "inplace",
        "label": "contract IHooks",
        "numberOfBytes": "20"
      },
      "t_mapping(t_address,t_bool)": {
        "encoding": "mapping",
        "key": "t_address",
        "label": "mapping(address => bool)",
        "numberOfBytes": "32",
        "value": "t_bool"
      },
      "t_mapping(t_address,t_mapping(t_address,t_bool))": {
        "encoding": "mapping",
        "key": "t_address",
        "label": "mapping(address => mapping(address => bool))",
        "numberOfBytes": "32",
        "value": "t_mapping(t_address,t_bool)"
      },
      "t_mapping(t_address,t_mapping(t_userDefinedValueType(Currency)8850,t_uint256))": {
        "encoding": "mapping",
        "key": "t_address",
        "label": "mapping(address => mapping(Currency => uint256))",
        "numberOfBytes": "32",
        "value": "t_mapping(t_userDefinedValueType(Currency)8850,t_uint256)"
      },
      "t_mapping(t_address,t_uint256)": {
        "encoding": "mapping",
        "key": "t_address",
        "label": "mapping(address => uint256)",
        "numberOfBytes": "32",
        "value": "t_uint256"
      },
      "t_mapping(t_uint24,t_uint256)": {
        "encoding": "mapping",
        "key": "t_uint24",
        "label": "mapping(uint24 => uint256)",
        "numberOfBytes": "32",
        "value": "t_uint256"
      },
      "t_mapping(t_uint256,t_address)": {
        "encoding": "mapping",
        "key": "t_uint256",
        "label": "mapping(uint256 => address)",
        "numberOfBytes": "32",
        "value": "t_address"
      },
      "t_mapping(t_uint256,t_uint256)": {
        "encoding": "mapping",
        "key": "t_uint256",
        "label": "mapping(uint256 => uint256)",
        "numberOfBytes": "32",
        "value": "t_uint256"
      },
      "t_mapping(t_userDefinedValueType(BookId)8823,t_struct(State)8159_storage)": {
        "encoding": "mapping",
        "key": "t_userDefinedValueType(BookId)8823",
        "label": "mapping(BookId => struct Book.State)",
        "numberOfBytes": "32",
        "value": "t_struct(State)8159_storage"
      },
      "t_mapping(t_userDefinedValueType(Currency)8850,t_uint256)": {
        "encoding": "mapping",
        "key": "t_userDefinedValueType(Currency)8850",
        "label": "mapping(Currency => uint256)",
        "numberOfBytes": "32",
        "value": "t_uint256"
      },
      "t_mapping(t_userDefinedValueType(Tick)13751,t_struct(Queue)8141_storage)": {
        "encoding": "mapping",
        "key": "t_userDefinedValueType(Tick)13751",
        "label": "mapping(Tick => struct Book.Queue)",
        "numberOfBytes": "32",
        "value": "t_struct(Queue)8141_storage"
      },
      "t_string_storage": {
        "encoding": "bytes",
        "label": "string",
        "numberOfBytes": "32"
      },
      "t_struct(BookKey)7510_storage": {
        "encoding": "inplace",
        "label": "struct IBookManager.BookKey",
        "members": [
          {
            "astId": 7495,
            "contract": "src/BookManager.sol:BookManager",
            "label": "base",
            "offset": 0,
            "slot": "0",
            "type": "t_userDefinedValueType(Currency)8850"
          },
          {
            "astId": 7497,
            "contract": "src/BookManager.sol:BookManager",
            "label": "unitSize",
            "offset": 20,
            "slot": "0",
            "type": "t_uint64"
          },
          {
            "astId": 7500,
            "contract": "src/BookManager.sol:BookManager",
            "label": "quote",
            "offset": 0,
            "slot": "1",
            "type": "t_userDefinedValueType(Currency)8850"
          },
          {
            "astId": 7503,
            "contract": "src/BookManager.sol:BookManager",
            "label": "makerPolicy",
            "offset": 20,
            "slot": "1",
            "type": "t_userDefinedValueType(FeePolicy)10523"
          },
          {
            "astId": 7506,
            "contract": "src/BookManager.sol:BookManager",
            "label": "hooks",
            "offset": 0,
            "slot": "2",
            "type": "t_contract(IHooks)8046"
          },
          {
            "astId": 7509,
            "contract": "src/BookManager.sol:BookManager",
            "label": "takerPolicy",
            "offset": 20,
            "slot": "2",
            "type": "t_userDefinedValueType(FeePolicy)10523"
          }
        ],
        "numberOfBytes": "96"
      },
      "t_struct(Core)12874_storage": {
        "encoding": "inplace",
        "label": "struct SegmentedSegmentTree.Core",
        "members": [
          {
            "astId": 12873,
            "contract": "src/BookManager.sol:BookManager",
            "label": "layers",
            "offset": 0,
            "slot": "0",
            "type": "t_array(t_mapping(t_uint256,t_uint256))4_storage"
          }
        ],
        "numberOfBytes": "128"
      },
      "t_struct(Order)8133_storage": {
        "encoding": "inplace",
        "label": "struct Book.Order",
        "members": [
          {
            "astId": 8130,
            "contract": "src/BookManager.sol:BookManager",
            "label": "provider",
            "offset": 0,
            "slot": "0",
            "type": "t_address"
          },
          {
            "astId": 8132,
            "contract": "src/BookManager.sol:BookManager",
            "label": "pending",
            "offset": 20,
            "slot": "0",
            "type": "t_uint64"
          }
        ],
        "numberOfBytes": "32"
      },
      "t_struct(Queue)8141_storage": {
        "encoding": "inplace",
        "label": "struct Book.Queue",
        "members": [
          {
            "astId": 8136,
            "contract": "src/BookManager.sol:BookManager",
            "label": "tree",
            "offset": 0,
            "slot": "0",
            "type": "t_struct(Core)12874_storage"
          },
          {
            "astId": 8140,
            "contract": "src/BookManager.sol:BookManager",
            "label": "orders",
            "offset": 0,
            "slot": "4",
            "type": "t_array(t_struct(Order)8133_storage)dyn_storage"
          }
        ],
        "numberOfBytes": "160"
      },
      "t_struct(State)8159_storage": {
        "encoding": "inplace",
        "label": "struct Book.State",
        "members": [
          {
            "astId": 8144,
            "contract": "src/BookManager.sol:BookManager",
            "label": "key",
            "offset": 0,
            "slot": "0",
            "type": "t_struct(BookKey)7510_storage"
          },
          {
            "astId": 8150,
            "contract": "src/BookManager.sol:BookManager",
            "label": "queues",
            "offset": 0,
            "slot": "3",
            "type": "t_mapping(t_userDefinedValueType(Tick)13751,t_struct(Queue)8141_storage)"
          },
          {
            "astId": 8154,
            "contract": "src/BookManager.sol:BookManager",
            "label": "tickBitmap",
            "offset": 0,
            "slot": "4",
            "type": "t_mapping(t_uint256,t_uint256)"
          },
          {
            "astId": 8158,
            "contract": "src/BookManager.sol:BookManager",
            "label": "totalClaimableOf",
            "offset": 0,
            "slot": "5",
            "type": "t_mapping(t_uint24,t_uint256)"
          }
        ],
        "numberOfBytes": "192"
      },
      "t_uint24": {
        "encoding": "inplace",
        "label": "uint24",
        "numberOfBytes": "3"
      },
      "t_uint256": {
        "encoding": "inplace",
        "label": "uint256",
        "numberOfBytes": "32"
      },
      "t_uint64": {
        "encoding": "inplace",
        "label": "uint64",
        "numberOfBytes": "8"
      },
      "t_userDefinedValueType(BookId)8823": {
        "encoding": "inplace",
        "label": "BookId",
        "numberOfBytes": "24"
      },
      "t_userDefinedValueType(Currency)8850": {
        "encoding": "inplace",
        "label": "Currency",
        "numberOfBytes": "20"
      },
      "t_userDefinedValueType(FeePolicy)10523": {
        "encoding": "inplace",
        "label": "FeePolicy",
        "numberOfBytes": "3"
      },
      "t_userDefinedValueType(Tick)13751": {
        "encoding": "inplace",
        "label": "Tick",
        "numberOfBytes": "3"
      }
    }
  }
}